{
  "_format": "hh-sol-artifact-1",
  "contractName": "Donation",
  "sourceName": "contracts/example/Donation.sol",
  "abi": [
    {
      "inputs": [],
      "stateMutability": "nonpayable",
      "type": "constructor"
    },
    {
      "anonymous": false,
      "inputs": [
        {
          "indexed": false,
          "internalType": "address",
          "name": "_to",
          "type": "address"
        },
        {
          "indexed": false,
          "internalType": "uint256",
          "name": "_amount",
          "type": "uint256"
        }
      ],
      "name": "fundMoved",
      "type": "event"
    },
    {
      "inputs": [],
      "name": "donate",
      "outputs": [],
      "stateMutability": "payable",
      "type": "function"
    },
    {
      "inputs": [
        {
          "internalType": "address payable",
          "name": "_to",
          "type": "address"
        },
        {
          "internalType": "uint256",
          "name": "_amount",
          "type": "uint256"
        }
      ],
      "name": "moveFund",
      "outputs": [],
      "stateMutability": "nonpayable",
      "type": "function"
    }
  ],
  "bytecode": "0x608060405234801561001057600080fd5b50336000806101000a81548173ffffffffffffffffffffffffffffffffffffffff021916908373ffffffffffffffffffffffffffffffffffffffff16021790555061037a806100606000396000f3fe6080604052600436106100295760003560e01c8063b01217f41461002e578063ed88c68e14610057575b600080fd5b34801561003a57600080fd5b5061005560048036038101906100509190610218565b610061565b005b61005f610154565b005b60008054906101000a900473ffffffffffffffffffffffffffffffffffffffff1673ffffffffffffffffffffffffffffffffffffffff163373ffffffffffffffffffffffffffffffffffffffff1614156101505760004790506000829050818111610148578373ffffffffffffffffffffffffffffffffffffffff166108fc839081150290604051600060405180830381858888f193505050501561013e577fda69a3259755abc8e7c16903db0bc5573df98cb30e1cf71216f24466a42a42a18482604051610131929190610276565b60405180910390a1610143565b600080fd5b61014d565b600080fd5b50505b5050565b61015d3461015f565b565b6001339080600181540180825580915050600190039060005260206000200160009091909190916101000a81548173ffffffffffffffffffffffffffffffffffffffff021916908373ffffffffffffffffffffffffffffffffffffffff160217905550600281908060018154018082558091505060019003906000526020600020016000909190919091505550565b6000813590506101fd81610316565b92915050565b6000813590506102128161032d565b92915050565b6000806040838503121561022f5761022e610311565b5b600061023d858286016101ee565b925050602061024e85828601610203565b9150509250929050565b610261816102db565b82525050565b610270816102d1565b82525050565b600060408201905061028b6000830185610258565b6102986020830184610267565b9392505050565b60006102aa826102b1565b9050919050565b600073ffffffffffffffffffffffffffffffffffffffff82169050919050565b6000819050919050565b60006102e6826102ed565b9050919050565b60006102f8826102ff565b9050919050565b600061030a826102b1565b9050919050565b600080fd5b61031f8161029f565b811461032a57600080fd5b50565b610336816102d1565b811461034157600080fd5b5056fea2646970667358221220be16a035080a96366c5bd17c1496c366ee0f0f06f22959de090c4261af12be5d64736f6c63430008070033",
  "linkReferences": {},
  "deployedLinkReferences": {}
}