{
	"custom/ballot.sol": {
		"Ballot": {
			"abi": [
				{
					"inputs": [
						{
							"internalType": "bytes32[]",
							"name": "proposalNames",
							"type": "bytes32[]"
						}
					],
					"stateMutability": "nonpayable",
					"type": "constructor"
				},
				{
					"inputs": [],
					"name": "chairperson",
					"outputs": [
						{
							"internalType": "address",
							"name": "",
							"type": "address"
						}
					],
					"stateMutability": "view",
					"type": "function"
				},
				{
					"inputs": [
						{
							"internalType": "address",
							"name": "to",
							"type": "address"
						}
					],
					"name": "delegate",
					"outputs": [],
					"stateMutability": "nonpayable",
					"type": "function"
				},
				{
					"inputs": [
						{
							"internalType": "address",
							"name": "voter",
							"type": "address"
						}
					],
					"name": "giveRightToVote",
					"outputs": [],
					"stateMutability": "nonpayable",
					"type": "function"
				},
				{
					"inputs": [
						{
							"internalType": "uint256",
							"name": "",
							"type": "uint256"
						}
					],
					"name": "proposals",
					"outputs": [
						{
							"internalType": "bytes32",
							"name": "name",
							"type": "bytes32"
						},
						{
							"internalType": "uint256",
							"name": "voteCount",
							"type": "uint256"
						}
					],
					"stateMutability": "view",
					"type": "function"
				},
				{
					"inputs": [
						{
							"internalType": "address",
							"name": "",
							"type": "address"
						}
					],
					"name": "voters",
					"outputs": [
						{
							"internalType": "uint8",
							"name": "weight",
							"type": "uint8"
						},
						{
							"internalType": "bool",
							"name": "voted",
							"type": "bool"
						},
						{
							"internalType": "address",
							"name": "delegate",
							"type": "address"
						},
						{
							"internalType": "uint8",
							"name": "vote",
							"type": "uint8"
						}
					],
					"stateMutability": "view",
					"type": "function"
				}
			],
			"devdoc": {
				"kind": "dev",
				"methods": {},
				"version": 1
			},
			"evm": {
				"assembly": "    /* \"custom/ballot.sol\":88:2463  contract Ballot{\r... */\n  mstore(0x40, 0x80)\n    /* \"custom/ballot.sol\":581:949  constructor(bytes32[] memory proposalNames){\r... */\n  callvalue\n  dup1\n  iszero\n  tag_1\n  jumpi\n  0x00\n  dup1\n  revert\ntag_1:\n  pop\n  mload(0x40)\n  sub(codesize, bytecodeSize)\n  dup1\n  bytecodeSize\n  dup4\n  codecopy\n  dup2\n  add\n  0x40\n  dup2\n  swap1\n  mstore\n  tag_2\n  swap2\n  tag_3\n  jump\t// in\ntag_2:\n    /* \"custom/ballot.sol\":635:646  chairperson */\n  0x00\n    /* \"custom/ballot.sol\":635:659  chairperson = msg.sender */\n  dup1\n  sload\n  not(sub(exp(0x02, 0xa0), 0x01))\n  and\n    /* \"custom/ballot.sol\":649:659  msg.sender */\n  caller\n    /* \"custom/ballot.sol\":635:659  chairperson = msg.sender */\n  swap1\n  dup2\n  or\n  dup3\n  sstore\n    /* \"custom/ballot.sol\":672:691  voters[chairperson] */\n  dup2\n  mstore\n    /* \"custom/ballot.sol\":635:659  chairperson = msg.sender */\n  0x01\n    /* \"custom/ballot.sol\":672:691  voters[chairperson] */\n  0x20\n  dup2\n  swap1\n  mstore\n  0x40\n  dup3\n  keccak256\n    /* \"custom/ballot.sol\":672:702  voters[chairperson].weight = 1 */\n  dup1\n  sload\n  not(0xff)\n  and\n  swap1\n  swap2\n  or\n  swap1\n  sstore\n    /* \"custom/ballot.sol\":754:942  for (uint i = 0; i < proposalNames.length; i++) {\r... */\ntag_6:\n    /* \"custom/ballot.sol\":775:788  proposalNames */\n  dup2\n    /* \"custom/ballot.sol\":775:795  proposalNames.length */\n  mload\n    /* \"custom/ballot.sol\":771:772  i */\n  dup2\n    /* \"custom/ballot.sol\":771:795  i < proposalNames.length */\n  lt\n    /* \"custom/ballot.sol\":754:942  for (uint i = 0; i < proposalNames.length; i++) {\r... */\n  iszero\n  tag_7\n  jumpi\n    /* \"custom/ballot.sol\":817:826  proposals */\n  0x02\n    /* \"custom/ballot.sol\":832:929  Proposal({\r... */\n  mload(0x40)\n  dup1\n  0x40\n  add\n  0x40\n  mstore\n  dup1\n    /* \"custom/ballot.sol\":866:879  proposalNames */\n  dup5\n    /* \"custom/ballot.sol\":880:881  i */\n  dup5\n    /* \"custom/ballot.sol\":866:882  proposalNames[i] */\n  dup2\n  mload\n  dup2\n  lt\n  tag_10\n  jumpi\n  tag_10\n  tag_11\n  jump\t// in\ntag_10:\n  0x20\n  swap1\n  dup2\n  mul\n  swap2\n  swap1\n  swap2\n  add\n  dup2\n  add\n  mload\n    /* \"custom/ballot.sol\":832:929  Proposal({\r... */\n  dup3\n  mstore\n    /* \"custom/ballot.sol\":912:913  0 */\n  0x00\n    /* \"custom/ballot.sol\":832:929  Proposal({\r... */\n  swap2\n  dup2\n  add\n  dup3\n  swap1\n  mstore\n    /* \"custom/ballot.sol\":817:930  proposals.push(Proposal({\r... */\n  dup4\n  sload\n  0x01\n  dup2\n  dup2\n  add\n  dup7\n  sstore\n  swap5\n  dup4\n  mstore\n  swap2\n  dup2\n  swap1\n  keccak256\n  dup4\n  mload\n  0x02\n  swap1\n  swap4\n  mul\n  add\n  swap2\n  dup3\n  sstore\n  swap2\n  swap1\n  swap2\n  add\n  mload\n  swap2\n  add\n  sstore\n    /* \"custom/ballot.sol\":797:800  i++ */\n  dup1\n  tag_13\n  dup2\n  tag_14\n  jump\t// in\ntag_13:\n  swap2\n  pop\n  pop\n    /* \"custom/ballot.sol\":754:942  for (uint i = 0; i < proposalNames.length; i++) {\r... */\n  jump(tag_6)\ntag_7:\n  pop\n    /* \"custom/ballot.sol\":581:949  constructor(bytes32[] memory proposalNames){\r... */\n  pop\n    /* \"custom/ballot.sol\":88:2463  contract Ballot{\r... */\n  jump(tag_16)\n    /* \"#utility.yul\":14:1131   */\ntag_3:\n    /* \"#utility.yul\":109:115   */\n  0x00\n    /* \"#utility.yul\":140:142   */\n  0x20\n    /* \"#utility.yul\":183:185   */\n  dup1\n    /* \"#utility.yul\":171:180   */\n  dup4\n    /* \"#utility.yul\":162:169   */\n  dup6\n    /* \"#utility.yul\":158:181   */\n  sub\n    /* \"#utility.yul\":154:186   */\n  slt\n    /* \"#utility.yul\":151:203   */\n  iszero\n  tag_18\n  jumpi\n    /* \"#utility.yul\":199:200   */\n  0x00\n    /* \"#utility.yul\":196:197   */\n  dup1\n    /* \"#utility.yul\":189:201   */\n  revert\n    /* \"#utility.yul\":151:203   */\ntag_18:\n    /* \"#utility.yul\":232:241   */\n  dup3\n    /* \"#utility.yul\":226:242   */\n  mload\n    /* \"#utility.yul\":261:279   */\n  0xffffffffffffffff\n    /* \"#utility.yul\":302:304   */\n  dup1\n    /* \"#utility.yul\":294:300   */\n  dup3\n    /* \"#utility.yul\":291:305   */\n  gt\n    /* \"#utility.yul\":288:322   */\n  iszero\n  tag_19\n  jumpi\n    /* \"#utility.yul\":318:319   */\n  0x00\n    /* \"#utility.yul\":315:316   */\n  dup1\n    /* \"#utility.yul\":308:320   */\n  revert\n    /* \"#utility.yul\":288:322   */\ntag_19:\n    /* \"#utility.yul\":356:362   */\n  dup2\n    /* \"#utility.yul\":345:354   */\n  dup6\n    /* \"#utility.yul\":341:363   */\n  add\n    /* \"#utility.yul\":331:363   */\n  swap2\n  pop\n    /* \"#utility.yul\":401:408   */\n  dup6\n    /* \"#utility.yul\":394:398   */\n  0x1f\n    /* \"#utility.yul\":390:392   */\n  dup4\n    /* \"#utility.yul\":386:399   */\n  add\n    /* \"#utility.yul\":382:409   */\n  slt\n    /* \"#utility.yul\":372:427   */\n  tag_20\n  jumpi\n    /* \"#utility.yul\":423:424   */\n  0x00\n    /* \"#utility.yul\":420:421   */\n  dup1\n    /* \"#utility.yul\":413:425   */\n  revert\n    /* \"#utility.yul\":372:427   */\ntag_20:\n    /* \"#utility.yul\":452:454   */\n  dup2\n    /* \"#utility.yul\":446:455   */\n  mload\n    /* \"#utility.yul\":474:476   */\n  dup2\n    /* \"#utility.yul\":470:472   */\n  dup2\n    /* \"#utility.yul\":467:477   */\n  gt\n    /* \"#utility.yul\":464:500   */\n  iszero\n  tag_22\n  jumpi\n    /* \"#utility.yul\":480:498   */\n  tag_22\n  tag_23\n  jump\t// in\ntag_22:\n    /* \"#utility.yul\":527:529   */\n  dup4\n    /* \"#utility.yul\":523:525   */\n  dup2\n    /* \"#utility.yul\":519:530   */\n  mul\n    /* \"#utility.yul\":559:561   */\n  0x40\n    /* \"#utility.yul\":553:562   */\n  mload\n    /* \"#utility.yul\":622:624   */\n  0x1f\n    /* \"#utility.yul\":618:625   */\n  not\n    /* \"#utility.yul\":613:615   */\n  0x3f\n    /* \"#utility.yul\":609:611   */\n  dup4\n    /* \"#utility.yul\":605:616   */\n  add\n    /* \"#utility.yul\":601:626   */\n  and\n    /* \"#utility.yul\":593:599   */\n  dup2\n    /* \"#utility.yul\":589:627   */\n  add\n    /* \"#utility.yul\":677:683   */\n  dup2\n    /* \"#utility.yul\":665:675   */\n  dup2\n    /* \"#utility.yul\":662:684   */\n  lt\n    /* \"#utility.yul\":657:659   */\n  dup6\n    /* \"#utility.yul\":645:655   */\n  dup3\n    /* \"#utility.yul\":642:660   */\n  gt\n    /* \"#utility.yul\":639:685   */\n  or\n    /* \"#utility.yul\":636:708   */\n  iszero\n  tag_25\n  jumpi\n    /* \"#utility.yul\":688:706   */\n  tag_25\n  tag_23\n  jump\t// in\ntag_25:\n    /* \"#utility.yul\":724:726   */\n  0x40\n    /* \"#utility.yul\":717:739   */\n  mstore\n    /* \"#utility.yul\":774:792   */\n  dup3\n  dup2\n  mstore\n    /* \"#utility.yul\":808:823   */\n  dup6\n  dup2\n  add\n  swap4\n  pop\n    /* \"#utility.yul\":843:854   */\n  dup5\n  dup7\n  add\n    /* \"#utility.yul\":873:884   */\n  dup3\n  dup7\n  add\n    /* \"#utility.yul\":869:889   */\n  dup8\n  add\n    /* \"#utility.yul\":866:899   */\n  dup11\n  lt\n    /* \"#utility.yul\":863:916   */\n  iszero\n  tag_26\n  jumpi\n    /* \"#utility.yul\":912:913   */\n  0x00\n    /* \"#utility.yul\":909:910   */\n  dup1\n    /* \"#utility.yul\":902:914   */\n  revert\n    /* \"#utility.yul\":863:916   */\ntag_26:\n    /* \"#utility.yul\":934:935   */\n  0x00\n    /* \"#utility.yul\":925:935   */\n  swap6\n  pop\n    /* \"#utility.yul\":944:1100   */\ntag_27:\n    /* \"#utility.yul\":958:960   */\n  dup4\n    /* \"#utility.yul\":955:956   */\n  dup7\n    /* \"#utility.yul\":952:961   */\n  lt\n    /* \"#utility.yul\":944:1100   */\n  iszero\n  tag_29\n  jumpi\n    /* \"#utility.yul\":1015:1025   */\n  dup1\n  mload\n    /* \"#utility.yul\":1003:1026   */\n  dup6\n  mstore\n    /* \"#utility.yul\":976:977   */\n  0x01\n    /* \"#utility.yul\":969:978   */\n  swap6\n  swap1\n  swap6\n  add\n  swap5\n    /* \"#utility.yul\":1046:1058   */\n  swap4\n  dup7\n  add\n  swap4\n    /* \"#utility.yul\":1078:1090   */\n  dup7\n  add\n    /* \"#utility.yul\":944:1100   */\n  jump(tag_27)\ntag_29:\n  pop\n    /* \"#utility.yul\":1119:1125   */\n  swap9\n    /* \"#utility.yul\":14:1131   */\n  swap8\n  pop\n  pop\n  pop\n  pop\n  pop\n  pop\n  pop\n  pop\n  jump\t// out\n    /* \"#utility.yul\":1136:1425   */\ntag_14:\n    /* \"#utility.yul\":1175:1178   */\n  0x00\n  not(0x00)\n    /* \"#utility.yul\":1196:1213   */\n  dup3\n  eq\n    /* \"#utility.yul\":1193:1390   */\n  iszero\n  tag_31\n  jumpi\n    /* \"#utility.yul\":1246:1323   */\n  0x4e487b7100000000000000000000000000000000000000000000000000000000\n    /* \"#utility.yul\":1243:1244   */\n  0x00\n    /* \"#utility.yul\":1236:1324   */\n  mstore\n    /* \"#utility.yul\":1347:1351   */\n  0x11\n    /* \"#utility.yul\":1344:1345   */\n  0x04\n    /* \"#utility.yul\":1337:1352   */\n  mstore\n    /* \"#utility.yul\":1375:1379   */\n  0x24\n    /* \"#utility.yul\":1372:1373   */\n  0x00\n    /* \"#utility.yul\":1365:1380   */\n  revert\n    /* \"#utility.yul\":1193:1390   */\ntag_31:\n  pop\n    /* \"#utility.yul\":1417:1418   */\n  0x01\n    /* \"#utility.yul\":1406:1419   */\n  add\n  swap1\n    /* \"#utility.yul\":1136:1425   */\n  jump\t// out\n    /* \"#utility.yul\":1430:1614   */\ntag_11:\n    /* \"#utility.yul\":1482:1559   */\n  0x4e487b7100000000000000000000000000000000000000000000000000000000\n    /* \"#utility.yul\":1479:1480   */\n  0x00\n    /* \"#utility.yul\":1472:1560   */\n  mstore\n    /* \"#utility.yul\":1579:1583   */\n  0x32\n    /* \"#utility.yul\":1576:1577   */\n  0x04\n    /* \"#utility.yul\":1569:1584   */\n  mstore\n    /* \"#utility.yul\":1603:1607   */\n  0x24\n    /* \"#utility.yul\":1600:1601   */\n  0x00\n    /* \"#utility.yul\":1593:1608   */\n  revert\n    /* \"#utility.yul\":1619:1803   */\ntag_23:\n    /* \"#utility.yul\":1671:1748   */\n  0x4e487b7100000000000000000000000000000000000000000000000000000000\n    /* \"#utility.yul\":1668:1669   */\n  0x00\n    /* \"#utility.yul\":1661:1749   */\n  mstore\n    /* \"#utility.yul\":1768:1772   */\n  0x41\n    /* \"#utility.yul\":1765:1766   */\n  0x04\n    /* \"#utility.yul\":1758:1773   */\n  mstore\n    /* \"#utility.yul\":1792:1796   */\n  0x24\n    /* \"#utility.yul\":1789:1790   */\n  0x00\n    /* \"#utility.yul\":1782:1797   */\n  revert\n    /* \"#utility.yul\":1619:1803   */\ntag_16:\n    /* \"custom/ballot.sol\":88:2463  contract Ballot{\r... */\n  dataSize(sub_0)\n  dup1\n  dataOffset(sub_0)\n  0x00\n  codecopy\n  0x00\n  return\nstop\n\nsub_0: assembly {\n        /* \"custom/ballot.sol\":88:2463  contract Ballot{\r... */\n      mstore(0x40, 0x80)\n      callvalue\n      dup1\n      iszero\n      tag_1\n      jumpi\n      0x00\n      dup1\n      revert\n    tag_1:\n      pop\n      jumpi(tag_2, lt(calldatasize, 0x04))\n      div(calldataload(0x00), 0x0100000000000000000000000000000000000000000000000000000000)\n      0x013cf08b\n      dup2\n      eq\n      tag_3\n      jumpi\n      dup1\n      0x2e4176cf\n      eq\n      tag_4\n      jumpi\n      dup1\n      0x5c19a95c\n      eq\n      tag_5\n      jumpi\n      dup1\n      0x9e7b8d61\n      eq\n      tag_6\n      jumpi\n      dup1\n      0xa3ec138d\n      eq\n      tag_7\n      jumpi\n    tag_2:\n      0x00\n      dup1\n      revert\n        /* \"custom/ballot.sol\":545:572  Proposal[] public proposals */\n    tag_3:\n      tag_8\n      tag_9\n      calldatasize\n      0x04\n      tag_10\n      jump\t// in\n    tag_9:\n      tag_11\n      jump\t// in\n    tag_8:\n      0x40\n      dup1\n      mload\n        /* \"#utility.yul\":918:943   */\n      swap3\n      dup4\n      mstore\n        /* \"#utility.yul\":974:976   */\n      0x20\n        /* \"#utility.yul\":959:977   */\n      dup4\n      add\n        /* \"#utility.yul\":952:986   */\n      swap2\n      swap1\n      swap2\n      mstore\n        /* \"#utility.yul\":891:909   */\n      add\n        /* \"custom/ballot.sol\":545:572  Proposal[] public proposals */\n    tag_12:\n      mload(0x40)\n      dup1\n      swap2\n      sub\n      swap1\n      return\n        /* \"custom/ballot.sol\":436:462  address public chairperson */\n    tag_4:\n      sload(0x00)\n      tag_14\n      swap1\n      sub(exp(0x02, 0xa0), 0x01)\n      and\n      dup2\n      jump\n    tag_14:\n      mload(0x40)\n      sub(exp(0x02, 0xa0), 0x01)\n        /* \"#utility.yul\":677:732   */\n      swap1\n      swap2\n      and\n        /* \"#utility.yul\":659:733   */\n      dup2\n      mstore\n        /* \"#utility.yul\":647:649   */\n      0x20\n        /* \"#utility.yul\":632:650   */\n      add\n        /* \"custom/ballot.sol\":436:462  address public chairperson */\n      tag_12\n        /* \"#utility.yul\":513:739   */\n      jump\n        /* \"custom/ballot.sol\":1326:2456  function delegate(address to) external {\r... */\n    tag_5:\n      tag_18\n      tag_19\n      calldatasize\n      0x04\n      tag_20\n      jump\t// in\n    tag_19:\n      tag_21\n      jump\t// in\n    tag_18:\n      stop\n        /* \"custom/ballot.sol\":1006:1296  function giveRightToVote(address voter) external{\r... */\n    tag_6:\n      tag_18\n      tag_23\n      calldatasize\n      0x04\n      tag_20\n      jump\t// in\n    tag_23:\n      tag_24\n      jump\t// in\n        /* \"custom/ballot.sol\":471:507  mapping(address=>Voter)public voters */\n    tag_7:\n      tag_25\n      tag_26\n      calldatasize\n      0x04\n      tag_20\n      jump\t// in\n    tag_26:\n      mstore(0x20, 0x01)\n      0x00\n      swap1\n      dup2\n      mstore\n      0x40\n      swap1\n      keccak256\n      sload\n      0xff\n      dup1\n      dup3\n      and\n      swap2\n      0x0100\n      dup2\n      div\n      dup3\n      and\n      swap2\n      sub(exp(0x02, 0xa0), 0x01)\n      0x010000\n      dup4\n      div\n      and\n      swap2\n      0x0100000000000000000000000000000000000000000000\n      swap1\n      div\n      and\n      dup5\n      jump\n    tag_25:\n      0x40\n      dup1\n      mload\n        /* \"#utility.yul\":3066:3070   */\n      0xff\n        /* \"#utility.yul\":3054:3071   */\n      swap6\n      dup7\n      and\n        /* \"#utility.yul\":3036:3072   */\n      dup2\n      mstore\n        /* \"#utility.yul\":3115:3129   */\n      swap4\n      iszero\n        /* \"#utility.yul\":3108:3130   */\n      iszero\n        /* \"#utility.yul\":3103:3105   */\n      0x20\n        /* \"#utility.yul\":3088:3106   */\n      dup6\n      add\n        /* \"#utility.yul\":3081:3131   */\n      mstore\n      sub(exp(0x02, 0xa0), 0x01)\n        /* \"#utility.yul\":3167:3222   */\n      swap1\n      swap3\n      and\n        /* \"#utility.yul\":3147:3165   */\n      swap2\n      dup4\n      add\n        /* \"#utility.yul\":3140:3223   */\n      swap2\n      swap1\n      swap2\n      mstore\n        /* \"#utility.yul\":3259:3276   */\n      swap2\n      swap1\n      swap2\n      and\n        /* \"#utility.yul\":3254:3256   */\n      0x60\n        /* \"#utility.yul\":3239:3257   */\n      dup3\n      add\n        /* \"#utility.yul\":3232:3277   */\n      mstore\n        /* \"#utility.yul\":3023:3026   */\n      0x80\n        /* \"#utility.yul\":3008:3027   */\n      add\n        /* \"custom/ballot.sol\":471:507  mapping(address=>Voter)public voters */\n      tag_12\n        /* \"#utility.yul\":2819:3283   */\n      jump\n        /* \"custom/ballot.sol\":545:572  Proposal[] public proposals */\n    tag_11:\n      0x02\n      dup2\n      dup2\n      sload\n      dup2\n      lt\n      tag_30\n      jumpi\n      0x00\n      dup1\n      revert\n    tag_30:\n      0x00\n      swap2\n      dup3\n      mstore\n      0x20\n      swap1\n      swap2\n      keccak256\n      0x02\n      swap1\n      swap2\n      mul\n      add\n      dup1\n      sload\n      0x01\n      swap1\n      swap2\n      add\n      sload\n      swap1\n      swap2\n      pop\n      dup3\n      jump\t// out\n        /* \"custom/ballot.sol\":1326:2456  function delegate(address to) external {\r... */\n    tag_21:\n        /* \"custom/ballot.sol\":1542:1552  msg.sender */\n      caller\n        /* \"custom/ballot.sol\":1512:1532  Voter storage sender */\n      0x00\n        /* \"custom/ballot.sol\":1535:1553  voters[msg.sender] */\n      swap1\n      dup2\n      mstore\n        /* \"custom/ballot.sol\":1535:1541  voters */\n      0x01\n        /* \"custom/ballot.sol\":1535:1553  voters[msg.sender] */\n      0x20\n      mstore\n      0x40\n      swap1\n      keccak256\n        /* \"custom/ballot.sol\":1572:1585  sender.weight */\n      dup1\n      sload\n      0xff\n      and\n        /* \"custom/ballot.sol\":1564:1620  require(sender.weight != 0,\"You have no right to vote.\") */\n      tag_33\n      jumpi\n      mload(0x40)\n      mul(0x461bcd, exp(0x02, 0xe5))\n      dup2\n      mstore\n        /* \"#utility.yul\":2307:2309   */\n      0x20\n        /* \"custom/ballot.sol\":1564:1620  require(sender.weight != 0,\"You have no right to vote.\") */\n      0x04\n      dup3\n      add\n        /* \"#utility.yul\":2289:2310   */\n      mstore\n        /* \"#utility.yul\":2346:2348   */\n      0x1a\n        /* \"#utility.yul\":2326:2344   */\n      0x24\n      dup3\n      add\n        /* \"#utility.yul\":2319:2349   */\n      mstore\n        /* \"#utility.yul\":2385:2413   */\n      0x596f752068617665206e6f20726967687420746f20766f74652e000000000000\n        /* \"#utility.yul\":2365:2383   */\n      0x44\n      dup3\n      add\n        /* \"#utility.yul\":2358:2414   */\n      mstore\n        /* \"#utility.yul\":2431:2449   */\n      0x64\n      add\n        /* \"custom/ballot.sol\":1564:1620  require(sender.weight != 0,\"You have no right to vote.\") */\n    tag_34:\n      mload(0x40)\n      dup1\n      swap2\n      sub\n      swap1\n      revert\n    tag_33:\n        /* \"custom/ballot.sol\":1640:1652  sender.voted */\n      dup1\n      sload\n      0x0100\n      swap1\n      div\n      0xff\n      and\n        /* \"custom/ballot.sol\":1639:1652  !sender.voted */\n      iszero\n        /* \"custom/ballot.sol\":1631:1674  require(!sender.voted,\"You already voted.\") */\n      tag_36\n      jumpi\n      mload(0x40)\n      mul(0x461bcd, exp(0x02, 0xe5))\n      dup2\n      mstore\n        /* \"#utility.yul\":1551:1553   */\n      0x20\n        /* \"custom/ballot.sol\":1631:1674  require(!sender.voted,\"You already voted.\") */\n      0x04\n      dup3\n      add\n        /* \"#utility.yul\":1533:1554   */\n      mstore\n        /* \"#utility.yul\":1590:1592   */\n      0x12\n        /* \"#utility.yul\":1570:1588   */\n      0x24\n      dup3\n      add\n        /* \"#utility.yul\":1563:1593   */\n      mstore\n        /* \"#utility.yul\":1629:1649   */\n      0x596f7520616c726561647920766f7465642e0000000000000000000000000000\n        /* \"#utility.yul\":1609:1627   */\n      0x44\n      dup3\n      add\n        /* \"#utility.yul\":1602:1650   */\n      mstore\n        /* \"#utility.yul\":1667:1685   */\n      0x64\n      add\n        /* \"custom/ballot.sol\":1631:1674  require(!sender.voted,\"You already voted.\") */\n      tag_34\n        /* \"#utility.yul\":1349:1691   */\n      jump\n        /* \"custom/ballot.sol\":1631:1674  require(!sender.voted,\"You already voted.\") */\n    tag_36:\n      sub(exp(0x02, 0xa0), 0x01)\n        /* \"custom/ballot.sol\":1693:1709  to != msg.sender */\n      dup3\n      and\n        /* \"custom/ballot.sol\":1699:1709  msg.sender */\n      caller\n        /* \"custom/ballot.sol\":1693:1709  to != msg.sender */\n      eq\n      iszero\n        /* \"custom/ballot.sol\":1685:1743  require(to != msg.sender,\"Self-delegation is disallowed.\") */\n      tag_39\n      jumpi\n      mload(0x40)\n      mul(0x461bcd, exp(0x02, 0xe5))\n      dup2\n      mstore\n        /* \"#utility.yul\":2662:2664   */\n      0x20\n        /* \"custom/ballot.sol\":1685:1743  require(to != msg.sender,\"Self-delegation is disallowed.\") */\n      0x04\n      dup3\n      add\n        /* \"#utility.yul\":2644:2665   */\n      mstore\n        /* \"#utility.yul\":2701:2703   */\n      0x1e\n        /* \"#utility.yul\":2681:2699   */\n      0x24\n      dup3\n      add\n        /* \"#utility.yul\":2674:2704   */\n      mstore\n        /* \"#utility.yul\":2740:2772   */\n      0x53656c662d64656c65676174696f6e20697320646973616c6c6f7765642e0000\n        /* \"#utility.yul\":2720:2738   */\n      0x44\n      dup3\n      add\n        /* \"#utility.yul\":2713:2773   */\n      mstore\n        /* \"#utility.yul\":2790:2808   */\n      0x64\n      add\n        /* \"custom/ballot.sol\":1685:1743  require(to != msg.sender,\"Self-delegation is disallowed.\") */\n      tag_34\n        /* \"#utility.yul\":2460:2814   */\n      jump\n        /* \"custom/ballot.sol\":1685:1743  require(to != msg.sender,\"Self-delegation is disallowed.\") */\n    tag_39:\n      sub(exp(0x02, 0xa0), 0x01)\n        /* \"custom/ballot.sol\":2049:2059  voters[to] */\n      dup3\n      and\n        /* \"custom/ballot.sol\":2023:2046  Voter storage delegater */\n      0x00\n        /* \"custom/ballot.sol\":2049:2059  voters[to] */\n      swap1\n      dup2\n      mstore\n        /* \"custom/ballot.sol\":2049:2055  voters */\n      0x01\n        /* \"custom/ballot.sol\":2049:2059  voters[to] */\n      0x20\n      dup2\n      swap1\n      mstore\n      0x40\n      swap1\n      swap2\n      keccak256\n        /* \"custom/ballot.sol\":2078:2094  delegater.weight */\n      dup1\n      sload\n        /* \"custom/ballot.sol\":2049:2059  voters[to] */\n      swap1\n      swap2\n        /* \"custom/ballot.sol\":2078:2094  delegater.weight */\n      0xff\n      swap1\n      swap2\n      and\n        /* \"custom/ballot.sol\":2078:2099  delegater.weight >= 1 */\n      lt\n      iszero\n        /* \"custom/ballot.sol\":2070:2100  require(delegater.weight >= 1) */\n      tag_42\n      jumpi\n      0x00\n      dup1\n      revert\n    tag_42:\n        /* \"custom/ballot.sol\":2115:2134  sender.voted = true */\n      dup2\n      sload\n      sub(exp(0x02, 0xa0), 0x01)\n        /* \"custom/ballot.sol\":2145:2165  sender.delegate = to */\n      dup5\n      and\n      0x010000\n      mul\n      not(0xffffffffffffffffffffffffffffffffffffffffff00)\n      swap1\n      swap2\n      and\n      or\n        /* \"custom/ballot.sol\":2115:2134  sender.voted = true */\n      0x0100\n        /* \"custom/ballot.sol\":2145:2165  sender.delegate = to */\n      swap1\n      dup2\n      or\n      dup4\n      sstore\n        /* \"custom/ballot.sol\":2181:2196  delegater.voted */\n      dup2\n      sload\n      div\n        /* \"custom/ballot.sol\":2115:2134  sender.voted = true */\n      0xff\n        /* \"custom/ballot.sol\":2181:2196  delegater.voted */\n      and\n        /* \"custom/ballot.sol\":2178:2447  if(delegater.voted){\r... */\n      iszero\n      tag_43\n      jumpi\n        /* \"custom/ballot.sol\":2330:2343  sender.weight */\n      dup2\n      sload\n        /* \"custom/ballot.sol\":2301:2315  delegater.vote */\n      dup2\n      sload\n        /* \"custom/ballot.sol\":2291:2300  proposals */\n      0x02\n        /* \"custom/ballot.sol\":2291:2316  proposals[delegater.vote] */\n      dup1\n      sload\n        /* \"custom/ballot.sol\":2330:2343  sender.weight */\n      0xff\n      swap4\n      dup5\n      and\n      swap4\n        /* \"custom/ballot.sol\":2291:2300  proposals */\n      swap2\n      swap3\n        /* \"custom/ballot.sol\":2301:2315  delegater.vote */\n      0x0100000000000000000000000000000000000000000000\n      swap1\n      div\n      swap1\n      swap2\n      and\n      swap1\n        /* \"custom/ballot.sol\":2291:2316  proposals[delegater.vote] */\n      dup2\n      lt\n      tag_45\n      jumpi\n      tag_45\n      tag_46\n      jump\t// in\n    tag_45:\n      swap1\n      0x00\n      mstore\n      keccak256(0x00, 0x20)\n      swap1\n      0x02\n      mul\n      add\n        /* \"custom/ballot.sol\":2291:2326  proposals[delegater.vote].voteCount */\n      0x01\n      add\n      0x00\n        /* \"custom/ballot.sol\":2291:2343  proposals[delegater.vote].voteCount += sender.weight */\n      dup3\n      dup3\n      sload\n      tag_48\n      swap2\n      swap1\n      tag_49\n      jump\t// in\n    tag_48:\n      swap1\n      swap2\n      sstore\n      pop\n        /* \"custom/ballot.sol\":2178:2447  if(delegater.voted){\r... */\n      tag_50\n      swap1\n      pop\n      jump\n    tag_43:\n        /* \"custom/ballot.sol\":2422:2435  sender.weight */\n      dup2\n      sload\n        /* \"custom/ballot.sol\":2402:2435  delegater.weight += sender.weight */\n      dup2\n      sload\n        /* \"custom/ballot.sol\":2422:2435  sender.weight */\n      0xff\n      swap2\n      dup3\n      and\n      swap2\n        /* \"custom/ballot.sol\":2402:2411  delegater */\n      dup4\n      swap2\n        /* \"custom/ballot.sol\":2422:2435  sender.weight */\n      0x00\n      swap2\n        /* \"custom/ballot.sol\":2402:2435  delegater.weight += sender.weight */\n      tag_51\n      swap2\n        /* \"custom/ballot.sol\":2422:2435  sender.weight */\n      dup6\n      swap2\n        /* \"custom/ballot.sol\":2402:2435  delegater.weight += sender.weight */\n      and\n      tag_52\n      jump\t// in\n    tag_51:\n      swap3\n      pop\n      0x0100\n      exp\n      dup2\n      sload\n      dup2\n      0xff\n      mul\n      not\n      and\n      swap1\n      dup4\n      0xff\n      and\n      mul\n      or\n      swap1\n      sstore\n      pop\n        /* \"custom/ballot.sol\":2178:2447  if(delegater.voted){\r... */\n    tag_50:\n        /* \"custom/ballot.sol\":1365:2456  {\r... */\n      pop\n      pop\n        /* \"custom/ballot.sol\":1326:2456  function delegate(address to) external {\r... */\n      pop\n      jump\t// out\n        /* \"custom/ballot.sol\":1006:1296  function giveRightToVote(address voter) external{\r... */\n    tag_24:\n        /* \"custom/ballot.sol\":1087:1098  chairperson */\n      and(sub(exp(0x02, 0xa0), 0x01), sload(0x00))\n        /* \"custom/ballot.sol\":1073:1083  msg.sender */\n      caller\n        /* \"custom/ballot.sol\":1073:1098  msg.sender == chairperson */\n      eq\n        /* \"custom/ballot.sol\":1065:1142  require(msg.sender == chairperson,\"Only chairperson can give right to vote.\") */\n      tag_54\n      jumpi\n      mload(0x40)\n      mul(0x461bcd, exp(0x02, 0xe5))\n      dup2\n      mstore\n        /* \"#utility.yul\":1898:1900   */\n      0x20\n        /* \"custom/ballot.sol\":1065:1142  require(msg.sender == chairperson,\"Only chairperson can give right to vote.\") */\n      0x04\n      dup3\n      add\n        /* \"#utility.yul\":1880:1901   */\n      mstore\n        /* \"#utility.yul\":1937:1939   */\n      0x28\n        /* \"#utility.yul\":1917:1935   */\n      0x24\n      dup3\n      add\n        /* \"#utility.yul\":1910:1940   */\n      mstore\n        /* \"#utility.yul\":1976:2010   */\n      0x4f6e6c79206368616972706572736f6e2063616e206769766520726967687420\n        /* \"#utility.yul\":1956:1974   */\n      0x44\n      dup3\n      add\n        /* \"#utility.yul\":1949:2011   */\n      mstore\n        /* \"#utility.yul\":2047:2057   */\n      0x746f20766f74652e000000000000000000000000000000000000000000000000\n        /* \"#utility.yul\":2027:2045   */\n      0x64\n      dup3\n      add\n        /* \"#utility.yul\":2020:2058   */\n      mstore\n        /* \"#utility.yul\":2075:2094   */\n      0x84\n      add\n        /* \"custom/ballot.sol\":1065:1142  require(msg.sender == chairperson,\"Only chairperson can give right to vote.\") */\n      tag_34\n        /* \"#utility.yul\":1696:2100   */\n      jump\n        /* \"custom/ballot.sol\":1065:1142  require(msg.sender == chairperson,\"Only chairperson can give right to vote.\") */\n    tag_54:\n      sub(exp(0x02, 0xa0), 0x01)\n        /* \"custom/ballot.sol\":1162:1175  voters[voter] */\n      dup2\n      and\n      0x00\n      swap1\n      dup2\n      mstore\n        /* \"custom/ballot.sol\":1162:1168  voters */\n      0x01\n        /* \"custom/ballot.sol\":1162:1175  voters[voter] */\n      0x20\n      mstore\n      0x40\n      swap1\n      keccak256\n        /* \"custom/ballot.sol\":1162:1181  voters[voter].voted */\n      sload\n      0x0100\n      swap1\n      div\n      0xff\n      and\n        /* \"custom/ballot.sol\":1161:1181  !voters[voter].voted */\n      iszero\n        /* \"custom/ballot.sol\":1153:1208  require(!voters[voter].voted,\"The voter already voted\") */\n      tag_57\n      jumpi\n      mload(0x40)\n      mul(0x461bcd, exp(0x02, 0xe5))\n      dup2\n      mstore\n        /* \"#utility.yul\":1199:1201   */\n      0x20\n        /* \"custom/ballot.sol\":1153:1208  require(!voters[voter].voted,\"The voter already voted\") */\n      0x04\n      dup3\n      add\n        /* \"#utility.yul\":1181:1202   */\n      mstore\n        /* \"#utility.yul\":1238:1240   */\n      0x17\n        /* \"#utility.yul\":1218:1236   */\n      0x24\n      dup3\n      add\n        /* \"#utility.yul\":1211:1241   */\n      mstore\n        /* \"#utility.yul\":1277:1302   */\n      0x54686520766f74657220616c726561647920766f746564000000000000000000\n        /* \"#utility.yul\":1257:1275   */\n      0x44\n      dup3\n      add\n        /* \"#utility.yul\":1250:1303   */\n      mstore\n        /* \"#utility.yul\":1320:1338   */\n      0x64\n      add\n        /* \"custom/ballot.sol\":1153:1208  require(!voters[voter].voted,\"The voter already voted\") */\n      tag_34\n        /* \"#utility.yul\":997:1344   */\n      jump\n        /* \"custom/ballot.sol\":1153:1208  require(!voters[voter].voted,\"The voter already voted\") */\n    tag_57:\n      sub(exp(0x02, 0xa0), 0x01)\n        /* \"custom/ballot.sol\":1227:1240  voters[voter] */\n      dup2\n      and\n      0x00\n      swap1\n      dup2\n      mstore\n        /* \"custom/ballot.sol\":1227:1233  voters */\n      0x01\n        /* \"custom/ballot.sol\":1227:1240  voters[voter] */\n      0x20\n      mstore\n      0x40\n      swap1\n      keccak256\n        /* \"custom/ballot.sol\":1227:1247  voters[voter].weight */\n      sload\n      0xff\n      and\n        /* \"custom/ballot.sol\":1227:1252  voters[voter].weight == 0 */\n      iszero\n        /* \"custom/ballot.sol\":1219:1253  require(voters[voter].weight == 0) */\n      tag_60\n      jumpi\n      0x00\n      dup1\n      revert\n    tag_60:\n      sub(exp(0x02, 0xa0), 0x01)\n        /* \"custom/ballot.sol\":1264:1277  voters[voter] */\n      and\n      0x00\n      swap1\n      dup2\n      mstore\n        /* \"custom/ballot.sol\":1287:1288  1 */\n      0x01\n        /* \"custom/ballot.sol\":1264:1277  voters[voter] */\n      0x20\n      dup2\n      swap1\n      mstore\n      0x40\n      swap1\n      swap2\n      keccak256\n        /* \"custom/ballot.sol\":1264:1288  voters[voter].weight = 1 */\n      dup1\n      sload\n      not(0xff)\n      and\n      swap1\n      swap2\n      or\n      swap1\n      sstore\n        /* \"custom/ballot.sol\":1006:1296  function giveRightToVote(address voter) external{\r... */\n      jump\t// out\n        /* \"#utility.yul\":14:323   */\n    tag_20:\n        /* \"#utility.yul\":73:79   */\n      0x00\n        /* \"#utility.yul\":126:128   */\n      0x20\n        /* \"#utility.yul\":114:123   */\n      dup3\n        /* \"#utility.yul\":105:112   */\n      dup5\n        /* \"#utility.yul\":101:124   */\n      sub\n        /* \"#utility.yul\":97:129   */\n      slt\n        /* \"#utility.yul\":94:146   */\n      iszero\n      tag_63\n      jumpi\n        /* \"#utility.yul\":142:143   */\n      0x00\n        /* \"#utility.yul\":139:140   */\n      dup1\n        /* \"#utility.yul\":132:144   */\n      revert\n        /* \"#utility.yul\":94:146   */\n    tag_63:\n        /* \"#utility.yul\":181:190   */\n      dup2\n        /* \"#utility.yul\":168:191   */\n      calldataload\n      sub(exp(0x02, 0xa0), 0x01)\n        /* \"#utility.yul\":224:229   */\n      dup2\n        /* \"#utility.yul\":220:274   */\n      and\n        /* \"#utility.yul\":213:218   */\n      dup2\n        /* \"#utility.yul\":210:275   */\n      eq\n        /* \"#utility.yul\":200:293   */\n      tag_64\n      jumpi\n        /* \"#utility.yul\":289:290   */\n      0x00\n        /* \"#utility.yul\":286:287   */\n      dup1\n        /* \"#utility.yul\":279:291   */\n      revert\n        /* \"#utility.yul\":200:293   */\n    tag_64:\n        /* \"#utility.yul\":312:317   */\n      swap4\n        /* \"#utility.yul\":14:323   */\n      swap3\n      pop\n      pop\n      pop\n      jump\t// out\n        /* \"#utility.yul\":328:508   */\n    tag_10:\n        /* \"#utility.yul\":387:393   */\n      0x00\n        /* \"#utility.yul\":440:442   */\n      0x20\n        /* \"#utility.yul\":428:437   */\n      dup3\n        /* \"#utility.yul\":419:426   */\n      dup5\n        /* \"#utility.yul\":415:438   */\n      sub\n        /* \"#utility.yul\":411:443   */\n      slt\n        /* \"#utility.yul\":408:460   */\n      iszero\n      tag_66\n      jumpi\n        /* \"#utility.yul\":456:457   */\n      0x00\n        /* \"#utility.yul\":453:454   */\n      dup1\n        /* \"#utility.yul\":446:458   */\n      revert\n        /* \"#utility.yul\":408:460   */\n    tag_66:\n      pop\n        /* \"#utility.yul\":479:502   */\n      calldataload\n      swap2\n        /* \"#utility.yul\":328:508   */\n      swap1\n      pop\n      jump\t// out\n        /* \"#utility.yul\":3288:3416   */\n    tag_49:\n        /* \"#utility.yul\":3328:3331   */\n      0x00\n        /* \"#utility.yul\":3359:3360   */\n      dup3\n        /* \"#utility.yul\":3355:3361   */\n      not\n        /* \"#utility.yul\":3352:3353   */\n      dup3\n        /* \"#utility.yul\":3349:3362   */\n      gt\n        /* \"#utility.yul\":3346:3385   */\n      iszero\n      tag_77\n      jumpi\n        /* \"#utility.yul\":3365:3383   */\n      tag_77\n      tag_78\n      jump\t// in\n    tag_77:\n      pop\n        /* \"#utility.yul\":3401:3410   */\n      add\n      swap1\n        /* \"#utility.yul\":3288:3416   */\n      jump\t// out\n        /* \"#utility.yul\":3421:3625   */\n    tag_52:\n        /* \"#utility.yul\":3459:3462   */\n      0x00\n        /* \"#utility.yul\":3495:3499   */\n      0xff\n        /* \"#utility.yul\":3492:3493   */\n      dup3\n        /* \"#utility.yul\":3488:3500   */\n      and\n        /* \"#utility.yul\":3527:3531   */\n      0xff\n        /* \"#utility.yul\":3524:3525   */\n      dup5\n        /* \"#utility.yul\":3520:3532   */\n      and\n        /* \"#utility.yul\":3562:3565   */\n      dup1\n        /* \"#utility.yul\":3556:3560   */\n      0xff\n        /* \"#utility.yul\":3552:3566   */\n      sub\n        /* \"#utility.yul\":3547:3550   */\n      dup3\n        /* \"#utility.yul\":3544:3567   */\n      gt\n        /* \"#utility.yul\":3541:3590   */\n      iszero\n      tag_81\n      jumpi\n        /* \"#utility.yul\":3570:3588   */\n      tag_81\n      tag_78\n      jump\t// in\n    tag_81:\n        /* \"#utility.yul\":3606:3619   */\n      add\n      swap4\n        /* \"#utility.yul\":3421:3625   */\n      swap3\n      pop\n      pop\n      pop\n      jump\t// out\n        /* \"#utility.yul\":3630:3814   */\n    tag_78:\n        /* \"#utility.yul\":3682:3759   */\n      0x4e487b7100000000000000000000000000000000000000000000000000000000\n        /* \"#utility.yul\":3679:3680   */\n      0x00\n        /* \"#utility.yul\":3672:3760   */\n      mstore\n        /* \"#utility.yul\":3779:3783   */\n      0x11\n        /* \"#utility.yul\":3776:3777   */\n      0x04\n        /* \"#utility.yul\":3769:3784   */\n      mstore\n        /* \"#utility.yul\":3803:3807   */\n      0x24\n        /* \"#utility.yul\":3800:3801   */\n      0x00\n        /* \"#utility.yul\":3793:3808   */\n      revert\n        /* \"#utility.yul\":3819:4003   */\n    tag_46:\n        /* \"#utility.yul\":3871:3948   */\n      0x4e487b7100000000000000000000000000000000000000000000000000000000\n        /* \"#utility.yul\":3868:3869   */\n      0x00\n        /* \"#utility.yul\":3861:3949   */\n      mstore\n        /* \"#utility.yul\":3968:3972   */\n      0x32\n        /* \"#utility.yul\":3965:3966   */\n      0x04\n        /* \"#utility.yul\":3958:3973   */\n      mstore\n        /* \"#utility.yul\":3992:3996   */\n      0x24\n        /* \"#utility.yul\":3989:3990   */\n      0x00\n        /* \"#utility.yul\":3982:3997   */\n      revert\n\n    auxdata: 0xa26469706673582212204a970841ff188f7bc8345b916fad680800bca564b84d031898cace53869ada5d64736f6c63430008070033\n}\n",
				"bytecode": {
					"linkReferences": {},
					"object": "608060405234801561001057600080fd5b5060405161088638038061088683398101604081905261002f916100d6565b60008054600160a060020a03191633908117825581526001602081905260408220805460ff191690911790555b81518110156100cf5760026040518060400160405280848481518110610084576100846101dc565b602090810291909101810151825260009181018290528354600181810186559483529181902083516002909302019182559190910151910155806100c78161019a565b91505061005c565b505061023a565b600060208083850312156100e957600080fd5b825167ffffffffffffffff8082111561010157600080fd5b818501915085601f83011261011557600080fd5b8151818111156101275761012761020b565b838102604051601f19603f8301168101818110858211171561014b5761014b61020b565b604052828152858101935084860182860187018a101561016a57600080fd5b600095505b8386101561018d57805185526001959095019493860193860161016f565b5098975050505050505050565b60006000198214156101d5577f4e487b7100000000000000000000000000000000000000000000000000000000600052601160045260246000fd5b5060010190565b7f4e487b7100000000000000000000000000000000000000000000000000000000600052603260045260246000fd5b7f4e487b7100000000000000000000000000000000000000000000000000000000600052604160045260246000fd5b61063d806102496000396000f3fe608060405234801561001057600080fd5b5060043610610073577c01000000000000000000000000000000000000000000000000000000006000350463013cf08b81146100785780632e4176cf146100a55780635c19a95c146100d05780639e7b8d61146100e5578063a3ec138d146100f8575b600080fd5b61008b610086366004610553565b610187565b604080519283526020830191909152015b60405180910390f35b6000546100b890600160a060020a031681565b604051600160a060020a03909116815260200161009c565b6100e36100de366004610523565b6101b5565b005b6100e36100f3366004610523565b6103e2565b610151610106366004610523565b60016020526000908152604090205460ff808216916101008104821691600160a060020a03620100008304169176010000000000000000000000000000000000000000000090041684565b6040805160ff95861681529315156020850152600160a060020a039092169183019190915291909116606082015260800161009c565b6002818154811061019757600080fd5b60009182526020909120600290910201805460019091015490915082565b336000908152600160205260409020805460ff1661021d5760405160e560020a62461bcd02815260206004820152601a60248201527f596f752068617665206e6f20726967687420746f20766f74652e00000000000060448201526064015b60405180910390fd5b8054610100900460ff16156102775760405160e560020a62461bcd02815260206004820152601260248201527f596f7520616c726561647920766f7465642e00000000000000000000000000006044820152606401610214565b600160a060020a0382163314156102d35760405160e560020a62461bcd02815260206004820152601e60248201527f53656c662d64656c65676174696f6e20697320646973616c6c6f7765642e00006044820152606401610214565b600160a060020a03821660009081526001602081905260409091208054909160ff909116101561030257600080fd5b8154600160a060020a038416620100000275ffffffffffffffffffffffffffffffffffffffffff001990911617610100908117835581540460ff16156103a957815481546002805460ff938416939192760100000000000000000000000000000000000000000000900490911690811061037e5761037e6105d8565b9060005260206000209060020201600101600082825461039e919061056c565b909155506103dd9050565b8154815460ff9182169183916000916103c491859116610584565b92506101000a81548160ff021916908360ff1602179055505b505050565b600054600160a060020a031633146104655760405160e560020a62461bcd02815260206004820152602860248201527f4f6e6c79206368616972706572736f6e2063616e20676976652072696768742060448201527f746f20766f74652e0000000000000000000000000000000000000000000000006064820152608401610214565b600160a060020a038116600090815260016020526040902054610100900460ff16156104d65760405160e560020a62461bcd02815260206004820152601760248201527f54686520766f74657220616c726561647920766f7465640000000000000000006044820152606401610214565b600160a060020a03811660009081526001602052604090205460ff16156104fc57600080fd5b600160a060020a03166000908152600160208190526040909120805460ff19169091179055565b60006020828403121561053557600080fd5b8135600160a060020a038116811461054c57600080fd5b9392505050565b60006020828403121561056557600080fd5b5035919050565b6000821982111561057f5761057f6105a9565b500190565b600060ff821660ff84168060ff038211156105a1576105a16105a9565b019392505050565b7f4e487b7100000000000000000000000000000000000000000000000000000000600052601160045260246000fd5b7f4e487b7100000000000000000000000000000000000000000000000000000000600052603260045260246000fdfea26469706673582212204a970841ff188f7bc8345b916fad680800bca564b84d031898cace53869ada5d64736f6c63430008070033",
					"opcodes": "PUSH1 0x80 PUSH1 0x40 MSTORE CALLVALUE DUP1 ISZERO PUSH2 0x10 JUMPI PUSH1 0x0 DUP1 REVERT JUMPDEST POP PUSH1 0x40 MLOAD PUSH2 0x886 CODESIZE SUB DUP1 PUSH2 0x886 DUP4 CODECOPY DUP2 ADD PUSH1 0x40 DUP2 SWAP1 MSTORE PUSH2 0x2F SWAP2 PUSH2 0xD6 JUMP JUMPDEST PUSH1 0x0 DUP1 SLOAD PUSH1 0x1 PUSH1 0xA0 PUSH1 0x2 EXP SUB NOT AND CALLER SWAP1 DUP2 OR DUP3 SSTORE DUP2 MSTORE PUSH1 0x1 PUSH1 0x20 DUP2 SWAP1 MSTORE PUSH1 0x40 DUP3 KECCAK256 DUP1 SLOAD PUSH1 0xFF NOT AND SWAP1 SWAP2 OR SWAP1 SSTORE JUMPDEST DUP2 MLOAD DUP2 LT ISZERO PUSH2 0xCF JUMPI PUSH1 0x2 PUSH1 0x40 MLOAD DUP1 PUSH1 0x40 ADD PUSH1 0x40 MSTORE DUP1 DUP5 DUP5 DUP2 MLOAD DUP2 LT PUSH2 0x84 JUMPI PUSH2 0x84 PUSH2 0x1DC JUMP JUMPDEST PUSH1 0x20 SWAP1 DUP2 MUL SWAP2 SWAP1 SWAP2 ADD DUP2 ADD MLOAD DUP3 MSTORE PUSH1 0x0 SWAP2 DUP2 ADD DUP3 SWAP1 MSTORE DUP4 SLOAD PUSH1 0x1 DUP2 DUP2 ADD DUP7 SSTORE SWAP5 DUP4 MSTORE SWAP2 DUP2 SWAP1 KECCAK256 DUP4 MLOAD PUSH1 0x2 SWAP1 SWAP4 MUL ADD SWAP2 DUP3 SSTORE SWAP2 SWAP1 SWAP2 ADD MLOAD SWAP2 ADD SSTORE DUP1 PUSH2 0xC7 DUP2 PUSH2 0x19A JUMP JUMPDEST SWAP2 POP POP PUSH2 0x5C JUMP JUMPDEST POP POP PUSH2 0x23A JUMP JUMPDEST PUSH1 0x0 PUSH1 0x20 DUP1 DUP4 DUP6 SUB SLT ISZERO PUSH2 0xE9 JUMPI PUSH1 0x0 DUP1 REVERT JUMPDEST DUP3 MLOAD PUSH8 0xFFFFFFFFFFFFFFFF DUP1 DUP3 GT ISZERO PUSH2 0x101 JUMPI PUSH1 0x0 DUP1 REVERT JUMPDEST DUP2 DUP6 ADD SWAP2 POP DUP6 PUSH1 0x1F DUP4 ADD SLT PUSH2 0x115 JUMPI PUSH1 0x0 DUP1 REVERT JUMPDEST DUP2 MLOAD DUP2 DUP2 GT ISZERO PUSH2 0x127 JUMPI PUSH2 0x127 PUSH2 0x20B JUMP JUMPDEST DUP4 DUP2 MUL PUSH1 0x40 MLOAD PUSH1 0x1F NOT PUSH1 0x3F DUP4 ADD AND DUP2 ADD DUP2 DUP2 LT DUP6 DUP3 GT OR ISZERO PUSH2 0x14B JUMPI PUSH2 0x14B PUSH2 0x20B JUMP JUMPDEST PUSH1 0x40 MSTORE DUP3 DUP2 MSTORE DUP6 DUP2 ADD SWAP4 POP DUP5 DUP7 ADD DUP3 DUP7 ADD DUP8 ADD DUP11 LT ISZERO PUSH2 0x16A JUMPI PUSH1 0x0 DUP1 REVERT JUMPDEST PUSH1 0x0 SWAP6 POP JUMPDEST DUP4 DUP7 LT ISZERO PUSH2 0x18D JUMPI DUP1 MLOAD DUP6 MSTORE PUSH1 0x1 SWAP6 SWAP1 SWAP6 ADD SWAP5 SWAP4 DUP7 ADD SWAP4 DUP7 ADD PUSH2 0x16F JUMP JUMPDEST POP SWAP9 SWAP8 POP POP POP POP POP POP POP POP JUMP JUMPDEST PUSH1 0x0 PUSH1 0x0 NOT DUP3 EQ ISZERO PUSH2 0x1D5 JUMPI PUSH32 0x4E487B7100000000000000000000000000000000000000000000000000000000 PUSH1 0x0 MSTORE PUSH1 0x11 PUSH1 0x4 MSTORE PUSH1 0x24 PUSH1 0x0 REVERT JUMPDEST POP PUSH1 0x1 ADD SWAP1 JUMP JUMPDEST PUSH32 0x4E487B7100000000000000000000000000000000000000000000000000000000 PUSH1 0x0 MSTORE PUSH1 0x32 PUSH1 0x4 MSTORE PUSH1 0x24 PUSH1 0x0 REVERT JUMPDEST PUSH32 0x4E487B7100000000000000000000000000000000000000000000000000000000 PUSH1 0x0 MSTORE PUSH1 0x41 PUSH1 0x4 MSTORE PUSH1 0x24 PUSH1 0x0 REVERT JUMPDEST PUSH2 0x63D DUP1 PUSH2 0x249 PUSH1 0x0 CODECOPY PUSH1 0x0 RETURN INVALID PUSH1 0x80 PUSH1 0x40 MSTORE CALLVALUE DUP1 ISZERO PUSH2 0x10 JUMPI PUSH1 0x0 DUP1 REVERT JUMPDEST POP PUSH1 0x4 CALLDATASIZE LT PUSH2 0x73 JUMPI PUSH29 0x100000000000000000000000000000000000000000000000000000000 PUSH1 0x0 CALLDATALOAD DIV PUSH4 0x13CF08B DUP2 EQ PUSH2 0x78 JUMPI DUP1 PUSH4 0x2E4176CF EQ PUSH2 0xA5 JUMPI DUP1 PUSH4 0x5C19A95C EQ PUSH2 0xD0 JUMPI DUP1 PUSH4 0x9E7B8D61 EQ PUSH2 0xE5 JUMPI DUP1 PUSH4 0xA3EC138D EQ PUSH2 0xF8 JUMPI JUMPDEST PUSH1 0x0 DUP1 REVERT JUMPDEST PUSH2 0x8B PUSH2 0x86 CALLDATASIZE PUSH1 0x4 PUSH2 0x553 JUMP JUMPDEST PUSH2 0x187 JUMP JUMPDEST PUSH1 0x40 DUP1 MLOAD SWAP3 DUP4 MSTORE PUSH1 0x20 DUP4 ADD SWAP2 SWAP1 SWAP2 MSTORE ADD JUMPDEST PUSH1 0x40 MLOAD DUP1 SWAP2 SUB SWAP1 RETURN JUMPDEST PUSH1 0x0 SLOAD PUSH2 0xB8 SWAP1 PUSH1 0x1 PUSH1 0xA0 PUSH1 0x2 EXP SUB AND DUP2 JUMP JUMPDEST PUSH1 0x40 MLOAD PUSH1 0x1 PUSH1 0xA0 PUSH1 0x2 EXP SUB SWAP1 SWAP2 AND DUP2 MSTORE PUSH1 0x20 ADD PUSH2 0x9C JUMP JUMPDEST PUSH2 0xE3 PUSH2 0xDE CALLDATASIZE PUSH1 0x4 PUSH2 0x523 JUMP JUMPDEST PUSH2 0x1B5 JUMP JUMPDEST STOP JUMPDEST PUSH2 0xE3 PUSH2 0xF3 CALLDATASIZE PUSH1 0x4 PUSH2 0x523 JUMP JUMPDEST PUSH2 0x3E2 JUMP JUMPDEST PUSH2 0x151 PUSH2 0x106 CALLDATASIZE PUSH1 0x4 PUSH2 0x523 JUMP JUMPDEST PUSH1 0x1 PUSH1 0x20 MSTORE PUSH1 0x0 SWAP1 DUP2 MSTORE PUSH1 0x40 SWAP1 KECCAK256 SLOAD PUSH1 0xFF DUP1 DUP3 AND SWAP2 PUSH2 0x100 DUP2 DIV DUP3 AND SWAP2 PUSH1 0x1 PUSH1 0xA0 PUSH1 0x2 EXP SUB PUSH3 0x10000 DUP4 DIV AND SWAP2 PUSH23 0x100000000000000000000000000000000000000000000 SWAP1 DIV AND DUP5 JUMP JUMPDEST PUSH1 0x40 DUP1 MLOAD PUSH1 0xFF SWAP6 DUP7 AND DUP2 MSTORE SWAP4 ISZERO ISZERO PUSH1 0x20 DUP6 ADD MSTORE PUSH1 0x1 PUSH1 0xA0 PUSH1 0x2 EXP SUB SWAP1 SWAP3 AND SWAP2 DUP4 ADD SWAP2 SWAP1 SWAP2 MSTORE SWAP2 SWAP1 SWAP2 AND PUSH1 0x60 DUP3 ADD MSTORE PUSH1 0x80 ADD PUSH2 0x9C JUMP JUMPDEST PUSH1 0x2 DUP2 DUP2 SLOAD DUP2 LT PUSH2 0x197 JUMPI PUSH1 0x0 DUP1 REVERT JUMPDEST PUSH1 0x0 SWAP2 DUP3 MSTORE PUSH1 0x20 SWAP1 SWAP2 KECCAK256 PUSH1 0x2 SWAP1 SWAP2 MUL ADD DUP1 SLOAD PUSH1 0x1 SWAP1 SWAP2 ADD SLOAD SWAP1 SWAP2 POP DUP3 JUMP JUMPDEST CALLER PUSH1 0x0 SWAP1 DUP2 MSTORE PUSH1 0x1 PUSH1 0x20 MSTORE PUSH1 0x40 SWAP1 KECCAK256 DUP1 SLOAD PUSH1 0xFF AND PUSH2 0x21D JUMPI PUSH1 0x40 MLOAD PUSH1 0xE5 PUSH1 0x2 EXP PUSH3 0x461BCD MUL DUP2 MSTORE PUSH1 0x20 PUSH1 0x4 DUP3 ADD MSTORE PUSH1 0x1A PUSH1 0x24 DUP3 ADD MSTORE PUSH32 0x596F752068617665206E6F20726967687420746F20766F74652E000000000000 PUSH1 0x44 DUP3 ADD MSTORE PUSH1 0x64 ADD JUMPDEST PUSH1 0x40 MLOAD DUP1 SWAP2 SUB SWAP1 REVERT JUMPDEST DUP1 SLOAD PUSH2 0x100 SWAP1 DIV PUSH1 0xFF AND ISZERO PUSH2 0x277 JUMPI PUSH1 0x40 MLOAD PUSH1 0xE5 PUSH1 0x2 EXP PUSH3 0x461BCD MUL DUP2 MSTORE PUSH1 0x20 PUSH1 0x4 DUP3 ADD MSTORE PUSH1 0x12 PUSH1 0x24 DUP3 ADD MSTORE PUSH32 0x596F7520616C726561647920766F7465642E0000000000000000000000000000 PUSH1 0x44 DUP3 ADD MSTORE PUSH1 0x64 ADD PUSH2 0x214 JUMP JUMPDEST PUSH1 0x1 PUSH1 0xA0 PUSH1 0x2 EXP SUB DUP3 AND CALLER EQ ISZERO PUSH2 0x2D3 JUMPI PUSH1 0x40 MLOAD PUSH1 0xE5 PUSH1 0x2 EXP PUSH3 0x461BCD MUL DUP2 MSTORE PUSH1 0x20 PUSH1 0x4 DUP3 ADD MSTORE PUSH1 0x1E PUSH1 0x24 DUP3 ADD MSTORE PUSH32 0x53656C662D64656C65676174696F6E20697320646973616C6C6F7765642E0000 PUSH1 0x44 DUP3 ADD MSTORE PUSH1 0x64 ADD PUSH2 0x214 JUMP JUMPDEST PUSH1 0x1 PUSH1 0xA0 PUSH1 0x2 EXP SUB DUP3 AND PUSH1 0x0 SWAP1 DUP2 MSTORE PUSH1 0x1 PUSH1 0x20 DUP2 SWAP1 MSTORE PUSH1 0x40 SWAP1 SWAP2 KECCAK256 DUP1 SLOAD SWAP1 SWAP2 PUSH1 0xFF SWAP1 SWAP2 AND LT ISZERO PUSH2 0x302 JUMPI PUSH1 0x0 DUP1 REVERT JUMPDEST DUP2 SLOAD PUSH1 0x1 PUSH1 0xA0 PUSH1 0x2 EXP SUB DUP5 AND PUSH3 0x10000 MUL PUSH22 0xFFFFFFFFFFFFFFFFFFFFFFFFFFFFFFFFFFFFFFFFFF00 NOT SWAP1 SWAP2 AND OR PUSH2 0x100 SWAP1 DUP2 OR DUP4 SSTORE DUP2 SLOAD DIV PUSH1 0xFF AND ISZERO PUSH2 0x3A9 JUMPI DUP2 SLOAD DUP2 SLOAD PUSH1 0x2 DUP1 SLOAD PUSH1 0xFF SWAP4 DUP5 AND SWAP4 SWAP2 SWAP3 PUSH23 0x100000000000000000000000000000000000000000000 SWAP1 DIV SWAP1 SWAP2 AND SWAP1 DUP2 LT PUSH2 0x37E JUMPI PUSH2 0x37E PUSH2 0x5D8 JUMP JUMPDEST SWAP1 PUSH1 0x0 MSTORE PUSH1 0x20 PUSH1 0x0 KECCAK256 SWAP1 PUSH1 0x2 MUL ADD PUSH1 0x1 ADD PUSH1 0x0 DUP3 DUP3 SLOAD PUSH2 0x39E SWAP2 SWAP1 PUSH2 0x56C JUMP JUMPDEST SWAP1 SWAP2 SSTORE POP PUSH2 0x3DD SWAP1 POP JUMP JUMPDEST DUP2 SLOAD DUP2 SLOAD PUSH1 0xFF SWAP2 DUP3 AND SWAP2 DUP4 SWAP2 PUSH1 0x0 SWAP2 PUSH2 0x3C4 SWAP2 DUP6 SWAP2 AND PUSH2 0x584 JUMP JUMPDEST SWAP3 POP PUSH2 0x100 EXP DUP2 SLOAD DUP2 PUSH1 0xFF MUL NOT AND SWAP1 DUP4 PUSH1 0xFF AND MUL OR SWAP1 SSTORE POP JUMPDEST POP POP POP JUMP JUMPDEST PUSH1 0x0 SLOAD PUSH1 0x1 PUSH1 0xA0 PUSH1 0x2 EXP SUB AND CALLER EQ PUSH2 0x465 JUMPI PUSH1 0x40 MLOAD PUSH1 0xE5 PUSH1 0x2 EXP PUSH3 0x461BCD MUL DUP2 MSTORE PUSH1 0x20 PUSH1 0x4 DUP3 ADD MSTORE PUSH1 0x28 PUSH1 0x24 DUP3 ADD MSTORE PUSH32 0x4F6E6C79206368616972706572736F6E2063616E206769766520726967687420 PUSH1 0x44 DUP3 ADD MSTORE PUSH32 0x746F20766F74652E000000000000000000000000000000000000000000000000 PUSH1 0x64 DUP3 ADD MSTORE PUSH1 0x84 ADD PUSH2 0x214 JUMP JUMPDEST PUSH1 0x1 PUSH1 0xA0 PUSH1 0x2 EXP SUB DUP2 AND PUSH1 0x0 SWAP1 DUP2 MSTORE PUSH1 0x1 PUSH1 0x20 MSTORE PUSH1 0x40 SWAP1 KECCAK256 SLOAD PUSH2 0x100 SWAP1 DIV PUSH1 0xFF AND ISZERO PUSH2 0x4D6 JUMPI PUSH1 0x40 MLOAD PUSH1 0xE5 PUSH1 0x2 EXP PUSH3 0x461BCD MUL DUP2 MSTORE PUSH1 0x20 PUSH1 0x4 DUP3 ADD MSTORE PUSH1 0x17 PUSH1 0x24 DUP3 ADD MSTORE PUSH32 0x54686520766F74657220616C726561647920766F746564000000000000000000 PUSH1 0x44 DUP3 ADD MSTORE PUSH1 0x64 ADD PUSH2 0x214 JUMP JUMPDEST PUSH1 0x1 PUSH1 0xA0 PUSH1 0x2 EXP SUB DUP2 AND PUSH1 0x0 SWAP1 DUP2 MSTORE PUSH1 0x1 PUSH1 0x20 MSTORE PUSH1 0x40 SWAP1 KECCAK256 SLOAD PUSH1 0xFF AND ISZERO PUSH2 0x4FC JUMPI PUSH1 0x0 DUP1 REVERT JUMPDEST PUSH1 0x1 PUSH1 0xA0 PUSH1 0x2 EXP SUB AND PUSH1 0x0 SWAP1 DUP2 MSTORE PUSH1 0x1 PUSH1 0x20 DUP2 SWAP1 MSTORE PUSH1 0x40 SWAP1 SWAP2 KECCAK256 DUP1 SLOAD PUSH1 0xFF NOT AND SWAP1 SWAP2 OR SWAP1 SSTORE JUMP JUMPDEST PUSH1 0x0 PUSH1 0x20 DUP3 DUP5 SUB SLT ISZERO PUSH2 0x535 JUMPI PUSH1 0x0 DUP1 REVERT JUMPDEST DUP2 CALLDATALOAD PUSH1 0x1 PUSH1 0xA0 PUSH1 0x2 EXP SUB DUP2 AND DUP2 EQ PUSH2 0x54C JUMPI PUSH1 0x0 DUP1 REVERT JUMPDEST SWAP4 SWAP3 POP POP POP JUMP JUMPDEST PUSH1 0x0 PUSH1 0x20 DUP3 DUP5 SUB SLT ISZERO PUSH2 0x565 JUMPI PUSH1 0x0 DUP1 REVERT JUMPDEST POP CALLDATALOAD SWAP2 SWAP1 POP JUMP JUMPDEST PUSH1 0x0 DUP3 NOT DUP3 GT ISZERO PUSH2 0x57F JUMPI PUSH2 0x57F PUSH2 0x5A9 JUMP JUMPDEST POP ADD SWAP1 JUMP JUMPDEST PUSH1 0x0 PUSH1 0xFF DUP3 AND PUSH1 0xFF DUP5 AND DUP1 PUSH1 0xFF SUB DUP3 GT ISZERO PUSH2 0x5A1 JUMPI PUSH2 0x5A1 PUSH2 0x5A9 JUMP JUMPDEST ADD SWAP4 SWAP3 POP POP POP JUMP JUMPDEST PUSH32 0x4E487B7100000000000000000000000000000000000000000000000000000000 PUSH1 0x0 MSTORE PUSH1 0x11 PUSH1 0x4 MSTORE PUSH1 0x24 PUSH1 0x0 REVERT JUMPDEST PUSH32 0x4E487B7100000000000000000000000000000000000000000000000000000000 PUSH1 0x0 MSTORE PUSH1 0x32 PUSH1 0x4 MSTORE PUSH1 0x24 PUSH1 0x0 REVERT INVALID LOG2 PUSH5 0x6970667358 0x22 SLT KECCAK256 0x4A SWAP8 ADDMOD COINBASE SELFDESTRUCT XOR DUP16 PUSH28 0xC8345B916FAD680800BCA564B84D031898CACE53869ADA5D64736F6C PUSH4 0x43000807 STOP CALLER "
				},
				"gasEstimates": {
					"creation": {
						"codeDepositCost": "319400",
						"executionCost": "infinite",
						"totalCost": "infinite"
					},
					"external": {
						"chairperson()": "553",
						"delegate(address)": "42985",
						"giveRightToVote(address)": "21795",
						"proposals(uint256)": "1000",
						"voters(address)": "1015"
					}
				},
				"methodIdentifiers": {
					"chairperson()": "2e4176cf",
					"delegate(address)": "5c19a95c",
					"giveRightToVote(address)": "9e7b8d61",
					"proposals(uint256)": "013cf08b",
					"voters(address)": "a3ec138d"
				}
			},
			"storageLayout": {
				"storage": [
					{
						"astId": 17,
						"contract": "custom/ballot.sol:Ballot",
						"label": "chairperson",
						"offset": 0,
						"slot": "0",
						"type": "t_address"
					},
					{
						"astId": 22,
						"contract": "custom/ballot.sol:Ballot",
						"label": "voters",
						"offset": 0,
						"slot": "1",
						"type": "t_mapping(t_address,t_struct(Voter)10_storage)"
					},
					{
						"astId": 26,
						"contract": "custom/ballot.sol:Ballot",
						"label": "proposals",
						"offset": 0,
						"slot": "2",
						"type": "t_array(t_struct(Proposal)15_storage)dyn_storage"
					}
				],
				"types": {
					"t_address": {
						"encoding": "inplace",
						"label": "address",
						"numberOfBytes": "20"
					},
					"t_array(t_struct(Proposal)15_storage)dyn_storage": {
						"base": "t_struct(Proposal)15_storage",
						"encoding": "dynamic_array",
						"label": "struct Ballot.Proposal[]",
						"numberOfBytes": "32"
					},
					"t_bool": {
						"encoding": "inplace",
						"label": "bool",
						"numberOfBytes": "1"
					},
					"t_bytes32": {
						"encoding": "inplace",
						"label": "bytes32",
						"numberOfBytes": "32"
					},
					"t_mapping(t_address,t_struct(Voter)10_storage)": {
						"encoding": "mapping",
						"key": "t_address",
						"label": "mapping(address => struct Ballot.Voter)",
						"numberOfBytes": "32",
						"value": "t_struct(Voter)10_storage"
					},
					"t_struct(Proposal)15_storage": {
						"encoding": "inplace",
						"label": "struct Ballot.Proposal",
						"members": [
							{
								"astId": 12,
								"contract": "custom/ballot.sol:Ballot",
								"label": "name",
								"offset": 0,
								"slot": "0",
								"type": "t_bytes32"
							},
							{
								"astId": 14,
								"contract": "custom/ballot.sol:Ballot",
								"label": "voteCount",
								"offset": 0,
								"slot": "1",
								"type": "t_uint256"
							}
						],
						"numberOfBytes": "64"
					},
					"t_struct(Voter)10_storage": {
						"encoding": "inplace",
						"label": "struct Ballot.Voter",
						"members": [
							{
								"astId": 3,
								"contract": "custom/ballot.sol:Ballot",
								"label": "weight",
								"offset": 0,
								"slot": "0",
								"type": "t_uint8"
							},
							{
								"astId": 5,
								"contract": "custom/ballot.sol:Ballot",
								"label": "voted",
								"offset": 1,
								"slot": "0",
								"type": "t_bool"
							},
							{
								"astId": 7,
								"contract": "custom/ballot.sol:Ballot",
								"label": "delegate",
								"offset": 2,
								"slot": "0",
								"type": "t_address"
							},
							{
								"astId": 9,
								"contract": "custom/ballot.sol:Ballot",
								"label": "vote",
								"offset": 22,
								"slot": "0",
								"type": "t_uint8"
							}
						],
						"numberOfBytes": "32"
					},
					"t_uint256": {
						"encoding": "inplace",
						"label": "uint256",
						"numberOfBytes": "32"
					},
					"t_uint8": {
						"encoding": "inplace",
						"label": "uint8",
						"numberOfBytes": "1"
					}
				}
			},
			"userdoc": {
				"kind": "user",
				"methods": {},
				"version": 1
			}
		}
	}
}