{
	"custom/ballot.sol": {
		"Ballot": {
			"abi": [
				{
					"inputs": [
						{
							"internalType": "bytes32[]",
							"name": "proposalNames",
							"type": "bytes32[]"
						}
					],
					"stateMutability": "nonpayable",
					"type": "constructor"
				},
				{
					"inputs": [],
					"name": "chairperson",
					"outputs": [
						{
							"internalType": "address",
							"name": "",
							"type": "address"
						}
					],
					"stateMutability": "view",
					"type": "function"
				},
				{
					"inputs": [
						{
							"internalType": "address",
							"name": "to",
							"type": "address"
						}
					],
					"name": "delegate",
					"outputs": [],
					"stateMutability": "nonpayable",
					"type": "function"
				},
				{
					"inputs": [
						{
							"internalType": "address",
							"name": "voter",
							"type": "address"
						}
					],
					"name": "giveRightToVote",
					"outputs": [],
					"stateMutability": "nonpayable",
					"type": "function"
				},
				{
					"inputs": [
						{
							"internalType": "uint256",
							"name": "",
							"type": "uint256"
						}
					],
					"name": "proposals",
					"outputs": [
						{
							"internalType": "bytes32",
							"name": "name",
							"type": "bytes32"
						},
						{
							"internalType": "uint256",
							"name": "voteCount",
							"type": "uint256"
						}
					],
					"stateMutability": "view",
					"type": "function"
				},
				{
					"inputs": [
						{
							"internalType": "uint8",
							"name": "proposal",
							"type": "uint8"
						}
					],
					"name": "vote",
					"outputs": [],
					"stateMutability": "nonpayable",
					"type": "function"
				},
				{
					"inputs": [
						{
							"internalType": "address",
							"name": "",
							"type": "address"
						}
					],
					"name": "voters",
					"outputs": [
						{
							"internalType": "uint8",
							"name": "weight",
							"type": "uint8"
						},
						{
							"internalType": "bool",
							"name": "voted",
							"type": "bool"
						},
						{
							"internalType": "address",
							"name": "delegate",
							"type": "address"
						},
						{
							"internalType": "uint8",
							"name": "vote",
							"type": "uint8"
						}
					],
					"stateMutability": "view",
					"type": "function"
				},
				{
					"inputs": [],
					"name": "winningProposal",
					"outputs": [
						{
							"components": [
								{
									"internalType": "bytes32",
									"name": "name",
									"type": "bytes32"
								},
								{
									"internalType": "uint256",
									"name": "voteCount",
									"type": "uint256"
								}
							],
							"internalType": "struct Ballot.Proposal[]",
							"name": "",
							"type": "tuple[]"
						}
					],
					"stateMutability": "view",
					"type": "function"
				}
			],
			"devdoc": {
				"kind": "dev",
				"methods": {},
				"version": 1
			},
			"evm": {
				"assembly": "    /* \"custom/ballot.sol\":88:3558  contract Ballot{\r... */\n  mstore(0x40, 0x80)\n    /* \"custom/ballot.sol\":572:937  constructor(bytes32[] memory proposalNames){\r... */\n  callvalue\n  dup1\n  iszero\n  tag_1\n  jumpi\n  0x00\n  dup1\n  revert\ntag_1:\n  pop\n  mload(0x40)\n  sub(codesize, bytecodeSize)\n  dup1\n  bytecodeSize\n  dup4\n  codecopy\n  dup2\n  add\n  0x40\n  dup2\n  swap1\n  mstore\n  tag_2\n  swap2\n  tag_3\n  jump\t// in\ntag_2:\n    /* \"custom/ballot.sol\":626:637  chairperson */\n  0x00\n    /* \"custom/ballot.sol\":626:650  chairperson = msg.sender */\n  dup1\n  sload\n  not(sub(exp(0x02, 0xa0), 0x01))\n  and\n    /* \"custom/ballot.sol\":640:650  msg.sender */\n  caller\n    /* \"custom/ballot.sol\":626:650  chairperson = msg.sender */\n  swap1\n  dup2\n  or\n  dup3\n  sstore\n    /* \"custom/ballot.sol\":663:682  voters[chairperson] */\n  dup2\n  mstore\n    /* \"custom/ballot.sol\":626:650  chairperson = msg.sender */\n  0x01\n    /* \"custom/ballot.sol\":663:682  voters[chairperson] */\n  0x20\n  dup2\n  swap1\n  mstore\n  0x40\n  dup3\n  keccak256\n    /* \"custom/ballot.sol\":663:693  voters[chairperson].weight = 1 */\n  dup1\n  sload\n  not(0xff)\n  and\n  swap1\n  swap2\n  or\n  swap1\n  sstore\n    /* \"custom/ballot.sol\":742:930  for (uint i = 0; i < proposalNames.length; i++) {\r... */\ntag_6:\n    /* \"custom/ballot.sol\":763:776  proposalNames */\n  dup2\n    /* \"custom/ballot.sol\":763:783  proposalNames.length */\n  mload\n    /* \"custom/ballot.sol\":759:760  i */\n  dup2\n    /* \"custom/ballot.sol\":759:783  i < proposalNames.length */\n  lt\n    /* \"custom/ballot.sol\":742:930  for (uint i = 0; i < proposalNames.length; i++) {\r... */\n  iszero\n  tag_7\n  jumpi\n    /* \"custom/ballot.sol\":805:814  proposals */\n  0x02\n    /* \"custom/ballot.sol\":820:917  Proposal({\r... */\n  mload(0x40)\n  dup1\n  0x40\n  add\n  0x40\n  mstore\n  dup1\n    /* \"custom/ballot.sol\":854:867  proposalNames */\n  dup5\n    /* \"custom/ballot.sol\":868:869  i */\n  dup5\n    /* \"custom/ballot.sol\":854:870  proposalNames[i] */\n  dup2\n  mload\n  dup2\n  lt\n  tag_10\n  jumpi\n  tag_10\n  tag_11\n  jump\t// in\ntag_10:\n  0x20\n  swap1\n  dup2\n  mul\n  swap2\n  swap1\n  swap2\n  add\n  dup2\n  add\n  mload\n    /* \"custom/ballot.sol\":820:917  Proposal({\r... */\n  dup3\n  mstore\n    /* \"custom/ballot.sol\":900:901  0 */\n  0x00\n    /* \"custom/ballot.sol\":820:917  Proposal({\r... */\n  swap2\n  dup2\n  add\n  dup3\n  swap1\n  mstore\n    /* \"custom/ballot.sol\":805:918  proposals.push(Proposal({\r... */\n  dup4\n  sload\n  0x01\n  dup2\n  dup2\n  add\n  dup7\n  sstore\n  swap5\n  dup4\n  mstore\n  swap2\n  dup2\n  swap1\n  keccak256\n  dup4\n  mload\n  0x02\n  swap1\n  swap4\n  mul\n  add\n  swap2\n  dup3\n  sstore\n  swap2\n  swap1\n  swap2\n  add\n  mload\n  swap2\n  add\n  sstore\n    /* \"custom/ballot.sol\":785:788  i++ */\n  dup1\n  tag_13\n  dup2\n  tag_14\n  jump\t// in\ntag_13:\n  swap2\n  pop\n  pop\n    /* \"custom/ballot.sol\":742:930  for (uint i = 0; i < proposalNames.length; i++) {\r... */\n  jump(tag_6)\ntag_7:\n  pop\n    /* \"custom/ballot.sol\":572:937  constructor(bytes32[] memory proposalNames){\r... */\n  pop\n    /* \"custom/ballot.sol\":88:3558  contract Ballot{\r... */\n  jump(tag_16)\n    /* \"#utility.yul\":14:1131   */\ntag_3:\n    /* \"#utility.yul\":109:115   */\n  0x00\n    /* \"#utility.yul\":140:142   */\n  0x20\n    /* \"#utility.yul\":183:185   */\n  dup1\n    /* \"#utility.yul\":171:180   */\n  dup4\n    /* \"#utility.yul\":162:169   */\n  dup6\n    /* \"#utility.yul\":158:181   */\n  sub\n    /* \"#utility.yul\":154:186   */\n  slt\n    /* \"#utility.yul\":151:203   */\n  iszero\n  tag_18\n  jumpi\n    /* \"#utility.yul\":199:200   */\n  0x00\n    /* \"#utility.yul\":196:197   */\n  dup1\n    /* \"#utility.yul\":189:201   */\n  revert\n    /* \"#utility.yul\":151:203   */\ntag_18:\n    /* \"#utility.yul\":232:241   */\n  dup3\n    /* \"#utility.yul\":226:242   */\n  mload\n    /* \"#utility.yul\":261:279   */\n  0xffffffffffffffff\n    /* \"#utility.yul\":302:304   */\n  dup1\n    /* \"#utility.yul\":294:300   */\n  dup3\n    /* \"#utility.yul\":291:305   */\n  gt\n    /* \"#utility.yul\":288:322   */\n  iszero\n  tag_19\n  jumpi\n    /* \"#utility.yul\":318:319   */\n  0x00\n    /* \"#utility.yul\":315:316   */\n  dup1\n    /* \"#utility.yul\":308:320   */\n  revert\n    /* \"#utility.yul\":288:322   */\ntag_19:\n    /* \"#utility.yul\":356:362   */\n  dup2\n    /* \"#utility.yul\":345:354   */\n  dup6\n    /* \"#utility.yul\":341:363   */\n  add\n    /* \"#utility.yul\":331:363   */\n  swap2\n  pop\n    /* \"#utility.yul\":401:408   */\n  dup6\n    /* \"#utility.yul\":394:398   */\n  0x1f\n    /* \"#utility.yul\":390:392   */\n  dup4\n    /* \"#utility.yul\":386:399   */\n  add\n    /* \"#utility.yul\":382:409   */\n  slt\n    /* \"#utility.yul\":372:427   */\n  tag_20\n  jumpi\n    /* \"#utility.yul\":423:424   */\n  0x00\n    /* \"#utility.yul\":420:421   */\n  dup1\n    /* \"#utility.yul\":413:425   */\n  revert\n    /* \"#utility.yul\":372:427   */\ntag_20:\n    /* \"#utility.yul\":452:454   */\n  dup2\n    /* \"#utility.yul\":446:455   */\n  mload\n    /* \"#utility.yul\":474:476   */\n  dup2\n    /* \"#utility.yul\":470:472   */\n  dup2\n    /* \"#utility.yul\":467:477   */\n  gt\n    /* \"#utility.yul\":464:500   */\n  iszero\n  tag_22\n  jumpi\n    /* \"#utility.yul\":480:498   */\n  tag_22\n  tag_23\n  jump\t// in\ntag_22:\n    /* \"#utility.yul\":527:529   */\n  dup4\n    /* \"#utility.yul\":523:525   */\n  dup2\n    /* \"#utility.yul\":519:530   */\n  mul\n    /* \"#utility.yul\":559:561   */\n  0x40\n    /* \"#utility.yul\":553:562   */\n  mload\n    /* \"#utility.yul\":622:624   */\n  0x1f\n    /* \"#utility.yul\":618:625   */\n  not\n    /* \"#utility.yul\":613:615   */\n  0x3f\n    /* \"#utility.yul\":609:611   */\n  dup4\n    /* \"#utility.yul\":605:616   */\n  add\n    /* \"#utility.yul\":601:626   */\n  and\n    /* \"#utility.yul\":593:599   */\n  dup2\n    /* \"#utility.yul\":589:627   */\n  add\n    /* \"#utility.yul\":677:683   */\n  dup2\n    /* \"#utility.yul\":665:675   */\n  dup2\n    /* \"#utility.yul\":662:684   */\n  lt\n    /* \"#utility.yul\":657:659   */\n  dup6\n    /* \"#utility.yul\":645:655   */\n  dup3\n    /* \"#utility.yul\":642:660   */\n  gt\n    /* \"#utility.yul\":639:685   */\n  or\n    /* \"#utility.yul\":636:708   */\n  iszero\n  tag_25\n  jumpi\n    /* \"#utility.yul\":688:706   */\n  tag_25\n  tag_23\n  jump\t// in\ntag_25:\n    /* \"#utility.yul\":724:726   */\n  0x40\n    /* \"#utility.yul\":717:739   */\n  mstore\n    /* \"#utility.yul\":774:792   */\n  dup3\n  dup2\n  mstore\n    /* \"#utility.yul\":808:823   */\n  dup6\n  dup2\n  add\n  swap4\n  pop\n    /* \"#utility.yul\":843:854   */\n  dup5\n  dup7\n  add\n    /* \"#utility.yul\":873:884   */\n  dup3\n  dup7\n  add\n    /* \"#utility.yul\":869:889   */\n  dup8\n  add\n    /* \"#utility.yul\":866:899   */\n  dup11\n  lt\n    /* \"#utility.yul\":863:916   */\n  iszero\n  tag_26\n  jumpi\n    /* \"#utility.yul\":912:913   */\n  0x00\n    /* \"#utility.yul\":909:910   */\n  dup1\n    /* \"#utility.yul\":902:914   */\n  revert\n    /* \"#utility.yul\":863:916   */\ntag_26:\n    /* \"#utility.yul\":934:935   */\n  0x00\n    /* \"#utility.yul\":925:935   */\n  swap6\n  pop\n    /* \"#utility.yul\":944:1100   */\ntag_27:\n    /* \"#utility.yul\":958:960   */\n  dup4\n    /* \"#utility.yul\":955:956   */\n  dup7\n    /* \"#utility.yul\":952:961   */\n  lt\n    /* \"#utility.yul\":944:1100   */\n  iszero\n  tag_29\n  jumpi\n    /* \"#utility.yul\":1015:1025   */\n  dup1\n  mload\n    /* \"#utility.yul\":1003:1026   */\n  dup6\n  mstore\n    /* \"#utility.yul\":976:977   */\n  0x01\n    /* \"#utility.yul\":969:978   */\n  swap6\n  swap1\n  swap6\n  add\n  swap5\n    /* \"#utility.yul\":1046:1058   */\n  swap4\n  dup7\n  add\n  swap4\n    /* \"#utility.yul\":1078:1090   */\n  dup7\n  add\n    /* \"#utility.yul\":944:1100   */\n  jump(tag_27)\ntag_29:\n  pop\n    /* \"#utility.yul\":1119:1125   */\n  swap9\n    /* \"#utility.yul\":14:1131   */\n  swap8\n  pop\n  pop\n  pop\n  pop\n  pop\n  pop\n  pop\n  pop\n  jump\t// out\n    /* \"#utility.yul\":1136:1425   */\ntag_14:\n    /* \"#utility.yul\":1175:1178   */\n  0x00\n  not(0x00)\n    /* \"#utility.yul\":1196:1213   */\n  dup3\n  eq\n    /* \"#utility.yul\":1193:1390   */\n  iszero\n  tag_31\n  jumpi\n    /* \"#utility.yul\":1246:1323   */\n  0x4e487b7100000000000000000000000000000000000000000000000000000000\n    /* \"#utility.yul\":1243:1244   */\n  0x00\n    /* \"#utility.yul\":1236:1324   */\n  mstore\n    /* \"#utility.yul\":1347:1351   */\n  0x11\n    /* \"#utility.yul\":1344:1345   */\n  0x04\n    /* \"#utility.yul\":1337:1352   */\n  mstore\n    /* \"#utility.yul\":1375:1379   */\n  0x24\n    /* \"#utility.yul\":1372:1373   */\n  0x00\n    /* \"#utility.yul\":1365:1380   */\n  revert\n    /* \"#utility.yul\":1193:1390   */\ntag_31:\n  pop\n    /* \"#utility.yul\":1417:1418   */\n  0x01\n    /* \"#utility.yul\":1406:1419   */\n  add\n  swap1\n    /* \"#utility.yul\":1136:1425   */\n  jump\t// out\n    /* \"#utility.yul\":1430:1614   */\ntag_11:\n    /* \"#utility.yul\":1482:1559   */\n  0x4e487b7100000000000000000000000000000000000000000000000000000000\n    /* \"#utility.yul\":1479:1480   */\n  0x00\n    /* \"#utility.yul\":1472:1560   */\n  mstore\n    /* \"#utility.yul\":1579:1583   */\n  0x32\n    /* \"#utility.yul\":1576:1577   */\n  0x04\n    /* \"#utility.yul\":1569:1584   */\n  mstore\n    /* \"#utility.yul\":1603:1607   */\n  0x24\n    /* \"#utility.yul\":1600:1601   */\n  0x00\n    /* \"#utility.yul\":1593:1608   */\n  revert\n    /* \"#utility.yul\":1619:1803   */\ntag_23:\n    /* \"#utility.yul\":1671:1748   */\n  0x4e487b7100000000000000000000000000000000000000000000000000000000\n    /* \"#utility.yul\":1668:1669   */\n  0x00\n    /* \"#utility.yul\":1661:1749   */\n  mstore\n    /* \"#utility.yul\":1768:1772   */\n  0x41\n    /* \"#utility.yul\":1765:1766   */\n  0x04\n    /* \"#utility.yul\":1758:1773   */\n  mstore\n    /* \"#utility.yul\":1792:1796   */\n  0x24\n    /* \"#utility.yul\":1789:1790   */\n  0x00\n    /* \"#utility.yul\":1782:1797   */\n  revert\n    /* \"#utility.yul\":1619:1803   */\ntag_16:\n    /* \"custom/ballot.sol\":88:3558  contract Ballot{\r... */\n  dataSize(sub_0)\n  dup1\n  dataOffset(sub_0)\n  0x00\n  codecopy\n  0x00\n  return\nstop\n\nsub_0: assembly {\n        /* \"custom/ballot.sol\":88:3558  contract Ballot{\r... */\n      mstore(0x40, 0x80)\n      callvalue\n      dup1\n      iszero\n      tag_1\n      jumpi\n      0x00\n      dup1\n      revert\n    tag_1:\n      pop\n      jumpi(tag_2, lt(calldatasize, 0x04))\n      calldataload(0x00)\n      0x0100000000000000000000000000000000000000000000000000000000\n      swap1\n      div\n      dup1\n      0x609ff1bd\n      gt\n      tag_10\n      jumpi\n      dup1\n      0x609ff1bd\n      eq\n      tag_6\n      jumpi\n      dup1\n      0x9e7b8d61\n      eq\n      tag_7\n      jumpi\n      dup1\n      0xa3ec138d\n      eq\n      tag_8\n      jumpi\n      dup1\n      0xb3f98adc\n      eq\n      tag_9\n      jumpi\n      0x00\n      dup1\n      revert\n    tag_10:\n      dup1\n      0x013cf08b\n      eq\n      tag_3\n      jumpi\n      dup1\n      0x2e4176cf\n      eq\n      tag_4\n      jumpi\n      dup1\n      0x5c19a95c\n      eq\n      tag_5\n      jumpi\n    tag_2:\n      0x00\n      dup1\n      revert\n        /* \"custom/ballot.sol\":536:563  Proposal[] public proposals */\n    tag_3:\n      tag_11\n      tag_12\n      calldatasize\n      0x04\n      tag_13\n      jump\t// in\n    tag_12:\n      tag_14\n      jump\t// in\n    tag_11:\n      0x40\n      dup1\n      mload\n        /* \"#utility.yul\":1983:2008   */\n      swap3\n      dup4\n      mstore\n        /* \"#utility.yul\":2039:2041   */\n      0x20\n        /* \"#utility.yul\":2024:2042   */\n      dup4\n      add\n        /* \"#utility.yul\":2017:2051   */\n      swap2\n      swap1\n      swap2\n      mstore\n        /* \"#utility.yul\":1956:1974   */\n      add\n        /* \"custom/ballot.sol\":536:563  Proposal[] public proposals */\n    tag_15:\n      mload(0x40)\n      dup1\n      swap2\n      sub\n      swap1\n      return\n        /* \"custom/ballot.sol\":430:456  address public chairperson */\n    tag_4:\n      sload(0x00)\n      tag_17\n      swap1\n      sub(exp(0x02, 0xa0), 0x01)\n      and\n      dup2\n      jump\n    tag_17:\n      mload(0x40)\n      sub(exp(0x02, 0xa0), 0x01)\n        /* \"#utility.yul\":951:1006   */\n      swap1\n      swap2\n      and\n        /* \"#utility.yul\":933:1007   */\n      dup2\n      mstore\n        /* \"#utility.yul\":921:923   */\n      0x20\n        /* \"#utility.yul\":906:924   */\n      add\n        /* \"custom/ballot.sol\":430:456  address public chairperson */\n      tag_15\n        /* \"#utility.yul\":787:1013   */\n      jump\n        /* \"custom/ballot.sol\":1308:2476  function delegate(address to) external {\r... */\n    tag_5:\n      tag_21\n      tag_22\n      calldatasize\n      0x04\n      tag_23\n      jump\t// in\n    tag_22:\n      tag_24\n      jump\t// in\n    tag_21:\n      stop\n        /* \"custom/ballot.sol\":2873:3555  function winningProposal() public view returns (Proposal[] memory)\r... */\n    tag_6:\n      tag_25\n      tag_26\n      jump\t// in\n    tag_25:\n      mload(0x40)\n      tag_15\n      swap2\n      swap1\n      tag_28\n      jump\t// in\n        /* \"custom/ballot.sol\":992:1282  function giveRightToVote(address voter) external{\r... */\n    tag_7:\n      tag_21\n      tag_30\n      calldatasize\n      0x04\n      tag_23\n      jump\t// in\n    tag_30:\n      tag_31\n      jump\t// in\n        /* \"custom/ballot.sol\":465:501  mapping(address=>Voter)public voters */\n    tag_8:\n      tag_32\n      tag_33\n      calldatasize\n      0x04\n      tag_23\n      jump\t// in\n    tag_33:\n      mstore(0x20, 0x01)\n      0x00\n      swap1\n      dup2\n      mstore\n      0x40\n      swap1\n      keccak256\n      sload\n      0xff\n      dup1\n      dup3\n      and\n      swap2\n      0x0100\n      dup2\n      div\n      dup3\n      and\n      swap2\n      sub(exp(0x02, 0xa0), 0x01)\n      0x010000\n      dup4\n      div\n      and\n      swap2\n      0x0100000000000000000000000000000000000000000000\n      swap1\n      div\n      and\n      dup5\n      jump\n    tag_32:\n      0x40\n      dup1\n      mload\n        /* \"#utility.yul\":4830:4834   */\n      0xff\n        /* \"#utility.yul\":4818:4835   */\n      swap6\n      dup7\n      and\n        /* \"#utility.yul\":4800:4836   */\n      dup2\n      mstore\n        /* \"#utility.yul\":4879:4893   */\n      swap4\n      iszero\n        /* \"#utility.yul\":4872:4894   */\n      iszero\n        /* \"#utility.yul\":4867:4869   */\n      0x20\n        /* \"#utility.yul\":4852:4870   */\n      dup6\n      add\n        /* \"#utility.yul\":4845:4895   */\n      mstore\n      sub(exp(0x02, 0xa0), 0x01)\n        /* \"#utility.yul\":4931:4986   */\n      swap1\n      swap3\n      and\n        /* \"#utility.yul\":4911:4929   */\n      swap2\n      dup4\n      add\n        /* \"#utility.yul\":4904:4987   */\n      swap2\n      swap1\n      swap2\n      mstore\n        /* \"#utility.yul\":5023:5040   */\n      swap2\n      swap1\n      swap2\n      and\n        /* \"#utility.yul\":5018:5020   */\n      0x60\n        /* \"#utility.yul\":5003:5021   */\n      dup3\n      add\n        /* \"#utility.yul\":4996:5041   */\n      mstore\n        /* \"#utility.yul\":4787:4790   */\n      0x80\n        /* \"#utility.yul\":4772:4791   */\n      add\n        /* \"custom/ballot.sol\":465:501  mapping(address=>Voter)public voters */\n      tag_15\n        /* \"#utility.yul\":4583:5047   */\n      jump\n        /* \"custom/ballot.sol\":2498:2836  function vote(uint8 proposal) external{\r... */\n    tag_9:\n      tag_21\n      tag_38\n      calldatasize\n      0x04\n      tag_39\n      jump\t// in\n    tag_38:\n      tag_40\n      jump\t// in\n        /* \"custom/ballot.sol\":536:563  Proposal[] public proposals */\n    tag_14:\n      0x02\n      dup2\n      dup2\n      sload\n      dup2\n      lt\n      tag_41\n      jumpi\n      0x00\n      dup1\n      revert\n    tag_41:\n      0x00\n      swap2\n      dup3\n      mstore\n      0x20\n      swap1\n      swap2\n      keccak256\n      0x02\n      swap1\n      swap2\n      mul\n      add\n      dup1\n      sload\n      0x01\n      swap1\n      swap2\n      add\n      sload\n      swap1\n      swap2\n      pop\n      dup3\n      jump\t// out\n        /* \"custom/ballot.sol\":1308:2476  function delegate(address to) external {\r... */\n    tag_24:\n        /* \"custom/ballot.sol\":1524:1534  msg.sender */\n      caller\n        /* \"custom/ballot.sol\":1494:1514  Voter storage sender */\n      0x00\n        /* \"custom/ballot.sol\":1517:1535  voters[msg.sender] */\n      swap1\n      dup2\n      mstore\n        /* \"custom/ballot.sol\":1517:1523  voters */\n      0x01\n        /* \"custom/ballot.sol\":1517:1535  voters[msg.sender] */\n      0x20\n      mstore\n      0x40\n      swap1\n      keccak256\n        /* \"custom/ballot.sol\":1554:1567  sender.weight */\n      dup1\n      sload\n      0xff\n      and\n        /* \"custom/ballot.sol\":1546:1602  require(sender.weight != 0,\"You have no right to vote.\") */\n      tag_44\n      jumpi\n      mload(0x40)\n      mul(0x461bcd, exp(0x02, 0xe5))\n      dup2\n      mstore\n        /* \"#utility.yul\":3718:3720   */\n      0x20\n        /* \"custom/ballot.sol\":1546:1602  require(sender.weight != 0,\"You have no right to vote.\") */\n      0x04\n      dup3\n      add\n        /* \"#utility.yul\":3700:3721   */\n      mstore\n        /* \"#utility.yul\":3757:3759   */\n      0x1a\n        /* \"#utility.yul\":3737:3755   */\n      0x24\n      dup3\n      add\n        /* \"#utility.yul\":3730:3760   */\n      mstore\n        /* \"#utility.yul\":3796:3824   */\n      0x596f752068617665206e6f20726967687420746f20766f74652e000000000000\n        /* \"#utility.yul\":3776:3794   */\n      0x44\n      dup3\n      add\n        /* \"#utility.yul\":3769:3825   */\n      mstore\n        /* \"#utility.yul\":3842:3860   */\n      0x64\n      add\n        /* \"custom/ballot.sol\":1546:1602  require(sender.weight != 0,\"You have no right to vote.\") */\n    tag_45:\n      mload(0x40)\n      dup1\n      swap2\n      sub\n      swap1\n      revert\n    tag_44:\n        /* \"custom/ballot.sol\":1622:1634  sender.voted */\n      dup1\n      sload\n      0x0100\n      swap1\n      div\n      0xff\n      and\n        /* \"custom/ballot.sol\":1621:1634  !sender.voted */\n      iszero\n        /* \"custom/ballot.sol\":1613:1656  require(!sender.voted,\"You already voted.\") */\n      tag_47\n      jumpi\n      mload(0x40)\n      mul(0x461bcd, exp(0x02, 0xe5))\n      dup2\n      mstore\n        /* \"#utility.yul\":2962:2964   */\n      0x20\n        /* \"custom/ballot.sol\":1613:1656  require(!sender.voted,\"You already voted.\") */\n      0x04\n      dup3\n      add\n        /* \"#utility.yul\":2944:2965   */\n      mstore\n        /* \"#utility.yul\":3001:3003   */\n      0x12\n        /* \"#utility.yul\":2981:2999   */\n      0x24\n      dup3\n      add\n        /* \"#utility.yul\":2974:3004   */\n      mstore\n        /* \"#utility.yul\":3040:3060   */\n      0x596f7520616c726561647920766f7465642e0000000000000000000000000000\n        /* \"#utility.yul\":3020:3038   */\n      0x44\n      dup3\n      add\n        /* \"#utility.yul\":3013:3061   */\n      mstore\n        /* \"#utility.yul\":3078:3096   */\n      0x64\n      add\n        /* \"custom/ballot.sol\":1613:1656  require(!sender.voted,\"You already voted.\") */\n      tag_45\n        /* \"#utility.yul\":2760:3102   */\n      jump\n        /* \"custom/ballot.sol\":1613:1656  require(!sender.voted,\"You already voted.\") */\n    tag_47:\n      sub(exp(0x02, 0xa0), 0x01)\n        /* \"custom/ballot.sol\":1675:1691  to != msg.sender */\n      dup3\n      and\n        /* \"custom/ballot.sol\":1681:1691  msg.sender */\n      caller\n        /* \"custom/ballot.sol\":1675:1691  to != msg.sender */\n      eq\n      iszero\n        /* \"custom/ballot.sol\":1667:1725  require(to != msg.sender,\"Self-delegation is disallowed.\") */\n      tag_50\n      jumpi\n      mload(0x40)\n      mul(0x461bcd, exp(0x02, 0xe5))\n      dup2\n      mstore\n        /* \"#utility.yul\":4426:4428   */\n      0x20\n        /* \"custom/ballot.sol\":1667:1725  require(to != msg.sender,\"Self-delegation is disallowed.\") */\n      0x04\n      dup3\n      add\n        /* \"#utility.yul\":4408:4429   */\n      mstore\n        /* \"#utility.yul\":4465:4467   */\n      0x1e\n        /* \"#utility.yul\":4445:4463   */\n      0x24\n      dup3\n      add\n        /* \"#utility.yul\":4438:4468   */\n      mstore\n        /* \"#utility.yul\":4504:4536   */\n      0x53656c662d64656c65676174696f6e20697320646973616c6c6f7765642e0000\n        /* \"#utility.yul\":4484:4502   */\n      0x44\n      dup3\n      add\n        /* \"#utility.yul\":4477:4537   */\n      mstore\n        /* \"#utility.yul\":4554:4572   */\n      0x64\n      add\n        /* \"custom/ballot.sol\":1667:1725  require(to != msg.sender,\"Self-delegation is disallowed.\") */\n      tag_45\n        /* \"#utility.yul\":4224:4578   */\n      jump\n        /* \"custom/ballot.sol\":1667:1725  require(to != msg.sender,\"Self-delegation is disallowed.\") */\n    tag_50:\n      sub(exp(0x02, 0xa0), 0x01)\n        /* \"custom/ballot.sol\":1792:1802  voters[to] */\n      dup3\n      dup2\n      and\n        /* \"custom/ballot.sol\":1823:1824  0 */\n      0x00\n        /* \"custom/ballot.sol\":1792:1802  voters[to] */\n      swap1\n      dup2\n      mstore\n        /* \"custom/ballot.sol\":1792:1798  voters */\n      0x01\n        /* \"custom/ballot.sol\":1792:1802  voters[to] */\n      0x20\n      mstore\n      0x40\n      swap1\n      keccak256\n        /* \"custom/ballot.sol\":1792:1811  voters[to].delegate */\n      sload\n      0x010000\n      swap1\n      div\n      and\n        /* \"custom/ballot.sol\":1792:1825  voters[to].delegate != address(0) */\n      iszero\n        /* \"custom/ballot.sol\":1786:1978  while(voters[to].delegate != address(0)){\r... */\n      tag_54\n      jumpi\n      sub(exp(0x02, 0xa0), 0x01)\n        /* \"custom/ballot.sol\":1846:1856  voters[to] */\n      swap2\n      dup3\n      and\n      0x00\n      swap1\n      dup2\n      mstore\n        /* \"custom/ballot.sol\":1846:1852  voters */\n      0x01\n        /* \"custom/ballot.sol\":1846:1856  voters[to] */\n      0x20\n      mstore\n      0x40\n      swap1\n      keccak256\n        /* \"custom/ballot.sol\":1846:1865  voters[to].delegate */\n      sload\n      0x010000\n      swap1\n      div\n      swap1\n      swap2\n      and\n      swap1\n        /* \"custom/ballot.sol\":1928:1938  msg.sender */\n      caller\n        /* \"custom/ballot.sol\":1922:1938  to != msg.sender */\n      dup3\n      eq\n      iszero\n        /* \"custom/ballot.sol\":1914:1966  require(to != msg.sender,\"Found loop in delegation\") */\n      tag_55\n      jumpi\n      mload(0x40)\n      mul(0x461bcd, exp(0x02, 0xe5))\n      dup2\n      mstore\n        /* \"#utility.yul\":4073:4075   */\n      0x20\n        /* \"custom/ballot.sol\":1914:1966  require(to != msg.sender,\"Found loop in delegation\") */\n      0x04\n      dup3\n      add\n        /* \"#utility.yul\":4055:4076   */\n      mstore\n        /* \"#utility.yul\":4112:4114   */\n      0x18\n        /* \"#utility.yul\":4092:4110   */\n      0x24\n      dup3\n      add\n        /* \"#utility.yul\":4085:4115   */\n      mstore\n        /* \"#utility.yul\":4151:4177   */\n      0x466f756e64206c6f6f7020696e2064656c65676174696f6e0000000000000000\n        /* \"#utility.yul\":4131:4149   */\n      0x44\n      dup3\n      add\n        /* \"#utility.yul\":4124:4178   */\n      mstore\n        /* \"#utility.yul\":4195:4213   */\n      0x64\n      add\n        /* \"custom/ballot.sol\":1914:1966  require(to != msg.sender,\"Found loop in delegation\") */\n      tag_45\n        /* \"#utility.yul\":3871:4219   */\n      jump\n        /* \"custom/ballot.sol\":1914:1966  require(to != msg.sender,\"Found loop in delegation\") */\n    tag_55:\n        /* \"custom/ballot.sol\":1786:1978  while(voters[to].delegate != address(0)){\r... */\n      jump(tag_50)\n    tag_54:\n      sub(exp(0x02, 0xa0), 0x01)\n        /* \"custom/ballot.sol\":2016:2026  voters[to] */\n      dup3\n      and\n        /* \"custom/ballot.sol\":1990:2013  Voter storage delegater */\n      0x00\n        /* \"custom/ballot.sol\":2016:2026  voters[to] */\n      swap1\n      dup2\n      mstore\n        /* \"custom/ballot.sol\":2016:2022  voters */\n      0x01\n        /* \"custom/ballot.sol\":2016:2026  voters[to] */\n      0x20\n      dup2\n      swap1\n      mstore\n      0x40\n      swap1\n      swap2\n      keccak256\n        /* \"custom/ballot.sol\":2045:2061  delegater.weight */\n      dup1\n      sload\n        /* \"custom/ballot.sol\":2016:2026  voters[to] */\n      swap1\n      swap2\n        /* \"custom/ballot.sol\":2045:2061  delegater.weight */\n      0xff\n      swap1\n      swap2\n      and\n        /* \"custom/ballot.sol\":2045:2066  delegater.weight >= 1 */\n      lt\n      iszero\n        /* \"custom/ballot.sol\":2037:2067  require(delegater.weight >= 1) */\n      tag_58\n      jumpi\n      0x00\n      dup1\n      revert\n    tag_58:\n        /* \"custom/ballot.sol\":2110:2129  sender.voted = true */\n      dup2\n      sload\n      sub(exp(0x02, 0xa0), 0x01)\n        /* \"custom/ballot.sol\":2140:2160  sender.delegate = to */\n      dup5\n      and\n      0x010000\n      mul\n      not(0xffffffffffffffffffffffffffffffffffffffffff00)\n      swap1\n      swap2\n      and\n      or\n        /* \"custom/ballot.sol\":2110:2129  sender.voted = true */\n      0x0100\n        /* \"custom/ballot.sol\":2140:2160  sender.delegate = to */\n      swap1\n      dup2\n      or\n      dup4\n      sstore\n        /* \"custom/ballot.sol\":2176:2191  delegater.voted */\n      dup2\n      sload\n      div\n        /* \"custom/ballot.sol\":2110:2129  sender.voted = true */\n      0xff\n        /* \"custom/ballot.sol\":2176:2191  delegater.voted */\n      and\n        /* \"custom/ballot.sol\":2173:2469  if(delegater.voted){\r... */\n      iszero\n      tag_59\n      jumpi\n        /* \"custom/ballot.sol\":2325:2338  sender.weight */\n      dup2\n      sload\n        /* \"custom/ballot.sol\":2296:2310  delegater.vote */\n      dup2\n      sload\n        /* \"custom/ballot.sol\":2286:2295  proposals */\n      0x02\n        /* \"custom/ballot.sol\":2286:2311  proposals[delegater.vote] */\n      dup1\n      sload\n        /* \"custom/ballot.sol\":2325:2338  sender.weight */\n      0xff\n      swap4\n      dup5\n      and\n      swap4\n        /* \"custom/ballot.sol\":2286:2295  proposals */\n      swap2\n      swap3\n        /* \"custom/ballot.sol\":2296:2310  delegater.vote */\n      0x0100000000000000000000000000000000000000000000\n      swap1\n      div\n      swap1\n      swap2\n      and\n      swap1\n        /* \"custom/ballot.sol\":2286:2311  proposals[delegater.vote] */\n      dup2\n      lt\n      tag_61\n      jumpi\n      tag_61\n      tag_62\n      jump\t// in\n    tag_61:\n      swap1\n      0x00\n      mstore\n      keccak256(0x00, 0x20)\n      swap1\n      0x02\n      mul\n      add\n        /* \"custom/ballot.sol\":2286:2321  proposals[delegater.vote].voteCount */\n      0x01\n      add\n      0x00\n        /* \"custom/ballot.sol\":2286:2338  proposals[delegater.vote].voteCount += sender.weight */\n      dup3\n      dup3\n      sload\n      tag_64\n      swap2\n      swap1\n      tag_65\n      jump\t// in\n    tag_64:\n      swap1\n      swap2\n      sstore\n      pop\n        /* \"custom/ballot.sol\":2173:2469  if(delegater.voted){\r... */\n      tag_66\n      swap1\n      pop\n      jump\n    tag_59:\n        /* \"custom/ballot.sol\":2444:2457  sender.weight */\n      dup2\n      sload\n        /* \"custom/ballot.sol\":2424:2457  delegater.weight += sender.weight */\n      dup2\n      sload\n        /* \"custom/ballot.sol\":2444:2457  sender.weight */\n      0xff\n      swap2\n      dup3\n      and\n      swap2\n        /* \"custom/ballot.sol\":2424:2433  delegater */\n      dup4\n      swap2\n        /* \"custom/ballot.sol\":2444:2457  sender.weight */\n      0x00\n      swap2\n        /* \"custom/ballot.sol\":2424:2457  delegater.weight += sender.weight */\n      tag_67\n      swap2\n        /* \"custom/ballot.sol\":2444:2457  sender.weight */\n      dup6\n      swap2\n        /* \"custom/ballot.sol\":2424:2457  delegater.weight += sender.weight */\n      and\n      tag_68\n      jump\t// in\n    tag_67:\n      swap3\n      pop\n      0x0100\n      exp\n      dup2\n      sload\n      dup2\n      0xff\n      mul\n      not\n      and\n      swap1\n      dup4\n      0xff\n      and\n      mul\n      or\n      swap1\n      sstore\n      pop\n        /* \"custom/ballot.sol\":2173:2469  if(delegater.voted){\r... */\n    tag_66:\n        /* \"custom/ballot.sol\":1347:2476  {\r... */\n      pop\n      pop\n        /* \"custom/ballot.sol\":1308:2476  function delegate(address to) external {\r... */\n      pop\n      jump\t// out\n        /* \"custom/ballot.sol\":2873:3555  function winningProposal() public view returns (Proposal[] memory)\r... */\n    tag_26:\n        /* \"custom/ballot.sol\":2921:2938  Proposal[] memory */\n      0x60\n        /* \"custom/ballot.sol\":2956:2977  Proposal[] memory win */\n      dup1\n        /* \"custom/ballot.sol\":2988:3009  uint winningVoteCount */\n      0x00\n        /* \"custom/ballot.sol\":3028:3034  uint i */\n      dup1\n        /* \"custom/ballot.sol\":3024:3209  for(uint i=0;i < proposals.length;i++){\r... */\n    tag_70:\n        /* \"custom/ballot.sol\":3041:3050  proposals */\n      0x02\n        /* \"custom/ballot.sol\":3041:3057  proposals.length */\n      sload\n        /* \"custom/ballot.sol\":3037:3057  i < proposals.length */\n      dup2\n      lt\n        /* \"custom/ballot.sol\":3024:3209  for(uint i=0;i < proposals.length;i++){\r... */\n      iszero\n      tag_71\n      jumpi\n        /* \"custom/ballot.sol\":3105:3121  winningVoteCount */\n      dup2\n        /* \"custom/ballot.sol\":3080:3089  proposals */\n      0x02\n        /* \"custom/ballot.sol\":3090:3091  i */\n      dup3\n        /* \"custom/ballot.sol\":3080:3092  proposals[i] */\n      dup2\n      sload\n      dup2\n      lt\n      tag_74\n      jumpi\n      tag_74\n      tag_62\n      jump\t// in\n    tag_74:\n      swap1\n      0x00\n      mstore\n      keccak256(0x00, 0x20)\n      swap1\n      0x02\n      mul\n      add\n        /* \"custom/ballot.sol\":3080:3102  proposals[i].voteCount */\n      0x01\n      add\n      sload\n        /* \"custom/ballot.sol\":3080:3121  proposals[i].voteCount > winningVoteCount */\n      gt\n        /* \"custom/ballot.sol\":3077:3198  if(proposals[i].voteCount > winningVoteCount){\r... */\n      iszero\n      tag_76\n      jumpi\n        /* \"custom/ballot.sol\":3160:3169  proposals */\n      0x02\n        /* \"custom/ballot.sol\":3170:3171  i */\n      dup2\n        /* \"custom/ballot.sol\":3160:3172  proposals[i] */\n      dup2\n      sload\n      dup2\n      lt\n      tag_78\n      jumpi\n      tag_78\n      tag_62\n      jump\t// in\n    tag_78:\n      swap1\n      0x00\n      mstore\n      keccak256(0x00, 0x20)\n      swap1\n      0x02\n      mul\n      add\n        /* \"custom/ballot.sol\":3160:3182  proposals[i].voteCount */\n      0x01\n      add\n      sload\n        /* \"custom/ballot.sol\":3141:3182  winningVoteCount = proposals[i].voteCount */\n      swap2\n      pop\n        /* \"custom/ballot.sol\":3077:3198  if(proposals[i].voteCount > winningVoteCount){\r... */\n    tag_76:\n        /* \"custom/ballot.sol\":3058:3061  i++ */\n      dup1\n      tag_80\n      dup2\n      tag_81\n      jump\t// in\n    tag_80:\n      swap2\n      pop\n      pop\n        /* \"custom/ballot.sol\":3024:3209  for(uint i=0;i < proposals.length;i++){\r... */\n      jump(tag_70)\n    tag_71:\n      pop\n        /* \"custom/ballot.sol\":3225:3231  uint m */\n      0x00\n        /* \"custom/ballot.sol\":3221:3515  for(uint m=0; m < proposals.length; m++){\r... */\n    tag_82:\n        /* \"custom/ballot.sol\":3239:3248  proposals */\n      0x02\n        /* \"custom/ballot.sol\":3239:3255  proposals.length */\n      sload\n        /* \"custom/ballot.sol\":3235:3255  m < proposals.length */\n      dup2\n      lt\n        /* \"custom/ballot.sol\":3221:3515  for(uint m=0; m < proposals.length; m++){\r... */\n      iszero\n      tag_83\n      jumpi\n        /* \"custom/ballot.sol\":3299:3308  proposals */\n      0x02\n        /* \"custom/ballot.sol\":3309:3310  m */\n      dup2\n        /* \"custom/ballot.sol\":3299:3311  proposals[m] */\n      dup2\n      sload\n      dup2\n      lt\n      tag_86\n      jumpi\n      tag_86\n      tag_62\n      jump\t// in\n    tag_86:\n      swap1\n      0x00\n      mstore\n      keccak256(0x00, 0x20)\n      swap1\n      0x02\n      mul\n      add\n        /* \"custom/ballot.sol\":3299:3321  proposals[m].voteCount */\n      0x01\n      add\n      sload\n        /* \"custom/ballot.sol\":3279:3295  winningVoteCount */\n      dup3\n        /* \"custom/ballot.sol\":3279:3321  winningVoteCount == proposals[m].voteCount */\n      eq\n        /* \"custom/ballot.sol\":3276:3504  if(winningVoteCount == proposals[m].voteCount){\r... */\n      iszero\n      tag_88\n      jumpi\n        /* \"custom/ballot.sol\":3476:3485  proposals */\n      0x02\n        /* \"custom/ballot.sol\":3486:3487  m */\n      dup2\n        /* \"custom/ballot.sol\":3476:3488  proposals[m] */\n      dup2\n      sload\n      dup2\n      lt\n      tag_90\n      jumpi\n      tag_90\n      tag_62\n      jump\t// in\n    tag_90:\n      0x00\n      swap2\n      dup3\n      mstore\n      0x20\n      swap2\n      dup3\n      swap1\n      keccak256\n        /* \"custom/ballot.sol\":3458:3488  win[win.length] = proposals[m] */\n      0x40\n      dup1\n      mload\n      dup1\n      dup3\n      add\n      swap1\n      swap2\n      mstore\n        /* \"custom/ballot.sol\":3476:3488  proposals[m] */\n      0x02\n      swap1\n      swap3\n      mul\n      add\n        /* \"custom/ballot.sol\":3458:3488  win[win.length] = proposals[m] */\n      dup1\n      sload\n      dup3\n      mstore\n      0x01\n      add\n      sload\n      swap2\n      dup2\n      add\n      swap2\n      swap1\n      swap2\n      mstore\n        /* \"custom/ballot.sol\":3462:3472  win.length */\n      dup4\n      mload\n        /* \"custom/ballot.sol\":3458:3461  win */\n      dup5\n      swap1\n        /* \"custom/ballot.sol\":3458:3473  win[win.length] */\n      tag_93\n      tag_62\n      jump\t// in\n    tag_93:\n      0x20\n      mul\n      0x20\n      add\n      add\n        /* \"custom/ballot.sol\":3458:3488  win[win.length] = proposals[m] */\n      dup2\n      swap1\n      mstore\n      pop\n        /* \"custom/ballot.sol\":3276:3504  if(winningVoteCount == proposals[m].voteCount){\r... */\n    tag_88:\n        /* \"custom/ballot.sol\":3257:3260  m++ */\n      dup1\n      tag_94\n      dup2\n      tag_81\n      jump\t// in\n    tag_94:\n      swap2\n      pop\n      pop\n        /* \"custom/ballot.sol\":3221:3515  for(uint m=0; m < proposals.length; m++){\r... */\n      jump(tag_82)\n    tag_83:\n      pop\n        /* \"custom/ballot.sol\":3544:3547  win */\n      swap1\n      swap3\n        /* \"custom/ballot.sol\":2873:3555  function winningProposal() public view returns (Proposal[] memory)\r... */\n      swap2\n      pop\n      pop\n      jump\t// out\n        /* \"custom/ballot.sol\":992:1282  function giveRightToVote(address voter) external{\r... */\n    tag_31:\n        /* \"custom/ballot.sol\":1073:1084  chairperson */\n      and(sub(exp(0x02, 0xa0), 0x01), sload(0x00))\n        /* \"custom/ballot.sol\":1059:1069  msg.sender */\n      caller\n        /* \"custom/ballot.sol\":1059:1084  msg.sender == chairperson */\n      eq\n        /* \"custom/ballot.sol\":1051:1128  require(msg.sender == chairperson,\"Only chairperson can give right to vote.\") */\n      tag_96\n      jumpi\n      mload(0x40)\n      mul(0x461bcd, exp(0x02, 0xe5))\n      dup2\n      mstore\n        /* \"#utility.yul\":3309:3311   */\n      0x20\n        /* \"custom/ballot.sol\":1051:1128  require(msg.sender == chairperson,\"Only chairperson can give right to vote.\") */\n      0x04\n      dup3\n      add\n        /* \"#utility.yul\":3291:3312   */\n      mstore\n        /* \"#utility.yul\":3348:3350   */\n      0x28\n        /* \"#utility.yul\":3328:3346   */\n      0x24\n      dup3\n      add\n        /* \"#utility.yul\":3321:3351   */\n      mstore\n        /* \"#utility.yul\":3387:3421   */\n      0x4f6e6c79206368616972706572736f6e2063616e206769766520726967687420\n        /* \"#utility.yul\":3367:3385   */\n      0x44\n      dup3\n      add\n        /* \"#utility.yul\":3360:3422   */\n      mstore\n        /* \"#utility.yul\":3458:3468   */\n      0x746f20766f74652e000000000000000000000000000000000000000000000000\n        /* \"#utility.yul\":3438:3456   */\n      0x64\n      dup3\n      add\n        /* \"#utility.yul\":3431:3469   */\n      mstore\n        /* \"#utility.yul\":3486:3505   */\n      0x84\n      add\n        /* \"custom/ballot.sol\":1051:1128  require(msg.sender == chairperson,\"Only chairperson can give right to vote.\") */\n      tag_45\n        /* \"#utility.yul\":3107:3511   */\n      jump\n        /* \"custom/ballot.sol\":1051:1128  require(msg.sender == chairperson,\"Only chairperson can give right to vote.\") */\n    tag_96:\n      sub(exp(0x02, 0xa0), 0x01)\n        /* \"custom/ballot.sol\":1148:1161  voters[voter] */\n      dup2\n      and\n      0x00\n      swap1\n      dup2\n      mstore\n        /* \"custom/ballot.sol\":1148:1154  voters */\n      0x01\n        /* \"custom/ballot.sol\":1148:1161  voters[voter] */\n      0x20\n      mstore\n      0x40\n      swap1\n      keccak256\n        /* \"custom/ballot.sol\":1148:1167  voters[voter].voted */\n      sload\n      0x0100\n      swap1\n      div\n      0xff\n      and\n        /* \"custom/ballot.sol\":1147:1167  !voters[voter].voted */\n      iszero\n        /* \"custom/ballot.sol\":1139:1194  require(!voters[voter].voted,\"The voter already voted\") */\n      tag_99\n      jumpi\n      mload(0x40)\n      mul(0x461bcd, exp(0x02, 0xe5))\n      dup2\n      mstore\n        /* \"#utility.yul\":2264:2266   */\n      0x20\n        /* \"custom/ballot.sol\":1139:1194  require(!voters[voter].voted,\"The voter already voted\") */\n      0x04\n      dup3\n      add\n        /* \"#utility.yul\":2246:2267   */\n      mstore\n        /* \"#utility.yul\":2303:2305   */\n      0x17\n        /* \"#utility.yul\":2283:2301   */\n      0x24\n      dup3\n      add\n        /* \"#utility.yul\":2276:2306   */\n      mstore\n        /* \"#utility.yul\":2342:2367   */\n      0x54686520766f74657220616c726561647920766f746564000000000000000000\n        /* \"#utility.yul\":2322:2340   */\n      0x44\n      dup3\n      add\n        /* \"#utility.yul\":2315:2368   */\n      mstore\n        /* \"#utility.yul\":2385:2403   */\n      0x64\n      add\n        /* \"custom/ballot.sol\":1139:1194  require(!voters[voter].voted,\"The voter already voted\") */\n      tag_45\n        /* \"#utility.yul\":2062:2409   */\n      jump\n        /* \"custom/ballot.sol\":1139:1194  require(!voters[voter].voted,\"The voter already voted\") */\n    tag_99:\n      sub(exp(0x02, 0xa0), 0x01)\n        /* \"custom/ballot.sol\":1213:1226  voters[voter] */\n      dup2\n      and\n      0x00\n      swap1\n      dup2\n      mstore\n        /* \"custom/ballot.sol\":1213:1219  voters */\n      0x01\n        /* \"custom/ballot.sol\":1213:1226  voters[voter] */\n      0x20\n      mstore\n      0x40\n      swap1\n      keccak256\n        /* \"custom/ballot.sol\":1213:1233  voters[voter].weight */\n      sload\n      0xff\n      and\n        /* \"custom/ballot.sol\":1213:1238  voters[voter].weight == 0 */\n      iszero\n        /* \"custom/ballot.sol\":1205:1239  require(voters[voter].weight == 0) */\n      tag_102\n      jumpi\n      0x00\n      dup1\n      revert\n    tag_102:\n      sub(exp(0x02, 0xa0), 0x01)\n        /* \"custom/ballot.sol\":1250:1263  voters[voter] */\n      and\n      0x00\n      swap1\n      dup2\n      mstore\n        /* \"custom/ballot.sol\":1273:1274  1 */\n      0x01\n        /* \"custom/ballot.sol\":1250:1263  voters[voter] */\n      0x20\n      dup2\n      swap1\n      mstore\n      0x40\n      swap1\n      swap2\n      keccak256\n        /* \"custom/ballot.sol\":1250:1274  voters[voter].weight = 1 */\n      dup1\n      sload\n      not(0xff)\n      and\n      swap1\n      swap2\n      or\n      swap1\n      sstore\n        /* \"custom/ballot.sol\":992:1282  function giveRightToVote(address voter) external{\r... */\n      jump\t// out\n        /* \"custom/ballot.sol\":2498:2836  function vote(uint8 proposal) external{\r... */\n    tag_40:\n        /* \"custom/ballot.sol\":2577:2587  msg.sender */\n      caller\n        /* \"custom/ballot.sol\":2547:2567  Voter storage sender */\n      0x00\n        /* \"custom/ballot.sol\":2570:2588  voters[msg.sender] */\n      swap1\n      dup2\n      mstore\n        /* \"custom/ballot.sol\":2570:2576  voters */\n      0x01\n        /* \"custom/ballot.sol\":2570:2588  voters[msg.sender] */\n      0x20\n      mstore\n      0x40\n      swap1\n      keccak256\n        /* \"custom/ballot.sol\":2608:2620  sender.voted */\n      dup1\n      sload\n      0x0100\n      swap1\n      div\n      0xff\n      and\n        /* \"custom/ballot.sol\":2607:2620  !sender.voted */\n      iszero\n        /* \"custom/ballot.sol\":2599:2641  require(!sender.voted,\"You already voted\") */\n      tag_104\n      jumpi\n      mload(0x40)\n      mul(0x461bcd, exp(0x02, 0xe5))\n      dup2\n      mstore\n        /* \"#utility.yul\":2616:2618   */\n      0x20\n        /* \"custom/ballot.sol\":2599:2641  require(!sender.voted,\"You already voted\") */\n      0x04\n      dup3\n      add\n        /* \"#utility.yul\":2598:2619   */\n      mstore\n        /* \"#utility.yul\":2655:2657   */\n      0x11\n        /* \"#utility.yul\":2635:2653   */\n      0x24\n      dup3\n      add\n        /* \"#utility.yul\":2628:2658   */\n      mstore\n        /* \"#utility.yul\":2694:2713   */\n      0x596f7520616c726561647920766f746564000000000000000000000000000000\n        /* \"#utility.yul\":2674:2692   */\n      0x44\n      dup3\n      add\n        /* \"#utility.yul\":2667:2714   */\n      mstore\n        /* \"#utility.yul\":2731:2749   */\n      0x64\n      add\n        /* \"custom/ballot.sol\":2599:2641  require(!sender.voted,\"You already voted\") */\n      tag_45\n        /* \"#utility.yul\":2414:2755   */\n      jump\n        /* \"custom/ballot.sol\":2599:2641  require(!sender.voted,\"You already voted\") */\n    tag_104:\n        /* \"custom/ballot.sol\":2660:2673  sender.weight */\n      dup1\n      sload\n      0xff\n      and\n        /* \"custom/ballot.sol\":2652:2708  require(sender.weight != 0,\"You have no right to vote.\") */\n      tag_107\n      jumpi\n      mload(0x40)\n      mul(0x461bcd, exp(0x02, 0xe5))\n      dup2\n      mstore\n        /* \"#utility.yul\":3718:3720   */\n      0x20\n        /* \"custom/ballot.sol\":2652:2708  require(sender.weight != 0,\"You have no right to vote.\") */\n      0x04\n      dup3\n      add\n        /* \"#utility.yul\":3700:3721   */\n      mstore\n        /* \"#utility.yul\":3757:3759   */\n      0x1a\n        /* \"#utility.yul\":3737:3755   */\n      0x24\n      dup3\n      add\n        /* \"#utility.yul\":3730:3760   */\n      mstore\n        /* \"#utility.yul\":3796:3824   */\n      0x596f752068617665206e6f20726967687420746f20766f74652e000000000000\n        /* \"#utility.yul\":3776:3794   */\n      0x44\n      dup3\n      add\n        /* \"#utility.yul\":3769:3825   */\n      mstore\n        /* \"#utility.yul\":3842:3860   */\n      0x64\n      add\n        /* \"custom/ballot.sol\":2652:2708  require(sender.weight != 0,\"You have no right to vote.\") */\n      tag_45\n        /* \"#utility.yul\":3516:3866   */\n      jump\n        /* \"custom/ballot.sol\":2652:2708  require(sender.weight != 0,\"You have no right to vote.\") */\n    tag_107:\n        /* \"custom/ballot.sol\":2719:2738  sender.voted = true */\n      dup1\n      sload\n      0xff\n        /* \"custom/ballot.sol\":2749:2771  sender.vote = proposal */\n      dup4\n      dup2\n      and\n      0x0100000000000000000000000000000000000000000000\n      dup2\n      mul\n      not(0xff0000000000000000000000000000000000000000ff00)\n      swap1\n      swap4\n      and\n      swap3\n      swap1\n      swap3\n      or\n        /* \"custom/ballot.sol\":2719:2738  sender.voted = true */\n      0x0100\n        /* \"custom/ballot.sol\":2749:2771  sender.vote = proposal */\n      or\n      dup1\n      dup5\n      sstore\n        /* \"custom/ballot.sol\":2782:2791  proposals */\n      0x02\n        /* \"custom/ballot.sol\":2782:2801  proposals[proposal] */\n      dup1\n      sload\n        /* \"custom/ballot.sol\":2815:2828  sender.weight */\n      swap2\n      swap1\n      swap3\n      and\n      swap3\n        /* \"custom/ballot.sol\":2749:2771  sender.vote = proposal */\n      swap1\n        /* \"custom/ballot.sol\":2782:2801  proposals[proposal] */\n      dup2\n      lt\n      tag_110\n      jumpi\n      tag_110\n      tag_62\n      jump\t// in\n    tag_110:\n      swap1\n      0x00\n      mstore\n      keccak256(0x00, 0x20)\n      swap1\n      0x02\n      mul\n      add\n        /* \"custom/ballot.sol\":2782:2811  proposals[proposal].voteCount */\n      0x01\n      add\n      0x00\n        /* \"custom/ballot.sol\":2782:2828  proposals[proposal].voteCount += sender.weight */\n      dup3\n      dup3\n      sload\n      tag_112\n      swap2\n      swap1\n      tag_65\n      jump\t// in\n    tag_112:\n      swap1\n      swap2\n      sstore\n      pop\n      pop\n      pop\n      pop\n        /* \"custom/ballot.sol\":2498:2836  function vote(uint8 proposal) external{\r... */\n      jump\t// out\n        /* \"#utility.yul\":14:323   */\n    tag_23:\n        /* \"#utility.yul\":73:79   */\n      0x00\n        /* \"#utility.yul\":126:128   */\n      0x20\n        /* \"#utility.yul\":114:123   */\n      dup3\n        /* \"#utility.yul\":105:112   */\n      dup5\n        /* \"#utility.yul\":101:124   */\n      sub\n        /* \"#utility.yul\":97:129   */\n      slt\n        /* \"#utility.yul\":94:146   */\n      iszero\n      tag_115\n      jumpi\n        /* \"#utility.yul\":142:143   */\n      0x00\n        /* \"#utility.yul\":139:140   */\n      dup1\n        /* \"#utility.yul\":132:144   */\n      revert\n        /* \"#utility.yul\":94:146   */\n    tag_115:\n        /* \"#utility.yul\":181:190   */\n      dup2\n        /* \"#utility.yul\":168:191   */\n      calldataload\n      sub(exp(0x02, 0xa0), 0x01)\n        /* \"#utility.yul\":224:229   */\n      dup2\n        /* \"#utility.yul\":220:274   */\n      and\n        /* \"#utility.yul\":213:218   */\n      dup2\n        /* \"#utility.yul\":210:275   */\n      eq\n        /* \"#utility.yul\":200:293   */\n      tag_116\n      jumpi\n        /* \"#utility.yul\":289:290   */\n      0x00\n        /* \"#utility.yul\":286:287   */\n      dup1\n        /* \"#utility.yul\":279:291   */\n      revert\n        /* \"#utility.yul\":200:293   */\n    tag_116:\n        /* \"#utility.yul\":312:317   */\n      swap4\n        /* \"#utility.yul\":14:323   */\n      swap3\n      pop\n      pop\n      pop\n      jump\t// out\n        /* \"#utility.yul\":328:508   */\n    tag_13:\n        /* \"#utility.yul\":387:393   */\n      0x00\n        /* \"#utility.yul\":440:442   */\n      0x20\n        /* \"#utility.yul\":428:437   */\n      dup3\n        /* \"#utility.yul\":419:426   */\n      dup5\n        /* \"#utility.yul\":415:438   */\n      sub\n        /* \"#utility.yul\":411:443   */\n      slt\n        /* \"#utility.yul\":408:460   */\n      iszero\n      tag_118\n      jumpi\n        /* \"#utility.yul\":456:457   */\n      0x00\n        /* \"#utility.yul\":453:454   */\n      dup1\n        /* \"#utility.yul\":446:458   */\n      revert\n        /* \"#utility.yul\":408:460   */\n    tag_118:\n      pop\n        /* \"#utility.yul\":479:502   */\n      calldataload\n      swap2\n        /* \"#utility.yul\":328:508   */\n      swap1\n      pop\n      jump\t// out\n        /* \"#utility.yul\":513:782   */\n    tag_39:\n        /* \"#utility.yul\":570:576   */\n      0x00\n        /* \"#utility.yul\":623:625   */\n      0x20\n        /* \"#utility.yul\":611:620   */\n      dup3\n        /* \"#utility.yul\":602:609   */\n      dup5\n        /* \"#utility.yul\":598:621   */\n      sub\n        /* \"#utility.yul\":594:626   */\n      slt\n        /* \"#utility.yul\":591:643   */\n      iszero\n      tag_120\n      jumpi\n        /* \"#utility.yul\":639:640   */\n      0x00\n        /* \"#utility.yul\":636:637   */\n      dup1\n        /* \"#utility.yul\":629:641   */\n      revert\n        /* \"#utility.yul\":591:643   */\n    tag_120:\n        /* \"#utility.yul\":678:687   */\n      dup2\n        /* \"#utility.yul\":665:688   */\n      calldataload\n        /* \"#utility.yul\":728:732   */\n      0xff\n        /* \"#utility.yul\":721:726   */\n      dup2\n        /* \"#utility.yul\":717:733   */\n      and\n        /* \"#utility.yul\":710:715   */\n      dup2\n        /* \"#utility.yul\":707:734   */\n      eq\n        /* \"#utility.yul\":697:752   */\n      tag_116\n      jumpi\n        /* \"#utility.yul\":748:749   */\n      0x00\n        /* \"#utility.yul\":745:746   */\n      dup1\n        /* \"#utility.yul\":738:750   */\n      revert\n        /* \"#utility.yul\":1018:1804   */\n    tag_28:\n        /* \"#utility.yul\":1237:1239   */\n      0x20\n        /* \"#utility.yul\":1289:1310   */\n      dup1\n      dup3\n      mstore\n        /* \"#utility.yul\":1359:1372   */\n      dup3\n      mload\n        /* \"#utility.yul\":1262:1280   */\n      dup3\n      dup3\n      add\n        /* \"#utility.yul\":1381:1403   */\n      dup2\n      swap1\n      mstore\n        /* \"#utility.yul\":1208:1212   */\n      0x00\n      swap2\n        /* \"#utility.yul\":1237:1239   */\n      swap1\n        /* \"#utility.yul\":1422:1424   */\n      0x40\n      swap1\n        /* \"#utility.yul\":1440:1458   */\n      dup2\n      dup6\n      add\n      swap1\n        /* \"#utility.yul\":1481:1496   */\n      dup7\n      dup5\n      add\n        /* \"#utility.yul\":1208:1212   */\n      dup6\n        /* \"#utility.yul\":1524:1778   */\n    tag_124:\n        /* \"#utility.yul\":1538:1544   */\n      dup3\n        /* \"#utility.yul\":1535:1536   */\n      dup2\n        /* \"#utility.yul\":1532:1545   */\n      lt\n        /* \"#utility.yul\":1524:1778   */\n      iszero\n      tag_126\n      jumpi\n        /* \"#utility.yul\":1597:1610   */\n      dup2\n      mload\n        /* \"#utility.yul\":1635:1644   */\n      dup1\n      mload\n        /* \"#utility.yul\":1623:1645   */\n      dup6\n      mstore\n        /* \"#utility.yul\":1685:1696   */\n      dup7\n      add\n        /* \"#utility.yul\":1679:1697   */\n      mload\n        /* \"#utility.yul\":1665:1677   */\n      dup7\n      dup6\n      add\n        /* \"#utility.yul\":1658:1698   */\n      mstore\n        /* \"#utility.yul\":1718:1730   */\n      swap3\n      dup5\n      add\n      swap3\n        /* \"#utility.yul\":1753:1768   */\n      swap1\n      dup6\n      add\n      swap1\n        /* \"#utility.yul\":1560:1561   */\n      0x01\n        /* \"#utility.yul\":1553:1562   */\n      add\n        /* \"#utility.yul\":1524:1778   */\n      jump(tag_124)\n    tag_126:\n      pop\n        /* \"#utility.yul\":1795:1798   */\n      swap2\n      swap8\n        /* \"#utility.yul\":1018:1804   */\n      swap7\n      pop\n      pop\n      pop\n      pop\n      pop\n      pop\n      pop\n      jump\t// out\n        /* \"#utility.yul\":5052:5180   */\n    tag_65:\n        /* \"#utility.yul\":5092:5095   */\n      0x00\n        /* \"#utility.yul\":5123:5124   */\n      dup3\n        /* \"#utility.yul\":5119:5125   */\n      not\n        /* \"#utility.yul\":5116:5117   */\n      dup3\n        /* \"#utility.yul\":5113:5126   */\n      gt\n        /* \"#utility.yul\":5110:5149   */\n      iszero\n      tag_138\n      jumpi\n        /* \"#utility.yul\":5129:5147   */\n      tag_138\n      tag_139\n      jump\t// in\n    tag_138:\n      pop\n        /* \"#utility.yul\":5165:5174   */\n      add\n      swap1\n        /* \"#utility.yul\":5052:5180   */\n      jump\t// out\n        /* \"#utility.yul\":5185:5389   */\n    tag_68:\n        /* \"#utility.yul\":5223:5226   */\n      0x00\n        /* \"#utility.yul\":5259:5263   */\n      0xff\n        /* \"#utility.yul\":5256:5257   */\n      dup3\n        /* \"#utility.yul\":5252:5264   */\n      and\n        /* \"#utility.yul\":5291:5295   */\n      0xff\n        /* \"#utility.yul\":5288:5289   */\n      dup5\n        /* \"#utility.yul\":5284:5296   */\n      and\n        /* \"#utility.yul\":5326:5329   */\n      dup1\n        /* \"#utility.yul\":5320:5324   */\n      0xff\n        /* \"#utility.yul\":5316:5330   */\n      sub\n        /* \"#utility.yul\":5311:5314   */\n      dup3\n        /* \"#utility.yul\":5308:5331   */\n      gt\n        /* \"#utility.yul\":5305:5354   */\n      iszero\n      tag_142\n      jumpi\n        /* \"#utility.yul\":5334:5352   */\n      tag_142\n      tag_139\n      jump\t// in\n    tag_142:\n        /* \"#utility.yul\":5370:5383   */\n      add\n      swap4\n        /* \"#utility.yul\":5185:5389   */\n      swap3\n      pop\n      pop\n      pop\n      jump\t// out\n        /* \"#utility.yul\":5394:5529   */\n    tag_81:\n        /* \"#utility.yul\":5433:5436   */\n      0x00\n      not(0x00)\n        /* \"#utility.yul\":5454:5471   */\n      dup3\n      eq\n        /* \"#utility.yul\":5451:5494   */\n      iszero\n      tag_145\n      jumpi\n        /* \"#utility.yul\":5474:5492   */\n      tag_145\n      tag_139\n      jump\t// in\n    tag_145:\n      pop\n        /* \"#utility.yul\":5521:5522   */\n      0x01\n        /* \"#utility.yul\":5510:5523   */\n      add\n      swap1\n        /* \"#utility.yul\":5394:5529   */\n      jump\t// out\n        /* \"#utility.yul\":5534:5718   */\n    tag_139:\n        /* \"#utility.yul\":5586:5663   */\n      0x4e487b7100000000000000000000000000000000000000000000000000000000\n        /* \"#utility.yul\":5583:5584   */\n      0x00\n        /* \"#utility.yul\":5576:5664   */\n      mstore\n        /* \"#utility.yul\":5683:5687   */\n      0x11\n        /* \"#utility.yul\":5680:5681   */\n      0x04\n        /* \"#utility.yul\":5673:5688   */\n      mstore\n        /* \"#utility.yul\":5707:5711   */\n      0x24\n        /* \"#utility.yul\":5704:5705   */\n      0x00\n        /* \"#utility.yul\":5697:5712   */\n      revert\n        /* \"#utility.yul\":5723:5907   */\n    tag_62:\n        /* \"#utility.yul\":5775:5852   */\n      0x4e487b7100000000000000000000000000000000000000000000000000000000\n        /* \"#utility.yul\":5772:5773   */\n      0x00\n        /* \"#utility.yul\":5765:5853   */\n      mstore\n        /* \"#utility.yul\":5872:5876   */\n      0x32\n        /* \"#utility.yul\":5869:5870   */\n      0x04\n        /* \"#utility.yul\":5862:5877   */\n      mstore\n        /* \"#utility.yul\":5896:5900   */\n      0x24\n        /* \"#utility.yul\":5893:5894   */\n      0x00\n        /* \"#utility.yul\":5886:5901   */\n      revert\n\n    auxdata: 0xa2646970667358221220158510737d401d3c3bfda141fc2fd6d0928a661e3f7a93073122f7de289d89b164736f6c63430008070033\n}\n",
				"bytecode": {
					"linkReferences": {},
					"object": "608060405234801561001057600080fd5b50604051610c6a380380610c6a83398101604081905261002f916100d6565b60008054600160a060020a03191633908117825581526001602081905260408220805460ff191690911790555b81518110156100cf5760026040518060400160405280848481518110610084576100846101dc565b602090810291909101810151825260009181018290528354600181810186559483529181902083516002909302019182559190910151910155806100c78161019a565b91505061005c565b505061023a565b600060208083850312156100e957600080fd5b825167ffffffffffffffff8082111561010157600080fd5b818501915085601f83011261011557600080fd5b8151818111156101275761012761020b565b838102604051601f19603f8301168101818110858211171561014b5761014b61020b565b604052828152858101935084860182860187018a101561016a57600080fd5b600095505b8386101561018d57805185526001959095019493860193860161016f565b5098975050505050505050565b60006000198214156101d5577f4e487b7100000000000000000000000000000000000000000000000000000000600052601160045260246000fd5b5060010190565b7f4e487b7100000000000000000000000000000000000000000000000000000000600052603260045260246000fd5b7f4e487b7100000000000000000000000000000000000000000000000000000000600052604160045260246000fd5b610a21806102496000396000f3fe608060405234801561001057600080fd5b506004361061009a576000357c010000000000000000000000000000000000000000000000000000000090048063609ff1bd11610078578063609ff1bd1461010c5780639e7b8d6114610121578063a3ec138d14610134578063b3f98adc146101c357600080fd5b8063013cf08b1461009f5780632e4176cf146100cc5780635c19a95c146100f7575b600080fd5b6100b26100ad3660046108aa565b6101d6565b604080519283526020830191909152015b60405180910390f35b6000546100df90600160a060020a031681565b604051600160a060020a0390911681526020016100c3565b61010a61010536600461087a565b610204565b005b6101146104d3565b6040516100c391906108e6565b61010a61012f36600461087a565b6105f3565b61018d61014236600461087a565b60016020526000908152604090205460ff808216916101008104821691600160a060020a03620100008304169176010000000000000000000000000000000000000000000090041684565b6040805160ff95861681529315156020850152600160a060020a03909216918301919091529190911660608201526080016100c3565b61010a6101d13660046108c3565b610734565b600281815481106101e657600080fd5b60009182526020909120600290910201805460019091015490915082565b336000908152600160205260409020805460ff1661026c5760405160e560020a62461bcd02815260206004820152601a60248201527f596f752068617665206e6f20726967687420746f20766f74652e00000000000060448201526064015b60405180910390fd5b8054610100900460ff16156102c65760405160e560020a62461bcd02815260206004820152601260248201527f596f7520616c726561647920766f7465642e00000000000000000000000000006044820152606401610263565b600160a060020a0382163314156103225760405160e560020a62461bcd02815260206004820152601e60248201527f53656c662d64656c65676174696f6e20697320646973616c6c6f7765642e00006044820152606401610263565b600160a060020a0382811660009081526001602052604090205462010000900416156103c457600160a060020a0391821660009081526001602052604090205462010000900490911690338214156103bf5760405160e560020a62461bcd02815260206004820152601860248201527f466f756e64206c6f6f7020696e2064656c65676174696f6e00000000000000006044820152606401610263565b610322565b600160a060020a03821660009081526001602081905260409091208054909160ff90911610156103f357600080fd5b8154600160a060020a038416620100000275ffffffffffffffffffffffffffffffffffffffffff001990911617610100908117835581540460ff161561049a57815481546002805460ff938416939192760100000000000000000000000000000000000000000000900490911690811061046f5761046f6109bc565b9060005260206000209060020201600101600082825461048f9190610935565b909155506104ce9050565b8154815460ff9182169183916000916104b59185911661094d565b92506101000a81548160ff021916908360ff1602179055505b505050565b6060806000805b60025481101561054a5781600282815481106104f8576104f86109bc565b90600052602060002090600202016001015411156105385760028181548110610523576105236109bc565b90600052602060002090600202016001015491505b8061054281610972565b9150506104da565b5060005b6002548110156105eb576002818154811061056b5761056b6109bc565b9060005260206000209060020201600101548214156105d95760028181548110610597576105976109bc565b600091825260209182902060408051808201909152600290920201805482526001015491810191909152835184906105cd6109bc565b60200260200101819052505b806105e381610972565b91505061054e565b509092915050565b600054600160a060020a031633146106765760405160e560020a62461bcd02815260206004820152602860248201527f4f6e6c79206368616972706572736f6e2063616e20676976652072696768742060448201527f746f20766f74652e0000000000000000000000000000000000000000000000006064820152608401610263565b600160a060020a038116600090815260016020526040902054610100900460ff16156106e75760405160e560020a62461bcd02815260206004820152601760248201527f54686520766f74657220616c726561647920766f7465640000000000000000006044820152606401610263565b600160a060020a03811660009081526001602052604090205460ff161561070d57600080fd5b600160a060020a03166000908152600160208190526040909120805460ff19169091179055565b3360009081526001602052604090208054610100900460ff161561079d5760405160e560020a62461bcd02815260206004820152601160248201527f596f7520616c726561647920766f7465640000000000000000000000000000006044820152606401610263565b805460ff166107f15760405160e560020a62461bcd02815260206004820152601a60248201527f596f752068617665206e6f20726967687420746f20766f74652e0000000000006044820152606401610263565b805460ff838116760100000000000000000000000000000000000000000000810276ff0000000000000000000000000000000000000000ff00199093169290921761010017808455600280549190921692908110610851576108516109bc565b906000526020600020906002020160010160008282546108719190610935565b90915550505050565b60006020828403121561088c57600080fd5b8135600160a060020a03811681146108a357600080fd5b9392505050565b6000602082840312156108bc57600080fd5b5035919050565b6000602082840312156108d557600080fd5b813560ff811681146108a357600080fd5b602080825282518282018190526000919060409081850190868401855b8281101561092857815180518552860151868501529284019290850190600101610903565b5091979650505050505050565b600082198211156109485761094861098d565b500190565b600060ff821660ff84168060ff0382111561096a5761096a61098d565b019392505050565b60006000198214156109865761098661098d565b5060010190565b7f4e487b7100000000000000000000000000000000000000000000000000000000600052601160045260246000fd5b7f4e487b7100000000000000000000000000000000000000000000000000000000600052603260045260246000fdfea2646970667358221220158510737d401d3c3bfda141fc2fd6d0928a661e3f7a93073122f7de289d89b164736f6c63430008070033",
					"opcodes": "PUSH1 0x80 PUSH1 0x40 MSTORE CALLVALUE DUP1 ISZERO PUSH2 0x10 JUMPI PUSH1 0x0 DUP1 REVERT JUMPDEST POP PUSH1 0x40 MLOAD PUSH2 0xC6A CODESIZE SUB DUP1 PUSH2 0xC6A DUP4 CODECOPY DUP2 ADD PUSH1 0x40 DUP2 SWAP1 MSTORE PUSH2 0x2F SWAP2 PUSH2 0xD6 JUMP JUMPDEST PUSH1 0x0 DUP1 SLOAD PUSH1 0x1 PUSH1 0xA0 PUSH1 0x2 EXP SUB NOT AND CALLER SWAP1 DUP2 OR DUP3 SSTORE DUP2 MSTORE PUSH1 0x1 PUSH1 0x20 DUP2 SWAP1 MSTORE PUSH1 0x40 DUP3 KECCAK256 DUP1 SLOAD PUSH1 0xFF NOT AND SWAP1 SWAP2 OR SWAP1 SSTORE JUMPDEST DUP2 MLOAD DUP2 LT ISZERO PUSH2 0xCF JUMPI PUSH1 0x2 PUSH1 0x40 MLOAD DUP1 PUSH1 0x40 ADD PUSH1 0x40 MSTORE DUP1 DUP5 DUP5 DUP2 MLOAD DUP2 LT PUSH2 0x84 JUMPI PUSH2 0x84 PUSH2 0x1DC JUMP JUMPDEST PUSH1 0x20 SWAP1 DUP2 MUL SWAP2 SWAP1 SWAP2 ADD DUP2 ADD MLOAD DUP3 MSTORE PUSH1 0x0 SWAP2 DUP2 ADD DUP3 SWAP1 MSTORE DUP4 SLOAD PUSH1 0x1 DUP2 DUP2 ADD DUP7 SSTORE SWAP5 DUP4 MSTORE SWAP2 DUP2 SWAP1 KECCAK256 DUP4 MLOAD PUSH1 0x2 SWAP1 SWAP4 MUL ADD SWAP2 DUP3 SSTORE SWAP2 SWAP1 SWAP2 ADD MLOAD SWAP2 ADD SSTORE DUP1 PUSH2 0xC7 DUP2 PUSH2 0x19A JUMP JUMPDEST SWAP2 POP POP PUSH2 0x5C JUMP JUMPDEST POP POP PUSH2 0x23A JUMP JUMPDEST PUSH1 0x0 PUSH1 0x20 DUP1 DUP4 DUP6 SUB SLT ISZERO PUSH2 0xE9 JUMPI PUSH1 0x0 DUP1 REVERT JUMPDEST DUP3 MLOAD PUSH8 0xFFFFFFFFFFFFFFFF DUP1 DUP3 GT ISZERO PUSH2 0x101 JUMPI PUSH1 0x0 DUP1 REVERT JUMPDEST DUP2 DUP6 ADD SWAP2 POP DUP6 PUSH1 0x1F DUP4 ADD SLT PUSH2 0x115 JUMPI PUSH1 0x0 DUP1 REVERT JUMPDEST DUP2 MLOAD DUP2 DUP2 GT ISZERO PUSH2 0x127 JUMPI PUSH2 0x127 PUSH2 0x20B JUMP JUMPDEST DUP4 DUP2 MUL PUSH1 0x40 MLOAD PUSH1 0x1F NOT PUSH1 0x3F DUP4 ADD AND DUP2 ADD DUP2 DUP2 LT DUP6 DUP3 GT OR ISZERO PUSH2 0x14B JUMPI PUSH2 0x14B PUSH2 0x20B JUMP JUMPDEST PUSH1 0x40 MSTORE DUP3 DUP2 MSTORE DUP6 DUP2 ADD SWAP4 POP DUP5 DUP7 ADD DUP3 DUP7 ADD DUP8 ADD DUP11 LT ISZERO PUSH2 0x16A JUMPI PUSH1 0x0 DUP1 REVERT JUMPDEST PUSH1 0x0 SWAP6 POP JUMPDEST DUP4 DUP7 LT ISZERO PUSH2 0x18D JUMPI DUP1 MLOAD DUP6 MSTORE PUSH1 0x1 SWAP6 SWAP1 SWAP6 ADD SWAP5 SWAP4 DUP7 ADD SWAP4 DUP7 ADD PUSH2 0x16F JUMP JUMPDEST POP SWAP9 SWAP8 POP POP POP POP POP POP POP POP JUMP JUMPDEST PUSH1 0x0 PUSH1 0x0 NOT DUP3 EQ ISZERO PUSH2 0x1D5 JUMPI PUSH32 0x4E487B7100000000000000000000000000000000000000000000000000000000 PUSH1 0x0 MSTORE PUSH1 0x11 PUSH1 0x4 MSTORE PUSH1 0x24 PUSH1 0x0 REVERT JUMPDEST POP PUSH1 0x1 ADD SWAP1 JUMP JUMPDEST PUSH32 0x4E487B7100000000000000000000000000000000000000000000000000000000 PUSH1 0x0 MSTORE PUSH1 0x32 PUSH1 0x4 MSTORE PUSH1 0x24 PUSH1 0x0 REVERT JUMPDEST PUSH32 0x4E487B7100000000000000000000000000000000000000000000000000000000 PUSH1 0x0 MSTORE PUSH1 0x41 PUSH1 0x4 MSTORE PUSH1 0x24 PUSH1 0x0 REVERT JUMPDEST PUSH2 0xA21 DUP1 PUSH2 0x249 PUSH1 0x0 CODECOPY PUSH1 0x0 RETURN INVALID PUSH1 0x80 PUSH1 0x40 MSTORE CALLVALUE DUP1 ISZERO PUSH2 0x10 JUMPI PUSH1 0x0 DUP1 REVERT JUMPDEST POP PUSH1 0x4 CALLDATASIZE LT PUSH2 0x9A JUMPI PUSH1 0x0 CALLDATALOAD PUSH29 0x100000000000000000000000000000000000000000000000000000000 SWAP1 DIV DUP1 PUSH4 0x609FF1BD GT PUSH2 0x78 JUMPI DUP1 PUSH4 0x609FF1BD EQ PUSH2 0x10C JUMPI DUP1 PUSH4 0x9E7B8D61 EQ PUSH2 0x121 JUMPI DUP1 PUSH4 0xA3EC138D EQ PUSH2 0x134 JUMPI DUP1 PUSH4 0xB3F98ADC EQ PUSH2 0x1C3 JUMPI PUSH1 0x0 DUP1 REVERT JUMPDEST DUP1 PUSH4 0x13CF08B EQ PUSH2 0x9F JUMPI DUP1 PUSH4 0x2E4176CF EQ PUSH2 0xCC JUMPI DUP1 PUSH4 0x5C19A95C EQ PUSH2 0xF7 JUMPI JUMPDEST PUSH1 0x0 DUP1 REVERT JUMPDEST PUSH2 0xB2 PUSH2 0xAD CALLDATASIZE PUSH1 0x4 PUSH2 0x8AA JUMP JUMPDEST PUSH2 0x1D6 JUMP JUMPDEST PUSH1 0x40 DUP1 MLOAD SWAP3 DUP4 MSTORE PUSH1 0x20 DUP4 ADD SWAP2 SWAP1 SWAP2 MSTORE ADD JUMPDEST PUSH1 0x40 MLOAD DUP1 SWAP2 SUB SWAP1 RETURN JUMPDEST PUSH1 0x0 SLOAD PUSH2 0xDF SWAP1 PUSH1 0x1 PUSH1 0xA0 PUSH1 0x2 EXP SUB AND DUP2 JUMP JUMPDEST PUSH1 0x40 MLOAD PUSH1 0x1 PUSH1 0xA0 PUSH1 0x2 EXP SUB SWAP1 SWAP2 AND DUP2 MSTORE PUSH1 0x20 ADD PUSH2 0xC3 JUMP JUMPDEST PUSH2 0x10A PUSH2 0x105 CALLDATASIZE PUSH1 0x4 PUSH2 0x87A JUMP JUMPDEST PUSH2 0x204 JUMP JUMPDEST STOP JUMPDEST PUSH2 0x114 PUSH2 0x4D3 JUMP JUMPDEST PUSH1 0x40 MLOAD PUSH2 0xC3 SWAP2 SWAP1 PUSH2 0x8E6 JUMP JUMPDEST PUSH2 0x10A PUSH2 0x12F CALLDATASIZE PUSH1 0x4 PUSH2 0x87A JUMP JUMPDEST PUSH2 0x5F3 JUMP JUMPDEST PUSH2 0x18D PUSH2 0x142 CALLDATASIZE PUSH1 0x4 PUSH2 0x87A JUMP JUMPDEST PUSH1 0x1 PUSH1 0x20 MSTORE PUSH1 0x0 SWAP1 DUP2 MSTORE PUSH1 0x40 SWAP1 KECCAK256 SLOAD PUSH1 0xFF DUP1 DUP3 AND SWAP2 PUSH2 0x100 DUP2 DIV DUP3 AND SWAP2 PUSH1 0x1 PUSH1 0xA0 PUSH1 0x2 EXP SUB PUSH3 0x10000 DUP4 DIV AND SWAP2 PUSH23 0x100000000000000000000000000000000000000000000 SWAP1 DIV AND DUP5 JUMP JUMPDEST PUSH1 0x40 DUP1 MLOAD PUSH1 0xFF SWAP6 DUP7 AND DUP2 MSTORE SWAP4 ISZERO ISZERO PUSH1 0x20 DUP6 ADD MSTORE PUSH1 0x1 PUSH1 0xA0 PUSH1 0x2 EXP SUB SWAP1 SWAP3 AND SWAP2 DUP4 ADD SWAP2 SWAP1 SWAP2 MSTORE SWAP2 SWAP1 SWAP2 AND PUSH1 0x60 DUP3 ADD MSTORE PUSH1 0x80 ADD PUSH2 0xC3 JUMP JUMPDEST PUSH2 0x10A PUSH2 0x1D1 CALLDATASIZE PUSH1 0x4 PUSH2 0x8C3 JUMP JUMPDEST PUSH2 0x734 JUMP JUMPDEST PUSH1 0x2 DUP2 DUP2 SLOAD DUP2 LT PUSH2 0x1E6 JUMPI PUSH1 0x0 DUP1 REVERT JUMPDEST PUSH1 0x0 SWAP2 DUP3 MSTORE PUSH1 0x20 SWAP1 SWAP2 KECCAK256 PUSH1 0x2 SWAP1 SWAP2 MUL ADD DUP1 SLOAD PUSH1 0x1 SWAP1 SWAP2 ADD SLOAD SWAP1 SWAP2 POP DUP3 JUMP JUMPDEST CALLER PUSH1 0x0 SWAP1 DUP2 MSTORE PUSH1 0x1 PUSH1 0x20 MSTORE PUSH1 0x40 SWAP1 KECCAK256 DUP1 SLOAD PUSH1 0xFF AND PUSH2 0x26C JUMPI PUSH1 0x40 MLOAD PUSH1 0xE5 PUSH1 0x2 EXP PUSH3 0x461BCD MUL DUP2 MSTORE PUSH1 0x20 PUSH1 0x4 DUP3 ADD MSTORE PUSH1 0x1A PUSH1 0x24 DUP3 ADD MSTORE PUSH32 0x596F752068617665206E6F20726967687420746F20766F74652E000000000000 PUSH1 0x44 DUP3 ADD MSTORE PUSH1 0x64 ADD JUMPDEST PUSH1 0x40 MLOAD DUP1 SWAP2 SUB SWAP1 REVERT JUMPDEST DUP1 SLOAD PUSH2 0x100 SWAP1 DIV PUSH1 0xFF AND ISZERO PUSH2 0x2C6 JUMPI PUSH1 0x40 MLOAD PUSH1 0xE5 PUSH1 0x2 EXP PUSH3 0x461BCD MUL DUP2 MSTORE PUSH1 0x20 PUSH1 0x4 DUP3 ADD MSTORE PUSH1 0x12 PUSH1 0x24 DUP3 ADD MSTORE PUSH32 0x596F7520616C726561647920766F7465642E0000000000000000000000000000 PUSH1 0x44 DUP3 ADD MSTORE PUSH1 0x64 ADD PUSH2 0x263 JUMP JUMPDEST PUSH1 0x1 PUSH1 0xA0 PUSH1 0x2 EXP SUB DUP3 AND CALLER EQ ISZERO PUSH2 0x322 JUMPI PUSH1 0x40 MLOAD PUSH1 0xE5 PUSH1 0x2 EXP PUSH3 0x461BCD MUL DUP2 MSTORE PUSH1 0x20 PUSH1 0x4 DUP3 ADD MSTORE PUSH1 0x1E PUSH1 0x24 DUP3 ADD MSTORE PUSH32 0x53656C662D64656C65676174696F6E20697320646973616C6C6F7765642E0000 PUSH1 0x44 DUP3 ADD MSTORE PUSH1 0x64 ADD PUSH2 0x263 JUMP JUMPDEST PUSH1 0x1 PUSH1 0xA0 PUSH1 0x2 EXP SUB DUP3 DUP2 AND PUSH1 0x0 SWAP1 DUP2 MSTORE PUSH1 0x1 PUSH1 0x20 MSTORE PUSH1 0x40 SWAP1 KECCAK256 SLOAD PUSH3 0x10000 SWAP1 DIV AND ISZERO PUSH2 0x3C4 JUMPI PUSH1 0x1 PUSH1 0xA0 PUSH1 0x2 EXP SUB SWAP2 DUP3 AND PUSH1 0x0 SWAP1 DUP2 MSTORE PUSH1 0x1 PUSH1 0x20 MSTORE PUSH1 0x40 SWAP1 KECCAK256 SLOAD PUSH3 0x10000 SWAP1 DIV SWAP1 SWAP2 AND SWAP1 CALLER DUP3 EQ ISZERO PUSH2 0x3BF JUMPI PUSH1 0x40 MLOAD PUSH1 0xE5 PUSH1 0x2 EXP PUSH3 0x461BCD MUL DUP2 MSTORE PUSH1 0x20 PUSH1 0x4 DUP3 ADD MSTORE PUSH1 0x18 PUSH1 0x24 DUP3 ADD MSTORE PUSH32 0x466F756E64206C6F6F7020696E2064656C65676174696F6E0000000000000000 PUSH1 0x44 DUP3 ADD MSTORE PUSH1 0x64 ADD PUSH2 0x263 JUMP JUMPDEST PUSH2 0x322 JUMP JUMPDEST PUSH1 0x1 PUSH1 0xA0 PUSH1 0x2 EXP SUB DUP3 AND PUSH1 0x0 SWAP1 DUP2 MSTORE PUSH1 0x1 PUSH1 0x20 DUP2 SWAP1 MSTORE PUSH1 0x40 SWAP1 SWAP2 KECCAK256 DUP1 SLOAD SWAP1 SWAP2 PUSH1 0xFF SWAP1 SWAP2 AND LT ISZERO PUSH2 0x3F3 JUMPI PUSH1 0x0 DUP1 REVERT JUMPDEST DUP2 SLOAD PUSH1 0x1 PUSH1 0xA0 PUSH1 0x2 EXP SUB DUP5 AND PUSH3 0x10000 MUL PUSH22 0xFFFFFFFFFFFFFFFFFFFFFFFFFFFFFFFFFFFFFFFFFF00 NOT SWAP1 SWAP2 AND OR PUSH2 0x100 SWAP1 DUP2 OR DUP4 SSTORE DUP2 SLOAD DIV PUSH1 0xFF AND ISZERO PUSH2 0x49A JUMPI DUP2 SLOAD DUP2 SLOAD PUSH1 0x2 DUP1 SLOAD PUSH1 0xFF SWAP4 DUP5 AND SWAP4 SWAP2 SWAP3 PUSH23 0x100000000000000000000000000000000000000000000 SWAP1 DIV SWAP1 SWAP2 AND SWAP1 DUP2 LT PUSH2 0x46F JUMPI PUSH2 0x46F PUSH2 0x9BC JUMP JUMPDEST SWAP1 PUSH1 0x0 MSTORE PUSH1 0x20 PUSH1 0x0 KECCAK256 SWAP1 PUSH1 0x2 MUL ADD PUSH1 0x1 ADD PUSH1 0x0 DUP3 DUP3 SLOAD PUSH2 0x48F SWAP2 SWAP1 PUSH2 0x935 JUMP JUMPDEST SWAP1 SWAP2 SSTORE POP PUSH2 0x4CE SWAP1 POP JUMP JUMPDEST DUP2 SLOAD DUP2 SLOAD PUSH1 0xFF SWAP2 DUP3 AND SWAP2 DUP4 SWAP2 PUSH1 0x0 SWAP2 PUSH2 0x4B5 SWAP2 DUP6 SWAP2 AND PUSH2 0x94D JUMP JUMPDEST SWAP3 POP PUSH2 0x100 EXP DUP2 SLOAD DUP2 PUSH1 0xFF MUL NOT AND SWAP1 DUP4 PUSH1 0xFF AND MUL OR SWAP1 SSTORE POP JUMPDEST POP POP POP JUMP JUMPDEST PUSH1 0x60 DUP1 PUSH1 0x0 DUP1 JUMPDEST PUSH1 0x2 SLOAD DUP2 LT ISZERO PUSH2 0x54A JUMPI DUP2 PUSH1 0x2 DUP3 DUP2 SLOAD DUP2 LT PUSH2 0x4F8 JUMPI PUSH2 0x4F8 PUSH2 0x9BC JUMP JUMPDEST SWAP1 PUSH1 0x0 MSTORE PUSH1 0x20 PUSH1 0x0 KECCAK256 SWAP1 PUSH1 0x2 MUL ADD PUSH1 0x1 ADD SLOAD GT ISZERO PUSH2 0x538 JUMPI PUSH1 0x2 DUP2 DUP2 SLOAD DUP2 LT PUSH2 0x523 JUMPI PUSH2 0x523 PUSH2 0x9BC JUMP JUMPDEST SWAP1 PUSH1 0x0 MSTORE PUSH1 0x20 PUSH1 0x0 KECCAK256 SWAP1 PUSH1 0x2 MUL ADD PUSH1 0x1 ADD SLOAD SWAP2 POP JUMPDEST DUP1 PUSH2 0x542 DUP2 PUSH2 0x972 JUMP JUMPDEST SWAP2 POP POP PUSH2 0x4DA JUMP JUMPDEST POP PUSH1 0x0 JUMPDEST PUSH1 0x2 SLOAD DUP2 LT ISZERO PUSH2 0x5EB JUMPI PUSH1 0x2 DUP2 DUP2 SLOAD DUP2 LT PUSH2 0x56B JUMPI PUSH2 0x56B PUSH2 0x9BC JUMP JUMPDEST SWAP1 PUSH1 0x0 MSTORE PUSH1 0x20 PUSH1 0x0 KECCAK256 SWAP1 PUSH1 0x2 MUL ADD PUSH1 0x1 ADD SLOAD DUP3 EQ ISZERO PUSH2 0x5D9 JUMPI PUSH1 0x2 DUP2 DUP2 SLOAD DUP2 LT PUSH2 0x597 JUMPI PUSH2 0x597 PUSH2 0x9BC JUMP JUMPDEST PUSH1 0x0 SWAP2 DUP3 MSTORE PUSH1 0x20 SWAP2 DUP3 SWAP1 KECCAK256 PUSH1 0x40 DUP1 MLOAD DUP1 DUP3 ADD SWAP1 SWAP2 MSTORE PUSH1 0x2 SWAP1 SWAP3 MUL ADD DUP1 SLOAD DUP3 MSTORE PUSH1 0x1 ADD SLOAD SWAP2 DUP2 ADD SWAP2 SWAP1 SWAP2 MSTORE DUP4 MLOAD DUP5 SWAP1 PUSH2 0x5CD PUSH2 0x9BC JUMP JUMPDEST PUSH1 0x20 MUL PUSH1 0x20 ADD ADD DUP2 SWAP1 MSTORE POP JUMPDEST DUP1 PUSH2 0x5E3 DUP2 PUSH2 0x972 JUMP JUMPDEST SWAP2 POP POP PUSH2 0x54E JUMP JUMPDEST POP SWAP1 SWAP3 SWAP2 POP POP JUMP JUMPDEST PUSH1 0x0 SLOAD PUSH1 0x1 PUSH1 0xA0 PUSH1 0x2 EXP SUB AND CALLER EQ PUSH2 0x676 JUMPI PUSH1 0x40 MLOAD PUSH1 0xE5 PUSH1 0x2 EXP PUSH3 0x461BCD MUL DUP2 MSTORE PUSH1 0x20 PUSH1 0x4 DUP3 ADD MSTORE PUSH1 0x28 PUSH1 0x24 DUP3 ADD MSTORE PUSH32 0x4F6E6C79206368616972706572736F6E2063616E206769766520726967687420 PUSH1 0x44 DUP3 ADD MSTORE PUSH32 0x746F20766F74652E000000000000000000000000000000000000000000000000 PUSH1 0x64 DUP3 ADD MSTORE PUSH1 0x84 ADD PUSH2 0x263 JUMP JUMPDEST PUSH1 0x1 PUSH1 0xA0 PUSH1 0x2 EXP SUB DUP2 AND PUSH1 0x0 SWAP1 DUP2 MSTORE PUSH1 0x1 PUSH1 0x20 MSTORE PUSH1 0x40 SWAP1 KECCAK256 SLOAD PUSH2 0x100 SWAP1 DIV PUSH1 0xFF AND ISZERO PUSH2 0x6E7 JUMPI PUSH1 0x40 MLOAD PUSH1 0xE5 PUSH1 0x2 EXP PUSH3 0x461BCD MUL DUP2 MSTORE PUSH1 0x20 PUSH1 0x4 DUP3 ADD MSTORE PUSH1 0x17 PUSH1 0x24 DUP3 ADD MSTORE PUSH32 0x54686520766F74657220616C726561647920766F746564000000000000000000 PUSH1 0x44 DUP3 ADD MSTORE PUSH1 0x64 ADD PUSH2 0x263 JUMP JUMPDEST PUSH1 0x1 PUSH1 0xA0 PUSH1 0x2 EXP SUB DUP2 AND PUSH1 0x0 SWAP1 DUP2 MSTORE PUSH1 0x1 PUSH1 0x20 MSTORE PUSH1 0x40 SWAP1 KECCAK256 SLOAD PUSH1 0xFF AND ISZERO PUSH2 0x70D JUMPI PUSH1 0x0 DUP1 REVERT JUMPDEST PUSH1 0x1 PUSH1 0xA0 PUSH1 0x2 EXP SUB AND PUSH1 0x0 SWAP1 DUP2 MSTORE PUSH1 0x1 PUSH1 0x20 DUP2 SWAP1 MSTORE PUSH1 0x40 SWAP1 SWAP2 KECCAK256 DUP1 SLOAD PUSH1 0xFF NOT AND SWAP1 SWAP2 OR SWAP1 SSTORE JUMP JUMPDEST CALLER PUSH1 0x0 SWAP1 DUP2 MSTORE PUSH1 0x1 PUSH1 0x20 MSTORE PUSH1 0x40 SWAP1 KECCAK256 DUP1 SLOAD PUSH2 0x100 SWAP1 DIV PUSH1 0xFF AND ISZERO PUSH2 0x79D JUMPI PUSH1 0x40 MLOAD PUSH1 0xE5 PUSH1 0x2 EXP PUSH3 0x461BCD MUL DUP2 MSTORE PUSH1 0x20 PUSH1 0x4 DUP3 ADD MSTORE PUSH1 0x11 PUSH1 0x24 DUP3 ADD MSTORE PUSH32 0x596F7520616C726561647920766F746564000000000000000000000000000000 PUSH1 0x44 DUP3 ADD MSTORE PUSH1 0x64 ADD PUSH2 0x263 JUMP JUMPDEST DUP1 SLOAD PUSH1 0xFF AND PUSH2 0x7F1 JUMPI PUSH1 0x40 MLOAD PUSH1 0xE5 PUSH1 0x2 EXP PUSH3 0x461BCD MUL DUP2 MSTORE PUSH1 0x20 PUSH1 0x4 DUP3 ADD MSTORE PUSH1 0x1A PUSH1 0x24 DUP3 ADD MSTORE PUSH32 0x596F752068617665206E6F20726967687420746F20766F74652E000000000000 PUSH1 0x44 DUP3 ADD MSTORE PUSH1 0x64 ADD PUSH2 0x263 JUMP JUMPDEST DUP1 SLOAD PUSH1 0xFF DUP4 DUP2 AND PUSH23 0x100000000000000000000000000000000000000000000 DUP2 MUL PUSH23 0xFF0000000000000000000000000000000000000000FF00 NOT SWAP1 SWAP4 AND SWAP3 SWAP1 SWAP3 OR PUSH2 0x100 OR DUP1 DUP5 SSTORE PUSH1 0x2 DUP1 SLOAD SWAP2 SWAP1 SWAP3 AND SWAP3 SWAP1 DUP2 LT PUSH2 0x851 JUMPI PUSH2 0x851 PUSH2 0x9BC JUMP JUMPDEST SWAP1 PUSH1 0x0 MSTORE PUSH1 0x20 PUSH1 0x0 KECCAK256 SWAP1 PUSH1 0x2 MUL ADD PUSH1 0x1 ADD PUSH1 0x0 DUP3 DUP3 SLOAD PUSH2 0x871 SWAP2 SWAP1 PUSH2 0x935 JUMP JUMPDEST SWAP1 SWAP2 SSTORE POP POP POP POP JUMP JUMPDEST PUSH1 0x0 PUSH1 0x20 DUP3 DUP5 SUB SLT ISZERO PUSH2 0x88C JUMPI PUSH1 0x0 DUP1 REVERT JUMPDEST DUP2 CALLDATALOAD PUSH1 0x1 PUSH1 0xA0 PUSH1 0x2 EXP SUB DUP2 AND DUP2 EQ PUSH2 0x8A3 JUMPI PUSH1 0x0 DUP1 REVERT JUMPDEST SWAP4 SWAP3 POP POP POP JUMP JUMPDEST PUSH1 0x0 PUSH1 0x20 DUP3 DUP5 SUB SLT ISZERO PUSH2 0x8BC JUMPI PUSH1 0x0 DUP1 REVERT JUMPDEST POP CALLDATALOAD SWAP2 SWAP1 POP JUMP JUMPDEST PUSH1 0x0 PUSH1 0x20 DUP3 DUP5 SUB SLT ISZERO PUSH2 0x8D5 JUMPI PUSH1 0x0 DUP1 REVERT JUMPDEST DUP2 CALLDATALOAD PUSH1 0xFF DUP2 AND DUP2 EQ PUSH2 0x8A3 JUMPI PUSH1 0x0 DUP1 REVERT JUMPDEST PUSH1 0x20 DUP1 DUP3 MSTORE DUP3 MLOAD DUP3 DUP3 ADD DUP2 SWAP1 MSTORE PUSH1 0x0 SWAP2 SWAP1 PUSH1 0x40 SWAP1 DUP2 DUP6 ADD SWAP1 DUP7 DUP5 ADD DUP6 JUMPDEST DUP3 DUP2 LT ISZERO PUSH2 0x928 JUMPI DUP2 MLOAD DUP1 MLOAD DUP6 MSTORE DUP7 ADD MLOAD DUP7 DUP6 ADD MSTORE SWAP3 DUP5 ADD SWAP3 SWAP1 DUP6 ADD SWAP1 PUSH1 0x1 ADD PUSH2 0x903 JUMP JUMPDEST POP SWAP2 SWAP8 SWAP7 POP POP POP POP POP POP POP JUMP JUMPDEST PUSH1 0x0 DUP3 NOT DUP3 GT ISZERO PUSH2 0x948 JUMPI PUSH2 0x948 PUSH2 0x98D JUMP JUMPDEST POP ADD SWAP1 JUMP JUMPDEST PUSH1 0x0 PUSH1 0xFF DUP3 AND PUSH1 0xFF DUP5 AND DUP1 PUSH1 0xFF SUB DUP3 GT ISZERO PUSH2 0x96A JUMPI PUSH2 0x96A PUSH2 0x98D JUMP JUMPDEST ADD SWAP4 SWAP3 POP POP POP JUMP JUMPDEST PUSH1 0x0 PUSH1 0x0 NOT DUP3 EQ ISZERO PUSH2 0x986 JUMPI PUSH2 0x986 PUSH2 0x98D JUMP JUMPDEST POP PUSH1 0x1 ADD SWAP1 JUMP JUMPDEST PUSH32 0x4E487B7100000000000000000000000000000000000000000000000000000000 PUSH1 0x0 MSTORE PUSH1 0x11 PUSH1 0x4 MSTORE PUSH1 0x24 PUSH1 0x0 REVERT JUMPDEST PUSH32 0x4E487B7100000000000000000000000000000000000000000000000000000000 PUSH1 0x0 MSTORE PUSH1 0x32 PUSH1 0x4 MSTORE PUSH1 0x24 PUSH1 0x0 REVERT INVALID LOG2 PUSH5 0x6970667358 0x22 SLT KECCAK256 ISZERO DUP6 LT PUSH20 0x7D401D3C3BFDA141FC2FD6D0928A661E3F7A9307 BALANCE 0x22 0xF7 0xDE 0x28 SWAP14 DUP10 0xB1 PUSH5 0x736F6C6343 STOP ADDMOD SMOD STOP CALLER "
				},
				"gasEstimates": {
					"creation": {
						"codeDepositCost": "518600",
						"executionCost": "infinite",
						"totalCost": "infinite"
					},
					"external": {
						"chairperson()": "579",
						"delegate(address)": "infinite",
						"giveRightToVote(address)": "21776",
						"proposals(uint256)": "1026",
						"vote(uint8)": "41730",
						"voters(address)": "996",
						"winningProposal()": "infinite"
					}
				},
				"methodIdentifiers": {
					"chairperson()": "2e4176cf",
					"delegate(address)": "5c19a95c",
					"giveRightToVote(address)": "9e7b8d61",
					"proposals(uint256)": "013cf08b",
					"vote(uint8)": "b3f98adc",
					"voters(address)": "a3ec138d",
					"winningProposal()": "609ff1bd"
				}
			},
			"storageLayout": {
				"storage": [
					{
						"astId": 17,
						"contract": "custom/ballot.sol:Ballot",
						"label": "chairperson",
						"offset": 0,
						"slot": "0",
						"type": "t_address"
					},
					{
						"astId": 22,
						"contract": "custom/ballot.sol:Ballot",
						"label": "voters",
						"offset": 0,
						"slot": "1",
						"type": "t_mapping(t_address,t_struct(Voter)10_storage)"
					},
					{
						"astId": 26,
						"contract": "custom/ballot.sol:Ballot",
						"label": "proposals",
						"offset": 0,
						"slot": "2",
						"type": "t_array(t_struct(Proposal)15_storage)dyn_storage"
					}
				],
				"types": {
					"t_address": {
						"encoding": "inplace",
						"label": "address",
						"numberOfBytes": "20"
					},
					"t_array(t_struct(Proposal)15_storage)dyn_storage": {
						"base": "t_struct(Proposal)15_storage",
						"encoding": "dynamic_array",
						"label": "struct Ballot.Proposal[]",
						"numberOfBytes": "32"
					},
					"t_bool": {
						"encoding": "inplace",
						"label": "bool",
						"numberOfBytes": "1"
					},
					"t_bytes32": {
						"encoding": "inplace",
						"label": "bytes32",
						"numberOfBytes": "32"
					},
					"t_mapping(t_address,t_struct(Voter)10_storage)": {
						"encoding": "mapping",
						"key": "t_address",
						"label": "mapping(address => struct Ballot.Voter)",
						"numberOfBytes": "32",
						"value": "t_struct(Voter)10_storage"
					},
					"t_struct(Proposal)15_storage": {
						"encoding": "inplace",
						"label": "struct Ballot.Proposal",
						"members": [
							{
								"astId": 12,
								"contract": "custom/ballot.sol:Ballot",
								"label": "name",
								"offset": 0,
								"slot": "0",
								"type": "t_bytes32"
							},
							{
								"astId": 14,
								"contract": "custom/ballot.sol:Ballot",
								"label": "voteCount",
								"offset": 0,
								"slot": "1",
								"type": "t_uint256"
							}
						],
						"numberOfBytes": "64"
					},
					"t_struct(Voter)10_storage": {
						"encoding": "inplace",
						"label": "struct Ballot.Voter",
						"members": [
							{
								"astId": 3,
								"contract": "custom/ballot.sol:Ballot",
								"label": "weight",
								"offset": 0,
								"slot": "0",
								"type": "t_uint8"
							},
							{
								"astId": 5,
								"contract": "custom/ballot.sol:Ballot",
								"label": "voted",
								"offset": 1,
								"slot": "0",
								"type": "t_bool"
							},
							{
								"astId": 7,
								"contract": "custom/ballot.sol:Ballot",
								"label": "delegate",
								"offset": 2,
								"slot": "0",
								"type": "t_address"
							},
							{
								"astId": 9,
								"contract": "custom/ballot.sol:Ballot",
								"label": "vote",
								"offset": 22,
								"slot": "0",
								"type": "t_uint8"
							}
						],
						"numberOfBytes": "32"
					},
					"t_uint256": {
						"encoding": "inplace",
						"label": "uint256",
						"numberOfBytes": "32"
					},
					"t_uint8": {
						"encoding": "inplace",
						"label": "uint8",
						"numberOfBytes": "1"
					}
				}
			},
			"userdoc": {
				"kind": "user",
				"methods": {},
				"version": 1
			}
		}
	}
}