{
	"custom/ballot.sol": {
		"Ballot": {
			"abi": [
				{
					"inputs": [
						{
							"internalType": "string[]",
							"name": "proposalNames",
							"type": "string[]"
						}
					],
					"stateMutability": "nonpayable",
					"type": "constructor"
				},
				{
					"inputs": [],
					"name": "chairperson",
					"outputs": [
						{
							"internalType": "address",
							"name": "",
							"type": "address"
						}
					],
					"stateMutability": "view",
					"type": "function"
				},
				{
					"inputs": [
						{
							"internalType": "address",
							"name": "to",
							"type": "address"
						}
					],
					"name": "delegate",
					"outputs": [],
					"stateMutability": "nonpayable",
					"type": "function"
				},
				{
					"inputs": [
						{
							"internalType": "address",
							"name": "voter",
							"type": "address"
						}
					],
					"name": "giveRightToVote",
					"outputs": [],
					"stateMutability": "nonpayable",
					"type": "function"
				},
				{
					"inputs": [
						{
							"internalType": "uint256",
							"name": "",
							"type": "uint256"
						}
					],
					"name": "proposals",
					"outputs": [
						{
							"internalType": "string",
							"name": "name",
							"type": "string"
						},
						{
							"internalType": "uint256",
							"name": "voteCount",
							"type": "uint256"
						}
					],
					"stateMutability": "view",
					"type": "function"
				},
				{
					"inputs": [
						{
							"internalType": "uint8",
							"name": "proposal",
							"type": "uint8"
						}
					],
					"name": "vote",
					"outputs": [],
					"stateMutability": "nonpayable",
					"type": "function"
				},
				{
					"inputs": [
						{
							"internalType": "address",
							"name": "",
							"type": "address"
						}
					],
					"name": "voters",
					"outputs": [
						{
							"internalType": "uint8",
							"name": "weight",
							"type": "uint8"
						},
						{
							"internalType": "bool",
							"name": "voted",
							"type": "bool"
						},
						{
							"internalType": "address",
							"name": "delegate",
							"type": "address"
						},
						{
							"internalType": "uint8",
							"name": "vote",
							"type": "uint8"
						}
					],
					"stateMutability": "view",
					"type": "function"
				},
				{
					"inputs": [],
					"name": "winningProposal",
					"outputs": [
						{
							"internalType": "string[]",
							"name": "",
							"type": "string[]"
						}
					],
					"stateMutability": "view",
					"type": "function"
				}
			],
			"devdoc": {
				"kind": "dev",
				"methods": {},
				"version": 1
			},
			"evm": {
				"assembly": "    /* \"custom/ballot.sol\":88:3545  contract Ballot{\r... */\n  mstore(0x40, 0x80)\n    /* \"custom/ballot.sol\":571:935  constructor(string[] memory proposalNames){\r... */\n  callvalue\n  dup1\n  iszero\n  tag_1\n  jumpi\n  0x00\n  dup1\n  revert\ntag_1:\n  pop\n  mload(0x40)\n  sub(codesize, bytecodeSize)\n  dup1\n  bytecodeSize\n  dup4\n  codecopy\n  dup2\n  add\n  0x40\n  dup2\n  swap1\n  mstore\n  tag_2\n  swap2\n  tag_3\n  jump\t// in\ntag_2:\n    /* \"custom/ballot.sol\":624:635  chairperson */\n  0x00\n    /* \"custom/ballot.sol\":624:648  chairperson = msg.sender */\n  dup1\n  sload\n  not(sub(exp(0x02, 0xa0), 0x01))\n  and\n    /* \"custom/ballot.sol\":638:648  msg.sender */\n  caller\n    /* \"custom/ballot.sol\":624:648  chairperson = msg.sender */\n  swap1\n  dup2\n  or\n  dup3\n  sstore\n    /* \"custom/ballot.sol\":661:680  voters[chairperson] */\n  dup2\n  mstore\n    /* \"custom/ballot.sol\":624:648  chairperson = msg.sender */\n  0x01\n    /* \"custom/ballot.sol\":661:680  voters[chairperson] */\n  0x20\n  dup2\n  swap1\n  mstore\n  0x40\n  dup3\n  keccak256\n    /* \"custom/ballot.sol\":661:691  voters[chairperson].weight = 1 */\n  dup1\n  sload\n  not(0xff)\n  and\n  swap1\n  swap2\n  or\n  swap1\n  sstore\n    /* \"custom/ballot.sol\":740:928  for (uint i = 0; i < proposalNames.length; i++) {\r... */\ntag_6:\n    /* \"custom/ballot.sol\":761:774  proposalNames */\n  dup2\n    /* \"custom/ballot.sol\":761:781  proposalNames.length */\n  mload\n    /* \"custom/ballot.sol\":757:758  i */\n  dup2\n    /* \"custom/ballot.sol\":757:781  i < proposalNames.length */\n  lt\n    /* \"custom/ballot.sol\":740:928  for (uint i = 0; i < proposalNames.length; i++) {\r... */\n  iszero\n  tag_7\n  jumpi\n    /* \"custom/ballot.sol\":803:812  proposals */\n  0x02\n    /* \"custom/ballot.sol\":818:915  Proposal({\r... */\n  mload(0x40)\n  dup1\n  0x40\n  add\n  0x40\n  mstore\n  dup1\n    /* \"custom/ballot.sol\":852:865  proposalNames */\n  dup5\n    /* \"custom/ballot.sol\":866:867  i */\n  dup5\n    /* \"custom/ballot.sol\":852:868  proposalNames[i] */\n  dup2\n  mload\n  dup2\n  lt\n  tag_10\n  jumpi\n  tag_10\n  tag_11\n  jump\t// in\ntag_10:\n  0x20\n  swap1\n  dup2\n  mul\n  swap2\n  swap1\n  swap2\n  add\n  dup2\n  add\n  mload\n    /* \"custom/ballot.sol\":818:915  Proposal({\r... */\n  dup3\n  mstore\n    /* \"custom/ballot.sol\":898:899  0 */\n  0x00\n    /* \"custom/ballot.sol\":818:915  Proposal({\r... */\n  swap2\n  dup2\n  add\n  dup3\n  swap1\n  mstore\n    /* \"custom/ballot.sol\":803:916  proposals.push(Proposal({\r... */\n  dup4\n  sload\n  0x01\n  dup2\n  add\n  dup6\n  sstore\n  swap4\n  dup3\n  mstore\n  swap1\n  dup2\n  swap1\n  keccak256\n  dup3\n  mload\n  dup1\n  mload\n  swap4\n  swap5\n  0x02\n  mul\n  swap1\n  swap2\n  add\n  swap3\n  tag_13\n  swap3\n  dup5\n  swap3\n  add\n  swap1\n  tag_14\n  jump\t// in\ntag_13:\n  pop\n  0x20\n  dup3\n  add\n  mload\n  dup2\n  0x01\n  add\n  sstore\n  pop\n  pop\n    /* \"custom/ballot.sol\":783:786  i++ */\n  dup1\n  dup1\n  tag_15\n  swap1\n  tag_16\n  jump\t// in\ntag_15:\n  swap2\n  pop\n  pop\n    /* \"custom/ballot.sol\":740:928  for (uint i = 0; i < proposalNames.length; i++) {\r... */\n  jump(tag_6)\ntag_7:\n  pop\n    /* \"custom/ballot.sol\":571:935  constructor(string[] memory proposalNames){\r... */\n  pop\n    /* \"custom/ballot.sol\":88:3545  contract Ballot{\r... */\n  jump(tag_29)\ntag_14:\n  dup3\n  dup1\n  sload\n  tag_18\n  swap1\n  tag_19\n  jump\t// in\ntag_18:\n  swap1\n  0x00\n  mstore\n  keccak256(0x00, 0x20)\n  swap1\n  0x1f\n  add\n  0x20\n  swap1\n  div\n  dup2\n  add\n  swap3\n  dup3\n  tag_21\n  jumpi\n  0x00\n  dup6\n  sstore\n  jump(tag_24)\ntag_21:\n  dup3\n  0x1f\n  lt\n  tag_22\n  jumpi\n  dup1\n  mload\n  not(0xff)\n  and\n  dup4\n  dup1\n  add\n  or\n  dup6\n  sstore\n  jump(tag_24)\ntag_22:\n  dup3\n  dup1\n  add\n  0x01\n  add\n  dup6\n  sstore\n  dup3\n  iszero\n  tag_24\n  jumpi\n  swap2\n  dup3\n  add\ntag_23:\n  dup3\n  dup2\n  gt\n  iszero\n  tag_24\n  jumpi\n  dup3\n  mload\n  dup3\n  sstore\n  swap2\n  0x20\n  add\n  swap2\n  swap1\n  0x01\n  add\n  swap1\n  jump(tag_23)\ntag_24:\n  pop\n  tag_25\n  swap3\n  swap2\n  pop\n  tag_26\n  jump\t// in\ntag_25:\n  pop\n  swap1\n  jump\t// out\ntag_26:\ntag_27:\n  dup1\n  dup3\n  gt\n  iszero\n  tag_25\n  jumpi\n  0x00\n  dup2\n  sstore\n  0x01\n  add\n  jump(tag_27)\n    /* \"#utility.yul\":14:1773   */\ntag_3:\n    /* \"#utility.yul\":119:125   */\n  0x00\n    /* \"#utility.yul\":150:152   */\n  0x20\n    /* \"#utility.yul\":193:195   */\n  dup1\n    /* \"#utility.yul\":181:190   */\n  dup4\n    /* \"#utility.yul\":172:179   */\n  dup6\n    /* \"#utility.yul\":168:191   */\n  sub\n    /* \"#utility.yul\":164:196   */\n  slt\n    /* \"#utility.yul\":161:213   */\n  iszero\n  tag_31\n  jumpi\n    /* \"#utility.yul\":209:210   */\n  0x00\n    /* \"#utility.yul\":206:207   */\n  dup1\n    /* \"#utility.yul\":199:211   */\n  revert\n    /* \"#utility.yul\":161:213   */\ntag_31:\n    /* \"#utility.yul\":242:251   */\n  dup3\n    /* \"#utility.yul\":236:252   */\n  mload\n  sub(exp(0x02, 0x40), 0x01)\n    /* \"#utility.yul\":312:314   */\n  dup1\n    /* \"#utility.yul\":304:310   */\n  dup3\n    /* \"#utility.yul\":301:315   */\n  gt\n    /* \"#utility.yul\":298:332   */\n  iszero\n  tag_32\n  jumpi\n    /* \"#utility.yul\":328:329   */\n  0x00\n    /* \"#utility.yul\":325:326   */\n  dup1\n    /* \"#utility.yul\":318:330   */\n  revert\n    /* \"#utility.yul\":298:332   */\ntag_32:\n    /* \"#utility.yul\":366:372   */\n  dup2\n    /* \"#utility.yul\":355:364   */\n  dup6\n    /* \"#utility.yul\":351:373   */\n  add\n    /* \"#utility.yul\":341:373   */\n  swap2\n  pop\n    /* \"#utility.yul\":392:396   */\n  0x1f\n    /* \"#utility.yul\":432:439   */\n  dup7\n    /* \"#utility.yul\":427:429   */\n  dup2\n    /* \"#utility.yul\":423:425   */\n  dup5\n    /* \"#utility.yul\":419:430   */\n  add\n    /* \"#utility.yul\":415:440   */\n  slt\n    /* \"#utility.yul\":405:458   */\n  tag_33\n  jumpi\n    /* \"#utility.yul\":454:455   */\n  0x00\n    /* \"#utility.yul\":451:452   */\n  dup1\n    /* \"#utility.yul\":444:456   */\n  revert\n    /* \"#utility.yul\":405:458   */\ntag_33:\n    /* \"#utility.yul\":483:485   */\n  dup3\n    /* \"#utility.yul\":477:486   */\n  mload\n    /* \"#utility.yul\":505:507   */\n  dup3\n    /* \"#utility.yul\":501:503   */\n  dup2\n    /* \"#utility.yul\":498:508   */\n  gt\n    /* \"#utility.yul\":495:531   */\n  iszero\n  tag_35\n  jumpi\n    /* \"#utility.yul\":511:529   */\n  tag_35\n  tag_36\n  jump\t// in\ntag_35:\n    /* \"#utility.yul\":558:560   */\n  dup5\n    /* \"#utility.yul\":554:556   */\n  dup2\n    /* \"#utility.yul\":550:561   */\n  mul\n    /* \"#utility.yul\":581:609   */\n  tag_37\n    /* \"#utility.yul\":605:607   */\n  dup7\n    /* \"#utility.yul\":601:603   */\n  dup3\n    /* \"#utility.yul\":597:608   */\n  add\n    /* \"#utility.yul\":581:609   */\n  tag_38\n  jump\t// in\ntag_37:\n    /* \"#utility.yul\":643:658   */\n  dup3\n  dup2\n  mstore\n    /* \"#utility.yul\":674:686   */\n  dup7\n  dup2\n  add\n  swap1\n    /* \"#utility.yul\":706:717   */\n  dup7\n  dup9\n  add\n    /* \"#utility.yul\":736:747   */\n  dup4\n  dup9\n  add\n    /* \"#utility.yul\":732:752   */\n  dup10\n  add\n    /* \"#utility.yul\":729:762   */\n  dup13\n  lt\n    /* \"#utility.yul\":726:779   */\n  iszero\n  tag_39\n  jumpi\n    /* \"#utility.yul\":775:776   */\n  0x00\n    /* \"#utility.yul\":772:773   */\n  dup1\n    /* \"#utility.yul\":765:777   */\n  revert\n    /* \"#utility.yul\":726:779   */\ntag_39:\n    /* \"#utility.yul\":797:798   */\n  0x00\n    /* \"#utility.yul\":788:798   */\n  swap4\n  pop\n    /* \"#utility.yul\":807:1743   */\ntag_40:\n    /* \"#utility.yul\":821:823   */\n  dup5\n    /* \"#utility.yul\":818:819   */\n  dup5\n    /* \"#utility.yul\":815:824   */\n  lt\n    /* \"#utility.yul\":807:1743   */\n  iszero\n  tag_42\n  jumpi\n    /* \"#utility.yul\":891:894   */\n  dup1\n    /* \"#utility.yul\":885:895   */\n  mload\n    /* \"#utility.yul\":927:929   */\n  dup8\n    /* \"#utility.yul\":914:925   */\n  dup2\n    /* \"#utility.yul\":911:930   */\n  gt\n    /* \"#utility.yul\":908:947   */\n  iszero\n  tag_43\n  jumpi\n    /* \"#utility.yul\":943:944   */\n  0x00\n    /* \"#utility.yul\":940:941   */\n  dup1\n    /* \"#utility.yul\":933:945   */\n  revert\n    /* \"#utility.yul\":908:947   */\ntag_43:\n    /* \"#utility.yul\":970:990   */\n  dup9\n  add\n    /* \"#utility.yul\":1025:1027   */\n  0x3f\n    /* \"#utility.yul\":1017:1028   */\n  dup2\n  add\n    /* \"#utility.yul\":1013:1038   */\n  dup14\n  sgt\n    /* \"#utility.yul\":1003:1056   */\n  tag_44\n  jumpi\n    /* \"#utility.yul\":1052:1053   */\n  0x00\n    /* \"#utility.yul\":1049:1050   */\n  dup1\n    /* \"#utility.yul\":1042:1054   */\n  revert\n    /* \"#utility.yul\":1003:1056   */\ntag_44:\n    /* \"#utility.yul\":1093:1095   */\n  dup10\n    /* \"#utility.yul\":1089:1091   */\n  dup2\n    /* \"#utility.yul\":1085:1096   */\n  add\n    /* \"#utility.yul\":1079:1097   */\n  mload\n    /* \"#utility.yul\":1120:1122   */\n  dup9\n    /* \"#utility.yul\":1116:1118   */\n  dup2\n    /* \"#utility.yul\":1113:1123   */\n  gt\n    /* \"#utility.yul\":1110:1146   */\n  iszero\n  tag_46\n  jumpi\n    /* \"#utility.yul\":1126:1144   */\n  tag_46\n  tag_36\n  jump\t// in\ntag_46:\n    /* \"#utility.yul\":1172:1223   */\n  tag_47\n    /* \"#utility.yul\":1196:1207   */\n  dup2\n  dup10\n  add\n  not(0x1f)\n    /* \"#utility.yul\":1192:1217   */\n  and\n    /* \"#utility.yul\":1188:1222   */\n  dup13\n  add\n    /* \"#utility.yul\":1172:1223   */\n  tag_38\n  jump\t// in\ntag_47:\n    /* \"#utility.yul\":1250:1252   */\n  dup2\n    /* \"#utility.yul\":1243:1248   */\n  dup2\n    /* \"#utility.yul\":1236:1253   */\n  mstore\n    /* \"#utility.yul\":1276:1278   */\n  0x40\n    /* \"#utility.yul\":1319:1326   */\n  dup16\n    /* \"#utility.yul\":1314:1316   */\n  dup2\n    /* \"#utility.yul\":1309:1311   */\n  dup5\n    /* \"#utility.yul\":1305:1307   */\n  dup7\n    /* \"#utility.yul\":1301:1312   */\n  add\n    /* \"#utility.yul\":1297:1317   */\n  add\n    /* \"#utility.yul\":1294:1327   */\n  gt\n    /* \"#utility.yul\":1291:1344   */\n  iszero\n  tag_48\n  jumpi\n    /* \"#utility.yul\":1340:1341   */\n  0x00\n    /* \"#utility.yul\":1337:1338   */\n  dup1\n    /* \"#utility.yul\":1330:1342   */\n  revert\n    /* \"#utility.yul\":1291:1344   */\ntag_48:\n    /* \"#utility.yul\":1368:1369   */\n  0x00\n    /* \"#utility.yul\":1382:1532   */\ntag_49:\n    /* \"#utility.yul\":1398:1400   */\n  dup4\n    /* \"#utility.yul\":1393:1396   */\n  dup2\n    /* \"#utility.yul\":1390:1401   */\n  lt\n    /* \"#utility.yul\":1382:1532   */\n  iszero\n  tag_51\n  jumpi\n    /* \"#utility.yul\":1499:1511   */\n  dup5\n  dup2\n  add\n    /* \"#utility.yul\":1495:1516   */\n  dup3\n  add\n    /* \"#utility.yul\":1489:1517   */\n  mload\n    /* \"#utility.yul\":1467:1482   */\n  dup4\n  dup3\n  add\n    /* \"#utility.yul\":1463:1487   */\n  dup16\n  add\n    /* \"#utility.yul\":1456:1518   */\n  mstore\n    /* \"#utility.yul\":1411:1423   */\n  dup14\n  add\n    /* \"#utility.yul\":1382:1532   */\n  jump(tag_49)\ntag_51:\n    /* \"#utility.yul\":1556:1558   */\n  dup4\n    /* \"#utility.yul\":1551:1554   */\n  dup2\n    /* \"#utility.yul\":1548:1559   */\n  gt\n    /* \"#utility.yul\":1545:1638   */\n  iszero\n  tag_52\n  jumpi\n    /* \"#utility.yul\":1622:1623   */\n  0x00\n    /* \"#utility.yul\":1617:1619   */\n  dup15\n    /* \"#utility.yul\":1612:1614   */\n  dup6\n    /* \"#utility.yul\":1605:1610   */\n  dup6\n    /* \"#utility.yul\":1601:1615   */\n  add\n    /* \"#utility.yul\":1597:1620   */\n  add\n    /* \"#utility.yul\":1590:1624   */\n  mstore\n    /* \"#utility.yul\":1545:1638   */\ntag_52:\n  pop\n  pop\n    /* \"#utility.yul\":1651:1669   */\n  dup6\n  mstore\n  pop\n  pop\n    /* \"#utility.yul\":839:840   */\n  0x01\n    /* \"#utility.yul\":832:841   */\n  swap4\n  swap1\n  swap4\n  add\n  swap3\n    /* \"#utility.yul\":1689:1701   */\n  swap2\n  dup9\n  add\n  swap2\n    /* \"#utility.yul\":1721:1733   */\n  dup9\n  add\n    /* \"#utility.yul\":807:1743   */\n  jump(tag_40)\ntag_42:\n  pop\n    /* \"#utility.yul\":1762:1767   */\n  swap11\n    /* \"#utility.yul\":14:1773   */\n  swap10\n  pop\n  pop\n  pop\n  pop\n  pop\n  pop\n  pop\n  pop\n  pop\n  pop\n  jump\t// out\n    /* \"#utility.yul\":1778:2053   */\ntag_38:\n    /* \"#utility.yul\":1849:1851   */\n  0x40\n    /* \"#utility.yul\":1843:1852   */\n  mload\n    /* \"#utility.yul\":1914:1916   */\n  0x1f\n    /* \"#utility.yul\":1895:1908   */\n  dup3\n  add\n  not(0x1f)\n    /* \"#utility.yul\":1891:1918   */\n  and\n    /* \"#utility.yul\":1879:1919   */\n  dup2\n  add\n  sub(exp(0x02, 0x40), 0x01)\n    /* \"#utility.yul\":1934:1968   */\n  dup2\n  gt\n    /* \"#utility.yul\":1970:1992   */\n  dup3\n  dup3\n  lt\n    /* \"#utility.yul\":1931:1993   */\n  or\n    /* \"#utility.yul\":1928:2016   */\n  iszero\n  tag_55\n  jumpi\n    /* \"#utility.yul\":1996:2014   */\n  tag_55\n  tag_36\n  jump\t// in\ntag_55:\n    /* \"#utility.yul\":2032:2034   */\n  0x40\n    /* \"#utility.yul\":2025:2047   */\n  mstore\n    /* \"#utility.yul\":1778:2053   */\n  swap2\n  swap1\n  pop\n  jump\t// out\n    /* \"#utility.yul\":2058:2495   */\ntag_19:\n    /* \"#utility.yul\":2143:2144   */\n  0x02\n    /* \"#utility.yul\":2133:2145   */\n  dup2\n  div\n    /* \"#utility.yul\":2190:2191   */\n  0x01\n    /* \"#utility.yul\":2180:2192   */\n  dup3\n  and\n  dup1\n    /* \"#utility.yul\":2201:2262   */\n  tag_57\n  jumpi\n    /* \"#utility.yul\":2255:2259   */\n  0x7f\n    /* \"#utility.yul\":2247:2253   */\n  dup3\n    /* \"#utility.yul\":2243:2260   */\n  and\n    /* \"#utility.yul\":2233:2260   */\n  swap2\n  pop\n    /* \"#utility.yul\":2201:2262   */\ntag_57:\n    /* \"#utility.yul\":2308:2310   */\n  0x20\n    /* \"#utility.yul\":2300:2306   */\n  dup3\n    /* \"#utility.yul\":2297:2311   */\n  lt\n    /* \"#utility.yul\":2277:2295   */\n  dup2\n    /* \"#utility.yul\":2274:2312   */\n  eq\n    /* \"#utility.yul\":2271:2489   */\n  iszero\n  tag_58\n  jumpi\n    /* \"#utility.yul\":2345:2422   */\n  0x4e487b7100000000000000000000000000000000000000000000000000000000\n    /* \"#utility.yul\":2342:2343   */\n  0x00\n    /* \"#utility.yul\":2335:2423   */\n  mstore\n    /* \"#utility.yul\":2446:2450   */\n  0x22\n    /* \"#utility.yul\":2443:2444   */\n  0x04\n    /* \"#utility.yul\":2436:2451   */\n  mstore\n    /* \"#utility.yul\":2474:2478   */\n  0x24\n    /* \"#utility.yul\":2471:2472   */\n  0x00\n    /* \"#utility.yul\":2464:2479   */\n  revert\n    /* \"#utility.yul\":2271:2489   */\ntag_58:\n  pop\n    /* \"#utility.yul\":2058:2495   */\n  swap2\n  swap1\n  pop\n  jump\t// out\n    /* \"#utility.yul\":2500:2789   */\ntag_16:\n    /* \"#utility.yul\":2539:2542   */\n  0x00\n  not(0x00)\n    /* \"#utility.yul\":2560:2577   */\n  dup3\n  eq\n    /* \"#utility.yul\":2557:2754   */\n  iszero\n  tag_60\n  jumpi\n    /* \"#utility.yul\":2610:2687   */\n  0x4e487b7100000000000000000000000000000000000000000000000000000000\n    /* \"#utility.yul\":2607:2608   */\n  0x00\n    /* \"#utility.yul\":2600:2688   */\n  mstore\n    /* \"#utility.yul\":2711:2715   */\n  0x11\n    /* \"#utility.yul\":2708:2709   */\n  0x04\n    /* \"#utility.yul\":2701:2716   */\n  mstore\n    /* \"#utility.yul\":2739:2743   */\n  0x24\n    /* \"#utility.yul\":2736:2737   */\n  0x00\n    /* \"#utility.yul\":2729:2744   */\n  revert\n    /* \"#utility.yul\":2557:2754   */\ntag_60:\n  pop\n    /* \"#utility.yul\":2781:2782   */\n  0x01\n    /* \"#utility.yul\":2770:2783   */\n  add\n  swap1\n    /* \"#utility.yul\":2500:2789   */\n  jump\t// out\n    /* \"#utility.yul\":2794:2978   */\ntag_11:\n    /* \"#utility.yul\":2846:2923   */\n  0x4e487b7100000000000000000000000000000000000000000000000000000000\n    /* \"#utility.yul\":2843:2844   */\n  0x00\n    /* \"#utility.yul\":2836:2924   */\n  mstore\n    /* \"#utility.yul\":2943:2947   */\n  0x32\n    /* \"#utility.yul\":2940:2941   */\n  0x04\n    /* \"#utility.yul\":2933:2948   */\n  mstore\n    /* \"#utility.yul\":2967:2971   */\n  0x24\n    /* \"#utility.yul\":2964:2965   */\n  0x00\n    /* \"#utility.yul\":2957:2972   */\n  revert\n    /* \"#utility.yul\":2983:3167   */\ntag_36:\n    /* \"#utility.yul\":3035:3112   */\n  0x4e487b7100000000000000000000000000000000000000000000000000000000\n    /* \"#utility.yul\":3032:3033   */\n  0x00\n    /* \"#utility.yul\":3025:3113   */\n  mstore\n    /* \"#utility.yul\":3132:3136   */\n  0x41\n    /* \"#utility.yul\":3129:3130   */\n  0x04\n    /* \"#utility.yul\":3122:3137   */\n  mstore\n    /* \"#utility.yul\":3156:3160   */\n  0x24\n    /* \"#utility.yul\":3153:3154   */\n  0x00\n    /* \"#utility.yul\":3146:3161   */\n  revert\n    /* \"#utility.yul\":2983:3167   */\ntag_29:\n    /* \"custom/ballot.sol\":88:3545  contract Ballot{\r... */\n  dataSize(sub_0)\n  dup1\n  dataOffset(sub_0)\n  0x00\n  codecopy\n  0x00\n  return\nstop\n\nsub_0: assembly {\n        /* \"custom/ballot.sol\":88:3545  contract Ballot{\r... */\n      mstore(0x40, 0x80)\n      callvalue\n      dup1\n      iszero\n      tag_1\n      jumpi\n      0x00\n      dup1\n      revert\n    tag_1:\n      pop\n      jumpi(tag_2, lt(calldatasize, 0x04))\n      calldataload(0x00)\n      0x0100000000000000000000000000000000000000000000000000000000\n      swap1\n      div\n      dup1\n      0x609ff1bd\n      gt\n      tag_10\n      jumpi\n      dup1\n      0x609ff1bd\n      eq\n      tag_6\n      jumpi\n      dup1\n      0x9e7b8d61\n      eq\n      tag_7\n      jumpi\n      dup1\n      0xa3ec138d\n      eq\n      tag_8\n      jumpi\n      dup1\n      0xb3f98adc\n      eq\n      tag_9\n      jumpi\n      0x00\n      dup1\n      revert\n    tag_10:\n      dup1\n      0x013cf08b\n      eq\n      tag_3\n      jumpi\n      dup1\n      0x2e4176cf\n      eq\n      tag_4\n      jumpi\n      dup1\n      0x5c19a95c\n      eq\n      tag_5\n      jumpi\n    tag_2:\n      0x00\n      dup1\n      revert\n        /* \"custom/ballot.sol\":535:562  Proposal[] public proposals */\n    tag_3:\n      tag_11\n      tag_12\n      calldatasize\n      0x04\n      tag_13\n      jump\t// in\n    tag_12:\n      tag_14\n      jump\t// in\n    tag_11:\n      mload(0x40)\n      tag_15\n      swap3\n      swap2\n      swap1\n      tag_16\n      jump\t// in\n    tag_15:\n      mload(0x40)\n      dup1\n      swap2\n      sub\n      swap1\n      return\n        /* \"custom/ballot.sol\":429:455  address public chairperson */\n    tag_4:\n      sload(0x00)\n      tag_17\n      swap1\n      sub(exp(0x02, 0xa0), 0x01)\n      and\n      dup2\n      jump\n    tag_17:\n      mload(0x40)\n      sub(exp(0x02, 0xa0), 0x01)\n        /* \"#utility.yul\":1428:1483   */\n      swap1\n      swap2\n      and\n        /* \"#utility.yul\":1410:1484   */\n      dup2\n      mstore\n        /* \"#utility.yul\":1398:1400   */\n      0x20\n        /* \"#utility.yul\":1383:1401   */\n      add\n        /* \"custom/ballot.sol\":429:455  address public chairperson */\n      tag_15\n        /* \"#utility.yul\":1264:1490   */\n      jump\n        /* \"custom/ballot.sol\":1306:2474  function delegate(address to) external {\r... */\n    tag_5:\n      tag_21\n      tag_22\n      calldatasize\n      0x04\n      tag_23\n      jump\t// in\n    tag_22:\n      tag_24\n      jump\t// in\n    tag_21:\n      stop\n        /* \"custom/ballot.sol\":2871:3542  function winningProposal() public view returns (string[] memory)\r... */\n    tag_6:\n      tag_25\n      tag_26\n      jump\t// in\n    tag_25:\n      mload(0x40)\n      tag_15\n      swap2\n      swap1\n      tag_28\n      jump\t// in\n        /* \"custom/ballot.sol\":990:1280  function giveRightToVote(address voter) external{\r... */\n    tag_7:\n      tag_21\n      tag_30\n      calldatasize\n      0x04\n      tag_23\n      jump\t// in\n    tag_30:\n      tag_31\n      jump\t// in\n        /* \"custom/ballot.sol\":464:500  mapping(address=>Voter)public voters */\n    tag_8:\n      tag_32\n      tag_33\n      calldatasize\n      0x04\n      tag_23\n      jump\t// in\n    tag_33:\n      mstore(0x20, 0x01)\n      0x00\n      swap1\n      dup2\n      mstore\n      0x40\n      swap1\n      keccak256\n      sload\n      0xff\n      dup1\n      dup3\n      and\n      swap2\n      0x0100\n      dup2\n      div\n      dup3\n      and\n      swap2\n      sub(exp(0x02, 0xa0), 0x01)\n      0x010000\n      dup4\n      div\n      and\n      swap2\n      0x0100000000000000000000000000000000000000000000\n      swap1\n      div\n      and\n      dup5\n      jump\n    tag_32:\n      0x40\n      dup1\n      mload\n        /* \"#utility.yul\":5368:5372   */\n      0xff\n        /* \"#utility.yul\":5356:5373   */\n      swap6\n      dup7\n      and\n        /* \"#utility.yul\":5338:5374   */\n      dup2\n      mstore\n        /* \"#utility.yul\":5417:5431   */\n      swap4\n      iszero\n        /* \"#utility.yul\":5410:5432   */\n      iszero\n        /* \"#utility.yul\":5405:5407   */\n      0x20\n        /* \"#utility.yul\":5390:5408   */\n      dup6\n      add\n        /* \"#utility.yul\":5383:5433   */\n      mstore\n      sub(exp(0x02, 0xa0), 0x01)\n        /* \"#utility.yul\":5469:5524   */\n      swap1\n      swap3\n      and\n        /* \"#utility.yul\":5449:5467   */\n      swap2\n      dup4\n      add\n        /* \"#utility.yul\":5442:5525   */\n      swap2\n      swap1\n      swap2\n      mstore\n        /* \"#utility.yul\":5561:5578   */\n      swap2\n      swap1\n      swap2\n      and\n        /* \"#utility.yul\":5556:5558   */\n      0x60\n        /* \"#utility.yul\":5541:5559   */\n      dup3\n      add\n        /* \"#utility.yul\":5534:5579   */\n      mstore\n        /* \"#utility.yul\":5325:5328   */\n      0x80\n        /* \"#utility.yul\":5310:5329   */\n      add\n        /* \"custom/ballot.sol\":464:500  mapping(address=>Voter)public voters */\n      tag_15\n        /* \"#utility.yul\":5121:5585   */\n      jump\n        /* \"custom/ballot.sol\":2496:2834  function vote(uint8 proposal) external{\r... */\n    tag_9:\n      tag_21\n      tag_38\n      calldatasize\n      0x04\n      tag_39\n      jump\t// in\n    tag_38:\n      tag_40\n      jump\t// in\n        /* \"custom/ballot.sol\":535:562  Proposal[] public proposals */\n    tag_14:\n      0x02\n      dup2\n      dup2\n      sload\n      dup2\n      lt\n      tag_41\n      jumpi\n      0x00\n      dup1\n      revert\n    tag_41:\n      swap1\n      0x00\n      mstore\n      keccak256(0x00, 0x20)\n      swap1\n      0x02\n      mul\n      add\n      0x00\n      swap2\n      pop\n      swap1\n      pop\n      dup1\n      0x00\n      add\n      dup1\n      sload\n      tag_43\n      swap1\n      tag_44\n      jump\t// in\n    tag_43:\n      dup1\n      0x1f\n      add\n      0x20\n      dup1\n      swap2\n      div\n      mul\n      0x20\n      add\n      mload(0x40)\n      swap1\n      dup2\n      add\n      0x40\n      mstore\n      dup1\n      swap3\n      swap2\n      swap1\n      dup2\n      dup2\n      mstore\n      0x20\n      add\n      dup3\n      dup1\n      sload\n      tag_45\n      swap1\n      tag_44\n      jump\t// in\n    tag_45:\n      dup1\n      iszero\n      tag_46\n      jumpi\n      dup1\n      0x1f\n      lt\n      tag_47\n      jumpi\n      0x0100\n      dup1\n      dup4\n      sload\n      div\n      mul\n      dup4\n      mstore\n      swap2\n      0x20\n      add\n      swap2\n      jump(tag_46)\n    tag_47:\n      dup3\n      add\n      swap2\n      swap1\n      0x00\n      mstore\n      keccak256(0x00, 0x20)\n      swap1\n    tag_48:\n      dup2\n      sload\n      dup2\n      mstore\n      swap1\n      0x01\n      add\n      swap1\n      0x20\n      add\n      dup1\n      dup4\n      gt\n      tag_48\n      jumpi\n      dup3\n      swap1\n      sub\n      0x1f\n      and\n      dup3\n      add\n      swap2\n    tag_46:\n      pop\n      pop\n      pop\n      pop\n      pop\n      swap1\n      dup1\n      0x01\n      add\n      sload\n      swap1\n      pop\n      dup3\n      jump\t// out\n        /* \"custom/ballot.sol\":1306:2474  function delegate(address to) external {\r... */\n    tag_24:\n        /* \"custom/ballot.sol\":1522:1532  msg.sender */\n      caller\n        /* \"custom/ballot.sol\":1492:1512  Voter storage sender */\n      0x00\n        /* \"custom/ballot.sol\":1515:1533  voters[msg.sender] */\n      swap1\n      dup2\n      mstore\n        /* \"custom/ballot.sol\":1515:1521  voters */\n      0x01\n        /* \"custom/ballot.sol\":1515:1533  voters[msg.sender] */\n      0x20\n      mstore\n      0x40\n      swap1\n      keccak256\n        /* \"custom/ballot.sol\":1552:1565  sender.weight */\n      dup1\n      sload\n      0xff\n      and\n        /* \"custom/ballot.sol\":1544:1600  require(sender.weight != 0,\"You have no right to vote.\") */\n      tag_50\n      jumpi\n      mload(0x40)\n      mul(0x461bcd, exp(0x02, 0xe5))\n      dup2\n      mstore\n        /* \"#utility.yul\":4256:4258   */\n      0x20\n        /* \"custom/ballot.sol\":1544:1600  require(sender.weight != 0,\"You have no right to vote.\") */\n      0x04\n      dup3\n      add\n        /* \"#utility.yul\":4238:4259   */\n      mstore\n        /* \"#utility.yul\":4295:4297   */\n      0x1a\n        /* \"#utility.yul\":4275:4293   */\n      0x24\n      dup3\n      add\n        /* \"#utility.yul\":4268:4298   */\n      mstore\n        /* \"#utility.yul\":4334:4362   */\n      0x596f752068617665206e6f20726967687420746f20766f74652e000000000000\n        /* \"#utility.yul\":4314:4332   */\n      0x44\n      dup3\n      add\n        /* \"#utility.yul\":4307:4363   */\n      mstore\n        /* \"#utility.yul\":4380:4398   */\n      0x64\n      add\n        /* \"custom/ballot.sol\":1544:1600  require(sender.weight != 0,\"You have no right to vote.\") */\n    tag_51:\n      mload(0x40)\n      dup1\n      swap2\n      sub\n      swap1\n      revert\n    tag_50:\n        /* \"custom/ballot.sol\":1620:1632  sender.voted */\n      dup1\n      sload\n      0x0100\n      swap1\n      div\n      0xff\n      and\n        /* \"custom/ballot.sol\":1619:1632  !sender.voted */\n      iszero\n        /* \"custom/ballot.sol\":1611:1654  require(!sender.voted,\"You already voted.\") */\n      tag_53\n      jumpi\n      mload(0x40)\n      mul(0x461bcd, exp(0x02, 0xe5))\n      dup2\n      mstore\n        /* \"#utility.yul\":3500:3502   */\n      0x20\n        /* \"custom/ballot.sol\":1611:1654  require(!sender.voted,\"You already voted.\") */\n      0x04\n      dup3\n      add\n        /* \"#utility.yul\":3482:3503   */\n      mstore\n        /* \"#utility.yul\":3539:3541   */\n      0x12\n        /* \"#utility.yul\":3519:3537   */\n      0x24\n      dup3\n      add\n        /* \"#utility.yul\":3512:3542   */\n      mstore\n        /* \"#utility.yul\":3578:3598   */\n      0x596f7520616c726561647920766f7465642e0000000000000000000000000000\n        /* \"#utility.yul\":3558:3576   */\n      0x44\n      dup3\n      add\n        /* \"#utility.yul\":3551:3599   */\n      mstore\n        /* \"#utility.yul\":3616:3634   */\n      0x64\n      add\n        /* \"custom/ballot.sol\":1611:1654  require(!sender.voted,\"You already voted.\") */\n      tag_51\n        /* \"#utility.yul\":3298:3640   */\n      jump\n        /* \"custom/ballot.sol\":1611:1654  require(!sender.voted,\"You already voted.\") */\n    tag_53:\n      sub(exp(0x02, 0xa0), 0x01)\n        /* \"custom/ballot.sol\":1673:1689  to != msg.sender */\n      dup3\n      and\n        /* \"custom/ballot.sol\":1679:1689  msg.sender */\n      caller\n        /* \"custom/ballot.sol\":1673:1689  to != msg.sender */\n      eq\n      iszero\n        /* \"custom/ballot.sol\":1665:1723  require(to != msg.sender,\"Self-delegation is disallowed.\") */\n      tag_56\n      jumpi\n      mload(0x40)\n      mul(0x461bcd, exp(0x02, 0xe5))\n      dup2\n      mstore\n        /* \"#utility.yul\":4964:4966   */\n      0x20\n        /* \"custom/ballot.sol\":1665:1723  require(to != msg.sender,\"Self-delegation is disallowed.\") */\n      0x04\n      dup3\n      add\n        /* \"#utility.yul\":4946:4967   */\n      mstore\n        /* \"#utility.yul\":5003:5005   */\n      0x1e\n        /* \"#utility.yul\":4983:5001   */\n      0x24\n      dup3\n      add\n        /* \"#utility.yul\":4976:5006   */\n      mstore\n        /* \"#utility.yul\":5042:5074   */\n      0x53656c662d64656c65676174696f6e20697320646973616c6c6f7765642e0000\n        /* \"#utility.yul\":5022:5040   */\n      0x44\n      dup3\n      add\n        /* \"#utility.yul\":5015:5075   */\n      mstore\n        /* \"#utility.yul\":5092:5110   */\n      0x64\n      add\n        /* \"custom/ballot.sol\":1665:1723  require(to != msg.sender,\"Self-delegation is disallowed.\") */\n      tag_51\n        /* \"#utility.yul\":4762:5116   */\n      jump\n        /* \"custom/ballot.sol\":1665:1723  require(to != msg.sender,\"Self-delegation is disallowed.\") */\n    tag_56:\n      sub(exp(0x02, 0xa0), 0x01)\n        /* \"custom/ballot.sol\":1790:1800  voters[to] */\n      dup3\n      dup2\n      and\n        /* \"custom/ballot.sol\":1821:1822  0 */\n      0x00\n        /* \"custom/ballot.sol\":1790:1800  voters[to] */\n      swap1\n      dup2\n      mstore\n        /* \"custom/ballot.sol\":1790:1796  voters */\n      0x01\n        /* \"custom/ballot.sol\":1790:1800  voters[to] */\n      0x20\n      mstore\n      0x40\n      swap1\n      keccak256\n        /* \"custom/ballot.sol\":1790:1809  voters[to].delegate */\n      sload\n      0x010000\n      swap1\n      div\n      and\n        /* \"custom/ballot.sol\":1790:1823  voters[to].delegate != address(0) */\n      iszero\n        /* \"custom/ballot.sol\":1784:1976  while(voters[to].delegate != address(0)){\r... */\n      tag_60\n      jumpi\n      sub(exp(0x02, 0xa0), 0x01)\n        /* \"custom/ballot.sol\":1844:1854  voters[to] */\n      swap2\n      dup3\n      and\n      0x00\n      swap1\n      dup2\n      mstore\n        /* \"custom/ballot.sol\":1844:1850  voters */\n      0x01\n        /* \"custom/ballot.sol\":1844:1854  voters[to] */\n      0x20\n      mstore\n      0x40\n      swap1\n      keccak256\n        /* \"custom/ballot.sol\":1844:1863  voters[to].delegate */\n      sload\n      0x010000\n      swap1\n      div\n      swap1\n      swap2\n      and\n      swap1\n        /* \"custom/ballot.sol\":1926:1936  msg.sender */\n      caller\n        /* \"custom/ballot.sol\":1920:1936  to != msg.sender */\n      dup3\n      eq\n      iszero\n        /* \"custom/ballot.sol\":1912:1964  require(to != msg.sender,\"Found loop in delegation\") */\n      tag_61\n      jumpi\n      mload(0x40)\n      mul(0x461bcd, exp(0x02, 0xe5))\n      dup2\n      mstore\n        /* \"#utility.yul\":4611:4613   */\n      0x20\n        /* \"custom/ballot.sol\":1912:1964  require(to != msg.sender,\"Found loop in delegation\") */\n      0x04\n      dup3\n      add\n        /* \"#utility.yul\":4593:4614   */\n      mstore\n        /* \"#utility.yul\":4650:4652   */\n      0x18\n        /* \"#utility.yul\":4630:4648   */\n      0x24\n      dup3\n      add\n        /* \"#utility.yul\":4623:4653   */\n      mstore\n        /* \"#utility.yul\":4689:4715   */\n      0x466f756e64206c6f6f7020696e2064656c65676174696f6e0000000000000000\n        /* \"#utility.yul\":4669:4687   */\n      0x44\n      dup3\n      add\n        /* \"#utility.yul\":4662:4716   */\n      mstore\n        /* \"#utility.yul\":4733:4751   */\n      0x64\n      add\n        /* \"custom/ballot.sol\":1912:1964  require(to != msg.sender,\"Found loop in delegation\") */\n      tag_51\n        /* \"#utility.yul\":4409:4757   */\n      jump\n        /* \"custom/ballot.sol\":1912:1964  require(to != msg.sender,\"Found loop in delegation\") */\n    tag_61:\n        /* \"custom/ballot.sol\":1784:1976  while(voters[to].delegate != address(0)){\r... */\n      jump(tag_56)\n    tag_60:\n      sub(exp(0x02, 0xa0), 0x01)\n        /* \"custom/ballot.sol\":2014:2024  voters[to] */\n      dup3\n      and\n        /* \"custom/ballot.sol\":1988:2011  Voter storage delegater */\n      0x00\n        /* \"custom/ballot.sol\":2014:2024  voters[to] */\n      swap1\n      dup2\n      mstore\n        /* \"custom/ballot.sol\":2014:2020  voters */\n      0x01\n        /* \"custom/ballot.sol\":2014:2024  voters[to] */\n      0x20\n      dup2\n      swap1\n      mstore\n      0x40\n      swap1\n      swap2\n      keccak256\n        /* \"custom/ballot.sol\":2043:2059  delegater.weight */\n      dup1\n      sload\n        /* \"custom/ballot.sol\":2014:2024  voters[to] */\n      swap1\n      swap2\n        /* \"custom/ballot.sol\":2043:2059  delegater.weight */\n      0xff\n      swap1\n      swap2\n      and\n        /* \"custom/ballot.sol\":2043:2064  delegater.weight >= 1 */\n      lt\n      iszero\n        /* \"custom/ballot.sol\":2035:2065  require(delegater.weight >= 1) */\n      tag_64\n      jumpi\n      0x00\n      dup1\n      revert\n    tag_64:\n        /* \"custom/ballot.sol\":2108:2127  sender.voted = true */\n      dup2\n      sload\n      sub(exp(0x02, 0xa0), 0x01)\n        /* \"custom/ballot.sol\":2138:2158  sender.delegate = to */\n      dup5\n      and\n      0x010000\n      mul\n      not(0xffffffffffffffffffffffffffffffffffffffffff00)\n      swap1\n      swap2\n      and\n      or\n        /* \"custom/ballot.sol\":2108:2127  sender.voted = true */\n      0x0100\n        /* \"custom/ballot.sol\":2138:2158  sender.delegate = to */\n      swap1\n      dup2\n      or\n      dup4\n      sstore\n        /* \"custom/ballot.sol\":2174:2189  delegater.voted */\n      dup2\n      sload\n      div\n        /* \"custom/ballot.sol\":2108:2127  sender.voted = true */\n      0xff\n        /* \"custom/ballot.sol\":2174:2189  delegater.voted */\n      and\n        /* \"custom/ballot.sol\":2171:2467  if(delegater.voted){\r... */\n      iszero\n      tag_65\n      jumpi\n        /* \"custom/ballot.sol\":2323:2336  sender.weight */\n      dup2\n      sload\n        /* \"custom/ballot.sol\":2294:2308  delegater.vote */\n      dup2\n      sload\n        /* \"custom/ballot.sol\":2284:2293  proposals */\n      0x02\n        /* \"custom/ballot.sol\":2284:2309  proposals[delegater.vote] */\n      dup1\n      sload\n        /* \"custom/ballot.sol\":2323:2336  sender.weight */\n      0xff\n      swap4\n      dup5\n      and\n      swap4\n        /* \"custom/ballot.sol\":2284:2293  proposals */\n      swap2\n      swap3\n        /* \"custom/ballot.sol\":2294:2308  delegater.vote */\n      0x0100000000000000000000000000000000000000000000\n      swap1\n      div\n      swap1\n      swap2\n      and\n      swap1\n        /* \"custom/ballot.sol\":2284:2309  proposals[delegater.vote] */\n      dup2\n      lt\n      tag_67\n      jumpi\n      tag_67\n      tag_68\n      jump\t// in\n    tag_67:\n      swap1\n      0x00\n      mstore\n      keccak256(0x00, 0x20)\n      swap1\n      0x02\n      mul\n      add\n        /* \"custom/ballot.sol\":2284:2319  proposals[delegater.vote].voteCount */\n      0x01\n      add\n      0x00\n        /* \"custom/ballot.sol\":2284:2336  proposals[delegater.vote].voteCount += sender.weight */\n      dup3\n      dup3\n      sload\n      tag_70\n      swap2\n      swap1\n      tag_71\n      jump\t// in\n    tag_70:\n      swap1\n      swap2\n      sstore\n      pop\n        /* \"custom/ballot.sol\":2171:2467  if(delegater.voted){\r... */\n      tag_72\n      swap1\n      pop\n      jump\n    tag_65:\n        /* \"custom/ballot.sol\":2442:2455  sender.weight */\n      dup2\n      sload\n        /* \"custom/ballot.sol\":2422:2455  delegater.weight += sender.weight */\n      dup2\n      sload\n        /* \"custom/ballot.sol\":2442:2455  sender.weight */\n      0xff\n      swap2\n      dup3\n      and\n      swap2\n        /* \"custom/ballot.sol\":2422:2431  delegater */\n      dup4\n      swap2\n        /* \"custom/ballot.sol\":2442:2455  sender.weight */\n      0x00\n      swap2\n        /* \"custom/ballot.sol\":2422:2455  delegater.weight += sender.weight */\n      tag_73\n      swap2\n        /* \"custom/ballot.sol\":2442:2455  sender.weight */\n      dup6\n      swap2\n        /* \"custom/ballot.sol\":2422:2455  delegater.weight += sender.weight */\n      and\n      tag_74\n      jump\t// in\n    tag_73:\n      swap3\n      pop\n      0x0100\n      exp\n      dup2\n      sload\n      dup2\n      0xff\n      mul\n      not\n      and\n      swap1\n      dup4\n      0xff\n      and\n      mul\n      or\n      swap1\n      sstore\n      pop\n        /* \"custom/ballot.sol\":2171:2467  if(delegater.voted){\r... */\n    tag_72:\n        /* \"custom/ballot.sol\":1345:2474  {\r... */\n      pop\n      pop\n        /* \"custom/ballot.sol\":1306:2474  function delegate(address to) external {\r... */\n      pop\n      jump\t// out\n        /* \"custom/ballot.sol\":2871:3542  function winningProposal() public view returns (string[] memory)\r... */\n    tag_26:\n        /* \"custom/ballot.sol\":2919:2934  string[] memory */\n      0x60\n        /* \"custom/ballot.sol\":2952:2971  string[] memory win */\n      dup1\n        /* \"custom/ballot.sol\":2982:3003  uint winningVoteCount */\n      0x00\n        /* \"custom/ballot.sol\":3022:3028  uint i */\n      dup1\n        /* \"custom/ballot.sol\":3018:3203  for(uint i=0;i < proposals.length;i++){\r... */\n    tag_76:\n        /* \"custom/ballot.sol\":3035:3044  proposals */\n      0x02\n        /* \"custom/ballot.sol\":3035:3051  proposals.length */\n      sload\n        /* \"custom/ballot.sol\":3031:3051  i < proposals.length */\n      dup2\n      lt\n        /* \"custom/ballot.sol\":3018:3203  for(uint i=0;i < proposals.length;i++){\r... */\n      iszero\n      tag_77\n      jumpi\n        /* \"custom/ballot.sol\":3099:3115  winningVoteCount */\n      dup2\n        /* \"custom/ballot.sol\":3074:3083  proposals */\n      0x02\n        /* \"custom/ballot.sol\":3084:3085  i */\n      dup3\n        /* \"custom/ballot.sol\":3074:3086  proposals[i] */\n      dup2\n      sload\n      dup2\n      lt\n      tag_80\n      jumpi\n      tag_80\n      tag_68\n      jump\t// in\n    tag_80:\n      swap1\n      0x00\n      mstore\n      keccak256(0x00, 0x20)\n      swap1\n      0x02\n      mul\n      add\n        /* \"custom/ballot.sol\":3074:3096  proposals[i].voteCount */\n      0x01\n      add\n      sload\n        /* \"custom/ballot.sol\":3074:3115  proposals[i].voteCount > winningVoteCount */\n      gt\n        /* \"custom/ballot.sol\":3071:3192  if(proposals[i].voteCount > winningVoteCount){\r... */\n      iszero\n      tag_82\n      jumpi\n        /* \"custom/ballot.sol\":3154:3163  proposals */\n      0x02\n        /* \"custom/ballot.sol\":3164:3165  i */\n      dup2\n        /* \"custom/ballot.sol\":3154:3166  proposals[i] */\n      dup2\n      sload\n      dup2\n      lt\n      tag_84\n      jumpi\n      tag_84\n      tag_68\n      jump\t// in\n    tag_84:\n      swap1\n      0x00\n      mstore\n      keccak256(0x00, 0x20)\n      swap1\n      0x02\n      mul\n      add\n        /* \"custom/ballot.sol\":3154:3176  proposals[i].voteCount */\n      0x01\n      add\n      sload\n        /* \"custom/ballot.sol\":3135:3176  winningVoteCount = proposals[i].voteCount */\n      swap2\n      pop\n        /* \"custom/ballot.sol\":3071:3192  if(proposals[i].voteCount > winningVoteCount){\r... */\n    tag_82:\n        /* \"custom/ballot.sol\":3052:3055  i++ */\n      dup1\n      tag_86\n      dup2\n      tag_87\n      jump\t// in\n    tag_86:\n      swap2\n      pop\n      pop\n        /* \"custom/ballot.sol\":3018:3203  for(uint i=0;i < proposals.length;i++){\r... */\n      jump(tag_76)\n    tag_77:\n      pop\n        /* \"custom/ballot.sol\":3219:3225  uint m */\n      0x00\n        /* \"custom/ballot.sol\":3215:3514  for(uint m=0; m < proposals.length; m++){\r... */\n    tag_88:\n        /* \"custom/ballot.sol\":3233:3242  proposals */\n      0x02\n        /* \"custom/ballot.sol\":3233:3249  proposals.length */\n      sload\n        /* \"custom/ballot.sol\":3229:3249  m < proposals.length */\n      dup2\n      lt\n        /* \"custom/ballot.sol\":3215:3514  for(uint m=0; m < proposals.length; m++){\r... */\n      iszero\n      tag_89\n      jumpi\n        /* \"custom/ballot.sol\":3293:3302  proposals */\n      0x02\n        /* \"custom/ballot.sol\":3303:3304  m */\n      dup2\n        /* \"custom/ballot.sol\":3293:3305  proposals[m] */\n      dup2\n      sload\n      dup2\n      lt\n      tag_92\n      jumpi\n      tag_92\n      tag_68\n      jump\t// in\n    tag_92:\n      swap1\n      0x00\n      mstore\n      keccak256(0x00, 0x20)\n      swap1\n      0x02\n      mul\n      add\n        /* \"custom/ballot.sol\":3293:3315  proposals[m].voteCount */\n      0x01\n      add\n      sload\n        /* \"custom/ballot.sol\":3273:3289  winningVoteCount */\n      dup3\n        /* \"custom/ballot.sol\":3273:3315  winningVoteCount == proposals[m].voteCount */\n      eq\n        /* \"custom/ballot.sol\":3270:3503  if(winningVoteCount == proposals[m].voteCount){\r... */\n      iszero\n      tag_94\n      jumpi\n        /* \"custom/ballot.sol\":3470:3479  proposals */\n      0x02\n        /* \"custom/ballot.sol\":3480:3481  m */\n      dup2\n        /* \"custom/ballot.sol\":3470:3482  proposals[m] */\n      dup2\n      sload\n      dup2\n      lt\n      tag_96\n      jumpi\n      tag_96\n      tag_68\n      jump\t// in\n    tag_96:\n      swap1\n      0x00\n      mstore\n      keccak256(0x00, 0x20)\n      swap1\n      0x02\n      mul\n      add\n        /* \"custom/ballot.sol\":3470:3487  proposals[m].name */\n      0x00\n      add\n        /* \"custom/ballot.sol\":3452:3487  win[win.length] = proposals[m].name */\n      dup1\n      sload\n      tag_98\n      swap1\n      tag_44\n      jump\t// in\n    tag_98:\n      dup1\n      0x1f\n      add\n      0x20\n      dup1\n      swap2\n      div\n      mul\n      0x20\n      add\n      mload(0x40)\n      swap1\n      dup2\n      add\n      0x40\n      mstore\n      dup1\n      swap3\n      swap2\n      swap1\n      dup2\n      dup2\n      mstore\n      0x20\n      add\n      dup3\n      dup1\n      sload\n      tag_99\n      swap1\n      tag_44\n      jump\t// in\n    tag_99:\n      dup1\n      iszero\n      tag_100\n      jumpi\n      dup1\n      0x1f\n      lt\n      tag_101\n      jumpi\n      0x0100\n      dup1\n      dup4\n      sload\n      div\n      mul\n      dup4\n      mstore\n      swap2\n      0x20\n      add\n      swap2\n      jump(tag_100)\n    tag_101:\n      dup3\n      add\n      swap2\n      swap1\n      0x00\n      mstore\n      keccak256(0x00, 0x20)\n      swap1\n    tag_102:\n      dup2\n      sload\n      dup2\n      mstore\n      swap1\n      0x01\n      add\n      swap1\n      0x20\n      add\n      dup1\n      dup4\n      gt\n      tag_102\n      jumpi\n      dup3\n      swap1\n      sub\n      0x1f\n      and\n      dup3\n      add\n      swap2\n    tag_100:\n      pop\n      pop\n        /* \"custom/ballot.sol\":3456:3466  win.length */\n      dup7\n      mload\n        /* \"custom/ballot.sol\":3452:3455  win */\n      dup8\n      swap4\n      pop\n        /* \"custom/ballot.sol\":3456:3466  win.length */\n      swap2\n      pop\n      pop\n        /* \"custom/ballot.sol\":3452:3467  win[win.length] */\n      tag_104\n      tag_68\n      jump\t// in\n    tag_104:\n      0x20\n      mul\n      0x20\n      add\n      add\n        /* \"custom/ballot.sol\":3452:3487  win[win.length] = proposals[m].name */\n      dup2\n      swap1\n      mstore\n      pop\n        /* \"custom/ballot.sol\":3270:3503  if(winningVoteCount == proposals[m].voteCount){\r... */\n    tag_94:\n        /* \"custom/ballot.sol\":3251:3254  m++ */\n      dup1\n      tag_105\n      dup2\n      tag_87\n      jump\t// in\n    tag_105:\n      swap2\n      pop\n      pop\n        /* \"custom/ballot.sol\":3215:3514  for(uint m=0; m < proposals.length; m++){\r... */\n      jump(tag_88)\n    tag_89:\n      pop\n        /* \"custom/ballot.sol\":3531:3534  win */\n      swap1\n      swap3\n        /* \"custom/ballot.sol\":2871:3542  function winningProposal() public view returns (string[] memory)\r... */\n      swap2\n      pop\n      pop\n      jump\t// out\n        /* \"custom/ballot.sol\":990:1280  function giveRightToVote(address voter) external{\r... */\n    tag_31:\n        /* \"custom/ballot.sol\":1071:1082  chairperson */\n      and(sub(exp(0x02, 0xa0), 0x01), sload(0x00))\n        /* \"custom/ballot.sol\":1057:1067  msg.sender */\n      caller\n        /* \"custom/ballot.sol\":1057:1082  msg.sender == chairperson */\n      eq\n        /* \"custom/ballot.sol\":1049:1126  require(msg.sender == chairperson,\"Only chairperson can give right to vote.\") */\n      tag_107\n      jumpi\n      mload(0x40)\n      mul(0x461bcd, exp(0x02, 0xe5))\n      dup2\n      mstore\n        /* \"#utility.yul\":3847:3849   */\n      0x20\n        /* \"custom/ballot.sol\":1049:1126  require(msg.sender == chairperson,\"Only chairperson can give right to vote.\") */\n      0x04\n      dup3\n      add\n        /* \"#utility.yul\":3829:3850   */\n      mstore\n        /* \"#utility.yul\":3886:3888   */\n      0x28\n        /* \"#utility.yul\":3866:3884   */\n      0x24\n      dup3\n      add\n        /* \"#utility.yul\":3859:3889   */\n      mstore\n        /* \"#utility.yul\":3925:3959   */\n      0x4f6e6c79206368616972706572736f6e2063616e206769766520726967687420\n        /* \"#utility.yul\":3905:3923   */\n      0x44\n      dup3\n      add\n        /* \"#utility.yul\":3898:3960   */\n      mstore\n        /* \"#utility.yul\":3996:4006   */\n      0x746f20766f74652e000000000000000000000000000000000000000000000000\n        /* \"#utility.yul\":3976:3994   */\n      0x64\n      dup3\n      add\n        /* \"#utility.yul\":3969:4007   */\n      mstore\n        /* \"#utility.yul\":4024:4043   */\n      0x84\n      add\n        /* \"custom/ballot.sol\":1049:1126  require(msg.sender == chairperson,\"Only chairperson can give right to vote.\") */\n      tag_51\n        /* \"#utility.yul\":3645:4049   */\n      jump\n        /* \"custom/ballot.sol\":1049:1126  require(msg.sender == chairperson,\"Only chairperson can give right to vote.\") */\n    tag_107:\n      sub(exp(0x02, 0xa0), 0x01)\n        /* \"custom/ballot.sol\":1146:1159  voters[voter] */\n      dup2\n      and\n      0x00\n      swap1\n      dup2\n      mstore\n        /* \"custom/ballot.sol\":1146:1152  voters */\n      0x01\n        /* \"custom/ballot.sol\":1146:1159  voters[voter] */\n      0x20\n      mstore\n      0x40\n      swap1\n      keccak256\n        /* \"custom/ballot.sol\":1146:1165  voters[voter].voted */\n      sload\n      0x0100\n      swap1\n      div\n      0xff\n      and\n        /* \"custom/ballot.sol\":1145:1165  !voters[voter].voted */\n      iszero\n        /* \"custom/ballot.sol\":1137:1192  require(!voters[voter].voted,\"The voter already voted\") */\n      tag_110\n      jumpi\n      mload(0x40)\n      mul(0x461bcd, exp(0x02, 0xe5))\n      dup2\n      mstore\n        /* \"#utility.yul\":2802:2804   */\n      0x20\n        /* \"custom/ballot.sol\":1137:1192  require(!voters[voter].voted,\"The voter already voted\") */\n      0x04\n      dup3\n      add\n        /* \"#utility.yul\":2784:2805   */\n      mstore\n        /* \"#utility.yul\":2841:2843   */\n      0x17\n        /* \"#utility.yul\":2821:2839   */\n      0x24\n      dup3\n      add\n        /* \"#utility.yul\":2814:2844   */\n      mstore\n        /* \"#utility.yul\":2880:2905   */\n      0x54686520766f74657220616c726561647920766f746564000000000000000000\n        /* \"#utility.yul\":2860:2878   */\n      0x44\n      dup3\n      add\n        /* \"#utility.yul\":2853:2906   */\n      mstore\n        /* \"#utility.yul\":2923:2941   */\n      0x64\n      add\n        /* \"custom/ballot.sol\":1137:1192  require(!voters[voter].voted,\"The voter already voted\") */\n      tag_51\n        /* \"#utility.yul\":2600:2947   */\n      jump\n        /* \"custom/ballot.sol\":1137:1192  require(!voters[voter].voted,\"The voter already voted\") */\n    tag_110:\n      sub(exp(0x02, 0xa0), 0x01)\n        /* \"custom/ballot.sol\":1211:1224  voters[voter] */\n      dup2\n      and\n      0x00\n      swap1\n      dup2\n      mstore\n        /* \"custom/ballot.sol\":1211:1217  voters */\n      0x01\n        /* \"custom/ballot.sol\":1211:1224  voters[voter] */\n      0x20\n      mstore\n      0x40\n      swap1\n      keccak256\n        /* \"custom/ballot.sol\":1211:1231  voters[voter].weight */\n      sload\n      0xff\n      and\n        /* \"custom/ballot.sol\":1211:1236  voters[voter].weight == 0 */\n      iszero\n        /* \"custom/ballot.sol\":1203:1237  require(voters[voter].weight == 0) */\n      tag_113\n      jumpi\n      0x00\n      dup1\n      revert\n    tag_113:\n      sub(exp(0x02, 0xa0), 0x01)\n        /* \"custom/ballot.sol\":1248:1261  voters[voter] */\n      and\n      0x00\n      swap1\n      dup2\n      mstore\n        /* \"custom/ballot.sol\":1271:1272  1 */\n      0x01\n        /* \"custom/ballot.sol\":1248:1261  voters[voter] */\n      0x20\n      dup2\n      swap1\n      mstore\n      0x40\n      swap1\n      swap2\n      keccak256\n        /* \"custom/ballot.sol\":1248:1272  voters[voter].weight = 1 */\n      dup1\n      sload\n      not(0xff)\n      and\n      swap1\n      swap2\n      or\n      swap1\n      sstore\n        /* \"custom/ballot.sol\":990:1280  function giveRightToVote(address voter) external{\r... */\n      jump\t// out\n        /* \"custom/ballot.sol\":2496:2834  function vote(uint8 proposal) external{\r... */\n    tag_40:\n        /* \"custom/ballot.sol\":2575:2585  msg.sender */\n      caller\n        /* \"custom/ballot.sol\":2545:2565  Voter storage sender */\n      0x00\n        /* \"custom/ballot.sol\":2568:2586  voters[msg.sender] */\n      swap1\n      dup2\n      mstore\n        /* \"custom/ballot.sol\":2568:2574  voters */\n      0x01\n        /* \"custom/ballot.sol\":2568:2586  voters[msg.sender] */\n      0x20\n      mstore\n      0x40\n      swap1\n      keccak256\n        /* \"custom/ballot.sol\":2606:2618  sender.voted */\n      dup1\n      sload\n      0x0100\n      swap1\n      div\n      0xff\n      and\n        /* \"custom/ballot.sol\":2605:2618  !sender.voted */\n      iszero\n        /* \"custom/ballot.sol\":2597:2639  require(!sender.voted,\"You already voted\") */\n      tag_115\n      jumpi\n      mload(0x40)\n      mul(0x461bcd, exp(0x02, 0xe5))\n      dup2\n      mstore\n        /* \"#utility.yul\":3154:3156   */\n      0x20\n        /* \"custom/ballot.sol\":2597:2639  require(!sender.voted,\"You already voted\") */\n      0x04\n      dup3\n      add\n        /* \"#utility.yul\":3136:3157   */\n      mstore\n        /* \"#utility.yul\":3193:3195   */\n      0x11\n        /* \"#utility.yul\":3173:3191   */\n      0x24\n      dup3\n      add\n        /* \"#utility.yul\":3166:3196   */\n      mstore\n        /* \"#utility.yul\":3232:3251   */\n      0x596f7520616c726561647920766f746564000000000000000000000000000000\n        /* \"#utility.yul\":3212:3230   */\n      0x44\n      dup3\n      add\n        /* \"#utility.yul\":3205:3252   */\n      mstore\n        /* \"#utility.yul\":3269:3287   */\n      0x64\n      add\n        /* \"custom/ballot.sol\":2597:2639  require(!sender.voted,\"You already voted\") */\n      tag_51\n        /* \"#utility.yul\":2952:3293   */\n      jump\n        /* \"custom/ballot.sol\":2597:2639  require(!sender.voted,\"You already voted\") */\n    tag_115:\n        /* \"custom/ballot.sol\":2658:2671  sender.weight */\n      dup1\n      sload\n      0xff\n      and\n        /* \"custom/ballot.sol\":2650:2706  require(sender.weight != 0,\"You have no right to vote.\") */\n      tag_118\n      jumpi\n      mload(0x40)\n      mul(0x461bcd, exp(0x02, 0xe5))\n      dup2\n      mstore\n        /* \"#utility.yul\":4256:4258   */\n      0x20\n        /* \"custom/ballot.sol\":2650:2706  require(sender.weight != 0,\"You have no right to vote.\") */\n      0x04\n      dup3\n      add\n        /* \"#utility.yul\":4238:4259   */\n      mstore\n        /* \"#utility.yul\":4295:4297   */\n      0x1a\n        /* \"#utility.yul\":4275:4293   */\n      0x24\n      dup3\n      add\n        /* \"#utility.yul\":4268:4298   */\n      mstore\n        /* \"#utility.yul\":4334:4362   */\n      0x596f752068617665206e6f20726967687420746f20766f74652e000000000000\n        /* \"#utility.yul\":4314:4332   */\n      0x44\n      dup3\n      add\n        /* \"#utility.yul\":4307:4363   */\n      mstore\n        /* \"#utility.yul\":4380:4398   */\n      0x64\n      add\n        /* \"custom/ballot.sol\":2650:2706  require(sender.weight != 0,\"You have no right to vote.\") */\n      tag_51\n        /* \"#utility.yul\":4054:4404   */\n      jump\n        /* \"custom/ballot.sol\":2650:2706  require(sender.weight != 0,\"You have no right to vote.\") */\n    tag_118:\n        /* \"custom/ballot.sol\":2717:2736  sender.voted = true */\n      dup1\n      sload\n      0xff\n        /* \"custom/ballot.sol\":2747:2769  sender.vote = proposal */\n      dup4\n      dup2\n      and\n      0x0100000000000000000000000000000000000000000000\n      dup2\n      mul\n      not(0xff0000000000000000000000000000000000000000ff00)\n      swap1\n      swap4\n      and\n      swap3\n      swap1\n      swap3\n      or\n        /* \"custom/ballot.sol\":2717:2736  sender.voted = true */\n      0x0100\n        /* \"custom/ballot.sol\":2747:2769  sender.vote = proposal */\n      or\n      dup1\n      dup5\n      sstore\n        /* \"custom/ballot.sol\":2780:2789  proposals */\n      0x02\n        /* \"custom/ballot.sol\":2780:2799  proposals[proposal] */\n      dup1\n      sload\n        /* \"custom/ballot.sol\":2813:2826  sender.weight */\n      swap2\n      swap1\n      swap3\n      and\n      swap3\n        /* \"custom/ballot.sol\":2747:2769  sender.vote = proposal */\n      swap1\n        /* \"custom/ballot.sol\":2780:2799  proposals[proposal] */\n      dup2\n      lt\n      tag_121\n      jumpi\n      tag_121\n      tag_68\n      jump\t// in\n    tag_121:\n      swap1\n      0x00\n      mstore\n      keccak256(0x00, 0x20)\n      swap1\n      0x02\n      mul\n      add\n        /* \"custom/ballot.sol\":2780:2809  proposals[proposal].voteCount */\n      0x01\n      add\n      0x00\n        /* \"custom/ballot.sol\":2780:2826  proposals[proposal].voteCount += sender.weight */\n      dup3\n      dup3\n      sload\n      tag_123\n      swap2\n      swap1\n      tag_71\n      jump\t// in\n    tag_123:\n      swap1\n      swap2\n      sstore\n      pop\n      pop\n      pop\n      pop\n        /* \"custom/ballot.sol\":2496:2834  function vote(uint8 proposal) external{\r... */\n      jump\t// out\n        /* \"#utility.yul\":14:323   */\n    tag_23:\n        /* \"#utility.yul\":73:79   */\n      0x00\n        /* \"#utility.yul\":126:128   */\n      0x20\n        /* \"#utility.yul\":114:123   */\n      dup3\n        /* \"#utility.yul\":105:112   */\n      dup5\n        /* \"#utility.yul\":101:124   */\n      sub\n        /* \"#utility.yul\":97:129   */\n      slt\n        /* \"#utility.yul\":94:146   */\n      iszero\n      tag_126\n      jumpi\n        /* \"#utility.yul\":142:143   */\n      0x00\n        /* \"#utility.yul\":139:140   */\n      dup1\n        /* \"#utility.yul\":132:144   */\n      revert\n        /* \"#utility.yul\":94:146   */\n    tag_126:\n        /* \"#utility.yul\":181:190   */\n      dup2\n        /* \"#utility.yul\":168:191   */\n      calldataload\n      sub(exp(0x02, 0xa0), 0x01)\n        /* \"#utility.yul\":224:229   */\n      dup2\n        /* \"#utility.yul\":220:274   */\n      and\n        /* \"#utility.yul\":213:218   */\n      dup2\n        /* \"#utility.yul\":210:275   */\n      eq\n        /* \"#utility.yul\":200:293   */\n      tag_127\n      jumpi\n        /* \"#utility.yul\":289:290   */\n      0x00\n        /* \"#utility.yul\":286:287   */\n      dup1\n        /* \"#utility.yul\":279:291   */\n      revert\n        /* \"#utility.yul\":200:293   */\n    tag_127:\n        /* \"#utility.yul\":312:317   */\n      swap4\n        /* \"#utility.yul\":14:323   */\n      swap3\n      pop\n      pop\n      pop\n      jump\t// out\n        /* \"#utility.yul\":328:508   */\n    tag_13:\n        /* \"#utility.yul\":387:393   */\n      0x00\n        /* \"#utility.yul\":440:442   */\n      0x20\n        /* \"#utility.yul\":428:437   */\n      dup3\n        /* \"#utility.yul\":419:426   */\n      dup5\n        /* \"#utility.yul\":415:438   */\n      sub\n        /* \"#utility.yul\":411:443   */\n      slt\n        /* \"#utility.yul\":408:460   */\n      iszero\n      tag_129\n      jumpi\n        /* \"#utility.yul\":456:457   */\n      0x00\n        /* \"#utility.yul\":453:454   */\n      dup1\n        /* \"#utility.yul\":446:458   */\n      revert\n        /* \"#utility.yul\":408:460   */\n    tag_129:\n      pop\n        /* \"#utility.yul\":479:502   */\n      calldataload\n      swap2\n        /* \"#utility.yul\":328:508   */\n      swap1\n      pop\n      jump\t// out\n        /* \"#utility.yul\":513:782   */\n    tag_39:\n        /* \"#utility.yul\":570:576   */\n      0x00\n        /* \"#utility.yul\":623:625   */\n      0x20\n        /* \"#utility.yul\":611:620   */\n      dup3\n        /* \"#utility.yul\":602:609   */\n      dup5\n        /* \"#utility.yul\":598:621   */\n      sub\n        /* \"#utility.yul\":594:626   */\n      slt\n        /* \"#utility.yul\":591:643   */\n      iszero\n      tag_131\n      jumpi\n        /* \"#utility.yul\":639:640   */\n      0x00\n        /* \"#utility.yul\":636:637   */\n      dup1\n        /* \"#utility.yul\":629:641   */\n      revert\n        /* \"#utility.yul\":591:643   */\n    tag_131:\n        /* \"#utility.yul\":678:687   */\n      dup2\n        /* \"#utility.yul\":665:688   */\n      calldataload\n        /* \"#utility.yul\":728:732   */\n      0xff\n        /* \"#utility.yul\":721:726   */\n      dup2\n        /* \"#utility.yul\":717:733   */\n      and\n        /* \"#utility.yul\":710:715   */\n      dup2\n        /* \"#utility.yul\":707:734   */\n      eq\n        /* \"#utility.yul\":697:752   */\n      tag_127\n      jumpi\n        /* \"#utility.yul\":748:749   */\n      0x00\n        /* \"#utility.yul\":745:746   */\n      dup1\n        /* \"#utility.yul\":738:750   */\n      revert\n        /* \"#utility.yul\":787:1259   */\n    tag_133:\n        /* \"#utility.yul\":829:832   */\n      0x00\n        /* \"#utility.yul\":867:872   */\n      dup2\n        /* \"#utility.yul\":861:873   */\n      mload\n        /* \"#utility.yul\":894:900   */\n      dup1\n        /* \"#utility.yul\":889:892   */\n      dup5\n        /* \"#utility.yul\":882:901   */\n      mstore\n        /* \"#utility.yul\":919:920   */\n      0x00\n        /* \"#utility.yul\":929:1091   */\n    tag_135:\n        /* \"#utility.yul\":943:949   */\n      dup2\n        /* \"#utility.yul\":940:941   */\n      dup2\n        /* \"#utility.yul\":937:950   */\n      lt\n        /* \"#utility.yul\":929:1091   */\n      iszero\n      tag_137\n      jumpi\n        /* \"#utility.yul\":1005:1009   */\n      0x20\n        /* \"#utility.yul\":1061:1074   */\n      dup2\n      dup6\n      add\n        /* \"#utility.yul\":1057:1079   */\n      dup2\n      add\n        /* \"#utility.yul\":1051:1080   */\n      mload\n        /* \"#utility.yul\":1033:1044   */\n      dup7\n      dup4\n      add\n        /* \"#utility.yul\":1029:1049   */\n      dup3\n      add\n        /* \"#utility.yul\":1022:1081   */\n      mstore\n        /* \"#utility.yul\":958:970   */\n      add\n        /* \"#utility.yul\":929:1091   */\n      jump(tag_135)\n    tag_137:\n        /* \"#utility.yul\":1109:1115   */\n      dup2\n        /* \"#utility.yul\":1106:1107   */\n      dup2\n        /* \"#utility.yul\":1103:1116   */\n      gt\n        /* \"#utility.yul\":1100:1187   */\n      iszero\n      tag_138\n      jumpi\n        /* \"#utility.yul\":1175:1176   */\n      0x00\n        /* \"#utility.yul\":1168:1172   */\n      0x20\n        /* \"#utility.yul\":1159:1165   */\n      dup4\n        /* \"#utility.yul\":1154:1157   */\n      dup8\n        /* \"#utility.yul\":1150:1166   */\n      add\n        /* \"#utility.yul\":1146:1173   */\n      add\n        /* \"#utility.yul\":1139:1177   */\n      mstore\n        /* \"#utility.yul\":1100:1187   */\n    tag_138:\n      pop\n        /* \"#utility.yul\":1241:1243   */\n      0x1f\n        /* \"#utility.yul\":1220:1235   */\n      add\n      not(0x1f)\n        /* \"#utility.yul\":1216:1245   */\n      and\n        /* \"#utility.yul\":1207:1246   */\n      swap3\n      swap1\n      swap3\n      add\n        /* \"#utility.yul\":1248:1252   */\n      0x20\n        /* \"#utility.yul\":1203:1253   */\n      add\n      swap3\n        /* \"#utility.yul\":787:1259   */\n      swap2\n      pop\n      pop\n      jump\t// out\n        /* \"#utility.yul\":1495:2299   */\n    tag_28:\n        /* \"#utility.yul\":1657:1661   */\n      0x00\n        /* \"#utility.yul\":1686:1688   */\n      0x20\n        /* \"#utility.yul\":1726:1728   */\n      dup1\n        /* \"#utility.yul\":1715:1724   */\n      dup4\n        /* \"#utility.yul\":1711:1729   */\n      add\n        /* \"#utility.yul\":1756:1758   */\n      dup2\n        /* \"#utility.yul\":1745:1754   */\n      dup5\n        /* \"#utility.yul\":1738:1759   */\n      mstore\n        /* \"#utility.yul\":1779:1785   */\n      dup1\n        /* \"#utility.yul\":1814:1820   */\n      dup6\n        /* \"#utility.yul\":1808:1821   */\n      mload\n        /* \"#utility.yul\":1845:1851   */\n      dup1\n        /* \"#utility.yul\":1837:1843   */\n      dup4\n        /* \"#utility.yul\":1830:1852   */\n      mstore\n        /* \"#utility.yul\":1883:1885   */\n      0x40\n        /* \"#utility.yul\":1872:1881   */\n      dup7\n        /* \"#utility.yul\":1868:1886   */\n      add\n        /* \"#utility.yul\":1861:1886   */\n      swap2\n      pop\n        /* \"#utility.yul\":1946:1948   */\n      0x40\n        /* \"#utility.yul\":1940:1942   */\n      dup5\n        /* \"#utility.yul\":1932:1938   */\n      dup3\n        /* \"#utility.yul\":1928:1943   */\n      mul\n        /* \"#utility.yul\":1917:1926   */\n      dup8\n        /* \"#utility.yul\":1913:1944   */\n      add\n        /* \"#utility.yul\":1909:1949   */\n      add\n        /* \"#utility.yul\":1895:1949   */\n      swap3\n      pop\n        /* \"#utility.yul\":1984:1986   */\n      dup4\n        /* \"#utility.yul\":1976:1982   */\n      dup8\n        /* \"#utility.yul\":1972:1987   */\n      add\n        /* \"#utility.yul\":2005:2006   */\n      0x00\n        /* \"#utility.yul\":2015:2270   */\n    tag_141:\n        /* \"#utility.yul\":2029:2035   */\n      dup3\n        /* \"#utility.yul\":2026:2027   */\n      dup2\n        /* \"#utility.yul\":2023:2036   */\n      lt\n        /* \"#utility.yul\":2015:2270   */\n      iszero\n      tag_143\n      jumpi\n        /* \"#utility.yul\":2122:2124   */\n      0x3f\n        /* \"#utility.yul\":2118:2125   */\n      not\n        /* \"#utility.yul\":2106:2115   */\n      dup9\n        /* \"#utility.yul\":2098:2104   */\n      dup7\n        /* \"#utility.yul\":2094:2116   */\n      sub\n        /* \"#utility.yul\":2090:2126   */\n      add\n        /* \"#utility.yul\":2085:2088   */\n      dup5\n        /* \"#utility.yul\":2078:2127   */\n      mstore\n        /* \"#utility.yul\":2150:2190   */\n      tag_144\n        /* \"#utility.yul\":2183:2189   */\n      dup6\n        /* \"#utility.yul\":2174:2180   */\n      dup4\n        /* \"#utility.yul\":2168:2181   */\n      mload\n        /* \"#utility.yul\":2150:2190   */\n      tag_133\n      jump\t// in\n    tag_144:\n        /* \"#utility.yul\":2140:2190   */\n      swap5\n      pop\n        /* \"#utility.yul\":2248:2260   */\n      swap3\n      dup6\n      add\n      swap3\n        /* \"#utility.yul\":2213:2228   */\n      swap1\n      dup6\n      add\n      swap1\n        /* \"#utility.yul\":2051:2052   */\n      0x01\n        /* \"#utility.yul\":2044:2053   */\n      add\n        /* \"#utility.yul\":2015:2270   */\n      jump(tag_141)\n    tag_143:\n      pop\n        /* \"#utility.yul\":2287:2293   */\n      swap3\n      swap8\n        /* \"#utility.yul\":1495:2299   */\n      swap7\n      pop\n      pop\n      pop\n      pop\n      pop\n      pop\n      pop\n      jump\t// out\n        /* \"#utility.yul\":2304:2595   */\n    tag_16:\n        /* \"#utility.yul\":2481:2483   */\n      0x40\n        /* \"#utility.yul\":2470:2479   */\n      dup2\n        /* \"#utility.yul\":2463:2484   */\n      mstore\n        /* \"#utility.yul\":2444:2448   */\n      0x00\n        /* \"#utility.yul\":2501:2546   */\n      tag_146\n        /* \"#utility.yul\":2542:2544   */\n      0x40\n        /* \"#utility.yul\":2531:2540   */\n      dup4\n        /* \"#utility.yul\":2527:2545   */\n      add\n        /* \"#utility.yul\":2519:2525   */\n      dup6\n        /* \"#utility.yul\":2501:2546   */\n      tag_133\n      jump\t// in\n    tag_146:\n        /* \"#utility.yul\":2493:2546   */\n      swap1\n      pop\n        /* \"#utility.yul\":2582:2588   */\n      dup3\n        /* \"#utility.yul\":2577:2579   */\n      0x20\n        /* \"#utility.yul\":2566:2575   */\n      dup4\n        /* \"#utility.yul\":2562:2580   */\n      add\n        /* \"#utility.yul\":2555:2589   */\n      mstore\n        /* \"#utility.yul\":2304:2595   */\n      swap4\n      swap3\n      pop\n      pop\n      pop\n      jump\t// out\n        /* \"#utility.yul\":5590:5718   */\n    tag_71:\n        /* \"#utility.yul\":5630:5633   */\n      0x00\n        /* \"#utility.yul\":5661:5662   */\n      dup3\n        /* \"#utility.yul\":5657:5663   */\n      not\n        /* \"#utility.yul\":5654:5655   */\n      dup3\n        /* \"#utility.yul\":5651:5664   */\n      gt\n        /* \"#utility.yul\":5648:5687   */\n      iszero\n      tag_157\n      jumpi\n        /* \"#utility.yul\":5667:5685   */\n      tag_157\n      tag_158\n      jump\t// in\n    tag_157:\n      pop\n        /* \"#utility.yul\":5703:5712   */\n      add\n      swap1\n        /* \"#utility.yul\":5590:5718   */\n      jump\t// out\n        /* \"#utility.yul\":5723:5927   */\n    tag_74:\n        /* \"#utility.yul\":5761:5764   */\n      0x00\n        /* \"#utility.yul\":5797:5801   */\n      0xff\n        /* \"#utility.yul\":5794:5795   */\n      dup3\n        /* \"#utility.yul\":5790:5802   */\n      and\n        /* \"#utility.yul\":5829:5833   */\n      0xff\n        /* \"#utility.yul\":5826:5827   */\n      dup5\n        /* \"#utility.yul\":5822:5834   */\n      and\n        /* \"#utility.yul\":5864:5867   */\n      dup1\n        /* \"#utility.yul\":5858:5862   */\n      0xff\n        /* \"#utility.yul\":5854:5868   */\n      sub\n        /* \"#utility.yul\":5849:5852   */\n      dup3\n        /* \"#utility.yul\":5846:5869   */\n      gt\n        /* \"#utility.yul\":5843:5892   */\n      iszero\n      tag_161\n      jumpi\n        /* \"#utility.yul\":5872:5890   */\n      tag_161\n      tag_158\n      jump\t// in\n    tag_161:\n        /* \"#utility.yul\":5908:5921   */\n      add\n      swap4\n        /* \"#utility.yul\":5723:5927   */\n      swap3\n      pop\n      pop\n      pop\n      jump\t// out\n        /* \"#utility.yul\":5932:6369   */\n    tag_44:\n        /* \"#utility.yul\":6017:6018   */\n      0x02\n        /* \"#utility.yul\":6007:6019   */\n      dup2\n      div\n        /* \"#utility.yul\":6064:6065   */\n      0x01\n        /* \"#utility.yul\":6054:6066   */\n      dup3\n      and\n      dup1\n        /* \"#utility.yul\":6075:6136   */\n      tag_163\n      jumpi\n        /* \"#utility.yul\":6129:6133   */\n      0x7f\n        /* \"#utility.yul\":6121:6127   */\n      dup3\n        /* \"#utility.yul\":6117:6134   */\n      and\n        /* \"#utility.yul\":6107:6134   */\n      swap2\n      pop\n        /* \"#utility.yul\":6075:6136   */\n    tag_163:\n        /* \"#utility.yul\":6182:6184   */\n      0x20\n        /* \"#utility.yul\":6174:6180   */\n      dup3\n        /* \"#utility.yul\":6171:6185   */\n      lt\n        /* \"#utility.yul\":6151:6169   */\n      dup2\n        /* \"#utility.yul\":6148:6186   */\n      eq\n        /* \"#utility.yul\":6145:6363   */\n      iszero\n      tag_164\n      jumpi\n        /* \"#utility.yul\":6219:6296   */\n      0x4e487b7100000000000000000000000000000000000000000000000000000000\n        /* \"#utility.yul\":6216:6217   */\n      0x00\n        /* \"#utility.yul\":6209:6297   */\n      mstore\n        /* \"#utility.yul\":6320:6324   */\n      0x22\n        /* \"#utility.yul\":6317:6318   */\n      0x04\n        /* \"#utility.yul\":6310:6325   */\n      mstore\n        /* \"#utility.yul\":6348:6352   */\n      0x24\n        /* \"#utility.yul\":6345:6346   */\n      0x00\n        /* \"#utility.yul\":6338:6353   */\n      revert\n        /* \"#utility.yul\":6145:6363   */\n    tag_164:\n      pop\n        /* \"#utility.yul\":5932:6369   */\n      swap2\n      swap1\n      pop\n      jump\t// out\n        /* \"#utility.yul\":6374:6509   */\n    tag_87:\n        /* \"#utility.yul\":6413:6416   */\n      0x00\n      not(0x00)\n        /* \"#utility.yul\":6434:6451   */\n      dup3\n      eq\n        /* \"#utility.yul\":6431:6474   */\n      iszero\n      tag_167\n      jumpi\n        /* \"#utility.yul\":6454:6472   */\n      tag_167\n      tag_158\n      jump\t// in\n    tag_167:\n      pop\n        /* \"#utility.yul\":6501:6502   */\n      0x01\n        /* \"#utility.yul\":6490:6503   */\n      add\n      swap1\n        /* \"#utility.yul\":6374:6509   */\n      jump\t// out\n        /* \"#utility.yul\":6514:6698   */\n    tag_158:\n        /* \"#utility.yul\":6566:6643   */\n      0x4e487b7100000000000000000000000000000000000000000000000000000000\n        /* \"#utility.yul\":6563:6564   */\n      0x00\n        /* \"#utility.yul\":6556:6644   */\n      mstore\n        /* \"#utility.yul\":6663:6667   */\n      0x11\n        /* \"#utility.yul\":6660:6661   */\n      0x04\n        /* \"#utility.yul\":6653:6668   */\n      mstore\n        /* \"#utility.yul\":6687:6691   */\n      0x24\n        /* \"#utility.yul\":6684:6685   */\n      0x00\n        /* \"#utility.yul\":6677:6692   */\n      revert\n        /* \"#utility.yul\":6703:6887   */\n    tag_68:\n        /* \"#utility.yul\":6755:6832   */\n      0x4e487b7100000000000000000000000000000000000000000000000000000000\n        /* \"#utility.yul\":6752:6753   */\n      0x00\n        /* \"#utility.yul\":6745:6833   */\n      mstore\n        /* \"#utility.yul\":6852:6856   */\n      0x32\n        /* \"#utility.yul\":6849:6850   */\n      0x04\n        /* \"#utility.yul\":6842:6857   */\n      mstore\n        /* \"#utility.yul\":6876:6880   */\n      0x24\n        /* \"#utility.yul\":6873:6874   */\n      0x00\n        /* \"#utility.yul\":6866:6881   */\n      revert\n\n    auxdata: 0xa26469706673582212205bf3baa716c2a6506f8b54e4ef6ca1252631b5a4bc503fbd2e6670c1a0a6874564736f6c63430008070033\n}\n",
				"bytecode": {
					"linkReferences": {},
					"object": "60806040523480156200001157600080fd5b50604051620010193803806200101983398101604081905262000034916200019f565b60008054600160a060020a03191633908117825581526001602081905260408220805460ff191690911790555b8151811015620000f157600260405180604001604052808484815181106200008d576200008d620003b9565b6020908102919091018101518252600091810182905283546001810185559382529081902082518051939460020290910192620000ce9284920190620000f9565b506020820151816001015550508080620000e89062000376565b91505062000061565b505062000417565b828054620001079062000320565b90600052602060002090601f0160209004810192826200012b576000855562000176565b82601f106200014657805160ff191683800117855562000176565b8280016001018555821562000176579182015b828111156200017657825182559160200191906001019062000159565b506200018492915062000188565b5090565b5b8082111562000184576000815560010162000189565b60006020808385031215620001b357600080fd5b82516001604060020a0380821115620001cb57600080fd5b8185019150601f8681840112620001e157600080fd5b825182811115620001f657620001f6620003e8565b84810262000206868201620002ed565b8281528681019086880183880189018c10156200022257600080fd5b600093505b84841015620002de578051878111156200024057600080fd5b8801603f81018d136200025257600080fd5b8981015188811115620002695762000269620003e8565b6200027c818901601f19168c01620002ed565b81815260408f818486010111156200029357600080fd5b60005b83811015620002b3578481018201518382018f01528d0162000296565b83811115620002c55760008e85850101525b5050855250506001939093019291880191880162000227565b509a9950505050505050505050565b604051601f8201601f191681016001604060020a0381118282101715620003185762000318620003e8565b604052919050565b6002810460018216806200033557607f821691505b6020821081141562000370577f4e487b7100000000000000000000000000000000000000000000000000000000600052602260045260246000fd5b50919050565b6000600019821415620003b2577f4e487b7100000000000000000000000000000000000000000000000000000000600052601160045260246000fd5b5060010190565b7f4e487b7100000000000000000000000000000000000000000000000000000000600052603260045260246000fd5b7f4e487b7100000000000000000000000000000000000000000000000000000000600052604160045260246000fd5b610bf280620004276000396000f3fe608060405234801561001057600080fd5b506004361061009a576000357c010000000000000000000000000000000000000000000000000000000090048063609ff1bd11610078578063609ff1bd146101095780639e7b8d611461011e578063a3ec138d14610131578063b3f98adc146101c057600080fd5b8063013cf08b1461009f5780632e4176cf146100c95780635c19a95c146100f4575b600080fd5b6100b26100ad3660046109a6565b6101d3565b6040516100c0929190610a90565b60405180910390f35b6000546100dc90600160a060020a031681565b604051600160a060020a0390911681526020016100c0565b610107610102366004610976565b61028f565b005b61011161055e565b6040516100c09190610a2f565b61010761012c366004610976565b6106ef565b61018a61013f366004610976565b60016020526000908152604090205460ff808216916101008104821691600160a060020a03620100008304169176010000000000000000000000000000000000000000000090041684565b6040805160ff95861681529315156020850152600160a060020a03909216918301919091529190911660608201526080016100c0565b6101076101ce3660046109bf565b610830565b600281815481106101e357600080fd5b906000526020600020906002020160009150905080600001805461020690610aef565b80601f016020809104026020016040519081016040528092919081815260200182805461023290610aef565b801561027f5780601f106102545761010080835404028352916020019161027f565b820191906000526020600020905b81548152906001019060200180831161026257829003601f168201915b5050505050908060010154905082565b336000908152600160205260409020805460ff166102f75760405160e560020a62461bcd02815260206004820152601a60248201527f596f752068617665206e6f20726967687420746f20766f74652e00000000000060448201526064015b60405180910390fd5b8054610100900460ff16156103515760405160e560020a62461bcd02815260206004820152601260248201527f596f7520616c726561647920766f7465642e000000000000000000000000000060448201526064016102ee565b600160a060020a0382163314156103ad5760405160e560020a62461bcd02815260206004820152601e60248201527f53656c662d64656c65676174696f6e20697320646973616c6c6f7765642e000060448201526064016102ee565b600160a060020a03828116600090815260016020526040902054620100009004161561044f57600160a060020a03918216600090815260016020526040902054620100009004909116903382141561044a5760405160e560020a62461bcd02815260206004820152601860248201527f466f756e64206c6f6f7020696e2064656c65676174696f6e000000000000000060448201526064016102ee565b6103ad565b600160a060020a03821660009081526001602081905260409091208054909160ff909116101561047e57600080fd5b8154600160a060020a038416620100000275ffffffffffffffffffffffffffffffffffffffffff001990911617610100908117835581540460ff161561052557815481546002805460ff93841693919276010000000000000000000000000000000000000000000090049091169081106104fa576104fa610b8d565b9060005260206000209060020201600101600082825461051a9190610ab2565b909155506105599050565b8154815460ff91821691839160009161054091859116610aca565b92506101000a81548160ff021916908360ff1602179055505b505050565b6060806000805b6002548110156105d557816002828154811061058357610583610b8d565b90600052602060002090600202016001015411156105c357600281815481106105ae576105ae610b8d565b90600052602060002090600202016001015491505b806105cd81610b43565b915050610565565b5060005b6002548110156106e757600281815481106105f6576105f6610b8d565b9060005260206000209060020201600101548214156106d5576002818154811061062257610622610b8d565b9060005260206000209060020201600001805461063e90610aef565b80601f016020809104026020016040519081016040528092919081815260200182805461066a90610aef565b80156106b75780601f1061068c576101008083540402835291602001916106b7565b820191906000526020600020905b81548152906001019060200180831161069a57829003601f168201915b505086518793509150506106c9610b8d565b60200260200101819052505b806106df81610b43565b9150506105d9565b509092915050565b600054600160a060020a031633146107725760405160e560020a62461bcd02815260206004820152602860248201527f4f6e6c79206368616972706572736f6e2063616e20676976652072696768742060448201527f746f20766f74652e00000000000000000000000000000000000000000000000060648201526084016102ee565b600160a060020a038116600090815260016020526040902054610100900460ff16156107e35760405160e560020a62461bcd02815260206004820152601760248201527f54686520766f74657220616c726561647920766f74656400000000000000000060448201526064016102ee565b600160a060020a03811660009081526001602052604090205460ff161561080957600080fd5b600160a060020a03166000908152600160208190526040909120805460ff19169091179055565b3360009081526001602052604090208054610100900460ff16156108995760405160e560020a62461bcd02815260206004820152601160248201527f596f7520616c726561647920766f74656400000000000000000000000000000060448201526064016102ee565b805460ff166108ed5760405160e560020a62461bcd02815260206004820152601a60248201527f596f752068617665206e6f20726967687420746f20766f74652e00000000000060448201526064016102ee565b805460ff838116760100000000000000000000000000000000000000000000810276ff0000000000000000000000000000000000000000ff0019909316929092176101001780845560028054919092169290811061094d5761094d610b8d565b9060005260206000209060020201600101600082825461096d9190610ab2565b90915550505050565b60006020828403121561098857600080fd5b8135600160a060020a038116811461099f57600080fd5b9392505050565b6000602082840312156109b857600080fd5b5035919050565b6000602082840312156109d157600080fd5b813560ff8116811461099f57600080fd5b6000815180845260005b81811015610a08576020818501810151868301820152016109ec565b81811115610a1a576000602083870101525b50601f01601f19169290920160200192915050565b600060208083018184528085518083526040860191506040848202870101925083870160005b82811015610a8357603f19888603018452610a718583516109e2565b94509285019290850190600101610a55565b5092979650505050505050565b604081526000610aa360408301856109e2565b90508260208301529392505050565b60008219821115610ac557610ac5610b5e565b500190565b600060ff821660ff84168060ff03821115610ae757610ae7610b5e565b019392505050565b600281046001821680610b0357607f821691505b60208210811415610b3d577f4e487b7100000000000000000000000000000000000000000000000000000000600052602260045260246000fd5b50919050565b6000600019821415610b5757610b57610b5e565b5060010190565b7f4e487b7100000000000000000000000000000000000000000000000000000000600052601160045260246000fd5b7f4e487b7100000000000000000000000000000000000000000000000000000000600052603260045260246000fdfea26469706673582212205bf3baa716c2a6506f8b54e4ef6ca1252631b5a4bc503fbd2e6670c1a0a6874564736f6c63430008070033",
					"opcodes": "PUSH1 0x80 PUSH1 0x40 MSTORE CALLVALUE DUP1 ISZERO PUSH3 0x11 JUMPI PUSH1 0x0 DUP1 REVERT JUMPDEST POP PUSH1 0x40 MLOAD PUSH3 0x1019 CODESIZE SUB DUP1 PUSH3 0x1019 DUP4 CODECOPY DUP2 ADD PUSH1 0x40 DUP2 SWAP1 MSTORE PUSH3 0x34 SWAP2 PUSH3 0x19F JUMP JUMPDEST PUSH1 0x0 DUP1 SLOAD PUSH1 0x1 PUSH1 0xA0 PUSH1 0x2 EXP SUB NOT AND CALLER SWAP1 DUP2 OR DUP3 SSTORE DUP2 MSTORE PUSH1 0x1 PUSH1 0x20 DUP2 SWAP1 MSTORE PUSH1 0x40 DUP3 KECCAK256 DUP1 SLOAD PUSH1 0xFF NOT AND SWAP1 SWAP2 OR SWAP1 SSTORE JUMPDEST DUP2 MLOAD DUP2 LT ISZERO PUSH3 0xF1 JUMPI PUSH1 0x2 PUSH1 0x40 MLOAD DUP1 PUSH1 0x40 ADD PUSH1 0x40 MSTORE DUP1 DUP5 DUP5 DUP2 MLOAD DUP2 LT PUSH3 0x8D JUMPI PUSH3 0x8D PUSH3 0x3B9 JUMP JUMPDEST PUSH1 0x20 SWAP1 DUP2 MUL SWAP2 SWAP1 SWAP2 ADD DUP2 ADD MLOAD DUP3 MSTORE PUSH1 0x0 SWAP2 DUP2 ADD DUP3 SWAP1 MSTORE DUP4 SLOAD PUSH1 0x1 DUP2 ADD DUP6 SSTORE SWAP4 DUP3 MSTORE SWAP1 DUP2 SWAP1 KECCAK256 DUP3 MLOAD DUP1 MLOAD SWAP4 SWAP5 PUSH1 0x2 MUL SWAP1 SWAP2 ADD SWAP3 PUSH3 0xCE SWAP3 DUP5 SWAP3 ADD SWAP1 PUSH3 0xF9 JUMP JUMPDEST POP PUSH1 0x20 DUP3 ADD MLOAD DUP2 PUSH1 0x1 ADD SSTORE POP POP DUP1 DUP1 PUSH3 0xE8 SWAP1 PUSH3 0x376 JUMP JUMPDEST SWAP2 POP POP PUSH3 0x61 JUMP JUMPDEST POP POP PUSH3 0x417 JUMP JUMPDEST DUP3 DUP1 SLOAD PUSH3 0x107 SWAP1 PUSH3 0x320 JUMP JUMPDEST SWAP1 PUSH1 0x0 MSTORE PUSH1 0x20 PUSH1 0x0 KECCAK256 SWAP1 PUSH1 0x1F ADD PUSH1 0x20 SWAP1 DIV DUP2 ADD SWAP3 DUP3 PUSH3 0x12B JUMPI PUSH1 0x0 DUP6 SSTORE PUSH3 0x176 JUMP JUMPDEST DUP3 PUSH1 0x1F LT PUSH3 0x146 JUMPI DUP1 MLOAD PUSH1 0xFF NOT AND DUP4 DUP1 ADD OR DUP6 SSTORE PUSH3 0x176 JUMP JUMPDEST DUP3 DUP1 ADD PUSH1 0x1 ADD DUP6 SSTORE DUP3 ISZERO PUSH3 0x176 JUMPI SWAP2 DUP3 ADD JUMPDEST DUP3 DUP2 GT ISZERO PUSH3 0x176 JUMPI DUP3 MLOAD DUP3 SSTORE SWAP2 PUSH1 0x20 ADD SWAP2 SWAP1 PUSH1 0x1 ADD SWAP1 PUSH3 0x159 JUMP JUMPDEST POP PUSH3 0x184 SWAP3 SWAP2 POP PUSH3 0x188 JUMP JUMPDEST POP SWAP1 JUMP JUMPDEST JUMPDEST DUP1 DUP3 GT ISZERO PUSH3 0x184 JUMPI PUSH1 0x0 DUP2 SSTORE PUSH1 0x1 ADD PUSH3 0x189 JUMP JUMPDEST PUSH1 0x0 PUSH1 0x20 DUP1 DUP4 DUP6 SUB SLT ISZERO PUSH3 0x1B3 JUMPI PUSH1 0x0 DUP1 REVERT JUMPDEST DUP3 MLOAD PUSH1 0x1 PUSH1 0x40 PUSH1 0x2 EXP SUB DUP1 DUP3 GT ISZERO PUSH3 0x1CB JUMPI PUSH1 0x0 DUP1 REVERT JUMPDEST DUP2 DUP6 ADD SWAP2 POP PUSH1 0x1F DUP7 DUP2 DUP5 ADD SLT PUSH3 0x1E1 JUMPI PUSH1 0x0 DUP1 REVERT JUMPDEST DUP3 MLOAD DUP3 DUP2 GT ISZERO PUSH3 0x1F6 JUMPI PUSH3 0x1F6 PUSH3 0x3E8 JUMP JUMPDEST DUP5 DUP2 MUL PUSH3 0x206 DUP7 DUP3 ADD PUSH3 0x2ED JUMP JUMPDEST DUP3 DUP2 MSTORE DUP7 DUP2 ADD SWAP1 DUP7 DUP9 ADD DUP4 DUP9 ADD DUP10 ADD DUP13 LT ISZERO PUSH3 0x222 JUMPI PUSH1 0x0 DUP1 REVERT JUMPDEST PUSH1 0x0 SWAP4 POP JUMPDEST DUP5 DUP5 LT ISZERO PUSH3 0x2DE JUMPI DUP1 MLOAD DUP8 DUP2 GT ISZERO PUSH3 0x240 JUMPI PUSH1 0x0 DUP1 REVERT JUMPDEST DUP9 ADD PUSH1 0x3F DUP2 ADD DUP14 SGT PUSH3 0x252 JUMPI PUSH1 0x0 DUP1 REVERT JUMPDEST DUP10 DUP2 ADD MLOAD DUP9 DUP2 GT ISZERO PUSH3 0x269 JUMPI PUSH3 0x269 PUSH3 0x3E8 JUMP JUMPDEST PUSH3 0x27C DUP2 DUP10 ADD PUSH1 0x1F NOT AND DUP13 ADD PUSH3 0x2ED JUMP JUMPDEST DUP2 DUP2 MSTORE PUSH1 0x40 DUP16 DUP2 DUP5 DUP7 ADD ADD GT ISZERO PUSH3 0x293 JUMPI PUSH1 0x0 DUP1 REVERT JUMPDEST PUSH1 0x0 JUMPDEST DUP4 DUP2 LT ISZERO PUSH3 0x2B3 JUMPI DUP5 DUP2 ADD DUP3 ADD MLOAD DUP4 DUP3 ADD DUP16 ADD MSTORE DUP14 ADD PUSH3 0x296 JUMP JUMPDEST DUP4 DUP2 GT ISZERO PUSH3 0x2C5 JUMPI PUSH1 0x0 DUP15 DUP6 DUP6 ADD ADD MSTORE JUMPDEST POP POP DUP6 MSTORE POP POP PUSH1 0x1 SWAP4 SWAP1 SWAP4 ADD SWAP3 SWAP2 DUP9 ADD SWAP2 DUP9 ADD PUSH3 0x227 JUMP JUMPDEST POP SWAP11 SWAP10 POP POP POP POP POP POP POP POP POP POP JUMP JUMPDEST PUSH1 0x40 MLOAD PUSH1 0x1F DUP3 ADD PUSH1 0x1F NOT AND DUP2 ADD PUSH1 0x1 PUSH1 0x40 PUSH1 0x2 EXP SUB DUP2 GT DUP3 DUP3 LT OR ISZERO PUSH3 0x318 JUMPI PUSH3 0x318 PUSH3 0x3E8 JUMP JUMPDEST PUSH1 0x40 MSTORE SWAP2 SWAP1 POP JUMP JUMPDEST PUSH1 0x2 DUP2 DIV PUSH1 0x1 DUP3 AND DUP1 PUSH3 0x335 JUMPI PUSH1 0x7F DUP3 AND SWAP2 POP JUMPDEST PUSH1 0x20 DUP3 LT DUP2 EQ ISZERO PUSH3 0x370 JUMPI PUSH32 0x4E487B7100000000000000000000000000000000000000000000000000000000 PUSH1 0x0 MSTORE PUSH1 0x22 PUSH1 0x4 MSTORE PUSH1 0x24 PUSH1 0x0 REVERT JUMPDEST POP SWAP2 SWAP1 POP JUMP JUMPDEST PUSH1 0x0 PUSH1 0x0 NOT DUP3 EQ ISZERO PUSH3 0x3B2 JUMPI PUSH32 0x4E487B7100000000000000000000000000000000000000000000000000000000 PUSH1 0x0 MSTORE PUSH1 0x11 PUSH1 0x4 MSTORE PUSH1 0x24 PUSH1 0x0 REVERT JUMPDEST POP PUSH1 0x1 ADD SWAP1 JUMP JUMPDEST PUSH32 0x4E487B7100000000000000000000000000000000000000000000000000000000 PUSH1 0x0 MSTORE PUSH1 0x32 PUSH1 0x4 MSTORE PUSH1 0x24 PUSH1 0x0 REVERT JUMPDEST PUSH32 0x4E487B7100000000000000000000000000000000000000000000000000000000 PUSH1 0x0 MSTORE PUSH1 0x41 PUSH1 0x4 MSTORE PUSH1 0x24 PUSH1 0x0 REVERT JUMPDEST PUSH2 0xBF2 DUP1 PUSH3 0x427 PUSH1 0x0 CODECOPY PUSH1 0x0 RETURN INVALID PUSH1 0x80 PUSH1 0x40 MSTORE CALLVALUE DUP1 ISZERO PUSH2 0x10 JUMPI PUSH1 0x0 DUP1 REVERT JUMPDEST POP PUSH1 0x4 CALLDATASIZE LT PUSH2 0x9A JUMPI PUSH1 0x0 CALLDATALOAD PUSH29 0x100000000000000000000000000000000000000000000000000000000 SWAP1 DIV DUP1 PUSH4 0x609FF1BD GT PUSH2 0x78 JUMPI DUP1 PUSH4 0x609FF1BD EQ PUSH2 0x109 JUMPI DUP1 PUSH4 0x9E7B8D61 EQ PUSH2 0x11E JUMPI DUP1 PUSH4 0xA3EC138D EQ PUSH2 0x131 JUMPI DUP1 PUSH4 0xB3F98ADC EQ PUSH2 0x1C0 JUMPI PUSH1 0x0 DUP1 REVERT JUMPDEST DUP1 PUSH4 0x13CF08B EQ PUSH2 0x9F JUMPI DUP1 PUSH4 0x2E4176CF EQ PUSH2 0xC9 JUMPI DUP1 PUSH4 0x5C19A95C EQ PUSH2 0xF4 JUMPI JUMPDEST PUSH1 0x0 DUP1 REVERT JUMPDEST PUSH2 0xB2 PUSH2 0xAD CALLDATASIZE PUSH1 0x4 PUSH2 0x9A6 JUMP JUMPDEST PUSH2 0x1D3 JUMP JUMPDEST PUSH1 0x40 MLOAD PUSH2 0xC0 SWAP3 SWAP2 SWAP1 PUSH2 0xA90 JUMP JUMPDEST PUSH1 0x40 MLOAD DUP1 SWAP2 SUB SWAP1 RETURN JUMPDEST PUSH1 0x0 SLOAD PUSH2 0xDC SWAP1 PUSH1 0x1 PUSH1 0xA0 PUSH1 0x2 EXP SUB AND DUP2 JUMP JUMPDEST PUSH1 0x40 MLOAD PUSH1 0x1 PUSH1 0xA0 PUSH1 0x2 EXP SUB SWAP1 SWAP2 AND DUP2 MSTORE PUSH1 0x20 ADD PUSH2 0xC0 JUMP JUMPDEST PUSH2 0x107 PUSH2 0x102 CALLDATASIZE PUSH1 0x4 PUSH2 0x976 JUMP JUMPDEST PUSH2 0x28F JUMP JUMPDEST STOP JUMPDEST PUSH2 0x111 PUSH2 0x55E JUMP JUMPDEST PUSH1 0x40 MLOAD PUSH2 0xC0 SWAP2 SWAP1 PUSH2 0xA2F JUMP JUMPDEST PUSH2 0x107 PUSH2 0x12C CALLDATASIZE PUSH1 0x4 PUSH2 0x976 JUMP JUMPDEST PUSH2 0x6EF JUMP JUMPDEST PUSH2 0x18A PUSH2 0x13F CALLDATASIZE PUSH1 0x4 PUSH2 0x976 JUMP JUMPDEST PUSH1 0x1 PUSH1 0x20 MSTORE PUSH1 0x0 SWAP1 DUP2 MSTORE PUSH1 0x40 SWAP1 KECCAK256 SLOAD PUSH1 0xFF DUP1 DUP3 AND SWAP2 PUSH2 0x100 DUP2 DIV DUP3 AND SWAP2 PUSH1 0x1 PUSH1 0xA0 PUSH1 0x2 EXP SUB PUSH3 0x10000 DUP4 DIV AND SWAP2 PUSH23 0x100000000000000000000000000000000000000000000 SWAP1 DIV AND DUP5 JUMP JUMPDEST PUSH1 0x40 DUP1 MLOAD PUSH1 0xFF SWAP6 DUP7 AND DUP2 MSTORE SWAP4 ISZERO ISZERO PUSH1 0x20 DUP6 ADD MSTORE PUSH1 0x1 PUSH1 0xA0 PUSH1 0x2 EXP SUB SWAP1 SWAP3 AND SWAP2 DUP4 ADD SWAP2 SWAP1 SWAP2 MSTORE SWAP2 SWAP1 SWAP2 AND PUSH1 0x60 DUP3 ADD MSTORE PUSH1 0x80 ADD PUSH2 0xC0 JUMP JUMPDEST PUSH2 0x107 PUSH2 0x1CE CALLDATASIZE PUSH1 0x4 PUSH2 0x9BF JUMP JUMPDEST PUSH2 0x830 JUMP JUMPDEST PUSH1 0x2 DUP2 DUP2 SLOAD DUP2 LT PUSH2 0x1E3 JUMPI PUSH1 0x0 DUP1 REVERT JUMPDEST SWAP1 PUSH1 0x0 MSTORE PUSH1 0x20 PUSH1 0x0 KECCAK256 SWAP1 PUSH1 0x2 MUL ADD PUSH1 0x0 SWAP2 POP SWAP1 POP DUP1 PUSH1 0x0 ADD DUP1 SLOAD PUSH2 0x206 SWAP1 PUSH2 0xAEF JUMP JUMPDEST DUP1 PUSH1 0x1F ADD PUSH1 0x20 DUP1 SWAP2 DIV MUL PUSH1 0x20 ADD PUSH1 0x40 MLOAD SWAP1 DUP2 ADD PUSH1 0x40 MSTORE DUP1 SWAP3 SWAP2 SWAP1 DUP2 DUP2 MSTORE PUSH1 0x20 ADD DUP3 DUP1 SLOAD PUSH2 0x232 SWAP1 PUSH2 0xAEF JUMP JUMPDEST DUP1 ISZERO PUSH2 0x27F JUMPI DUP1 PUSH1 0x1F LT PUSH2 0x254 JUMPI PUSH2 0x100 DUP1 DUP4 SLOAD DIV MUL DUP4 MSTORE SWAP2 PUSH1 0x20 ADD SWAP2 PUSH2 0x27F JUMP JUMPDEST DUP3 ADD SWAP2 SWAP1 PUSH1 0x0 MSTORE PUSH1 0x20 PUSH1 0x0 KECCAK256 SWAP1 JUMPDEST DUP2 SLOAD DUP2 MSTORE SWAP1 PUSH1 0x1 ADD SWAP1 PUSH1 0x20 ADD DUP1 DUP4 GT PUSH2 0x262 JUMPI DUP3 SWAP1 SUB PUSH1 0x1F AND DUP3 ADD SWAP2 JUMPDEST POP POP POP POP POP SWAP1 DUP1 PUSH1 0x1 ADD SLOAD SWAP1 POP DUP3 JUMP JUMPDEST CALLER PUSH1 0x0 SWAP1 DUP2 MSTORE PUSH1 0x1 PUSH1 0x20 MSTORE PUSH1 0x40 SWAP1 KECCAK256 DUP1 SLOAD PUSH1 0xFF AND PUSH2 0x2F7 JUMPI PUSH1 0x40 MLOAD PUSH1 0xE5 PUSH1 0x2 EXP PUSH3 0x461BCD MUL DUP2 MSTORE PUSH1 0x20 PUSH1 0x4 DUP3 ADD MSTORE PUSH1 0x1A PUSH1 0x24 DUP3 ADD MSTORE PUSH32 0x596F752068617665206E6F20726967687420746F20766F74652E000000000000 PUSH1 0x44 DUP3 ADD MSTORE PUSH1 0x64 ADD JUMPDEST PUSH1 0x40 MLOAD DUP1 SWAP2 SUB SWAP1 REVERT JUMPDEST DUP1 SLOAD PUSH2 0x100 SWAP1 DIV PUSH1 0xFF AND ISZERO PUSH2 0x351 JUMPI PUSH1 0x40 MLOAD PUSH1 0xE5 PUSH1 0x2 EXP PUSH3 0x461BCD MUL DUP2 MSTORE PUSH1 0x20 PUSH1 0x4 DUP3 ADD MSTORE PUSH1 0x12 PUSH1 0x24 DUP3 ADD MSTORE PUSH32 0x596F7520616C726561647920766F7465642E0000000000000000000000000000 PUSH1 0x44 DUP3 ADD MSTORE PUSH1 0x64 ADD PUSH2 0x2EE JUMP JUMPDEST PUSH1 0x1 PUSH1 0xA0 PUSH1 0x2 EXP SUB DUP3 AND CALLER EQ ISZERO PUSH2 0x3AD JUMPI PUSH1 0x40 MLOAD PUSH1 0xE5 PUSH1 0x2 EXP PUSH3 0x461BCD MUL DUP2 MSTORE PUSH1 0x20 PUSH1 0x4 DUP3 ADD MSTORE PUSH1 0x1E PUSH1 0x24 DUP3 ADD MSTORE PUSH32 0x53656C662D64656C65676174696F6E20697320646973616C6C6F7765642E0000 PUSH1 0x44 DUP3 ADD MSTORE PUSH1 0x64 ADD PUSH2 0x2EE JUMP JUMPDEST PUSH1 0x1 PUSH1 0xA0 PUSH1 0x2 EXP SUB DUP3 DUP2 AND PUSH1 0x0 SWAP1 DUP2 MSTORE PUSH1 0x1 PUSH1 0x20 MSTORE PUSH1 0x40 SWAP1 KECCAK256 SLOAD PUSH3 0x10000 SWAP1 DIV AND ISZERO PUSH2 0x44F JUMPI PUSH1 0x1 PUSH1 0xA0 PUSH1 0x2 EXP SUB SWAP2 DUP3 AND PUSH1 0x0 SWAP1 DUP2 MSTORE PUSH1 0x1 PUSH1 0x20 MSTORE PUSH1 0x40 SWAP1 KECCAK256 SLOAD PUSH3 0x10000 SWAP1 DIV SWAP1 SWAP2 AND SWAP1 CALLER DUP3 EQ ISZERO PUSH2 0x44A JUMPI PUSH1 0x40 MLOAD PUSH1 0xE5 PUSH1 0x2 EXP PUSH3 0x461BCD MUL DUP2 MSTORE PUSH1 0x20 PUSH1 0x4 DUP3 ADD MSTORE PUSH1 0x18 PUSH1 0x24 DUP3 ADD MSTORE PUSH32 0x466F756E64206C6F6F7020696E2064656C65676174696F6E0000000000000000 PUSH1 0x44 DUP3 ADD MSTORE PUSH1 0x64 ADD PUSH2 0x2EE JUMP JUMPDEST PUSH2 0x3AD JUMP JUMPDEST PUSH1 0x1 PUSH1 0xA0 PUSH1 0x2 EXP SUB DUP3 AND PUSH1 0x0 SWAP1 DUP2 MSTORE PUSH1 0x1 PUSH1 0x20 DUP2 SWAP1 MSTORE PUSH1 0x40 SWAP1 SWAP2 KECCAK256 DUP1 SLOAD SWAP1 SWAP2 PUSH1 0xFF SWAP1 SWAP2 AND LT ISZERO PUSH2 0x47E JUMPI PUSH1 0x0 DUP1 REVERT JUMPDEST DUP2 SLOAD PUSH1 0x1 PUSH1 0xA0 PUSH1 0x2 EXP SUB DUP5 AND PUSH3 0x10000 MUL PUSH22 0xFFFFFFFFFFFFFFFFFFFFFFFFFFFFFFFFFFFFFFFFFF00 NOT SWAP1 SWAP2 AND OR PUSH2 0x100 SWAP1 DUP2 OR DUP4 SSTORE DUP2 SLOAD DIV PUSH1 0xFF AND ISZERO PUSH2 0x525 JUMPI DUP2 SLOAD DUP2 SLOAD PUSH1 0x2 DUP1 SLOAD PUSH1 0xFF SWAP4 DUP5 AND SWAP4 SWAP2 SWAP3 PUSH23 0x100000000000000000000000000000000000000000000 SWAP1 DIV SWAP1 SWAP2 AND SWAP1 DUP2 LT PUSH2 0x4FA JUMPI PUSH2 0x4FA PUSH2 0xB8D JUMP JUMPDEST SWAP1 PUSH1 0x0 MSTORE PUSH1 0x20 PUSH1 0x0 KECCAK256 SWAP1 PUSH1 0x2 MUL ADD PUSH1 0x1 ADD PUSH1 0x0 DUP3 DUP3 SLOAD PUSH2 0x51A SWAP2 SWAP1 PUSH2 0xAB2 JUMP JUMPDEST SWAP1 SWAP2 SSTORE POP PUSH2 0x559 SWAP1 POP JUMP JUMPDEST DUP2 SLOAD DUP2 SLOAD PUSH1 0xFF SWAP2 DUP3 AND SWAP2 DUP4 SWAP2 PUSH1 0x0 SWAP2 PUSH2 0x540 SWAP2 DUP6 SWAP2 AND PUSH2 0xACA JUMP JUMPDEST SWAP3 POP PUSH2 0x100 EXP DUP2 SLOAD DUP2 PUSH1 0xFF MUL NOT AND SWAP1 DUP4 PUSH1 0xFF AND MUL OR SWAP1 SSTORE POP JUMPDEST POP POP POP JUMP JUMPDEST PUSH1 0x60 DUP1 PUSH1 0x0 DUP1 JUMPDEST PUSH1 0x2 SLOAD DUP2 LT ISZERO PUSH2 0x5D5 JUMPI DUP2 PUSH1 0x2 DUP3 DUP2 SLOAD DUP2 LT PUSH2 0x583 JUMPI PUSH2 0x583 PUSH2 0xB8D JUMP JUMPDEST SWAP1 PUSH1 0x0 MSTORE PUSH1 0x20 PUSH1 0x0 KECCAK256 SWAP1 PUSH1 0x2 MUL ADD PUSH1 0x1 ADD SLOAD GT ISZERO PUSH2 0x5C3 JUMPI PUSH1 0x2 DUP2 DUP2 SLOAD DUP2 LT PUSH2 0x5AE JUMPI PUSH2 0x5AE PUSH2 0xB8D JUMP JUMPDEST SWAP1 PUSH1 0x0 MSTORE PUSH1 0x20 PUSH1 0x0 KECCAK256 SWAP1 PUSH1 0x2 MUL ADD PUSH1 0x1 ADD SLOAD SWAP2 POP JUMPDEST DUP1 PUSH2 0x5CD DUP2 PUSH2 0xB43 JUMP JUMPDEST SWAP2 POP POP PUSH2 0x565 JUMP JUMPDEST POP PUSH1 0x0 JUMPDEST PUSH1 0x2 SLOAD DUP2 LT ISZERO PUSH2 0x6E7 JUMPI PUSH1 0x2 DUP2 DUP2 SLOAD DUP2 LT PUSH2 0x5F6 JUMPI PUSH2 0x5F6 PUSH2 0xB8D JUMP JUMPDEST SWAP1 PUSH1 0x0 MSTORE PUSH1 0x20 PUSH1 0x0 KECCAK256 SWAP1 PUSH1 0x2 MUL ADD PUSH1 0x1 ADD SLOAD DUP3 EQ ISZERO PUSH2 0x6D5 JUMPI PUSH1 0x2 DUP2 DUP2 SLOAD DUP2 LT PUSH2 0x622 JUMPI PUSH2 0x622 PUSH2 0xB8D JUMP JUMPDEST SWAP1 PUSH1 0x0 MSTORE PUSH1 0x20 PUSH1 0x0 KECCAK256 SWAP1 PUSH1 0x2 MUL ADD PUSH1 0x0 ADD DUP1 SLOAD PUSH2 0x63E SWAP1 PUSH2 0xAEF JUMP JUMPDEST DUP1 PUSH1 0x1F ADD PUSH1 0x20 DUP1 SWAP2 DIV MUL PUSH1 0x20 ADD PUSH1 0x40 MLOAD SWAP1 DUP2 ADD PUSH1 0x40 MSTORE DUP1 SWAP3 SWAP2 SWAP1 DUP2 DUP2 MSTORE PUSH1 0x20 ADD DUP3 DUP1 SLOAD PUSH2 0x66A SWAP1 PUSH2 0xAEF JUMP JUMPDEST DUP1 ISZERO PUSH2 0x6B7 JUMPI DUP1 PUSH1 0x1F LT PUSH2 0x68C JUMPI PUSH2 0x100 DUP1 DUP4 SLOAD DIV MUL DUP4 MSTORE SWAP2 PUSH1 0x20 ADD SWAP2 PUSH2 0x6B7 JUMP JUMPDEST DUP3 ADD SWAP2 SWAP1 PUSH1 0x0 MSTORE PUSH1 0x20 PUSH1 0x0 KECCAK256 SWAP1 JUMPDEST DUP2 SLOAD DUP2 MSTORE SWAP1 PUSH1 0x1 ADD SWAP1 PUSH1 0x20 ADD DUP1 DUP4 GT PUSH2 0x69A JUMPI DUP3 SWAP1 SUB PUSH1 0x1F AND DUP3 ADD SWAP2 JUMPDEST POP POP DUP7 MLOAD DUP8 SWAP4 POP SWAP2 POP POP PUSH2 0x6C9 PUSH2 0xB8D JUMP JUMPDEST PUSH1 0x20 MUL PUSH1 0x20 ADD ADD DUP2 SWAP1 MSTORE POP JUMPDEST DUP1 PUSH2 0x6DF DUP2 PUSH2 0xB43 JUMP JUMPDEST SWAP2 POP POP PUSH2 0x5D9 JUMP JUMPDEST POP SWAP1 SWAP3 SWAP2 POP POP JUMP JUMPDEST PUSH1 0x0 SLOAD PUSH1 0x1 PUSH1 0xA0 PUSH1 0x2 EXP SUB AND CALLER EQ PUSH2 0x772 JUMPI PUSH1 0x40 MLOAD PUSH1 0xE5 PUSH1 0x2 EXP PUSH3 0x461BCD MUL DUP2 MSTORE PUSH1 0x20 PUSH1 0x4 DUP3 ADD MSTORE PUSH1 0x28 PUSH1 0x24 DUP3 ADD MSTORE PUSH32 0x4F6E6C79206368616972706572736F6E2063616E206769766520726967687420 PUSH1 0x44 DUP3 ADD MSTORE PUSH32 0x746F20766F74652E000000000000000000000000000000000000000000000000 PUSH1 0x64 DUP3 ADD MSTORE PUSH1 0x84 ADD PUSH2 0x2EE JUMP JUMPDEST PUSH1 0x1 PUSH1 0xA0 PUSH1 0x2 EXP SUB DUP2 AND PUSH1 0x0 SWAP1 DUP2 MSTORE PUSH1 0x1 PUSH1 0x20 MSTORE PUSH1 0x40 SWAP1 KECCAK256 SLOAD PUSH2 0x100 SWAP1 DIV PUSH1 0xFF AND ISZERO PUSH2 0x7E3 JUMPI PUSH1 0x40 MLOAD PUSH1 0xE5 PUSH1 0x2 EXP PUSH3 0x461BCD MUL DUP2 MSTORE PUSH1 0x20 PUSH1 0x4 DUP3 ADD MSTORE PUSH1 0x17 PUSH1 0x24 DUP3 ADD MSTORE PUSH32 0x54686520766F74657220616C726561647920766F746564000000000000000000 PUSH1 0x44 DUP3 ADD MSTORE PUSH1 0x64 ADD PUSH2 0x2EE JUMP JUMPDEST PUSH1 0x1 PUSH1 0xA0 PUSH1 0x2 EXP SUB DUP2 AND PUSH1 0x0 SWAP1 DUP2 MSTORE PUSH1 0x1 PUSH1 0x20 MSTORE PUSH1 0x40 SWAP1 KECCAK256 SLOAD PUSH1 0xFF AND ISZERO PUSH2 0x809 JUMPI PUSH1 0x0 DUP1 REVERT JUMPDEST PUSH1 0x1 PUSH1 0xA0 PUSH1 0x2 EXP SUB AND PUSH1 0x0 SWAP1 DUP2 MSTORE PUSH1 0x1 PUSH1 0x20 DUP2 SWAP1 MSTORE PUSH1 0x40 SWAP1 SWAP2 KECCAK256 DUP1 SLOAD PUSH1 0xFF NOT AND SWAP1 SWAP2 OR SWAP1 SSTORE JUMP JUMPDEST CALLER PUSH1 0x0 SWAP1 DUP2 MSTORE PUSH1 0x1 PUSH1 0x20 MSTORE PUSH1 0x40 SWAP1 KECCAK256 DUP1 SLOAD PUSH2 0x100 SWAP1 DIV PUSH1 0xFF AND ISZERO PUSH2 0x899 JUMPI PUSH1 0x40 MLOAD PUSH1 0xE5 PUSH1 0x2 EXP PUSH3 0x461BCD MUL DUP2 MSTORE PUSH1 0x20 PUSH1 0x4 DUP3 ADD MSTORE PUSH1 0x11 PUSH1 0x24 DUP3 ADD MSTORE PUSH32 0x596F7520616C726561647920766F746564000000000000000000000000000000 PUSH1 0x44 DUP3 ADD MSTORE PUSH1 0x64 ADD PUSH2 0x2EE JUMP JUMPDEST DUP1 SLOAD PUSH1 0xFF AND PUSH2 0x8ED JUMPI PUSH1 0x40 MLOAD PUSH1 0xE5 PUSH1 0x2 EXP PUSH3 0x461BCD MUL DUP2 MSTORE PUSH1 0x20 PUSH1 0x4 DUP3 ADD MSTORE PUSH1 0x1A PUSH1 0x24 DUP3 ADD MSTORE PUSH32 0x596F752068617665206E6F20726967687420746F20766F74652E000000000000 PUSH1 0x44 DUP3 ADD MSTORE PUSH1 0x64 ADD PUSH2 0x2EE JUMP JUMPDEST DUP1 SLOAD PUSH1 0xFF DUP4 DUP2 AND PUSH23 0x100000000000000000000000000000000000000000000 DUP2 MUL PUSH23 0xFF0000000000000000000000000000000000000000FF00 NOT SWAP1 SWAP4 AND SWAP3 SWAP1 SWAP3 OR PUSH2 0x100 OR DUP1 DUP5 SSTORE PUSH1 0x2 DUP1 SLOAD SWAP2 SWAP1 SWAP3 AND SWAP3 SWAP1 DUP2 LT PUSH2 0x94D JUMPI PUSH2 0x94D PUSH2 0xB8D JUMP JUMPDEST SWAP1 PUSH1 0x0 MSTORE PUSH1 0x20 PUSH1 0x0 KECCAK256 SWAP1 PUSH1 0x2 MUL ADD PUSH1 0x1 ADD PUSH1 0x0 DUP3 DUP3 SLOAD PUSH2 0x96D SWAP2 SWAP1 PUSH2 0xAB2 JUMP JUMPDEST SWAP1 SWAP2 SSTORE POP POP POP POP JUMP JUMPDEST PUSH1 0x0 PUSH1 0x20 DUP3 DUP5 SUB SLT ISZERO PUSH2 0x988 JUMPI PUSH1 0x0 DUP1 REVERT JUMPDEST DUP2 CALLDATALOAD PUSH1 0x1 PUSH1 0xA0 PUSH1 0x2 EXP SUB DUP2 AND DUP2 EQ PUSH2 0x99F JUMPI PUSH1 0x0 DUP1 REVERT JUMPDEST SWAP4 SWAP3 POP POP POP JUMP JUMPDEST PUSH1 0x0 PUSH1 0x20 DUP3 DUP5 SUB SLT ISZERO PUSH2 0x9B8 JUMPI PUSH1 0x0 DUP1 REVERT JUMPDEST POP CALLDATALOAD SWAP2 SWAP1 POP JUMP JUMPDEST PUSH1 0x0 PUSH1 0x20 DUP3 DUP5 SUB SLT ISZERO PUSH2 0x9D1 JUMPI PUSH1 0x0 DUP1 REVERT JUMPDEST DUP2 CALLDATALOAD PUSH1 0xFF DUP2 AND DUP2 EQ PUSH2 0x99F JUMPI PUSH1 0x0 DUP1 REVERT JUMPDEST PUSH1 0x0 DUP2 MLOAD DUP1 DUP5 MSTORE PUSH1 0x0 JUMPDEST DUP2 DUP2 LT ISZERO PUSH2 0xA08 JUMPI PUSH1 0x20 DUP2 DUP6 ADD DUP2 ADD MLOAD DUP7 DUP4 ADD DUP3 ADD MSTORE ADD PUSH2 0x9EC JUMP JUMPDEST DUP2 DUP2 GT ISZERO PUSH2 0xA1A JUMPI PUSH1 0x0 PUSH1 0x20 DUP4 DUP8 ADD ADD MSTORE JUMPDEST POP PUSH1 0x1F ADD PUSH1 0x1F NOT AND SWAP3 SWAP1 SWAP3 ADD PUSH1 0x20 ADD SWAP3 SWAP2 POP POP JUMP JUMPDEST PUSH1 0x0 PUSH1 0x20 DUP1 DUP4 ADD DUP2 DUP5 MSTORE DUP1 DUP6 MLOAD DUP1 DUP4 MSTORE PUSH1 0x40 DUP7 ADD SWAP2 POP PUSH1 0x40 DUP5 DUP3 MUL DUP8 ADD ADD SWAP3 POP DUP4 DUP8 ADD PUSH1 0x0 JUMPDEST DUP3 DUP2 LT ISZERO PUSH2 0xA83 JUMPI PUSH1 0x3F NOT DUP9 DUP7 SUB ADD DUP5 MSTORE PUSH2 0xA71 DUP6 DUP4 MLOAD PUSH2 0x9E2 JUMP JUMPDEST SWAP5 POP SWAP3 DUP6 ADD SWAP3 SWAP1 DUP6 ADD SWAP1 PUSH1 0x1 ADD PUSH2 0xA55 JUMP JUMPDEST POP SWAP3 SWAP8 SWAP7 POP POP POP POP POP POP POP JUMP JUMPDEST PUSH1 0x40 DUP2 MSTORE PUSH1 0x0 PUSH2 0xAA3 PUSH1 0x40 DUP4 ADD DUP6 PUSH2 0x9E2 JUMP JUMPDEST SWAP1 POP DUP3 PUSH1 0x20 DUP4 ADD MSTORE SWAP4 SWAP3 POP POP POP JUMP JUMPDEST PUSH1 0x0 DUP3 NOT DUP3 GT ISZERO PUSH2 0xAC5 JUMPI PUSH2 0xAC5 PUSH2 0xB5E JUMP JUMPDEST POP ADD SWAP1 JUMP JUMPDEST PUSH1 0x0 PUSH1 0xFF DUP3 AND PUSH1 0xFF DUP5 AND DUP1 PUSH1 0xFF SUB DUP3 GT ISZERO PUSH2 0xAE7 JUMPI PUSH2 0xAE7 PUSH2 0xB5E JUMP JUMPDEST ADD SWAP4 SWAP3 POP POP POP JUMP JUMPDEST PUSH1 0x2 DUP2 DIV PUSH1 0x1 DUP3 AND DUP1 PUSH2 0xB03 JUMPI PUSH1 0x7F DUP3 AND SWAP2 POP JUMPDEST PUSH1 0x20 DUP3 LT DUP2 EQ ISZERO PUSH2 0xB3D JUMPI PUSH32 0x4E487B7100000000000000000000000000000000000000000000000000000000 PUSH1 0x0 MSTORE PUSH1 0x22 PUSH1 0x4 MSTORE PUSH1 0x24 PUSH1 0x0 REVERT JUMPDEST POP SWAP2 SWAP1 POP JUMP JUMPDEST PUSH1 0x0 PUSH1 0x0 NOT DUP3 EQ ISZERO PUSH2 0xB57 JUMPI PUSH2 0xB57 PUSH2 0xB5E JUMP JUMPDEST POP PUSH1 0x1 ADD SWAP1 JUMP JUMPDEST PUSH32 0x4E487B7100000000000000000000000000000000000000000000000000000000 PUSH1 0x0 MSTORE PUSH1 0x11 PUSH1 0x4 MSTORE PUSH1 0x24 PUSH1 0x0 REVERT JUMPDEST PUSH32 0x4E487B7100000000000000000000000000000000000000000000000000000000 PUSH1 0x0 MSTORE PUSH1 0x32 PUSH1 0x4 MSTORE PUSH1 0x24 PUSH1 0x0 REVERT INVALID LOG2 PUSH5 0x6970667358 0x22 SLT KECCAK256 JUMPDEST RETURN 0xBA 0xA7 AND 0xC2 0xA6 POP PUSH16 0x8B54E4EF6CA1252631B5A4BC503FBD2E PUSH7 0x70C1A0A6874564 PUSH20 0x6F6C634300080700330000000000000000000000 "
				},
				"gasEstimates": {
					"creation": {
						"codeDepositCost": "611600",
						"executionCost": "infinite",
						"totalCost": "infinite"
					},
					"external": {
						"chairperson()": "579",
						"delegate(address)": "infinite",
						"giveRightToVote(address)": "21776",
						"proposals(uint256)": "infinite",
						"vote(uint8)": "41730",
						"voters(address)": "996",
						"winningProposal()": "infinite"
					}
				},
				"methodIdentifiers": {
					"chairperson()": "2e4176cf",
					"delegate(address)": "5c19a95c",
					"giveRightToVote(address)": "9e7b8d61",
					"proposals(uint256)": "013cf08b",
					"vote(uint8)": "b3f98adc",
					"voters(address)": "a3ec138d",
					"winningProposal()": "609ff1bd"
				}
			},
			"storageLayout": {
				"storage": [
					{
						"astId": 17,
						"contract": "custom/ballot.sol:Ballot",
						"label": "chairperson",
						"offset": 0,
						"slot": "0",
						"type": "t_address"
					},
					{
						"astId": 22,
						"contract": "custom/ballot.sol:Ballot",
						"label": "voters",
						"offset": 0,
						"slot": "1",
						"type": "t_mapping(t_address,t_struct(Voter)10_storage)"
					},
					{
						"astId": 26,
						"contract": "custom/ballot.sol:Ballot",
						"label": "proposals",
						"offset": 0,
						"slot": "2",
						"type": "t_array(t_struct(Proposal)15_storage)dyn_storage"
					}
				],
				"types": {
					"t_address": {
						"encoding": "inplace",
						"label": "address",
						"numberOfBytes": "20"
					},
					"t_array(t_struct(Proposal)15_storage)dyn_storage": {
						"base": "t_struct(Proposal)15_storage",
						"encoding": "dynamic_array",
						"label": "struct Ballot.Proposal[]",
						"numberOfBytes": "32"
					},
					"t_bool": {
						"encoding": "inplace",
						"label": "bool",
						"numberOfBytes": "1"
					},
					"t_mapping(t_address,t_struct(Voter)10_storage)": {
						"encoding": "mapping",
						"key": "t_address",
						"label": "mapping(address => struct Ballot.Voter)",
						"numberOfBytes": "32",
						"value": "t_struct(Voter)10_storage"
					},
					"t_string_storage": {
						"encoding": "bytes",
						"label": "string",
						"numberOfBytes": "32"
					},
					"t_struct(Proposal)15_storage": {
						"encoding": "inplace",
						"label": "struct Ballot.Proposal",
						"members": [
							{
								"astId": 12,
								"contract": "custom/ballot.sol:Ballot",
								"label": "name",
								"offset": 0,
								"slot": "0",
								"type": "t_string_storage"
							},
							{
								"astId": 14,
								"contract": "custom/ballot.sol:Ballot",
								"label": "voteCount",
								"offset": 0,
								"slot": "1",
								"type": "t_uint256"
							}
						],
						"numberOfBytes": "64"
					},
					"t_struct(Voter)10_storage": {
						"encoding": "inplace",
						"label": "struct Ballot.Voter",
						"members": [
							{
								"astId": 3,
								"contract": "custom/ballot.sol:Ballot",
								"label": "weight",
								"offset": 0,
								"slot": "0",
								"type": "t_uint8"
							},
							{
								"astId": 5,
								"contract": "custom/ballot.sol:Ballot",
								"label": "voted",
								"offset": 1,
								"slot": "0",
								"type": "t_bool"
							},
							{
								"astId": 7,
								"contract": "custom/ballot.sol:Ballot",
								"label": "delegate",
								"offset": 2,
								"slot": "0",
								"type": "t_address"
							},
							{
								"astId": 9,
								"contract": "custom/ballot.sol:Ballot",
								"label": "vote",
								"offset": 22,
								"slot": "0",
								"type": "t_uint8"
							}
						],
						"numberOfBytes": "32"
					},
					"t_uint256": {
						"encoding": "inplace",
						"label": "uint256",
						"numberOfBytes": "32"
					},
					"t_uint8": {
						"encoding": "inplace",
						"label": "uint8",
						"numberOfBytes": "1"
					}
				}
			},
			"userdoc": {
				"kind": "user",
				"methods": {},
				"version": 1
			}
		}
	}
}