{
	"custom/ballot.sol": {
		"Ballot": {
			"abi": [
				{
					"inputs": [
						{
							"internalType": "bytes32[]",
							"name": "proposalNames",
							"type": "bytes32[]"
						}
					],
					"stateMutability": "nonpayable",
					"type": "constructor"
				},
				{
					"inputs": [],
					"name": "chairperson",
					"outputs": [
						{
							"internalType": "address",
							"name": "",
							"type": "address"
						}
					],
					"stateMutability": "view",
					"type": "function"
				},
				{
					"inputs": [
						{
							"internalType": "address",
							"name": "to",
							"type": "address"
						}
					],
					"name": "delegate",
					"outputs": [],
					"stateMutability": "nonpayable",
					"type": "function"
				},
				{
					"inputs": [
						{
							"internalType": "address",
							"name": "voter",
							"type": "address"
						}
					],
					"name": "giveRightToVote",
					"outputs": [],
					"stateMutability": "nonpayable",
					"type": "function"
				},
				{
					"inputs": [
						{
							"internalType": "uint256",
							"name": "",
							"type": "uint256"
						}
					],
					"name": "proposals",
					"outputs": [
						{
							"internalType": "bytes32",
							"name": "name",
							"type": "bytes32"
						},
						{
							"internalType": "uint256",
							"name": "voteCount",
							"type": "uint256"
						}
					],
					"stateMutability": "view",
					"type": "function"
				},
				{
					"inputs": [
						{
							"internalType": "uint8",
							"name": "proposal",
							"type": "uint8"
						}
					],
					"name": "vote",
					"outputs": [],
					"stateMutability": "nonpayable",
					"type": "function"
				},
				{
					"inputs": [
						{
							"internalType": "address",
							"name": "",
							"type": "address"
						}
					],
					"name": "voters",
					"outputs": [
						{
							"internalType": "uint8",
							"name": "weight",
							"type": "uint8"
						},
						{
							"internalType": "bool",
							"name": "voted",
							"type": "bool"
						},
						{
							"internalType": "address",
							"name": "delegate",
							"type": "address"
						},
						{
							"internalType": "uint8",
							"name": "vote",
							"type": "uint8"
						}
					],
					"stateMutability": "view",
					"type": "function"
				}
			],
			"devdoc": {
				"kind": "dev",
				"methods": {},
				"version": 1
			},
			"evm": {
				"assembly": "    /* \"custom/ballot.sol\":88:2848  contract Ballot{\r... */\n  mstore(0x40, 0x80)\n    /* \"custom/ballot.sol\":572:937  constructor(bytes32[] memory proposalNames){\r... */\n  callvalue\n  dup1\n  iszero\n  tag_1\n  jumpi\n  0x00\n  dup1\n  revert\ntag_1:\n  pop\n  mload(0x40)\n  sub(codesize, bytecodeSize)\n  dup1\n  bytecodeSize\n  dup4\n  codecopy\n  dup2\n  add\n  0x40\n  dup2\n  swap1\n  mstore\n  tag_2\n  swap2\n  tag_3\n  jump\t// in\ntag_2:\n    /* \"custom/ballot.sol\":626:637  chairperson */\n  0x00\n    /* \"custom/ballot.sol\":626:650  chairperson = msg.sender */\n  dup1\n  sload\n  not(sub(exp(0x02, 0xa0), 0x01))\n  and\n    /* \"custom/ballot.sol\":640:650  msg.sender */\n  caller\n    /* \"custom/ballot.sol\":626:650  chairperson = msg.sender */\n  swap1\n  dup2\n  or\n  dup3\n  sstore\n    /* \"custom/ballot.sol\":663:682  voters[chairperson] */\n  dup2\n  mstore\n    /* \"custom/ballot.sol\":626:650  chairperson = msg.sender */\n  0x01\n    /* \"custom/ballot.sol\":663:682  voters[chairperson] */\n  0x20\n  dup2\n  swap1\n  mstore\n  0x40\n  dup3\n  keccak256\n    /* \"custom/ballot.sol\":663:693  voters[chairperson].weight = 1 */\n  dup1\n  sload\n  not(0xff)\n  and\n  swap1\n  swap2\n  or\n  swap1\n  sstore\n    /* \"custom/ballot.sol\":742:930  for (uint i = 0; i < proposalNames.length; i++) {\r... */\ntag_6:\n    /* \"custom/ballot.sol\":763:776  proposalNames */\n  dup2\n    /* \"custom/ballot.sol\":763:783  proposalNames.length */\n  mload\n    /* \"custom/ballot.sol\":759:760  i */\n  dup2\n    /* \"custom/ballot.sol\":759:783  i < proposalNames.length */\n  lt\n    /* \"custom/ballot.sol\":742:930  for (uint i = 0; i < proposalNames.length; i++) {\r... */\n  iszero\n  tag_7\n  jumpi\n    /* \"custom/ballot.sol\":805:814  proposals */\n  0x02\n    /* \"custom/ballot.sol\":820:917  Proposal({\r... */\n  mload(0x40)\n  dup1\n  0x40\n  add\n  0x40\n  mstore\n  dup1\n    /* \"custom/ballot.sol\":854:867  proposalNames */\n  dup5\n    /* \"custom/ballot.sol\":868:869  i */\n  dup5\n    /* \"custom/ballot.sol\":854:870  proposalNames[i] */\n  dup2\n  mload\n  dup2\n  lt\n  tag_10\n  jumpi\n  tag_10\n  tag_11\n  jump\t// in\ntag_10:\n  0x20\n  swap1\n  dup2\n  mul\n  swap2\n  swap1\n  swap2\n  add\n  dup2\n  add\n  mload\n    /* \"custom/ballot.sol\":820:917  Proposal({\r... */\n  dup3\n  mstore\n    /* \"custom/ballot.sol\":900:901  0 */\n  0x00\n    /* \"custom/ballot.sol\":820:917  Proposal({\r... */\n  swap2\n  dup2\n  add\n  dup3\n  swap1\n  mstore\n    /* \"custom/ballot.sol\":805:918  proposals.push(Proposal({\r... */\n  dup4\n  sload\n  0x01\n  dup2\n  dup2\n  add\n  dup7\n  sstore\n  swap5\n  dup4\n  mstore\n  swap2\n  dup2\n  swap1\n  keccak256\n  dup4\n  mload\n  0x02\n  swap1\n  swap4\n  mul\n  add\n  swap2\n  dup3\n  sstore\n  swap2\n  swap1\n  swap2\n  add\n  mload\n  swap2\n  add\n  sstore\n    /* \"custom/ballot.sol\":785:788  i++ */\n  dup1\n  tag_13\n  dup2\n  tag_14\n  jump\t// in\ntag_13:\n  swap2\n  pop\n  pop\n    /* \"custom/ballot.sol\":742:930  for (uint i = 0; i < proposalNames.length; i++) {\r... */\n  jump(tag_6)\ntag_7:\n  pop\n    /* \"custom/ballot.sol\":572:937  constructor(bytes32[] memory proposalNames){\r... */\n  pop\n    /* \"custom/ballot.sol\":88:2848  contract Ballot{\r... */\n  jump(tag_16)\n    /* \"#utility.yul\":14:1131   */\ntag_3:\n    /* \"#utility.yul\":109:115   */\n  0x00\n    /* \"#utility.yul\":140:142   */\n  0x20\n    /* \"#utility.yul\":183:185   */\n  dup1\n    /* \"#utility.yul\":171:180   */\n  dup4\n    /* \"#utility.yul\":162:169   */\n  dup6\n    /* \"#utility.yul\":158:181   */\n  sub\n    /* \"#utility.yul\":154:186   */\n  slt\n    /* \"#utility.yul\":151:203   */\n  iszero\n  tag_18\n  jumpi\n    /* \"#utility.yul\":199:200   */\n  0x00\n    /* \"#utility.yul\":196:197   */\n  dup1\n    /* \"#utility.yul\":189:201   */\n  revert\n    /* \"#utility.yul\":151:203   */\ntag_18:\n    /* \"#utility.yul\":232:241   */\n  dup3\n    /* \"#utility.yul\":226:242   */\n  mload\n    /* \"#utility.yul\":261:279   */\n  0xffffffffffffffff\n    /* \"#utility.yul\":302:304   */\n  dup1\n    /* \"#utility.yul\":294:300   */\n  dup3\n    /* \"#utility.yul\":291:305   */\n  gt\n    /* \"#utility.yul\":288:322   */\n  iszero\n  tag_19\n  jumpi\n    /* \"#utility.yul\":318:319   */\n  0x00\n    /* \"#utility.yul\":315:316   */\n  dup1\n    /* \"#utility.yul\":308:320   */\n  revert\n    /* \"#utility.yul\":288:322   */\ntag_19:\n    /* \"#utility.yul\":356:362   */\n  dup2\n    /* \"#utility.yul\":345:354   */\n  dup6\n    /* \"#utility.yul\":341:363   */\n  add\n    /* \"#utility.yul\":331:363   */\n  swap2\n  pop\n    /* \"#utility.yul\":401:408   */\n  dup6\n    /* \"#utility.yul\":394:398   */\n  0x1f\n    /* \"#utility.yul\":390:392   */\n  dup4\n    /* \"#utility.yul\":386:399   */\n  add\n    /* \"#utility.yul\":382:409   */\n  slt\n    /* \"#utility.yul\":372:427   */\n  tag_20\n  jumpi\n    /* \"#utility.yul\":423:424   */\n  0x00\n    /* \"#utility.yul\":420:421   */\n  dup1\n    /* \"#utility.yul\":413:425   */\n  revert\n    /* \"#utility.yul\":372:427   */\ntag_20:\n    /* \"#utility.yul\":452:454   */\n  dup2\n    /* \"#utility.yul\":446:455   */\n  mload\n    /* \"#utility.yul\":474:476   */\n  dup2\n    /* \"#utility.yul\":470:472   */\n  dup2\n    /* \"#utility.yul\":467:477   */\n  gt\n    /* \"#utility.yul\":464:500   */\n  iszero\n  tag_22\n  jumpi\n    /* \"#utility.yul\":480:498   */\n  tag_22\n  tag_23\n  jump\t// in\ntag_22:\n    /* \"#utility.yul\":527:529   */\n  dup4\n    /* \"#utility.yul\":523:525   */\n  dup2\n    /* \"#utility.yul\":519:530   */\n  mul\n    /* \"#utility.yul\":559:561   */\n  0x40\n    /* \"#utility.yul\":553:562   */\n  mload\n    /* \"#utility.yul\":622:624   */\n  0x1f\n    /* \"#utility.yul\":618:625   */\n  not\n    /* \"#utility.yul\":613:615   */\n  0x3f\n    /* \"#utility.yul\":609:611   */\n  dup4\n    /* \"#utility.yul\":605:616   */\n  add\n    /* \"#utility.yul\":601:626   */\n  and\n    /* \"#utility.yul\":593:599   */\n  dup2\n    /* \"#utility.yul\":589:627   */\n  add\n    /* \"#utility.yul\":677:683   */\n  dup2\n    /* \"#utility.yul\":665:675   */\n  dup2\n    /* \"#utility.yul\":662:684   */\n  lt\n    /* \"#utility.yul\":657:659   */\n  dup6\n    /* \"#utility.yul\":645:655   */\n  dup3\n    /* \"#utility.yul\":642:660   */\n  gt\n    /* \"#utility.yul\":639:685   */\n  or\n    /* \"#utility.yul\":636:708   */\n  iszero\n  tag_25\n  jumpi\n    /* \"#utility.yul\":688:706   */\n  tag_25\n  tag_23\n  jump\t// in\ntag_25:\n    /* \"#utility.yul\":724:726   */\n  0x40\n    /* \"#utility.yul\":717:739   */\n  mstore\n    /* \"#utility.yul\":774:792   */\n  dup3\n  dup2\n  mstore\n    /* \"#utility.yul\":808:823   */\n  dup6\n  dup2\n  add\n  swap4\n  pop\n    /* \"#utility.yul\":843:854   */\n  dup5\n  dup7\n  add\n    /* \"#utility.yul\":873:884   */\n  dup3\n  dup7\n  add\n    /* \"#utility.yul\":869:889   */\n  dup8\n  add\n    /* \"#utility.yul\":866:899   */\n  dup11\n  lt\n    /* \"#utility.yul\":863:916   */\n  iszero\n  tag_26\n  jumpi\n    /* \"#utility.yul\":912:913   */\n  0x00\n    /* \"#utility.yul\":909:910   */\n  dup1\n    /* \"#utility.yul\":902:914   */\n  revert\n    /* \"#utility.yul\":863:916   */\ntag_26:\n    /* \"#utility.yul\":934:935   */\n  0x00\n    /* \"#utility.yul\":925:935   */\n  swap6\n  pop\n    /* \"#utility.yul\":944:1100   */\ntag_27:\n    /* \"#utility.yul\":958:960   */\n  dup4\n    /* \"#utility.yul\":955:956   */\n  dup7\n    /* \"#utility.yul\":952:961   */\n  lt\n    /* \"#utility.yul\":944:1100   */\n  iszero\n  tag_29\n  jumpi\n    /* \"#utility.yul\":1015:1025   */\n  dup1\n  mload\n    /* \"#utility.yul\":1003:1026   */\n  dup6\n  mstore\n    /* \"#utility.yul\":976:977   */\n  0x01\n    /* \"#utility.yul\":969:978   */\n  swap6\n  swap1\n  swap6\n  add\n  swap5\n    /* \"#utility.yul\":1046:1058   */\n  swap4\n  dup7\n  add\n  swap4\n    /* \"#utility.yul\":1078:1090   */\n  dup7\n  add\n    /* \"#utility.yul\":944:1100   */\n  jump(tag_27)\ntag_29:\n  pop\n    /* \"#utility.yul\":1119:1125   */\n  swap9\n    /* \"#utility.yul\":14:1131   */\n  swap8\n  pop\n  pop\n  pop\n  pop\n  pop\n  pop\n  pop\n  pop\n  jump\t// out\n    /* \"#utility.yul\":1136:1425   */\ntag_14:\n    /* \"#utility.yul\":1175:1178   */\n  0x00\n  not(0x00)\n    /* \"#utility.yul\":1196:1213   */\n  dup3\n  eq\n    /* \"#utility.yul\":1193:1390   */\n  iszero\n  tag_31\n  jumpi\n    /* \"#utility.yul\":1246:1323   */\n  0x4e487b7100000000000000000000000000000000000000000000000000000000\n    /* \"#utility.yul\":1243:1244   */\n  0x00\n    /* \"#utility.yul\":1236:1324   */\n  mstore\n    /* \"#utility.yul\":1347:1351   */\n  0x11\n    /* \"#utility.yul\":1344:1345   */\n  0x04\n    /* \"#utility.yul\":1337:1352   */\n  mstore\n    /* \"#utility.yul\":1375:1379   */\n  0x24\n    /* \"#utility.yul\":1372:1373   */\n  0x00\n    /* \"#utility.yul\":1365:1380   */\n  revert\n    /* \"#utility.yul\":1193:1390   */\ntag_31:\n  pop\n    /* \"#utility.yul\":1417:1418   */\n  0x01\n    /* \"#utility.yul\":1406:1419   */\n  add\n  swap1\n    /* \"#utility.yul\":1136:1425   */\n  jump\t// out\n    /* \"#utility.yul\":1430:1614   */\ntag_11:\n    /* \"#utility.yul\":1482:1559   */\n  0x4e487b7100000000000000000000000000000000000000000000000000000000\n    /* \"#utility.yul\":1479:1480   */\n  0x00\n    /* \"#utility.yul\":1472:1560   */\n  mstore\n    /* \"#utility.yul\":1579:1583   */\n  0x32\n    /* \"#utility.yul\":1576:1577   */\n  0x04\n    /* \"#utility.yul\":1569:1584   */\n  mstore\n    /* \"#utility.yul\":1603:1607   */\n  0x24\n    /* \"#utility.yul\":1600:1601   */\n  0x00\n    /* \"#utility.yul\":1593:1608   */\n  revert\n    /* \"#utility.yul\":1619:1803   */\ntag_23:\n    /* \"#utility.yul\":1671:1748   */\n  0x4e487b7100000000000000000000000000000000000000000000000000000000\n    /* \"#utility.yul\":1668:1669   */\n  0x00\n    /* \"#utility.yul\":1661:1749   */\n  mstore\n    /* \"#utility.yul\":1768:1772   */\n  0x41\n    /* \"#utility.yul\":1765:1766   */\n  0x04\n    /* \"#utility.yul\":1758:1773   */\n  mstore\n    /* \"#utility.yul\":1792:1796   */\n  0x24\n    /* \"#utility.yul\":1789:1790   */\n  0x00\n    /* \"#utility.yul\":1782:1797   */\n  revert\n    /* \"#utility.yul\":1619:1803   */\ntag_16:\n    /* \"custom/ballot.sol\":88:2848  contract Ballot{\r... */\n  dataSize(sub_0)\n  dup1\n  dataOffset(sub_0)\n  0x00\n  codecopy\n  0x00\n  return\nstop\n\nsub_0: assembly {\n        /* \"custom/ballot.sol\":88:2848  contract Ballot{\r... */\n      mstore(0x40, 0x80)\n      callvalue\n      dup1\n      iszero\n      tag_1\n      jumpi\n      0x00\n      dup1\n      revert\n    tag_1:\n      pop\n      jumpi(tag_2, lt(calldatasize, 0x04))\n      div(calldataload(0x00), 0x0100000000000000000000000000000000000000000000000000000000)\n      0x013cf08b\n      dup2\n      eq\n      tag_3\n      jumpi\n      dup1\n      0x2e4176cf\n      eq\n      tag_4\n      jumpi\n      dup1\n      0x5c19a95c\n      eq\n      tag_5\n      jumpi\n      dup1\n      0x9e7b8d61\n      eq\n      tag_6\n      jumpi\n      dup1\n      0xa3ec138d\n      eq\n      tag_7\n      jumpi\n      dup1\n      0xb3f98adc\n      eq\n      tag_8\n      jumpi\n    tag_2:\n      0x00\n      dup1\n      revert\n        /* \"custom/ballot.sol\":536:563  Proposal[] public proposals */\n    tag_3:\n      tag_9\n      tag_10\n      calldatasize\n      0x04\n      tag_11\n      jump\t// in\n    tag_10:\n      tag_12\n      jump\t// in\n    tag_9:\n      0x40\n      dup1\n      mload\n        /* \"#utility.yul\":1192:1217   */\n      swap3\n      dup4\n      mstore\n        /* \"#utility.yul\":1248:1250   */\n      0x20\n        /* \"#utility.yul\":1233:1251   */\n      dup4\n      add\n        /* \"#utility.yul\":1226:1260   */\n      swap2\n      swap1\n      swap2\n      mstore\n        /* \"#utility.yul\":1165:1183   */\n      add\n        /* \"custom/ballot.sol\":536:563  Proposal[] public proposals */\n    tag_13:\n      mload(0x40)\n      dup1\n      swap2\n      sub\n      swap1\n      return\n        /* \"custom/ballot.sol\":430:456  address public chairperson */\n    tag_4:\n      sload(0x00)\n      tag_15\n      swap1\n      sub(exp(0x02, 0xa0), 0x01)\n      and\n      dup2\n      jump\n    tag_15:\n      mload(0x40)\n      sub(exp(0x02, 0xa0), 0x01)\n        /* \"#utility.yul\":951:1006   */\n      swap1\n      swap2\n      and\n        /* \"#utility.yul\":933:1007   */\n      dup2\n      mstore\n        /* \"#utility.yul\":921:923   */\n      0x20\n        /* \"#utility.yul\":906:924   */\n      add\n        /* \"custom/ballot.sol\":430:456  address public chairperson */\n      tag_13\n        /* \"#utility.yul\":787:1013   */\n      jump\n        /* \"custom/ballot.sol\":1314:2454  function delegate(address to) external {\r... */\n    tag_5:\n      tag_19\n      tag_20\n      calldatasize\n      0x04\n      tag_21\n      jump\t// in\n    tag_20:\n      tag_22\n      jump\t// in\n    tag_19:\n      stop\n        /* \"custom/ballot.sol\":994:1284  function giveRightToVote(address voter) external{\r... */\n    tag_6:\n      tag_19\n      tag_24\n      calldatasize\n      0x04\n      tag_21\n      jump\t// in\n    tag_24:\n      tag_25\n      jump\t// in\n        /* \"custom/ballot.sol\":465:501  mapping(address=>Voter)public voters */\n    tag_7:\n      tag_26\n      tag_27\n      calldatasize\n      0x04\n      tag_21\n      jump\t// in\n    tag_27:\n      mstore(0x20, 0x01)\n      0x00\n      swap1\n      dup2\n      mstore\n      0x40\n      swap1\n      keccak256\n      sload\n      0xff\n      dup1\n      dup3\n      and\n      swap2\n      0x0100\n      dup2\n      div\n      dup3\n      and\n      swap2\n      sub(exp(0x02, 0xa0), 0x01)\n      0x010000\n      dup4\n      div\n      and\n      swap2\n      0x0100000000000000000000000000000000000000000000\n      swap1\n      div\n      and\n      dup5\n      jump\n    tag_26:\n      0x40\n      dup1\n      mload\n        /* \"#utility.yul\":4039:4043   */\n      0xff\n        /* \"#utility.yul\":4027:4044   */\n      swap6\n      dup7\n      and\n        /* \"#utility.yul\":4009:4045   */\n      dup2\n      mstore\n        /* \"#utility.yul\":4088:4102   */\n      swap4\n      iszero\n        /* \"#utility.yul\":4081:4103   */\n      iszero\n        /* \"#utility.yul\":4076:4078   */\n      0x20\n        /* \"#utility.yul\":4061:4079   */\n      dup6\n      add\n        /* \"#utility.yul\":4054:4104   */\n      mstore\n      sub(exp(0x02, 0xa0), 0x01)\n        /* \"#utility.yul\":4140:4195   */\n      swap1\n      swap3\n      and\n        /* \"#utility.yul\":4120:4138   */\n      swap2\n      dup4\n      add\n        /* \"#utility.yul\":4113:4196   */\n      swap2\n      swap1\n      swap2\n      mstore\n        /* \"#utility.yul\":4232:4249   */\n      swap2\n      swap1\n      swap2\n      and\n        /* \"#utility.yul\":4227:4229   */\n      0x60\n        /* \"#utility.yul\":4212:4230   */\n      dup3\n      add\n        /* \"#utility.yul\":4205:4250   */\n      mstore\n        /* \"#utility.yul\":3996:3999   */\n      0x80\n        /* \"#utility.yul\":3981:4000   */\n      add\n        /* \"custom/ballot.sol\":465:501  mapping(address=>Voter)public voters */\n      tag_13\n        /* \"#utility.yul\":3792:4256   */\n      jump\n        /* \"custom/ballot.sol\":2476:2814  function vote(uint8 proposal) external{\r... */\n    tag_8:\n      tag_19\n      tag_32\n      calldatasize\n      0x04\n      tag_33\n      jump\t// in\n    tag_32:\n      tag_34\n      jump\t// in\n        /* \"custom/ballot.sol\":536:563  Proposal[] public proposals */\n    tag_12:\n      0x02\n      dup2\n      dup2\n      sload\n      dup2\n      lt\n      tag_35\n      jumpi\n      0x00\n      dup1\n      revert\n    tag_35:\n      0x00\n      swap2\n      dup3\n      mstore\n      0x20\n      swap1\n      swap2\n      keccak256\n      0x02\n      swap1\n      swap2\n      mul\n      add\n      dup1\n      sload\n      0x01\n      swap1\n      swap2\n      add\n      sload\n      swap1\n      swap2\n      pop\n      dup3\n      jump\t// out\n        /* \"custom/ballot.sol\":1314:2454  function delegate(address to) external {\r... */\n    tag_22:\n        /* \"custom/ballot.sol\":1530:1540  msg.sender */\n      caller\n        /* \"custom/ballot.sol\":1500:1520  Voter storage sender */\n      0x00\n        /* \"custom/ballot.sol\":1523:1541  voters[msg.sender] */\n      swap1\n      dup2\n      mstore\n        /* \"custom/ballot.sol\":1523:1529  voters */\n      0x01\n        /* \"custom/ballot.sol\":1523:1541  voters[msg.sender] */\n      0x20\n      mstore\n      0x40\n      swap1\n      keccak256\n        /* \"custom/ballot.sol\":1560:1573  sender.weight */\n      dup1\n      sload\n      0xff\n      and\n        /* \"custom/ballot.sol\":1552:1608  require(sender.weight != 0,\"You have no right to vote.\") */\n      tag_38\n      jumpi\n      mload(0x40)\n      mul(0x461bcd, exp(0x02, 0xe5))\n      dup2\n      mstore\n        /* \"#utility.yul\":2927:2929   */\n      0x20\n        /* \"custom/ballot.sol\":1552:1608  require(sender.weight != 0,\"You have no right to vote.\") */\n      0x04\n      dup3\n      add\n        /* \"#utility.yul\":2909:2930   */\n      mstore\n        /* \"#utility.yul\":2966:2968   */\n      0x1a\n        /* \"#utility.yul\":2946:2964   */\n      0x24\n      dup3\n      add\n        /* \"#utility.yul\":2939:2969   */\n      mstore\n        /* \"#utility.yul\":3005:3033   */\n      0x596f752068617665206e6f20726967687420746f20766f74652e000000000000\n        /* \"#utility.yul\":2985:3003   */\n      0x44\n      dup3\n      add\n        /* \"#utility.yul\":2978:3034   */\n      mstore\n        /* \"#utility.yul\":3051:3069   */\n      0x64\n      add\n        /* \"custom/ballot.sol\":1552:1608  require(sender.weight != 0,\"You have no right to vote.\") */\n    tag_39:\n      mload(0x40)\n      dup1\n      swap2\n      sub\n      swap1\n      revert\n    tag_38:\n        /* \"custom/ballot.sol\":1628:1640  sender.voted */\n      dup1\n      sload\n      0x0100\n      swap1\n      div\n      0xff\n      and\n        /* \"custom/ballot.sol\":1627:1640  !sender.voted */\n      iszero\n        /* \"custom/ballot.sol\":1619:1662  require(!sender.voted,\"You already voted.\") */\n      tag_41\n      jumpi\n      mload(0x40)\n      mul(0x461bcd, exp(0x02, 0xe5))\n      dup2\n      mstore\n        /* \"#utility.yul\":2171:2173   */\n      0x20\n        /* \"custom/ballot.sol\":1619:1662  require(!sender.voted,\"You already voted.\") */\n      0x04\n      dup3\n      add\n        /* \"#utility.yul\":2153:2174   */\n      mstore\n        /* \"#utility.yul\":2210:2212   */\n      0x12\n        /* \"#utility.yul\":2190:2208   */\n      0x24\n      dup3\n      add\n        /* \"#utility.yul\":2183:2213   */\n      mstore\n        /* \"#utility.yul\":2249:2269   */\n      0x596f7520616c726561647920766f7465642e0000000000000000000000000000\n        /* \"#utility.yul\":2229:2247   */\n      0x44\n      dup3\n      add\n        /* \"#utility.yul\":2222:2270   */\n      mstore\n        /* \"#utility.yul\":2287:2305   */\n      0x64\n      add\n        /* \"custom/ballot.sol\":1619:1662  require(!sender.voted,\"You already voted.\") */\n      tag_39\n        /* \"#utility.yul\":1969:2311   */\n      jump\n        /* \"custom/ballot.sol\":1619:1662  require(!sender.voted,\"You already voted.\") */\n    tag_41:\n      sub(exp(0x02, 0xa0), 0x01)\n        /* \"custom/ballot.sol\":1681:1697  to != msg.sender */\n      dup3\n      and\n        /* \"custom/ballot.sol\":1687:1697  msg.sender */\n      caller\n        /* \"custom/ballot.sol\":1681:1697  to != msg.sender */\n      eq\n      iszero\n        /* \"custom/ballot.sol\":1673:1731  require(to != msg.sender,\"Self-delegation is disallowed.\") */\n      tag_44\n      jumpi\n      mload(0x40)\n      mul(0x461bcd, exp(0x02, 0xe5))\n      dup2\n      mstore\n        /* \"#utility.yul\":3635:3637   */\n      0x20\n        /* \"custom/ballot.sol\":1673:1731  require(to != msg.sender,\"Self-delegation is disallowed.\") */\n      0x04\n      dup3\n      add\n        /* \"#utility.yul\":3617:3638   */\n      mstore\n        /* \"#utility.yul\":3674:3676   */\n      0x1e\n        /* \"#utility.yul\":3654:3672   */\n      0x24\n      dup3\n      add\n        /* \"#utility.yul\":3647:3677   */\n      mstore\n        /* \"#utility.yul\":3713:3745   */\n      0x53656c662d64656c65676174696f6e20697320646973616c6c6f7765642e0000\n        /* \"#utility.yul\":3693:3711   */\n      0x44\n      dup3\n      add\n        /* \"#utility.yul\":3686:3746   */\n      mstore\n        /* \"#utility.yul\":3763:3781   */\n      0x64\n      add\n        /* \"custom/ballot.sol\":1673:1731  require(to != msg.sender,\"Self-delegation is disallowed.\") */\n      tag_39\n        /* \"#utility.yul\":3433:3787   */\n      jump\n        /* \"custom/ballot.sol\":1673:1731  require(to != msg.sender,\"Self-delegation is disallowed.\") */\n    tag_44:\n      sub(exp(0x02, 0xa0), 0x01)\n        /* \"custom/ballot.sol\":1798:1808  voters[to] */\n      dup3\n      dup2\n      and\n        /* \"custom/ballot.sol\":1829:1830  0 */\n      0x00\n        /* \"custom/ballot.sol\":1798:1808  voters[to] */\n      swap1\n      dup2\n      mstore\n        /* \"custom/ballot.sol\":1798:1804  voters */\n      0x01\n        /* \"custom/ballot.sol\":1798:1808  voters[to] */\n      0x20\n      mstore\n      0x40\n      swap1\n      keccak256\n        /* \"custom/ballot.sol\":1798:1817  voters[to].delegate */\n      sload\n      0x010000\n      swap1\n      div\n      and\n        /* \"custom/ballot.sol\":1798:1831  voters[to].delegate != address(0) */\n      iszero\n        /* \"custom/ballot.sol\":1792:1984  while(voters[to].delegate != address(0)){\r... */\n      tag_48\n      jumpi\n      sub(exp(0x02, 0xa0), 0x01)\n        /* \"custom/ballot.sol\":1852:1862  voters[to] */\n      swap2\n      dup3\n      and\n      0x00\n      swap1\n      dup2\n      mstore\n        /* \"custom/ballot.sol\":1852:1858  voters */\n      0x01\n        /* \"custom/ballot.sol\":1852:1862  voters[to] */\n      0x20\n      mstore\n      0x40\n      swap1\n      keccak256\n        /* \"custom/ballot.sol\":1852:1871  voters[to].delegate */\n      sload\n      0x010000\n      swap1\n      div\n      swap1\n      swap2\n      and\n      swap1\n        /* \"custom/ballot.sol\":1934:1944  msg.sender */\n      caller\n        /* \"custom/ballot.sol\":1928:1944  to != msg.sender */\n      dup3\n      eq\n      iszero\n        /* \"custom/ballot.sol\":1920:1972  require(to != msg.sender,\"Found loop in delegation\") */\n      tag_49\n      jumpi\n      mload(0x40)\n      mul(0x461bcd, exp(0x02, 0xe5))\n      dup2\n      mstore\n        /* \"#utility.yul\":3282:3284   */\n      0x20\n        /* \"custom/ballot.sol\":1920:1972  require(to != msg.sender,\"Found loop in delegation\") */\n      0x04\n      dup3\n      add\n        /* \"#utility.yul\":3264:3285   */\n      mstore\n        /* \"#utility.yul\":3321:3323   */\n      0x18\n        /* \"#utility.yul\":3301:3319   */\n      0x24\n      dup3\n      add\n        /* \"#utility.yul\":3294:3324   */\n      mstore\n        /* \"#utility.yul\":3360:3386   */\n      0x466f756e64206c6f6f7020696e2064656c65676174696f6e0000000000000000\n        /* \"#utility.yul\":3340:3358   */\n      0x44\n      dup3\n      add\n        /* \"#utility.yul\":3333:3387   */\n      mstore\n        /* \"#utility.yul\":3404:3422   */\n      0x64\n      add\n        /* \"custom/ballot.sol\":1920:1972  require(to != msg.sender,\"Found loop in delegation\") */\n      tag_39\n        /* \"#utility.yul\":3080:3428   */\n      jump\n        /* \"custom/ballot.sol\":1920:1972  require(to != msg.sender,\"Found loop in delegation\") */\n    tag_49:\n        /* \"custom/ballot.sol\":1792:1984  while(voters[to].delegate != address(0)){\r... */\n      jump(tag_44)\n    tag_48:\n      sub(exp(0x02, 0xa0), 0x01)\n        /* \"custom/ballot.sol\":2022:2032  voters[to] */\n      dup3\n      and\n        /* \"custom/ballot.sol\":1996:2019  Voter storage delegater */\n      0x00\n        /* \"custom/ballot.sol\":2022:2032  voters[to] */\n      swap1\n      dup2\n      mstore\n        /* \"custom/ballot.sol\":2022:2028  voters */\n      0x01\n        /* \"custom/ballot.sol\":2022:2032  voters[to] */\n      0x20\n      dup2\n      swap1\n      mstore\n      0x40\n      swap1\n      swap2\n      keccak256\n        /* \"custom/ballot.sol\":2051:2067  delegater.weight */\n      dup1\n      sload\n        /* \"custom/ballot.sol\":2022:2032  voters[to] */\n      swap1\n      swap2\n        /* \"custom/ballot.sol\":2051:2067  delegater.weight */\n      0xff\n      swap1\n      swap2\n      and\n        /* \"custom/ballot.sol\":2051:2072  delegater.weight >= 1 */\n      lt\n      iszero\n        /* \"custom/ballot.sol\":2043:2073  require(delegater.weight >= 1) */\n      tag_52\n      jumpi\n      0x00\n      dup1\n      revert\n    tag_52:\n        /* \"custom/ballot.sol\":2088:2107  sender.voted = true */\n      dup2\n      sload\n      sub(exp(0x02, 0xa0), 0x01)\n        /* \"custom/ballot.sol\":2118:2138  sender.delegate = to */\n      dup5\n      and\n      0x010000\n      mul\n      not(0xffffffffffffffffffffffffffffffffffffffffff00)\n      swap1\n      swap2\n      and\n      or\n        /* \"custom/ballot.sol\":2088:2107  sender.voted = true */\n      0x0100\n        /* \"custom/ballot.sol\":2118:2138  sender.delegate = to */\n      swap1\n      dup2\n      or\n      dup4\n      sstore\n        /* \"custom/ballot.sol\":2154:2169  delegater.voted */\n      dup2\n      sload\n      div\n        /* \"custom/ballot.sol\":2088:2107  sender.voted = true */\n      0xff\n        /* \"custom/ballot.sol\":2154:2169  delegater.voted */\n      and\n        /* \"custom/ballot.sol\":2151:2447  if(delegater.voted){\r... */\n      iszero\n      tag_53\n      jumpi\n        /* \"custom/ballot.sol\":2303:2316  sender.weight */\n      dup2\n      sload\n        /* \"custom/ballot.sol\":2274:2288  delegater.vote */\n      dup2\n      sload\n        /* \"custom/ballot.sol\":2264:2273  proposals */\n      0x02\n        /* \"custom/ballot.sol\":2264:2289  proposals[delegater.vote] */\n      dup1\n      sload\n        /* \"custom/ballot.sol\":2303:2316  sender.weight */\n      0xff\n      swap4\n      dup5\n      and\n      swap4\n        /* \"custom/ballot.sol\":2264:2273  proposals */\n      swap2\n      swap3\n        /* \"custom/ballot.sol\":2274:2288  delegater.vote */\n      0x0100000000000000000000000000000000000000000000\n      swap1\n      div\n      swap1\n      swap2\n      and\n      swap1\n        /* \"custom/ballot.sol\":2264:2289  proposals[delegater.vote] */\n      dup2\n      lt\n      tag_55\n      jumpi\n      tag_55\n      tag_56\n      jump\t// in\n    tag_55:\n      swap1\n      0x00\n      mstore\n      keccak256(0x00, 0x20)\n      swap1\n      0x02\n      mul\n      add\n        /* \"custom/ballot.sol\":2264:2299  proposals[delegater.vote].voteCount */\n      0x01\n      add\n      0x00\n        /* \"custom/ballot.sol\":2264:2316  proposals[delegater.vote].voteCount += sender.weight */\n      dup3\n      dup3\n      sload\n      tag_58\n      swap2\n      swap1\n      tag_59\n      jump\t// in\n    tag_58:\n      swap1\n      swap2\n      sstore\n      pop\n        /* \"custom/ballot.sol\":2151:2447  if(delegater.voted){\r... */\n      tag_60\n      swap1\n      pop\n      jump\n    tag_53:\n        /* \"custom/ballot.sol\":2422:2435  sender.weight */\n      dup2\n      sload\n        /* \"custom/ballot.sol\":2402:2435  delegater.weight += sender.weight */\n      dup2\n      sload\n        /* \"custom/ballot.sol\":2422:2435  sender.weight */\n      0xff\n      swap2\n      dup3\n      and\n      swap2\n        /* \"custom/ballot.sol\":2402:2411  delegater */\n      dup4\n      swap2\n        /* \"custom/ballot.sol\":2422:2435  sender.weight */\n      0x00\n      swap2\n        /* \"custom/ballot.sol\":2402:2435  delegater.weight += sender.weight */\n      tag_61\n      swap2\n        /* \"custom/ballot.sol\":2422:2435  sender.weight */\n      dup6\n      swap2\n        /* \"custom/ballot.sol\":2402:2435  delegater.weight += sender.weight */\n      and\n      tag_62\n      jump\t// in\n    tag_61:\n      swap3\n      pop\n      0x0100\n      exp\n      dup2\n      sload\n      dup2\n      0xff\n      mul\n      not\n      and\n      swap1\n      dup4\n      0xff\n      and\n      mul\n      or\n      swap1\n      sstore\n      pop\n        /* \"custom/ballot.sol\":2151:2447  if(delegater.voted){\r... */\n    tag_60:\n        /* \"custom/ballot.sol\":1353:2454  {\r... */\n      pop\n      pop\n        /* \"custom/ballot.sol\":1314:2454  function delegate(address to) external {\r... */\n      pop\n      jump\t// out\n        /* \"custom/ballot.sol\":994:1284  function giveRightToVote(address voter) external{\r... */\n    tag_25:\n        /* \"custom/ballot.sol\":1075:1086  chairperson */\n      and(sub(exp(0x02, 0xa0), 0x01), sload(0x00))\n        /* \"custom/ballot.sol\":1061:1071  msg.sender */\n      caller\n        /* \"custom/ballot.sol\":1061:1086  msg.sender == chairperson */\n      eq\n        /* \"custom/ballot.sol\":1053:1130  require(msg.sender == chairperson,\"Only chairperson can give right to vote.\") */\n      tag_64\n      jumpi\n      mload(0x40)\n      mul(0x461bcd, exp(0x02, 0xe5))\n      dup2\n      mstore\n        /* \"#utility.yul\":2518:2520   */\n      0x20\n        /* \"custom/ballot.sol\":1053:1130  require(msg.sender == chairperson,\"Only chairperson can give right to vote.\") */\n      0x04\n      dup3\n      add\n        /* \"#utility.yul\":2500:2521   */\n      mstore\n        /* \"#utility.yul\":2557:2559   */\n      0x28\n        /* \"#utility.yul\":2537:2555   */\n      0x24\n      dup3\n      add\n        /* \"#utility.yul\":2530:2560   */\n      mstore\n        /* \"#utility.yul\":2596:2630   */\n      0x4f6e6c79206368616972706572736f6e2063616e206769766520726967687420\n        /* \"#utility.yul\":2576:2594   */\n      0x44\n      dup3\n      add\n        /* \"#utility.yul\":2569:2631   */\n      mstore\n        /* \"#utility.yul\":2667:2677   */\n      0x746f20766f74652e000000000000000000000000000000000000000000000000\n        /* \"#utility.yul\":2647:2665   */\n      0x64\n      dup3\n      add\n        /* \"#utility.yul\":2640:2678   */\n      mstore\n        /* \"#utility.yul\":2695:2714   */\n      0x84\n      add\n        /* \"custom/ballot.sol\":1053:1130  require(msg.sender == chairperson,\"Only chairperson can give right to vote.\") */\n      tag_39\n        /* \"#utility.yul\":2316:2720   */\n      jump\n        /* \"custom/ballot.sol\":1053:1130  require(msg.sender == chairperson,\"Only chairperson can give right to vote.\") */\n    tag_64:\n      sub(exp(0x02, 0xa0), 0x01)\n        /* \"custom/ballot.sol\":1150:1163  voters[voter] */\n      dup2\n      and\n      0x00\n      swap1\n      dup2\n      mstore\n        /* \"custom/ballot.sol\":1150:1156  voters */\n      0x01\n        /* \"custom/ballot.sol\":1150:1163  voters[voter] */\n      0x20\n      mstore\n      0x40\n      swap1\n      keccak256\n        /* \"custom/ballot.sol\":1150:1169  voters[voter].voted */\n      sload\n      0x0100\n      swap1\n      div\n      0xff\n      and\n        /* \"custom/ballot.sol\":1149:1169  !voters[voter].voted */\n      iszero\n        /* \"custom/ballot.sol\":1141:1196  require(!voters[voter].voted,\"The voter already voted\") */\n      tag_67\n      jumpi\n      mload(0x40)\n      mul(0x461bcd, exp(0x02, 0xe5))\n      dup2\n      mstore\n        /* \"#utility.yul\":1473:1475   */\n      0x20\n        /* \"custom/ballot.sol\":1141:1196  require(!voters[voter].voted,\"The voter already voted\") */\n      0x04\n      dup3\n      add\n        /* \"#utility.yul\":1455:1476   */\n      mstore\n        /* \"#utility.yul\":1512:1514   */\n      0x17\n        /* \"#utility.yul\":1492:1510   */\n      0x24\n      dup3\n      add\n        /* \"#utility.yul\":1485:1515   */\n      mstore\n        /* \"#utility.yul\":1551:1576   */\n      0x54686520766f74657220616c726561647920766f746564000000000000000000\n        /* \"#utility.yul\":1531:1549   */\n      0x44\n      dup3\n      add\n        /* \"#utility.yul\":1524:1577   */\n      mstore\n        /* \"#utility.yul\":1594:1612   */\n      0x64\n      add\n        /* \"custom/ballot.sol\":1141:1196  require(!voters[voter].voted,\"The voter already voted\") */\n      tag_39\n        /* \"#utility.yul\":1271:1618   */\n      jump\n        /* \"custom/ballot.sol\":1141:1196  require(!voters[voter].voted,\"The voter already voted\") */\n    tag_67:\n      sub(exp(0x02, 0xa0), 0x01)\n        /* \"custom/ballot.sol\":1215:1228  voters[voter] */\n      dup2\n      and\n      0x00\n      swap1\n      dup2\n      mstore\n        /* \"custom/ballot.sol\":1215:1221  voters */\n      0x01\n        /* \"custom/ballot.sol\":1215:1228  voters[voter] */\n      0x20\n      mstore\n      0x40\n      swap1\n      keccak256\n        /* \"custom/ballot.sol\":1215:1235  voters[voter].weight */\n      sload\n      0xff\n      and\n        /* \"custom/ballot.sol\":1215:1240  voters[voter].weight == 0 */\n      iszero\n        /* \"custom/ballot.sol\":1207:1241  require(voters[voter].weight == 0) */\n      tag_70\n      jumpi\n      0x00\n      dup1\n      revert\n    tag_70:\n      sub(exp(0x02, 0xa0), 0x01)\n        /* \"custom/ballot.sol\":1252:1265  voters[voter] */\n      and\n      0x00\n      swap1\n      dup2\n      mstore\n        /* \"custom/ballot.sol\":1275:1276  1 */\n      0x01\n        /* \"custom/ballot.sol\":1252:1265  voters[voter] */\n      0x20\n      dup2\n      swap1\n      mstore\n      0x40\n      swap1\n      swap2\n      keccak256\n        /* \"custom/ballot.sol\":1252:1276  voters[voter].weight = 1 */\n      dup1\n      sload\n      not(0xff)\n      and\n      swap1\n      swap2\n      or\n      swap1\n      sstore\n        /* \"custom/ballot.sol\":994:1284  function giveRightToVote(address voter) external{\r... */\n      jump\t// out\n        /* \"custom/ballot.sol\":2476:2814  function vote(uint8 proposal) external{\r... */\n    tag_34:\n        /* \"custom/ballot.sol\":2555:2565  msg.sender */\n      caller\n        /* \"custom/ballot.sol\":2525:2545  Voter storage sender */\n      0x00\n        /* \"custom/ballot.sol\":2548:2566  voters[msg.sender] */\n      swap1\n      dup2\n      mstore\n        /* \"custom/ballot.sol\":2548:2554  voters */\n      0x01\n        /* \"custom/ballot.sol\":2548:2566  voters[msg.sender] */\n      0x20\n      mstore\n      0x40\n      swap1\n      keccak256\n        /* \"custom/ballot.sol\":2586:2598  sender.voted */\n      dup1\n      sload\n      0x0100\n      swap1\n      div\n      0xff\n      and\n        /* \"custom/ballot.sol\":2585:2598  !sender.voted */\n      iszero\n        /* \"custom/ballot.sol\":2577:2619  require(!sender.voted,\"You already voted\") */\n      tag_72\n      jumpi\n      mload(0x40)\n      mul(0x461bcd, exp(0x02, 0xe5))\n      dup2\n      mstore\n        /* \"#utility.yul\":1825:1827   */\n      0x20\n        /* \"custom/ballot.sol\":2577:2619  require(!sender.voted,\"You already voted\") */\n      0x04\n      dup3\n      add\n        /* \"#utility.yul\":1807:1828   */\n      mstore\n        /* \"#utility.yul\":1864:1866   */\n      0x11\n        /* \"#utility.yul\":1844:1862   */\n      0x24\n      dup3\n      add\n        /* \"#utility.yul\":1837:1867   */\n      mstore\n        /* \"#utility.yul\":1903:1922   */\n      0x596f7520616c726561647920766f746564000000000000000000000000000000\n        /* \"#utility.yul\":1883:1901   */\n      0x44\n      dup3\n      add\n        /* \"#utility.yul\":1876:1923   */\n      mstore\n        /* \"#utility.yul\":1940:1958   */\n      0x64\n      add\n        /* \"custom/ballot.sol\":2577:2619  require(!sender.voted,\"You already voted\") */\n      tag_39\n        /* \"#utility.yul\":1623:1964   */\n      jump\n        /* \"custom/ballot.sol\":2577:2619  require(!sender.voted,\"You already voted\") */\n    tag_72:\n        /* \"custom/ballot.sol\":2638:2651  sender.weight */\n      dup1\n      sload\n      0xff\n      and\n        /* \"custom/ballot.sol\":2630:2686  require(sender.weight != 0,\"You have no right to vote.\") */\n      tag_75\n      jumpi\n      mload(0x40)\n      mul(0x461bcd, exp(0x02, 0xe5))\n      dup2\n      mstore\n        /* \"#utility.yul\":2927:2929   */\n      0x20\n        /* \"custom/ballot.sol\":2630:2686  require(sender.weight != 0,\"You have no right to vote.\") */\n      0x04\n      dup3\n      add\n        /* \"#utility.yul\":2909:2930   */\n      mstore\n        /* \"#utility.yul\":2966:2968   */\n      0x1a\n        /* \"#utility.yul\":2946:2964   */\n      0x24\n      dup3\n      add\n        /* \"#utility.yul\":2939:2969   */\n      mstore\n        /* \"#utility.yul\":3005:3033   */\n      0x596f752068617665206e6f20726967687420746f20766f74652e000000000000\n        /* \"#utility.yul\":2985:3003   */\n      0x44\n      dup3\n      add\n        /* \"#utility.yul\":2978:3034   */\n      mstore\n        /* \"#utility.yul\":3051:3069   */\n      0x64\n      add\n        /* \"custom/ballot.sol\":2630:2686  require(sender.weight != 0,\"You have no right to vote.\") */\n      tag_39\n        /* \"#utility.yul\":2725:3075   */\n      jump\n        /* \"custom/ballot.sol\":2630:2686  require(sender.weight != 0,\"You have no right to vote.\") */\n    tag_75:\n        /* \"custom/ballot.sol\":2697:2716  sender.voted = true */\n      dup1\n      sload\n      0xff\n        /* \"custom/ballot.sol\":2727:2749  sender.vote = proposal */\n      dup4\n      dup2\n      and\n      0x0100000000000000000000000000000000000000000000\n      dup2\n      mul\n      not(0xff0000000000000000000000000000000000000000ff00)\n      swap1\n      swap4\n      and\n      swap3\n      swap1\n      swap3\n      or\n        /* \"custom/ballot.sol\":2697:2716  sender.voted = true */\n      0x0100\n        /* \"custom/ballot.sol\":2727:2749  sender.vote = proposal */\n      or\n      dup1\n      dup5\n      sstore\n        /* \"custom/ballot.sol\":2760:2769  proposals */\n      0x02\n        /* \"custom/ballot.sol\":2760:2779  proposals[proposal] */\n      dup1\n      sload\n        /* \"custom/ballot.sol\":2793:2806  sender.weight */\n      swap2\n      swap1\n      swap3\n      and\n      swap3\n        /* \"custom/ballot.sol\":2727:2749  sender.vote = proposal */\n      swap1\n        /* \"custom/ballot.sol\":2760:2779  proposals[proposal] */\n      dup2\n      lt\n      tag_78\n      jumpi\n      tag_78\n      tag_56\n      jump\t// in\n    tag_78:\n      swap1\n      0x00\n      mstore\n      keccak256(0x00, 0x20)\n      swap1\n      0x02\n      mul\n      add\n        /* \"custom/ballot.sol\":2760:2789  proposals[proposal].voteCount */\n      0x01\n      add\n      0x00\n        /* \"custom/ballot.sol\":2760:2806  proposals[proposal].voteCount += sender.weight */\n      dup3\n      dup3\n      sload\n      tag_80\n      swap2\n      swap1\n      tag_59\n      jump\t// in\n    tag_80:\n      swap1\n      swap2\n      sstore\n      pop\n      pop\n      pop\n      pop\n        /* \"custom/ballot.sol\":2476:2814  function vote(uint8 proposal) external{\r... */\n      jump\t// out\n        /* \"#utility.yul\":14:323   */\n    tag_21:\n        /* \"#utility.yul\":73:79   */\n      0x00\n        /* \"#utility.yul\":126:128   */\n      0x20\n        /* \"#utility.yul\":114:123   */\n      dup3\n        /* \"#utility.yul\":105:112   */\n      dup5\n        /* \"#utility.yul\":101:124   */\n      sub\n        /* \"#utility.yul\":97:129   */\n      slt\n        /* \"#utility.yul\":94:146   */\n      iszero\n      tag_83\n      jumpi\n        /* \"#utility.yul\":142:143   */\n      0x00\n        /* \"#utility.yul\":139:140   */\n      dup1\n        /* \"#utility.yul\":132:144   */\n      revert\n        /* \"#utility.yul\":94:146   */\n    tag_83:\n        /* \"#utility.yul\":181:190   */\n      dup2\n        /* \"#utility.yul\":168:191   */\n      calldataload\n      sub(exp(0x02, 0xa0), 0x01)\n        /* \"#utility.yul\":224:229   */\n      dup2\n        /* \"#utility.yul\":220:274   */\n      and\n        /* \"#utility.yul\":213:218   */\n      dup2\n        /* \"#utility.yul\":210:275   */\n      eq\n        /* \"#utility.yul\":200:293   */\n      tag_84\n      jumpi\n        /* \"#utility.yul\":289:290   */\n      0x00\n        /* \"#utility.yul\":286:287   */\n      dup1\n        /* \"#utility.yul\":279:291   */\n      revert\n        /* \"#utility.yul\":200:293   */\n    tag_84:\n        /* \"#utility.yul\":312:317   */\n      swap4\n        /* \"#utility.yul\":14:323   */\n      swap3\n      pop\n      pop\n      pop\n      jump\t// out\n        /* \"#utility.yul\":328:508   */\n    tag_11:\n        /* \"#utility.yul\":387:393   */\n      0x00\n        /* \"#utility.yul\":440:442   */\n      0x20\n        /* \"#utility.yul\":428:437   */\n      dup3\n        /* \"#utility.yul\":419:426   */\n      dup5\n        /* \"#utility.yul\":415:438   */\n      sub\n        /* \"#utility.yul\":411:443   */\n      slt\n        /* \"#utility.yul\":408:460   */\n      iszero\n      tag_86\n      jumpi\n        /* \"#utility.yul\":456:457   */\n      0x00\n        /* \"#utility.yul\":453:454   */\n      dup1\n        /* \"#utility.yul\":446:458   */\n      revert\n        /* \"#utility.yul\":408:460   */\n    tag_86:\n      pop\n        /* \"#utility.yul\":479:502   */\n      calldataload\n      swap2\n        /* \"#utility.yul\":328:508   */\n      swap1\n      pop\n      jump\t// out\n        /* \"#utility.yul\":513:782   */\n    tag_33:\n        /* \"#utility.yul\":570:576   */\n      0x00\n        /* \"#utility.yul\":623:625   */\n      0x20\n        /* \"#utility.yul\":611:620   */\n      dup3\n        /* \"#utility.yul\":602:609   */\n      dup5\n        /* \"#utility.yul\":598:621   */\n      sub\n        /* \"#utility.yul\":594:626   */\n      slt\n        /* \"#utility.yul\":591:643   */\n      iszero\n      tag_88\n      jumpi\n        /* \"#utility.yul\":639:640   */\n      0x00\n        /* \"#utility.yul\":636:637   */\n      dup1\n        /* \"#utility.yul\":629:641   */\n      revert\n        /* \"#utility.yul\":591:643   */\n    tag_88:\n        /* \"#utility.yul\":678:687   */\n      dup2\n        /* \"#utility.yul\":665:688   */\n      calldataload\n        /* \"#utility.yul\":728:732   */\n      0xff\n        /* \"#utility.yul\":721:726   */\n      dup2\n        /* \"#utility.yul\":717:733   */\n      and\n        /* \"#utility.yul\":710:715   */\n      dup2\n        /* \"#utility.yul\":707:734   */\n      eq\n        /* \"#utility.yul\":697:752   */\n      tag_84\n      jumpi\n        /* \"#utility.yul\":748:749   */\n      0x00\n        /* \"#utility.yul\":745:746   */\n      dup1\n        /* \"#utility.yul\":738:750   */\n      revert\n        /* \"#utility.yul\":4261:4389   */\n    tag_59:\n        /* \"#utility.yul\":4301:4304   */\n      0x00\n        /* \"#utility.yul\":4332:4333   */\n      dup3\n        /* \"#utility.yul\":4328:4334   */\n      not\n        /* \"#utility.yul\":4325:4326   */\n      dup3\n        /* \"#utility.yul\":4322:4335   */\n      gt\n        /* \"#utility.yul\":4319:4358   */\n      iszero\n      tag_102\n      jumpi\n        /* \"#utility.yul\":4338:4356   */\n      tag_102\n      tag_103\n      jump\t// in\n    tag_102:\n      pop\n        /* \"#utility.yul\":4374:4383   */\n      add\n      swap1\n        /* \"#utility.yul\":4261:4389   */\n      jump\t// out\n        /* \"#utility.yul\":4394:4598   */\n    tag_62:\n        /* \"#utility.yul\":4432:4435   */\n      0x00\n        /* \"#utility.yul\":4468:4472   */\n      0xff\n        /* \"#utility.yul\":4465:4466   */\n      dup3\n        /* \"#utility.yul\":4461:4473   */\n      and\n        /* \"#utility.yul\":4500:4504   */\n      0xff\n        /* \"#utility.yul\":4497:4498   */\n      dup5\n        /* \"#utility.yul\":4493:4505   */\n      and\n        /* \"#utility.yul\":4535:4538   */\n      dup1\n        /* \"#utility.yul\":4529:4533   */\n      0xff\n        /* \"#utility.yul\":4525:4539   */\n      sub\n        /* \"#utility.yul\":4520:4523   */\n      dup3\n        /* \"#utility.yul\":4517:4540   */\n      gt\n        /* \"#utility.yul\":4514:4563   */\n      iszero\n      tag_106\n      jumpi\n        /* \"#utility.yul\":4543:4561   */\n      tag_106\n      tag_103\n      jump\t// in\n    tag_106:\n        /* \"#utility.yul\":4579:4592   */\n      add\n      swap4\n        /* \"#utility.yul\":4394:4598   */\n      swap3\n      pop\n      pop\n      pop\n      jump\t// out\n        /* \"#utility.yul\":4603:4787   */\n    tag_103:\n        /* \"#utility.yul\":4655:4732   */\n      0x4e487b7100000000000000000000000000000000000000000000000000000000\n        /* \"#utility.yul\":4652:4653   */\n      0x00\n        /* \"#utility.yul\":4645:4733   */\n      mstore\n        /* \"#utility.yul\":4752:4756   */\n      0x11\n        /* \"#utility.yul\":4749:4750   */\n      0x04\n        /* \"#utility.yul\":4742:4757   */\n      mstore\n        /* \"#utility.yul\":4776:4780   */\n      0x24\n        /* \"#utility.yul\":4773:4774   */\n      0x00\n        /* \"#utility.yul\":4766:4781   */\n      revert\n        /* \"#utility.yul\":4792:4976   */\n    tag_56:\n        /* \"#utility.yul\":4844:4921   */\n      0x4e487b7100000000000000000000000000000000000000000000000000000000\n        /* \"#utility.yul\":4841:4842   */\n      0x00\n        /* \"#utility.yul\":4834:4922   */\n      mstore\n        /* \"#utility.yul\":4941:4945   */\n      0x32\n        /* \"#utility.yul\":4938:4939   */\n      0x04\n        /* \"#utility.yul\":4931:4946   */\n      mstore\n        /* \"#utility.yul\":4965:4969   */\n      0x24\n        /* \"#utility.yul\":4962:4963   */\n      0x00\n        /* \"#utility.yul\":4955:4970   */\n      revert\n\n    auxdata: 0xa26469706673582212207f967abf5e321c96fe5bd25eeaff13c7224d05a083b6afde27a6ca94722fe45964736f6c63430008070033\n}\n",
				"bytecode": {
					"linkReferences": {},
					"object": "608060405234801561001057600080fd5b50604051610aaf380380610aaf83398101604081905261002f916100d6565b60008054600160a060020a03191633908117825581526001602081905260408220805460ff191690911790555b81518110156100cf5760026040518060400160405280848481518110610084576100846101dc565b602090810291909101810151825260009181018290528354600181810186559483529181902083516002909302019182559190910151910155806100c78161019a565b91505061005c565b505061023a565b600060208083850312156100e957600080fd5b825167ffffffffffffffff8082111561010157600080fd5b818501915085601f83011261011557600080fd5b8151818111156101275761012761020b565b838102604051601f19603f8301168101818110858211171561014b5761014b61020b565b604052828152858101935084860182860187018a101561016a57600080fd5b600095505b8386101561018d57805185526001959095019493860193860161016f565b5098975050505050505050565b60006000198214156101d5577f4e487b7100000000000000000000000000000000000000000000000000000000600052601160045260246000fd5b5060010190565b7f4e487b7100000000000000000000000000000000000000000000000000000000600052603260045260246000fd5b7f4e487b7100000000000000000000000000000000000000000000000000000000600052604160045260246000fd5b610866806102496000396000f3fe608060405234801561001057600080fd5b506004361061007e577c01000000000000000000000000000000000000000000000000000000006000350463013cf08b81146100835780632e4176cf146100b05780635c19a95c146100db5780639e7b8d61146100f0578063a3ec138d14610103578063b3f98adc14610192575b600080fd5b610096610091366004610759565b6101a5565b604080519283526020830191909152015b60405180910390f35b6000546100c390600160a060020a031681565b604051600160a060020a0390911681526020016100a7565b6100ee6100e9366004610729565b6101d3565b005b6100ee6100fe366004610729565b6104a2565b61015c610111366004610729565b60016020526000908152604090205460ff808216916101008104821691600160a060020a03620100008304169176010000000000000000000000000000000000000000000090041684565b6040805160ff95861681529315156020850152600160a060020a03909216918301919091529190911660608201526080016100a7565b6100ee6101a0366004610772565b6105e3565b600281815481106101b557600080fd5b60009182526020909120600290910201805460019091015490915082565b336000908152600160205260409020805460ff1661023b5760405160e560020a62461bcd02815260206004820152601a60248201527f596f752068617665206e6f20726967687420746f20766f74652e00000000000060448201526064015b60405180910390fd5b8054610100900460ff16156102955760405160e560020a62461bcd02815260206004820152601260248201527f596f7520616c726561647920766f7465642e00000000000000000000000000006044820152606401610232565b600160a060020a0382163314156102f15760405160e560020a62461bcd02815260206004820152601e60248201527f53656c662d64656c65676174696f6e20697320646973616c6c6f7765642e00006044820152606401610232565b600160a060020a03828116600090815260016020526040902054620100009004161561039357600160a060020a03918216600090815260016020526040902054620100009004909116903382141561038e5760405160e560020a62461bcd02815260206004820152601860248201527f466f756e64206c6f6f7020696e2064656c65676174696f6e00000000000000006044820152606401610232565b6102f1565b600160a060020a03821660009081526001602081905260409091208054909160ff90911610156103c257600080fd5b8154600160a060020a038416620100000275ffffffffffffffffffffffffffffffffffffffffff001990911617610100908117835581540460ff161561046957815481546002805460ff938416939192760100000000000000000000000000000000000000000000900490911690811061043e5761043e610801565b9060005260206000209060020201600101600082825461045e9190610795565b9091555061049d9050565b8154815460ff918216918391600091610484918591166107ad565b92506101000a81548160ff021916908360ff1602179055505b505050565b600054600160a060020a031633146105255760405160e560020a62461bcd02815260206004820152602860248201527f4f6e6c79206368616972706572736f6e2063616e20676976652072696768742060448201527f746f20766f74652e0000000000000000000000000000000000000000000000006064820152608401610232565b600160a060020a038116600090815260016020526040902054610100900460ff16156105965760405160e560020a62461bcd02815260206004820152601760248201527f54686520766f74657220616c726561647920766f7465640000000000000000006044820152606401610232565b600160a060020a03811660009081526001602052604090205460ff16156105bc57600080fd5b600160a060020a03166000908152600160208190526040909120805460ff19169091179055565b3360009081526001602052604090208054610100900460ff161561064c5760405160e560020a62461bcd02815260206004820152601160248201527f596f7520616c726561647920766f7465640000000000000000000000000000006044820152606401610232565b805460ff166106a05760405160e560020a62461bcd02815260206004820152601a60248201527f596f752068617665206e6f20726967687420746f20766f74652e0000000000006044820152606401610232565b805460ff838116760100000000000000000000000000000000000000000000810276ff0000000000000000000000000000000000000000ff0019909316929092176101001780845560028054919092169290811061070057610700610801565b906000526020600020906002020160010160008282546107209190610795565b90915550505050565b60006020828403121561073b57600080fd5b8135600160a060020a038116811461075257600080fd5b9392505050565b60006020828403121561076b57600080fd5b5035919050565b60006020828403121561078457600080fd5b813560ff8116811461075257600080fd5b600082198211156107a8576107a86107d2565b500190565b600060ff821660ff84168060ff038211156107ca576107ca6107d2565b019392505050565b7f4e487b7100000000000000000000000000000000000000000000000000000000600052601160045260246000fd5b7f4e487b7100000000000000000000000000000000000000000000000000000000600052603260045260246000fdfea26469706673582212207f967abf5e321c96fe5bd25eeaff13c7224d05a083b6afde27a6ca94722fe45964736f6c63430008070033",
					"opcodes": "PUSH1 0x80 PUSH1 0x40 MSTORE CALLVALUE DUP1 ISZERO PUSH2 0x10 JUMPI PUSH1 0x0 DUP1 REVERT JUMPDEST POP PUSH1 0x40 MLOAD PUSH2 0xAAF CODESIZE SUB DUP1 PUSH2 0xAAF DUP4 CODECOPY DUP2 ADD PUSH1 0x40 DUP2 SWAP1 MSTORE PUSH2 0x2F SWAP2 PUSH2 0xD6 JUMP JUMPDEST PUSH1 0x0 DUP1 SLOAD PUSH1 0x1 PUSH1 0xA0 PUSH1 0x2 EXP SUB NOT AND CALLER SWAP1 DUP2 OR DUP3 SSTORE DUP2 MSTORE PUSH1 0x1 PUSH1 0x20 DUP2 SWAP1 MSTORE PUSH1 0x40 DUP3 KECCAK256 DUP1 SLOAD PUSH1 0xFF NOT AND SWAP1 SWAP2 OR SWAP1 SSTORE JUMPDEST DUP2 MLOAD DUP2 LT ISZERO PUSH2 0xCF JUMPI PUSH1 0x2 PUSH1 0x40 MLOAD DUP1 PUSH1 0x40 ADD PUSH1 0x40 MSTORE DUP1 DUP5 DUP5 DUP2 MLOAD DUP2 LT PUSH2 0x84 JUMPI PUSH2 0x84 PUSH2 0x1DC JUMP JUMPDEST PUSH1 0x20 SWAP1 DUP2 MUL SWAP2 SWAP1 SWAP2 ADD DUP2 ADD MLOAD DUP3 MSTORE PUSH1 0x0 SWAP2 DUP2 ADD DUP3 SWAP1 MSTORE DUP4 SLOAD PUSH1 0x1 DUP2 DUP2 ADD DUP7 SSTORE SWAP5 DUP4 MSTORE SWAP2 DUP2 SWAP1 KECCAK256 DUP4 MLOAD PUSH1 0x2 SWAP1 SWAP4 MUL ADD SWAP2 DUP3 SSTORE SWAP2 SWAP1 SWAP2 ADD MLOAD SWAP2 ADD SSTORE DUP1 PUSH2 0xC7 DUP2 PUSH2 0x19A JUMP JUMPDEST SWAP2 POP POP PUSH2 0x5C JUMP JUMPDEST POP POP PUSH2 0x23A JUMP JUMPDEST PUSH1 0x0 PUSH1 0x20 DUP1 DUP4 DUP6 SUB SLT ISZERO PUSH2 0xE9 JUMPI PUSH1 0x0 DUP1 REVERT JUMPDEST DUP3 MLOAD PUSH8 0xFFFFFFFFFFFFFFFF DUP1 DUP3 GT ISZERO PUSH2 0x101 JUMPI PUSH1 0x0 DUP1 REVERT JUMPDEST DUP2 DUP6 ADD SWAP2 POP DUP6 PUSH1 0x1F DUP4 ADD SLT PUSH2 0x115 JUMPI PUSH1 0x0 DUP1 REVERT JUMPDEST DUP2 MLOAD DUP2 DUP2 GT ISZERO PUSH2 0x127 JUMPI PUSH2 0x127 PUSH2 0x20B JUMP JUMPDEST DUP4 DUP2 MUL PUSH1 0x40 MLOAD PUSH1 0x1F NOT PUSH1 0x3F DUP4 ADD AND DUP2 ADD DUP2 DUP2 LT DUP6 DUP3 GT OR ISZERO PUSH2 0x14B JUMPI PUSH2 0x14B PUSH2 0x20B JUMP JUMPDEST PUSH1 0x40 MSTORE DUP3 DUP2 MSTORE DUP6 DUP2 ADD SWAP4 POP DUP5 DUP7 ADD DUP3 DUP7 ADD DUP8 ADD DUP11 LT ISZERO PUSH2 0x16A JUMPI PUSH1 0x0 DUP1 REVERT JUMPDEST PUSH1 0x0 SWAP6 POP JUMPDEST DUP4 DUP7 LT ISZERO PUSH2 0x18D JUMPI DUP1 MLOAD DUP6 MSTORE PUSH1 0x1 SWAP6 SWAP1 SWAP6 ADD SWAP5 SWAP4 DUP7 ADD SWAP4 DUP7 ADD PUSH2 0x16F JUMP JUMPDEST POP SWAP9 SWAP8 POP POP POP POP POP POP POP POP JUMP JUMPDEST PUSH1 0x0 PUSH1 0x0 NOT DUP3 EQ ISZERO PUSH2 0x1D5 JUMPI PUSH32 0x4E487B7100000000000000000000000000000000000000000000000000000000 PUSH1 0x0 MSTORE PUSH1 0x11 PUSH1 0x4 MSTORE PUSH1 0x24 PUSH1 0x0 REVERT JUMPDEST POP PUSH1 0x1 ADD SWAP1 JUMP JUMPDEST PUSH32 0x4E487B7100000000000000000000000000000000000000000000000000000000 PUSH1 0x0 MSTORE PUSH1 0x32 PUSH1 0x4 MSTORE PUSH1 0x24 PUSH1 0x0 REVERT JUMPDEST PUSH32 0x4E487B7100000000000000000000000000000000000000000000000000000000 PUSH1 0x0 MSTORE PUSH1 0x41 PUSH1 0x4 MSTORE PUSH1 0x24 PUSH1 0x0 REVERT JUMPDEST PUSH2 0x866 DUP1 PUSH2 0x249 PUSH1 0x0 CODECOPY PUSH1 0x0 RETURN INVALID PUSH1 0x80 PUSH1 0x40 MSTORE CALLVALUE DUP1 ISZERO PUSH2 0x10 JUMPI PUSH1 0x0 DUP1 REVERT JUMPDEST POP PUSH1 0x4 CALLDATASIZE LT PUSH2 0x7E JUMPI PUSH29 0x100000000000000000000000000000000000000000000000000000000 PUSH1 0x0 CALLDATALOAD DIV PUSH4 0x13CF08B DUP2 EQ PUSH2 0x83 JUMPI DUP1 PUSH4 0x2E4176CF EQ PUSH2 0xB0 JUMPI DUP1 PUSH4 0x5C19A95C EQ PUSH2 0xDB JUMPI DUP1 PUSH4 0x9E7B8D61 EQ PUSH2 0xF0 JUMPI DUP1 PUSH4 0xA3EC138D EQ PUSH2 0x103 JUMPI DUP1 PUSH4 0xB3F98ADC EQ PUSH2 0x192 JUMPI JUMPDEST PUSH1 0x0 DUP1 REVERT JUMPDEST PUSH2 0x96 PUSH2 0x91 CALLDATASIZE PUSH1 0x4 PUSH2 0x759 JUMP JUMPDEST PUSH2 0x1A5 JUMP JUMPDEST PUSH1 0x40 DUP1 MLOAD SWAP3 DUP4 MSTORE PUSH1 0x20 DUP4 ADD SWAP2 SWAP1 SWAP2 MSTORE ADD JUMPDEST PUSH1 0x40 MLOAD DUP1 SWAP2 SUB SWAP1 RETURN JUMPDEST PUSH1 0x0 SLOAD PUSH2 0xC3 SWAP1 PUSH1 0x1 PUSH1 0xA0 PUSH1 0x2 EXP SUB AND DUP2 JUMP JUMPDEST PUSH1 0x40 MLOAD PUSH1 0x1 PUSH1 0xA0 PUSH1 0x2 EXP SUB SWAP1 SWAP2 AND DUP2 MSTORE PUSH1 0x20 ADD PUSH2 0xA7 JUMP JUMPDEST PUSH2 0xEE PUSH2 0xE9 CALLDATASIZE PUSH1 0x4 PUSH2 0x729 JUMP JUMPDEST PUSH2 0x1D3 JUMP JUMPDEST STOP JUMPDEST PUSH2 0xEE PUSH2 0xFE CALLDATASIZE PUSH1 0x4 PUSH2 0x729 JUMP JUMPDEST PUSH2 0x4A2 JUMP JUMPDEST PUSH2 0x15C PUSH2 0x111 CALLDATASIZE PUSH1 0x4 PUSH2 0x729 JUMP JUMPDEST PUSH1 0x1 PUSH1 0x20 MSTORE PUSH1 0x0 SWAP1 DUP2 MSTORE PUSH1 0x40 SWAP1 KECCAK256 SLOAD PUSH1 0xFF DUP1 DUP3 AND SWAP2 PUSH2 0x100 DUP2 DIV DUP3 AND SWAP2 PUSH1 0x1 PUSH1 0xA0 PUSH1 0x2 EXP SUB PUSH3 0x10000 DUP4 DIV AND SWAP2 PUSH23 0x100000000000000000000000000000000000000000000 SWAP1 DIV AND DUP5 JUMP JUMPDEST PUSH1 0x40 DUP1 MLOAD PUSH1 0xFF SWAP6 DUP7 AND DUP2 MSTORE SWAP4 ISZERO ISZERO PUSH1 0x20 DUP6 ADD MSTORE PUSH1 0x1 PUSH1 0xA0 PUSH1 0x2 EXP SUB SWAP1 SWAP3 AND SWAP2 DUP4 ADD SWAP2 SWAP1 SWAP2 MSTORE SWAP2 SWAP1 SWAP2 AND PUSH1 0x60 DUP3 ADD MSTORE PUSH1 0x80 ADD PUSH2 0xA7 JUMP JUMPDEST PUSH2 0xEE PUSH2 0x1A0 CALLDATASIZE PUSH1 0x4 PUSH2 0x772 JUMP JUMPDEST PUSH2 0x5E3 JUMP JUMPDEST PUSH1 0x2 DUP2 DUP2 SLOAD DUP2 LT PUSH2 0x1B5 JUMPI PUSH1 0x0 DUP1 REVERT JUMPDEST PUSH1 0x0 SWAP2 DUP3 MSTORE PUSH1 0x20 SWAP1 SWAP2 KECCAK256 PUSH1 0x2 SWAP1 SWAP2 MUL ADD DUP1 SLOAD PUSH1 0x1 SWAP1 SWAP2 ADD SLOAD SWAP1 SWAP2 POP DUP3 JUMP JUMPDEST CALLER PUSH1 0x0 SWAP1 DUP2 MSTORE PUSH1 0x1 PUSH1 0x20 MSTORE PUSH1 0x40 SWAP1 KECCAK256 DUP1 SLOAD PUSH1 0xFF AND PUSH2 0x23B JUMPI PUSH1 0x40 MLOAD PUSH1 0xE5 PUSH1 0x2 EXP PUSH3 0x461BCD MUL DUP2 MSTORE PUSH1 0x20 PUSH1 0x4 DUP3 ADD MSTORE PUSH1 0x1A PUSH1 0x24 DUP3 ADD MSTORE PUSH32 0x596F752068617665206E6F20726967687420746F20766F74652E000000000000 PUSH1 0x44 DUP3 ADD MSTORE PUSH1 0x64 ADD JUMPDEST PUSH1 0x40 MLOAD DUP1 SWAP2 SUB SWAP1 REVERT JUMPDEST DUP1 SLOAD PUSH2 0x100 SWAP1 DIV PUSH1 0xFF AND ISZERO PUSH2 0x295 JUMPI PUSH1 0x40 MLOAD PUSH1 0xE5 PUSH1 0x2 EXP PUSH3 0x461BCD MUL DUP2 MSTORE PUSH1 0x20 PUSH1 0x4 DUP3 ADD MSTORE PUSH1 0x12 PUSH1 0x24 DUP3 ADD MSTORE PUSH32 0x596F7520616C726561647920766F7465642E0000000000000000000000000000 PUSH1 0x44 DUP3 ADD MSTORE PUSH1 0x64 ADD PUSH2 0x232 JUMP JUMPDEST PUSH1 0x1 PUSH1 0xA0 PUSH1 0x2 EXP SUB DUP3 AND CALLER EQ ISZERO PUSH2 0x2F1 JUMPI PUSH1 0x40 MLOAD PUSH1 0xE5 PUSH1 0x2 EXP PUSH3 0x461BCD MUL DUP2 MSTORE PUSH1 0x20 PUSH1 0x4 DUP3 ADD MSTORE PUSH1 0x1E PUSH1 0x24 DUP3 ADD MSTORE PUSH32 0x53656C662D64656C65676174696F6E20697320646973616C6C6F7765642E0000 PUSH1 0x44 DUP3 ADD MSTORE PUSH1 0x64 ADD PUSH2 0x232 JUMP JUMPDEST PUSH1 0x1 PUSH1 0xA0 PUSH1 0x2 EXP SUB DUP3 DUP2 AND PUSH1 0x0 SWAP1 DUP2 MSTORE PUSH1 0x1 PUSH1 0x20 MSTORE PUSH1 0x40 SWAP1 KECCAK256 SLOAD PUSH3 0x10000 SWAP1 DIV AND ISZERO PUSH2 0x393 JUMPI PUSH1 0x1 PUSH1 0xA0 PUSH1 0x2 EXP SUB SWAP2 DUP3 AND PUSH1 0x0 SWAP1 DUP2 MSTORE PUSH1 0x1 PUSH1 0x20 MSTORE PUSH1 0x40 SWAP1 KECCAK256 SLOAD PUSH3 0x10000 SWAP1 DIV SWAP1 SWAP2 AND SWAP1 CALLER DUP3 EQ ISZERO PUSH2 0x38E JUMPI PUSH1 0x40 MLOAD PUSH1 0xE5 PUSH1 0x2 EXP PUSH3 0x461BCD MUL DUP2 MSTORE PUSH1 0x20 PUSH1 0x4 DUP3 ADD MSTORE PUSH1 0x18 PUSH1 0x24 DUP3 ADD MSTORE PUSH32 0x466F756E64206C6F6F7020696E2064656C65676174696F6E0000000000000000 PUSH1 0x44 DUP3 ADD MSTORE PUSH1 0x64 ADD PUSH2 0x232 JUMP JUMPDEST PUSH2 0x2F1 JUMP JUMPDEST PUSH1 0x1 PUSH1 0xA0 PUSH1 0x2 EXP SUB DUP3 AND PUSH1 0x0 SWAP1 DUP2 MSTORE PUSH1 0x1 PUSH1 0x20 DUP2 SWAP1 MSTORE PUSH1 0x40 SWAP1 SWAP2 KECCAK256 DUP1 SLOAD SWAP1 SWAP2 PUSH1 0xFF SWAP1 SWAP2 AND LT ISZERO PUSH2 0x3C2 JUMPI PUSH1 0x0 DUP1 REVERT JUMPDEST DUP2 SLOAD PUSH1 0x1 PUSH1 0xA0 PUSH1 0x2 EXP SUB DUP5 AND PUSH3 0x10000 MUL PUSH22 0xFFFFFFFFFFFFFFFFFFFFFFFFFFFFFFFFFFFFFFFFFF00 NOT SWAP1 SWAP2 AND OR PUSH2 0x100 SWAP1 DUP2 OR DUP4 SSTORE DUP2 SLOAD DIV PUSH1 0xFF AND ISZERO PUSH2 0x469 JUMPI DUP2 SLOAD DUP2 SLOAD PUSH1 0x2 DUP1 SLOAD PUSH1 0xFF SWAP4 DUP5 AND SWAP4 SWAP2 SWAP3 PUSH23 0x100000000000000000000000000000000000000000000 SWAP1 DIV SWAP1 SWAP2 AND SWAP1 DUP2 LT PUSH2 0x43E JUMPI PUSH2 0x43E PUSH2 0x801 JUMP JUMPDEST SWAP1 PUSH1 0x0 MSTORE PUSH1 0x20 PUSH1 0x0 KECCAK256 SWAP1 PUSH1 0x2 MUL ADD PUSH1 0x1 ADD PUSH1 0x0 DUP3 DUP3 SLOAD PUSH2 0x45E SWAP2 SWAP1 PUSH2 0x795 JUMP JUMPDEST SWAP1 SWAP2 SSTORE POP PUSH2 0x49D SWAP1 POP JUMP JUMPDEST DUP2 SLOAD DUP2 SLOAD PUSH1 0xFF SWAP2 DUP3 AND SWAP2 DUP4 SWAP2 PUSH1 0x0 SWAP2 PUSH2 0x484 SWAP2 DUP6 SWAP2 AND PUSH2 0x7AD JUMP JUMPDEST SWAP3 POP PUSH2 0x100 EXP DUP2 SLOAD DUP2 PUSH1 0xFF MUL NOT AND SWAP1 DUP4 PUSH1 0xFF AND MUL OR SWAP1 SSTORE POP JUMPDEST POP POP POP JUMP JUMPDEST PUSH1 0x0 SLOAD PUSH1 0x1 PUSH1 0xA0 PUSH1 0x2 EXP SUB AND CALLER EQ PUSH2 0x525 JUMPI PUSH1 0x40 MLOAD PUSH1 0xE5 PUSH1 0x2 EXP PUSH3 0x461BCD MUL DUP2 MSTORE PUSH1 0x20 PUSH1 0x4 DUP3 ADD MSTORE PUSH1 0x28 PUSH1 0x24 DUP3 ADD MSTORE PUSH32 0x4F6E6C79206368616972706572736F6E2063616E206769766520726967687420 PUSH1 0x44 DUP3 ADD MSTORE PUSH32 0x746F20766F74652E000000000000000000000000000000000000000000000000 PUSH1 0x64 DUP3 ADD MSTORE PUSH1 0x84 ADD PUSH2 0x232 JUMP JUMPDEST PUSH1 0x1 PUSH1 0xA0 PUSH1 0x2 EXP SUB DUP2 AND PUSH1 0x0 SWAP1 DUP2 MSTORE PUSH1 0x1 PUSH1 0x20 MSTORE PUSH1 0x40 SWAP1 KECCAK256 SLOAD PUSH2 0x100 SWAP1 DIV PUSH1 0xFF AND ISZERO PUSH2 0x596 JUMPI PUSH1 0x40 MLOAD PUSH1 0xE5 PUSH1 0x2 EXP PUSH3 0x461BCD MUL DUP2 MSTORE PUSH1 0x20 PUSH1 0x4 DUP3 ADD MSTORE PUSH1 0x17 PUSH1 0x24 DUP3 ADD MSTORE PUSH32 0x54686520766F74657220616C726561647920766F746564000000000000000000 PUSH1 0x44 DUP3 ADD MSTORE PUSH1 0x64 ADD PUSH2 0x232 JUMP JUMPDEST PUSH1 0x1 PUSH1 0xA0 PUSH1 0x2 EXP SUB DUP2 AND PUSH1 0x0 SWAP1 DUP2 MSTORE PUSH1 0x1 PUSH1 0x20 MSTORE PUSH1 0x40 SWAP1 KECCAK256 SLOAD PUSH1 0xFF AND ISZERO PUSH2 0x5BC JUMPI PUSH1 0x0 DUP1 REVERT JUMPDEST PUSH1 0x1 PUSH1 0xA0 PUSH1 0x2 EXP SUB AND PUSH1 0x0 SWAP1 DUP2 MSTORE PUSH1 0x1 PUSH1 0x20 DUP2 SWAP1 MSTORE PUSH1 0x40 SWAP1 SWAP2 KECCAK256 DUP1 SLOAD PUSH1 0xFF NOT AND SWAP1 SWAP2 OR SWAP1 SSTORE JUMP JUMPDEST CALLER PUSH1 0x0 SWAP1 DUP2 MSTORE PUSH1 0x1 PUSH1 0x20 MSTORE PUSH1 0x40 SWAP1 KECCAK256 DUP1 SLOAD PUSH2 0x100 SWAP1 DIV PUSH1 0xFF AND ISZERO PUSH2 0x64C JUMPI PUSH1 0x40 MLOAD PUSH1 0xE5 PUSH1 0x2 EXP PUSH3 0x461BCD MUL DUP2 MSTORE PUSH1 0x20 PUSH1 0x4 DUP3 ADD MSTORE PUSH1 0x11 PUSH1 0x24 DUP3 ADD MSTORE PUSH32 0x596F7520616C726561647920766F746564000000000000000000000000000000 PUSH1 0x44 DUP3 ADD MSTORE PUSH1 0x64 ADD PUSH2 0x232 JUMP JUMPDEST DUP1 SLOAD PUSH1 0xFF AND PUSH2 0x6A0 JUMPI PUSH1 0x40 MLOAD PUSH1 0xE5 PUSH1 0x2 EXP PUSH3 0x461BCD MUL DUP2 MSTORE PUSH1 0x20 PUSH1 0x4 DUP3 ADD MSTORE PUSH1 0x1A PUSH1 0x24 DUP3 ADD MSTORE PUSH32 0x596F752068617665206E6F20726967687420746F20766F74652E000000000000 PUSH1 0x44 DUP3 ADD MSTORE PUSH1 0x64 ADD PUSH2 0x232 JUMP JUMPDEST DUP1 SLOAD PUSH1 0xFF DUP4 DUP2 AND PUSH23 0x100000000000000000000000000000000000000000000 DUP2 MUL PUSH23 0xFF0000000000000000000000000000000000000000FF00 NOT SWAP1 SWAP4 AND SWAP3 SWAP1 SWAP3 OR PUSH2 0x100 OR DUP1 DUP5 SSTORE PUSH1 0x2 DUP1 SLOAD SWAP2 SWAP1 SWAP3 AND SWAP3 SWAP1 DUP2 LT PUSH2 0x700 JUMPI PUSH2 0x700 PUSH2 0x801 JUMP JUMPDEST SWAP1 PUSH1 0x0 MSTORE PUSH1 0x20 PUSH1 0x0 KECCAK256 SWAP1 PUSH1 0x2 MUL ADD PUSH1 0x1 ADD PUSH1 0x0 DUP3 DUP3 SLOAD PUSH2 0x720 SWAP2 SWAP1 PUSH2 0x795 JUMP JUMPDEST SWAP1 SWAP2 SSTORE POP POP POP POP JUMP JUMPDEST PUSH1 0x0 PUSH1 0x20 DUP3 DUP5 SUB SLT ISZERO PUSH2 0x73B JUMPI PUSH1 0x0 DUP1 REVERT JUMPDEST DUP2 CALLDATALOAD PUSH1 0x1 PUSH1 0xA0 PUSH1 0x2 EXP SUB DUP2 AND DUP2 EQ PUSH2 0x752 JUMPI PUSH1 0x0 DUP1 REVERT JUMPDEST SWAP4 SWAP3 POP POP POP JUMP JUMPDEST PUSH1 0x0 PUSH1 0x20 DUP3 DUP5 SUB SLT ISZERO PUSH2 0x76B JUMPI PUSH1 0x0 DUP1 REVERT JUMPDEST POP CALLDATALOAD SWAP2 SWAP1 POP JUMP JUMPDEST PUSH1 0x0 PUSH1 0x20 DUP3 DUP5 SUB SLT ISZERO PUSH2 0x784 JUMPI PUSH1 0x0 DUP1 REVERT JUMPDEST DUP2 CALLDATALOAD PUSH1 0xFF DUP2 AND DUP2 EQ PUSH2 0x752 JUMPI PUSH1 0x0 DUP1 REVERT JUMPDEST PUSH1 0x0 DUP3 NOT DUP3 GT ISZERO PUSH2 0x7A8 JUMPI PUSH2 0x7A8 PUSH2 0x7D2 JUMP JUMPDEST POP ADD SWAP1 JUMP JUMPDEST PUSH1 0x0 PUSH1 0xFF DUP3 AND PUSH1 0xFF DUP5 AND DUP1 PUSH1 0xFF SUB DUP3 GT ISZERO PUSH2 0x7CA JUMPI PUSH2 0x7CA PUSH2 0x7D2 JUMP JUMPDEST ADD SWAP4 SWAP3 POP POP POP JUMP JUMPDEST PUSH32 0x4E487B7100000000000000000000000000000000000000000000000000000000 PUSH1 0x0 MSTORE PUSH1 0x11 PUSH1 0x4 MSTORE PUSH1 0x24 PUSH1 0x0 REVERT JUMPDEST PUSH32 0x4E487B7100000000000000000000000000000000000000000000000000000000 PUSH1 0x0 MSTORE PUSH1 0x32 PUSH1 0x4 MSTORE PUSH1 0x24 PUSH1 0x0 REVERT INVALID LOG2 PUSH5 0x6970667358 0x22 SLT KECCAK256 PUSH32 0x967ABF5E321C96FE5BD25EEAFF13C7224D05A083B6AFDE27A6CA94722FE45964 PUSH20 0x6F6C634300080700330000000000000000000000 "
				},
				"gasEstimates": {
					"creation": {
						"codeDepositCost": "430000",
						"executionCost": "infinite",
						"totalCost": "infinite"
					},
					"external": {
						"chairperson()": "553",
						"delegate(address)": "infinite",
						"giveRightToVote(address)": "21795",
						"proposals(uint256)": "1000",
						"vote(uint8)": "41749",
						"voters(address)": "1015"
					}
				},
				"methodIdentifiers": {
					"chairperson()": "2e4176cf",
					"delegate(address)": "5c19a95c",
					"giveRightToVote(address)": "9e7b8d61",
					"proposals(uint256)": "013cf08b",
					"vote(uint8)": "b3f98adc",
					"voters(address)": "a3ec138d"
				}
			},
			"storageLayout": {
				"storage": [
					{
						"astId": 17,
						"contract": "custom/ballot.sol:Ballot",
						"label": "chairperson",
						"offset": 0,
						"slot": "0",
						"type": "t_address"
					},
					{
						"astId": 22,
						"contract": "custom/ballot.sol:Ballot",
						"label": "voters",
						"offset": 0,
						"slot": "1",
						"type": "t_mapping(t_address,t_struct(Voter)10_storage)"
					},
					{
						"astId": 26,
						"contract": "custom/ballot.sol:Ballot",
						"label": "proposals",
						"offset": 0,
						"slot": "2",
						"type": "t_array(t_struct(Proposal)15_storage)dyn_storage"
					}
				],
				"types": {
					"t_address": {
						"encoding": "inplace",
						"label": "address",
						"numberOfBytes": "20"
					},
					"t_array(t_struct(Proposal)15_storage)dyn_storage": {
						"base": "t_struct(Proposal)15_storage",
						"encoding": "dynamic_array",
						"label": "struct Ballot.Proposal[]",
						"numberOfBytes": "32"
					},
					"t_bool": {
						"encoding": "inplace",
						"label": "bool",
						"numberOfBytes": "1"
					},
					"t_bytes32": {
						"encoding": "inplace",
						"label": "bytes32",
						"numberOfBytes": "32"
					},
					"t_mapping(t_address,t_struct(Voter)10_storage)": {
						"encoding": "mapping",
						"key": "t_address",
						"label": "mapping(address => struct Ballot.Voter)",
						"numberOfBytes": "32",
						"value": "t_struct(Voter)10_storage"
					},
					"t_struct(Proposal)15_storage": {
						"encoding": "inplace",
						"label": "struct Ballot.Proposal",
						"members": [
							{
								"astId": 12,
								"contract": "custom/ballot.sol:Ballot",
								"label": "name",
								"offset": 0,
								"slot": "0",
								"type": "t_bytes32"
							},
							{
								"astId": 14,
								"contract": "custom/ballot.sol:Ballot",
								"label": "voteCount",
								"offset": 0,
								"slot": "1",
								"type": "t_uint256"
							}
						],
						"numberOfBytes": "64"
					},
					"t_struct(Voter)10_storage": {
						"encoding": "inplace",
						"label": "struct Ballot.Voter",
						"members": [
							{
								"astId": 3,
								"contract": "custom/ballot.sol:Ballot",
								"label": "weight",
								"offset": 0,
								"slot": "0",
								"type": "t_uint8"
							},
							{
								"astId": 5,
								"contract": "custom/ballot.sol:Ballot",
								"label": "voted",
								"offset": 1,
								"slot": "0",
								"type": "t_bool"
							},
							{
								"astId": 7,
								"contract": "custom/ballot.sol:Ballot",
								"label": "delegate",
								"offset": 2,
								"slot": "0",
								"type": "t_address"
							},
							{
								"astId": 9,
								"contract": "custom/ballot.sol:Ballot",
								"label": "vote",
								"offset": 22,
								"slot": "0",
								"type": "t_uint8"
							}
						],
						"numberOfBytes": "32"
					},
					"t_uint256": {
						"encoding": "inplace",
						"label": "uint256",
						"numberOfBytes": "32"
					},
					"t_uint8": {
						"encoding": "inplace",
						"label": "uint8",
						"numberOfBytes": "1"
					}
				}
			},
			"userdoc": {
				"kind": "user",
				"methods": {},
				"version": 1
			}
		}
	}
}