{
  "_format": "hh-sol-artifact-1",
  "contractName": "Vote",
  "sourceName": "contracts/example/vote.sol",
  "abi": [
    {
      "inputs": [
        {
          "internalType": "uint256",
          "name": "_endTime",
          "type": "uint256"
        }
      ],
      "stateMutability": "nonpayable",
      "type": "constructor"
    },
    {
      "anonymous": false,
      "inputs": [
        {
          "indexed": true,
          "internalType": "address",
          "name": "voter",
          "type": "address"
        },
        {
          "indexed": false,
          "internalType": "uint8",
          "name": "proposal",
          "type": "uint8"
        }
      ],
      "name": "Voted",
      "type": "event"
    },
    {
      "inputs": [],
      "name": "endTime",
      "outputs": [
        {
          "internalType": "uint256",
          "name": "",
          "type": "uint256"
        }
      ],
      "stateMutability": "view",
      "type": "function"
    },
    {
      "inputs": [],
      "name": "proposalA",
      "outputs": [
        {
          "internalType": "uint256",
          "name": "",
          "type": "uint256"
        }
      ],
      "stateMutability": "view",
      "type": "function"
    },
    {
      "inputs": [],
      "name": "proposalB",
      "outputs": [
        {
          "internalType": "uint256",
          "name": "",
          "type": "uint256"
        }
      ],
      "stateMutability": "view",
      "type": "function"
    },
    {
      "inputs": [],
      "name": "proposalC",
      "outputs": [
        {
          "internalType": "uint256",
          "name": "",
          "type": "uint256"
        }
      ],
      "stateMutability": "view",
      "type": "function"
    },
    {
      "inputs": [
        {
          "internalType": "uint8",
          "name": "_proposal",
          "type": "uint8"
        }
      ],
      "name": "vote",
      "outputs": [],
      "stateMutability": "nonpayable",
      "type": "function"
    },
    {
      "inputs": [
        {
          "internalType": "address",
          "name": "",
          "type": "address"
        }
      ],
      "name": "voted",
      "outputs": [
        {
          "internalType": "bool",
          "name": "",
          "type": "bool"
        }
      ],
      "stateMutability": "view",
      "type": "function"
    },
    {
      "inputs": [],
      "name": "votes",
      "outputs": [
        {
          "internalType": "uint256",
          "name": "",
          "type": "uint256"
        }
      ],
      "stateMutability": "view",
      "type": "function"
    }
  ],
  "bytecode": "0x608060405234801561001057600080fd5b506040516108a13803806108a183398181016040528101906100329190610054565b80600181905550506100a7565b60008151905061004e81610090565b92915050565b60006020828403121561006a5761006961008b565b5b60006100788482850161003f565b91505092915050565b6000819050919050565b600080fd5b61009981610081565b81146100a457600080fd5b50565b6107eb806100b66000396000f3fe608060405234801561001057600080fd5b506004361061007d5760003560e01c8063aec2ccae1161005b578063aec2ccae146100dc578063b3f98adc1461010c578063e168c3ec14610128578063fc79c9d1146101465761007d565b80633197cbb6146100825780636bd4c024146100a05780639a59dd93146100be575b600080fd5b61008a610164565b604051610097919061059d565b60405180910390f35b6100a861016a565b6040516100b5919061059d565b60405180910390f35b6100c6610170565b6040516100d3919061059d565b60405180910390f35b6100f660048036038101906100f19190610432565b610176565b6040516101039190610522565b60405180910390f35b6101266004803603810190610121919061045f565b610196565b005b6101306103de565b60405161013d919061059d565b60405180910390f35b61014e610402565b60405161015b919061059d565b60405180910390f35b60015481565b60045481565b60025481565b60006020528060005260406000206000915054906101000a900460ff1681565b60015442106101da576040517f08c379a00000000000000000000000000000000000000000000000000000000081526004016101d19061057d565b60405180910390fd5b60018160ff16101580156101f2575060038160ff1611155b610231576040517f08c379a00000000000000000000000000000000000000000000000000000000081526004016102289061053d565b60405180910390fd5b6000803373ffffffffffffffffffffffffffffffffffffffff1673ffffffffffffffffffffffffffffffffffffffff16815260200190815260200160002060009054906101000a900460ff16156102bd576040517f08c379a00000000000000000000000000000000000000000000000000000000081526004016102b49061055d565b60405180910390fd5b60016000803373ffffffffffffffffffffffffffffffffffffffff1673ffffffffffffffffffffffffffffffffffffffff16815260200190815260200160002060006101000a81548160ff02191690831515021790555060018160ff16141561033d57600260008154809291906103339061068f565b919050555061038d565b60028160ff161415610366576003600081548092919061035c9061068f565b919050555061038c565b60038160ff16141561038b57600460008154809291906103859061068f565b91905055505b5b5b3373ffffffffffffffffffffffffffffffffffffffff167f14075e33dffdc00c1fcaf75d0f86d667170be57fb566b12b41b499e5fa53b125826040516103d391906105b8565b60405180910390a250565b60006004546003546002546103f391906105e4565b6103fd91906105e4565b905090565b60035481565b60008135905061041781610787565b92915050565b60008135905061042c8161079e565b92915050565b60006020828403121561044857610447610707565b5b600061045684828501610408565b91505092915050565b60006020828403121561047557610474610707565b5b60006104838482850161041d565b91505092915050565b6104958161064c565b82525050565b60006104a86011836105d3565b91506104b38261070c565b602082019050919050565b60006104cb6012836105d3565b91506104d682610735565b602082019050919050565b60006104ee600d836105d3565b91506104f98261075e565b602082019050919050565b61050d81610678565b82525050565b61051c81610682565b82525050565b6000602082019050610537600083018461048c565b92915050565b600060208201905081810360008301526105568161049b565b9050919050565b60006020820190508181036000830152610576816104be565b9050919050565b60006020820190508181036000830152610596816104e1565b9050919050565b60006020820190506105b26000830184610504565b92915050565b60006020820190506105cd6000830184610513565b92915050565b600082825260208201905092915050565b60006105ef82610678565b91506105fa83610678565b9250827fffffffffffffffffffffffffffffffffffffffffffffffffffffffffffffffff0382111561062f5761062e6106d8565b5b828201905092915050565b600061064582610658565b9050919050565b60008115159050919050565b600073ffffffffffffffffffffffffffffffffffffffff82169050919050565b6000819050919050565b600060ff82169050919050565b600061069a82610678565b91507fffffffffffffffffffffffffffffffffffffffffffffffffffffffffffffffff8214156106cd576106cc6106d8565b5b600182019050919050565b7f4e487b7100000000000000000000000000000000000000000000000000000000600052601160045260246000fd5b600080fd5b7f496e76616c69642070726f706f73616c2e000000000000000000000000000000600082015250565b7f43616e6e6f7420766f746520616761696e2e0000000000000000000000000000600082015250565b7f566f746520657870697265642e00000000000000000000000000000000000000600082015250565b6107908161063a565b811461079b57600080fd5b50565b6107a781610682565b81146107b257600080fd5b5056fea26469706673582212202c079d9aa608f98dd7ca2ee91275f30eb7cdb8886b827a10729c367cf188856164736f6c63430008070033",
  "linkReferences": {},
  "deployedLinkReferences": {}
}