{
  "_format": "hh-sol-artifact-1",
  "contractName": "Ballot",
  "sourceName": "contracts/custom/ballot.sol",
  "abi": [
    {
      "inputs": [
        {
          "internalType": "string[]",
          "name": "proposalNames",
          "type": "string[]"
        }
      ],
      "stateMutability": "nonpayable",
      "type": "constructor"
    },
    {
      "inputs": [],
      "name": "chairperson",
      "outputs": [
        {
          "internalType": "address",
          "name": "",
          "type": "address"
        }
      ],
      "stateMutability": "view",
      "type": "function"
    },
    {
      "inputs": [
        {
          "internalType": "address",
          "name": "to",
          "type": "address"
        }
      ],
      "name": "delegate",
      "outputs": [],
      "stateMutability": "nonpayable",
      "type": "function"
    },
    {
      "inputs": [
        {
          "internalType": "address",
          "name": "voter",
          "type": "address"
        }
      ],
      "name": "giveRightToVote",
      "outputs": [],
      "stateMutability": "nonpayable",
      "type": "function"
    },
    {
      "inputs": [
        {
          "internalType": "uint256",
          "name": "",
          "type": "uint256"
        }
      ],
      "name": "proposals",
      "outputs": [
        {
          "internalType": "string",
          "name": "name",
          "type": "string"
        },
        {
          "internalType": "uint256",
          "name": "voteCount",
          "type": "uint256"
        }
      ],
      "stateMutability": "view",
      "type": "function"
    },
    {
      "inputs": [
        {
          "internalType": "uint8",
          "name": "proposal",
          "type": "uint8"
        }
      ],
      "name": "vote",
      "outputs": [],
      "stateMutability": "nonpayable",
      "type": "function"
    },
    {
      "inputs": [
        {
          "internalType": "address",
          "name": "",
          "type": "address"
        }
      ],
      "name": "voters",
      "outputs": [
        {
          "internalType": "uint8",
          "name": "weight",
          "type": "uint8"
        },
        {
          "internalType": "bool",
          "name": "voted",
          "type": "bool"
        },
        {
          "internalType": "address",
          "name": "delegate",
          "type": "address"
        },
        {
          "internalType": "uint8",
          "name": "vote",
          "type": "uint8"
        }
      ],
      "stateMutability": "view",
      "type": "function"
    },
    {
      "inputs": [],
      "name": "winningProposal",
      "outputs": [
        {
          "internalType": "string[]",
          "name": "",
          "type": "string[]"
        }
      ],
      "stateMutability": "view",
      "type": "function"
    },
    {
      "inputs": [],
      "name": "winningProposalCount",
      "outputs": [
        {
          "internalType": "uint256",
          "name": "count_",
          "type": "uint256"
        }
      ],
      "stateMutability": "view",
      "type": "function"
    }
  ],
  "bytecode": "0x60806040523480156200001157600080fd5b5060405162001f5338038062001f538339818101604052810190620000379190620003a4565b336000806101000a81548173ffffffffffffffffffffffffffffffffffffffff021916908373ffffffffffffffffffffffffffffffffffffffff16021790555060018060008060009054906101000a900473ffffffffffffffffffffffffffffffffffffffff1673ffffffffffffffffffffffffffffffffffffffff1673ffffffffffffffffffffffffffffffffffffffff16815260200190815260200160002060000160006101000a81548160ff021916908360ff16021790555060005b81518110156200019f5760026040518060400160405280848481518110620001235762000122620005db565b5b602002602001015181526020016000815250908060018154018082558091505060019003906000526020600020906002020160009091909190915060008201518160000190805190602001906200017c929190620001a7565b50602082015181600101555050808062000196906200052f565b915050620000f6565b505062000663565b828054620001b590620004c3565b90600052602060002090601f016020900481019282620001d9576000855562000225565b82601f10620001f457805160ff191683800117855562000225565b8280016001018555821562000225579182015b828111156200022457825182559160200191906001019062000207565b5b50905062000234919062000238565b5090565b5b808211156200025357600081600090555060010162000239565b5090565b60006200026e62000268846200041e565b620003f5565b905080838252602082019050828560208602820111156200029457620002936200063e565b5b60005b85811015620002e957815167ffffffffffffffff811115620002be57620002bd62000639565b5b808601620002cd898262000371565b8552602085019450602084019350505060018101905062000297565b5050509392505050565b60006200030a62000304846200044d565b620003f5565b90508281526020810184848401111562000329576200032862000643565b5b620003368482856200048d565b509392505050565b600082601f83011262000356576200035562000639565b5b81516200036884826020860162000257565b91505092915050565b600082601f83011262000389576200038862000639565b5b81516200039b848260208601620002f3565b91505092915050565b600060208284031215620003bd57620003bc6200064d565b5b600082015167ffffffffffffffff811115620003de57620003dd62000648565b5b620003ec848285016200033e565b91505092915050565b60006200040162000414565b90506200040f8282620004f9565b919050565b6000604051905090565b600067ffffffffffffffff8211156200043c576200043b6200060a565b5b602082029050602081019050919050565b600067ffffffffffffffff8211156200046b576200046a6200060a565b5b620004768262000652565b9050602081019050919050565b6000819050919050565b60005b83811015620004ad57808201518184015260208101905062000490565b83811115620004bd576000848401525b50505050565b60006002820490506001821680620004dc57607f821691505b60208210811415620004f357620004f2620005ac565b5b50919050565b620005048262000652565b810181811067ffffffffffffffff821117156200052657620005256200060a565b5b80604052505050565b60006200053c8262000483565b91507fffffffffffffffffffffffffffffffffffffffffffffffffffffffffffffffff8214156200057257620005716200057d565b5b600182019050919050565b7f4e487b7100000000000000000000000000000000000000000000000000000000600052601160045260246000fd5b7f4e487b7100000000000000000000000000000000000000000000000000000000600052602260045260246000fd5b7f4e487b7100000000000000000000000000000000000000000000000000000000600052603260045260246000fd5b7f4e487b7100000000000000000000000000000000000000000000000000000000600052604160045260246000fd5b600080fd5b600080fd5b600080fd5b600080fd5b600080fd5b6000601f19601f8301169050919050565b6118e080620006736000396000f3fe608060405234801561001057600080fd5b50600436106100885760003560e01c806365e735f11161005b57806365e735f1146101165780639e7b8d6114610134578063a3ec138d14610150578063b3f98adc1461018357610088565b8063013cf08b1461008d5780632e4176cf146100be5780635c19a95c146100dc578063609ff1bd146100f8575b600080fd5b6100a760048036038101906100a29190610fbd565b61019f565b6040516100b5929190611280565b60405180910390f35b6100c661025b565b6040516100d39190611243565b60405180910390f35b6100f660048036038101906100f19190610f90565b61027f565b005b6101006106df565b60405161010d919061125e565b60405180910390f35b61011e610970565b60405161012b9190611390565b60405180910390f35b61014e60048036038101906101499190610f90565b610a1d565b005b61016a60048036038101906101659190610f90565b610bf8565b60405161017a94939291906113e9565b60405180910390f35b61019d60048036038101906101989190610fea565b610c6f565b005b600281815481106101af57600080fd5b90600052602060002090600202016000915090508060000180546101d2906115a9565b80601f01602080910402602001604051908101604052809291908181526020018280546101fe906115a9565b801561024b5780601f106102205761010080835404028352916020019161024b565b820191906000526020600020905b81548152906001019060200180831161022e57829003601f168201915b5050505050908060010154905082565b60008054906101000a900473ffffffffffffffffffffffffffffffffffffffff1681565b6000600160003373ffffffffffffffffffffffffffffffffffffffff1673ffffffffffffffffffffffffffffffffffffffff168152602001908152602001600020905060008160000160009054906101000a900460ff1660ff16141561031a576040517f08c379a000000000000000000000000000000000000000000000000000000000815260040161031190611330565b60405180910390fd5b8060000160019054906101000a900460ff161561036c576040517f08c379a0000000000000000000000000000000000000000000000000000000008152600401610363906112f0565b60405180910390fd5b3373ffffffffffffffffffffffffffffffffffffffff168273ffffffffffffffffffffffffffffffffffffffff1614156103db576040517f08c379a00000000000000000000000000000000000000000000000000000000081526004016103d290611370565b60405180910390fd5b5b600073ffffffffffffffffffffffffffffffffffffffff16600160008473ffffffffffffffffffffffffffffffffffffffff1673ffffffffffffffffffffffffffffffffffffffff16815260200190815260200160002060000160029054906101000a900473ffffffffffffffffffffffffffffffffffffffff1673ffffffffffffffffffffffffffffffffffffffff161461054b57600160008373ffffffffffffffffffffffffffffffffffffffff1673ffffffffffffffffffffffffffffffffffffffff16815260200190815260200160002060000160029054906101000a900473ffffffffffffffffffffffffffffffffffffffff1691503373ffffffffffffffffffffffffffffffffffffffff168273ffffffffffffffffffffffffffffffffffffffff161415610546576040517f08c379a000000000000000000000000000000000000000000000000000000000815260040161053d90611350565b60405180910390fd5b6103dc565b6000600160008473ffffffffffffffffffffffffffffffffffffffff1673ffffffffffffffffffffffffffffffffffffffff168152602001908152602001600020905060018160000160009054906101000a900460ff1660ff1610156105b057600080fd5b60018260000160016101000a81548160ff021916908315150217905550828260000160026101000a81548173ffffffffffffffffffffffffffffffffffffffff021916908373ffffffffffffffffffffffffffffffffffffffff1602179055508060000160019054906101000a900460ff1615610690578160000160009054906101000a900460ff1660ff1660028260000160169054906101000a900460ff1660ff1681548110610664576106636116ac565b5b906000526020600020906002020160010160008282546106849190611494565b925050819055506106da565b8160000160009054906101000a900460ff168160000160008282829054906101000a900460ff166106c191906114ea565b92506101000a81548160ff021916908360ff1602179055505b505050565b6060600060028054905067ffffffffffffffff811115610702576107016116db565b5b60405190808252806020026020018201604052801561073557816020015b60608152602001906001900390816107205790505b50905060008060005b6002805490508110156107b45781600282815481106107605761075f6116ac565b5b90600052602060002090600202016001015411156107a1576002818154811061078c5761078b6116ac565b5b90600052602060002090600202016001015491505b80806107ac906115db565b91505061073e565b5060005b60028054905081101561096657600281815481106107d9576107d86116ac565b5b9060005260206000209060020201600101548214156109535761083384516040518060400160405280600381526020017f2d2d2d000000000000000000000000000000000000000000000000000000000081525083610ded565b6108756040518060400160405280600381526020017f2d2d2d00000000000000000000000000000000000000000000000000000000008152508460ff16610e8c565b60028181548110610889576108886116ac565b5b906000526020600020906002020160000180546108a5906115a9565b80601f01602080910402602001604051908101604052809291908181526020018280546108d1906115a9565b801561091e5780601f106108f35761010080835404028352916020019161091e565b820191906000526020600020905b81548152906001019060200180831161090157829003601f168201915b5050505050848460ff1681518110610939576109386116ac565b5b6020026020010181905250828061094f90611624565b9350505b808061095e906115db565b9150506107b8565b5082935050505090565b6000806000905060005b600280549050811015610a1857816002828154811061099c5761099b6116ac565b5b9060005260206000209060020201600101541115610a0557600281815481106109c8576109c76116ac565b5b9060005260206000209060020201600101549150600281815481106109f0576109ef6116ac565b5b90600052602060002090600202016001015492505b8080610a10906115db565b91505061097a565b505090565b60008054906101000a900473ffffffffffffffffffffffffffffffffffffffff1673ffffffffffffffffffffffffffffffffffffffff163373ffffffffffffffffffffffffffffffffffffffff1614610aab576040517f08c379a0000000000000000000000000000000000000000000000000000000008152600401610aa290611310565b60405180910390fd5b600160008273ffffffffffffffffffffffffffffffffffffffff1673ffffffffffffffffffffffffffffffffffffffff16815260200190815260200160002060000160019054906101000a900460ff1615610b3b576040517f08c379a0000000000000000000000000000000000000000000000000000000008152600401610b32906112b0565b60405180910390fd5b6000600160008373ffffffffffffffffffffffffffffffffffffffff1673ffffffffffffffffffffffffffffffffffffffff16815260200190815260200160002060000160009054906101000a900460ff1660ff1614610b9a57600080fd5b60018060008373ffffffffffffffffffffffffffffffffffffffff1673ffffffffffffffffffffffffffffffffffffffff16815260200190815260200160002060000160006101000a81548160ff021916908360ff16021790555050565b60016020528060005260406000206000915090508060000160009054906101000a900460ff16908060000160019054906101000a900460ff16908060000160029054906101000a900473ffffffffffffffffffffffffffffffffffffffff16908060000160169054906101000a900460ff16905084565b6000600160003373ffffffffffffffffffffffffffffffffffffffff1673ffffffffffffffffffffffffffffffffffffffff16815260200190815260200160002090508060000160019054906101000a900460ff1615610d04576040517f08c379a0000000000000000000000000000000000000000000000000000000008152600401610cfb906112d0565b60405180910390fd5b60008160000160009054906101000a900460ff1660ff161415610d5c576040517f08c379a0000000000000000000000000000000000000000000000000000000008152600401610d5390611330565b60405180910390fd5b60018160000160016101000a81548160ff021916908315150217905550818160000160166101000a81548160ff021916908360ff1602179055508060000160009054906101000a900460ff1660ff1660028360ff1681548110610dc257610dc16116ac565b5b90600052602060002090600202016001016000828254610de29190611494565b925050819055505050565b610e87838383604051602401610e05939291906113ab565b6040516020818303038152906040527f37aa7d4c000000000000000000000000000000000000000000000000000000007bffffffffffffffffffffffffffffffffffffffffffffffffffffffff19166020820180517bffffffffffffffffffffffffffffffffffffffffffffffffffffffff8381831617835250505050610f28565b505050565b610f248282604051602401610ea2929190611280565b6040516020818303038152906040527fb60e72cc000000000000000000000000000000000000000000000000000000007bffffffffffffffffffffffffffffffffffffffffffffffffffffffff19166020820180517bffffffffffffffffffffffffffffffffffffffffffffffffffffffff8381831617835250505050610f28565b5050565b60008151905060006a636f6e736f6c652e6c6f679050602083016000808483855afa5050505050565b600081359050610f6081611865565b92915050565b600081359050610f758161187c565b92915050565b600081359050610f8a81611893565b92915050565b600060208284031215610fa657610fa561170a565b5b6000610fb484828501610f51565b91505092915050565b600060208284031215610fd357610fd261170a565b5b6000610fe184828501610f66565b91505092915050565b60006020828403121561100057610fff61170a565b5b600061100e84828501610f7b565b91505092915050565b600061102383836110be565b905092915050565b61103481611521565b82525050565b60006110458261143e565b61104f8185611461565b9350836020820285016110618561142e565b8060005b8581101561109d578484038952815161107e8582611017565b945061108983611454565b925060208a01995050600181019050611065565b50829750879550505050505092915050565b6110b881611533565b82525050565b60006110c982611449565b6110d38185611472565b93506110e3818560208601611576565b6110ec8161170f565b840191505092915050565b600061110282611449565b61110c8185611483565b935061111c818560208601611576565b6111258161170f565b840191505092915050565b600061113d601783611483565b915061114882611720565b602082019050919050565b6000611160601183611483565b915061116b82611749565b602082019050919050565b6000611183601283611483565b915061118e82611772565b602082019050919050565b60006111a6602883611483565b91506111b18261179b565b604082019050919050565b60006111c9601a83611483565b91506111d4826117ea565b602082019050919050565b60006111ec601883611483565b91506111f782611813565b602082019050919050565b600061120f601e83611483565b915061121a8261183c565b602082019050919050565b61122e8161155f565b82525050565b61123d81611569565b82525050565b6000602082019050611258600083018461102b565b92915050565b60006020820190508181036000830152611278818461103a565b905092915050565b6000604082019050818103600083015261129a81856110f7565b90506112a96020830184611225565b9392505050565b600060208201905081810360008301526112c981611130565b9050919050565b600060208201905081810360008301526112e981611153565b9050919050565b6000602082019050818103600083015261130981611176565b9050919050565b6000602082019050818103600083015261132981611199565b9050919050565b60006020820190508181036000830152611349816111bc565b9050919050565b60006020820190508181036000830152611369816111df565b9050919050565b6000602082019050818103600083015261138981611202565b9050919050565b60006020820190506113a56000830184611225565b92915050565b60006060820190506113c06000830186611225565b81810360208301526113d281856110f7565b90506113e16040830184611225565b949350505050565b60006080820190506113fe6000830187611234565b61140b60208301866110af565b611418604083018561102b565b6114256060830184611234565b95945050505050565b6000819050602082019050919050565b600081519050919050565b600081519050919050565b6000602082019050919050565b600082825260208201905092915050565b600082825260208201905092915050565b600082825260208201905092915050565b600061149f8261155f565b91506114aa8361155f565b9250827fffffffffffffffffffffffffffffffffffffffffffffffffffffffffffffffff038211156114df576114de61164e565b5b828201905092915050565b60006114f582611569565b915061150083611569565b92508260ff038211156115165761151561164e565b5b828201905092915050565b600061152c8261153f565b9050919050565b60008115159050919050565b600073ffffffffffffffffffffffffffffffffffffffff82169050919050565b6000819050919050565b600060ff82169050919050565b60005b83811015611594578082015181840152602081019050611579565b838111156115a3576000848401525b50505050565b600060028204905060018216806115c157607f821691505b602082108114156115d5576115d461167d565b5b50919050565b60006115e68261155f565b91507fffffffffffffffffffffffffffffffffffffffffffffffffffffffffffffffff8214156116195761161861164e565b5b600182019050919050565b600061162f82611569565b915060ff8214156116435761164261164e565b5b600182019050919050565b7f4e487b7100000000000000000000000000000000000000000000000000000000600052601160045260246000fd5b7f4e487b7100000000000000000000000000000000000000000000000000000000600052602260045260246000fd5b7f4e487b7100000000000000000000000000000000000000000000000000000000600052603260045260246000fd5b7f4e487b7100000000000000000000000000000000000000000000000000000000600052604160045260246000fd5b600080fd5b6000601f19601f8301169050919050565b7f54686520766f74657220616c726561647920766f746564000000000000000000600082015250565b7f596f7520616c726561647920766f746564000000000000000000000000000000600082015250565b7f596f7520616c726561647920766f7465642e0000000000000000000000000000600082015250565b7f4f6e6c79206368616972706572736f6e2063616e20676976652072696768742060008201527f746f20766f74652e000000000000000000000000000000000000000000000000602082015250565b7f596f752068617665206e6f20726967687420746f20766f74652e000000000000600082015250565b7f466f756e64206c6f6f7020696e2064656c65676174696f6e0000000000000000600082015250565b7f53656c662d64656c65676174696f6e20697320646973616c6c6f7765642e0000600082015250565b61186e81611521565b811461187957600080fd5b50565b6118858161155f565b811461189057600080fd5b50565b61189c81611569565b81146118a757600080fd5b5056fea26469706673582212202925cf0f403f16e0f66f156bb8b462c00ba62c31ddb038035aa0636c8456e33464736f6c63430008070033",
  "linkReferences": {},
  "deployedLinkReferences": {}
}