{
	"example/vote.sol": {
		"Vote": {
			"abi": [
				{
					"inputs": [
						{
							"internalType": "uint256",
							"name": "_endTime",
							"type": "uint256"
						}
					],
					"stateMutability": "nonpayable",
					"type": "constructor"
				},
				{
					"anonymous": false,
					"inputs": [
						{
							"indexed": true,
							"internalType": "address",
							"name": "voter",
							"type": "address"
						},
						{
							"indexed": false,
							"internalType": "uint8",
							"name": "proposal",
							"type": "uint8"
						}
					],
					"name": "Voted",
					"type": "event"
				},
				{
					"inputs": [],
					"name": "endTime",
					"outputs": [
						{
							"internalType": "uint256",
							"name": "",
							"type": "uint256"
						}
					],
					"stateMutability": "view",
					"type": "function"
				},
				{
					"inputs": [],
					"name": "proposalA",
					"outputs": [
						{
							"internalType": "uint256",
							"name": "",
							"type": "uint256"
						}
					],
					"stateMutability": "view",
					"type": "function"
				},
				{
					"inputs": [],
					"name": "proposalB",
					"outputs": [
						{
							"internalType": "uint256",
							"name": "",
							"type": "uint256"
						}
					],
					"stateMutability": "view",
					"type": "function"
				},
				{
					"inputs": [],
					"name": "proposalC",
					"outputs": [
						{
							"internalType": "uint256",
							"name": "",
							"type": "uint256"
						}
					],
					"stateMutability": "view",
					"type": "function"
				},
				{
					"inputs": [
						{
							"internalType": "uint8",
							"name": "_proposal",
							"type": "uint8"
						}
					],
					"name": "vote",
					"outputs": [],
					"stateMutability": "nonpayable",
					"type": "function"
				},
				{
					"inputs": [
						{
							"internalType": "address",
							"name": "",
							"type": "address"
						}
					],
					"name": "voted",
					"outputs": [
						{
							"internalType": "bool",
							"name": "",
							"type": "bool"
						}
					],
					"stateMutability": "view",
					"type": "function"
				},
				{
					"inputs": [],
					"name": "votes",
					"outputs": [
						{
							"internalType": "uint256",
							"name": "",
							"type": "uint256"
						}
					],
					"stateMutability": "view",
					"type": "function"
				}
			],
			"devdoc": {
				"kind": "dev",
				"methods": {},
				"version": 1
			},
			"evm": {
				"assembly": "    /* \"example/vote.sol\":66:1049  contract Vote {\r... */\n  mstore(0x40, 0x80)\n    /* \"example/vote.sol\":320:387  constructor(uint256 _endTime) {\r... */\n  callvalue\n  dup1\n  iszero\n  tag_1\n  jumpi\n  0x00\n  dup1\n  revert\ntag_1:\n  pop\n  mload(0x40)\n  sub(codesize, bytecodeSize)\n  dup1\n  bytecodeSize\n  dup4\n  codecopy\n  dup2\n  add\n  0x40\n  dup2\n  swap1\n  mstore\n  tag_2\n  swap2\n  tag_3\n  jump\t// in\ntag_2:\n    /* \"example/vote.sol\":361:368  endTime */\n  0x01\n    /* \"example/vote.sol\":361:379  endTime = _endTime */\n  sstore\n    /* \"example/vote.sol\":66:1049  contract Vote {\r... */\n  jump(tag_7)\n    /* \"#utility.yul\":14:198   */\ntag_3:\n    /* \"#utility.yul\":84:90   */\n  0x00\n    /* \"#utility.yul\":137:139   */\n  0x20\n    /* \"#utility.yul\":125:134   */\n  dup3\n    /* \"#utility.yul\":116:123   */\n  dup5\n    /* \"#utility.yul\":112:135   */\n  sub\n    /* \"#utility.yul\":108:140   */\n  slt\n    /* \"#utility.yul\":105:157   */\n  iszero\n  tag_9\n  jumpi\n    /* \"#utility.yul\":153:154   */\n  0x00\n    /* \"#utility.yul\":150:151   */\n  dup1\n    /* \"#utility.yul\":143:155   */\n  revert\n    /* \"#utility.yul\":105:157   */\ntag_9:\n  pop\n    /* \"#utility.yul\":176:192   */\n  mload\n  swap2\n    /* \"#utility.yul\":14:198   */\n  swap1\n  pop\n  jump\t// out\ntag_7:\n    /* \"example/vote.sol\":66:1049  contract Vote {\r... */\n  dataSize(sub_0)\n  dup1\n  dataOffset(sub_0)\n  0x00\n  codecopy\n  0x00\n  return\nstop\n\nsub_0: assembly {\n        /* \"example/vote.sol\":66:1049  contract Vote {\r... */\n      mstore(0x40, 0x80)\n      callvalue\n      dup1\n      iszero\n      tag_1\n      jumpi\n      0x00\n      dup1\n      revert\n    tag_1:\n      pop\n      jumpi(tag_2, lt(calldatasize, 0x04))\n      calldataload(0x00)\n      0x0100000000000000000000000000000000000000000000000000000000\n      swap1\n      div\n      dup1\n      0xaec2ccae\n      gt\n      tag_10\n      jumpi\n      dup1\n      0xaec2ccae\n      eq\n      tag_6\n      jumpi\n      dup1\n      0xb3f98adc\n      eq\n      tag_7\n      jumpi\n      dup1\n      0xe168c3ec\n      eq\n      tag_8\n      jumpi\n      dup1\n      0xfc79c9d1\n      eq\n      tag_9\n      jumpi\n      0x00\n      dup1\n      revert\n    tag_10:\n      dup1\n      0x3197cbb6\n      eq\n      tag_3\n      jumpi\n      dup1\n      0x6bd4c024\n      eq\n      tag_4\n      jumpi\n      dup1\n      0x9a59dd93\n      eq\n      tag_5\n      jumpi\n    tag_2:\n      0x00\n      dup1\n      revert\n        /* \"example/vote.sol\":194:216  uint256 public endTime */\n    tag_3:\n      tag_11\n      sload(0x01)\n      dup2\n      jump\n    tag_11:\n      mload(0x40)\n        /* \"#utility.yul\":1975:2000   */\n      swap1\n      dup2\n      mstore\n        /* \"#utility.yul\":1963:1965   */\n      0x20\n        /* \"#utility.yul\":1948:1966   */\n      add\n        /* \"example/vote.sol\":194:216  uint256 public endTime */\n    tag_13:\n      mload(0x40)\n      dup1\n      swap2\n      sub\n      swap1\n      return\n        /* \"example/vote.sol\":287:311  uint256 public proposalC */\n    tag_4:\n      tag_11\n      sload(0x04)\n      dup2\n      jump\n        /* \"example/vote.sol\":225:249  uint256 public proposalA */\n    tag_5:\n      tag_11\n      sload(0x02)\n      dup2\n      jump\n        /* \"example/vote.sol\":148:185  mapping(address => bool) public voted */\n    tag_6:\n      tag_21\n      tag_22\n      calldatasize\n      0x04\n      tag_23\n      jump\t// in\n    tag_22:\n      0x00\n      0x20\n      dup2\n      swap1\n      mstore\n      swap1\n      dup2\n      mstore\n      0x40\n      swap1\n      keccak256\n      sload\n      0xff\n      and\n      dup2\n      jump\n    tag_21:\n      mload(0x40)\n        /* \"#utility.yul\":767:781   */\n      swap1\n      iszero\n        /* \"#utility.yul\":760:782   */\n      iszero\n        /* \"#utility.yul\":742:783   */\n      dup2\n      mstore\n        /* \"#utility.yul\":730:732   */\n      0x20\n        /* \"#utility.yul\":715:733   */\n      add\n        /* \"example/vote.sol\":148:185  mapping(address => bool) public voted */\n      tag_13\n        /* \"#utility.yul\":602:789   */\n      jump\n        /* \"example/vote.sol\":395:932  function vote(uint8 _proposal) public {\r... */\n    tag_7:\n      tag_27\n      tag_28\n      calldatasize\n      0x04\n      tag_29\n      jump\t// in\n    tag_28:\n      tag_30\n      jump\t// in\n    tag_27:\n      stop\n        /* \"example/vote.sol\":940:1046  function votes() public view returns (uint256) {\r... */\n    tag_8:\n      tag_11\n      tag_32\n      jump\t// in\n        /* \"example/vote.sol\":256:280  uint256 public proposalB */\n    tag_9:\n      tag_11\n      sload(0x03)\n      dup2\n      jump\n        /* \"example/vote.sol\":395:932  function vote(uint8 _proposal) public {\r... */\n    tag_30:\n        /* \"example/vote.sol\":470:477  endTime */\n      sload(0x01)\n        /* \"example/vote.sol\":452:467  block.timestamp */\n      timestamp\n        /* \"example/vote.sol\":452:477  block.timestamp < endTime */\n      lt\n        /* \"example/vote.sol\":444:495  require(block.timestamp < endTime, \"Vote expired.\") */\n      tag_38\n      jumpi\n      mload(0x40)\n      0x08c379a000000000000000000000000000000000000000000000000000000000\n      dup2\n      mstore\n        /* \"#utility.yul\":1689:1691   */\n      0x20\n        /* \"example/vote.sol\":444:495  require(block.timestamp < endTime, \"Vote expired.\") */\n      0x04\n      dup3\n      add\n        /* \"#utility.yul\":1671:1692   */\n      mstore\n        /* \"#utility.yul\":1728:1730   */\n      0x0d\n        /* \"#utility.yul\":1708:1726   */\n      0x24\n      dup3\n      add\n        /* \"#utility.yul\":1701:1731   */\n      mstore\n        /* \"#utility.yul\":1767:1782   */\n      0x566f746520657870697265642e00000000000000000000000000000000000000\n        /* \"#utility.yul\":1747:1765   */\n      0x44\n      dup3\n      add\n        /* \"#utility.yul\":1740:1783   */\n      mstore\n        /* \"#utility.yul\":1800:1818   */\n      0x64\n      add\n        /* \"example/vote.sol\":444:495  require(block.timestamp < endTime, \"Vote expired.\") */\n    tag_39:\n      mload(0x40)\n      dup1\n      swap2\n      sub\n      swap1\n      revert\n    tag_38:\n        /* \"example/vote.sol\":527:528  1 */\n      0x01\n        /* \"example/vote.sol\":514:523  _proposal */\n      dup2\n        /* \"example/vote.sol\":514:528  _proposal >= 1 */\n      0xff\n      and\n      lt\n      iszero\n        /* \"example/vote.sol\":514:546  _proposal >= 1 && _proposal <= 3 */\n      dup1\n      iszero\n      tag_41\n      jumpi\n      pop\n        /* \"example/vote.sol\":545:546  3 */\n      0x03\n        /* \"example/vote.sol\":532:541  _proposal */\n      dup2\n        /* \"example/vote.sol\":532:546  _proposal <= 3 */\n      0xff\n      and\n      gt\n      iszero\n        /* \"example/vote.sol\":514:546  _proposal >= 1 && _proposal <= 3 */\n    tag_41:\n        /* \"example/vote.sol\":506:568  require(_proposal >= 1 && _proposal <= 3, \"Invalid proposal.\") */\n      tag_42\n      jumpi\n      mload(0x40)\n      0x08c379a000000000000000000000000000000000000000000000000000000000\n      dup2\n      mstore\n        /* \"#utility.yul\":996:998   */\n      0x20\n        /* \"example/vote.sol\":506:568  require(_proposal >= 1 && _proposal <= 3, \"Invalid proposal.\") */\n      0x04\n      dup3\n      add\n        /* \"#utility.yul\":978:999   */\n      mstore\n        /* \"#utility.yul\":1035:1037   */\n      0x11\n        /* \"#utility.yul\":1015:1033   */\n      0x24\n      dup3\n      add\n        /* \"#utility.yul\":1008:1038   */\n      mstore\n        /* \"#utility.yul\":1074:1093   */\n      0x496e76616c69642070726f706f73616c2e000000000000000000000000000000\n        /* \"#utility.yul\":1054:1072   */\n      0x44\n      dup3\n      add\n        /* \"#utility.yul\":1047:1094   */\n      mstore\n        /* \"#utility.yul\":1111:1129   */\n      0x64\n      add\n        /* \"example/vote.sol\":506:568  require(_proposal >= 1 && _proposal <= 3, \"Invalid proposal.\") */\n      tag_39\n        /* \"#utility.yul\":794:1135   */\n      jump\n        /* \"example/vote.sol\":506:568  require(_proposal >= 1 && _proposal <= 3, \"Invalid proposal.\") */\n    tag_42:\n        /* \"example/vote.sol\":594:604  msg.sender */\n      caller\n        /* \"example/vote.sol\":588:593  voted */\n      0x00\n        /* \"example/vote.sol\":588:605  voted[msg.sender] */\n      swap1\n      dup2\n      mstore\n      0x20\n      dup2\n      swap1\n      mstore\n      0x40\n      swap1\n      keccak256\n      sload\n      0xff\n      and\n        /* \"example/vote.sol\":587:605  !voted[msg.sender] */\n      iszero\n        /* \"example/vote.sol\":579:628  require(!voted[msg.sender], \"Cannot vote again.\") */\n      tag_45\n      jumpi\n      mload(0x40)\n      0x08c379a000000000000000000000000000000000000000000000000000000000\n      dup2\n      mstore\n        /* \"#utility.yul\":1342:1344   */\n      0x20\n        /* \"example/vote.sol\":579:628  require(!voted[msg.sender], \"Cannot vote again.\") */\n      0x04\n      dup3\n      add\n        /* \"#utility.yul\":1324:1345   */\n      mstore\n        /* \"#utility.yul\":1381:1383   */\n      0x12\n        /* \"#utility.yul\":1361:1379   */\n      0x24\n      dup3\n      add\n        /* \"#utility.yul\":1354:1384   */\n      mstore\n        /* \"#utility.yul\":1420:1440   */\n      0x43616e6e6f7420766f746520616761696e2e0000000000000000000000000000\n        /* \"#utility.yul\":1400:1418   */\n      0x44\n      dup3\n      add\n        /* \"#utility.yul\":1393:1441   */\n      mstore\n        /* \"#utility.yul\":1458:1476   */\n      0x64\n      add\n        /* \"example/vote.sol\":579:628  require(!voted[msg.sender], \"Cannot vote again.\") */\n      tag_39\n        /* \"#utility.yul\":1140:1482   */\n      jump\n        /* \"example/vote.sol\":579:628  require(!voted[msg.sender], \"Cannot vote again.\") */\n    tag_45:\n        /* \"example/vote.sol\":645:655  msg.sender */\n      caller\n        /* \"example/vote.sol\":639:644  voted */\n      0x00\n        /* \"example/vote.sol\":639:656  voted[msg.sender] */\n      swap1\n      dup2\n      mstore\n      0x20\n      dup2\n      swap1\n      mstore\n      0x40\n      swap1\n      keccak256\n        /* \"example/vote.sol\":639:663  voted[msg.sender] = true */\n      dup1\n      sload\n      not(0xff)\n      and\n        /* \"example/vote.sol\":659:663  true */\n      0x01\n        /* \"example/vote.sol\":639:663  voted[msg.sender] = true */\n      swap1\n      dup2\n      or\n      swap1\n      swap2\n      sstore\n      0xff\n        /* \"example/vote.sol\":678:692  _proposal == 1 */\n      dup3\n      and\n      eq\n        /* \"example/vote.sol\":674:881  if (_proposal == 1) {\r... */\n      iszero\n      tag_48\n      jumpi\n        /* \"example/vote.sol\":709:718  proposalA */\n      0x02\n        /* \"example/vote.sol\":709:721  proposalA ++ */\n      dup1\n      sload\n      swap1\n        /* \"example/vote.sol\":709:718  proposalA */\n      0x00\n        /* \"example/vote.sol\":709:721  proposalA ++ */\n      tag_49\n      dup4\n      tag_50\n      jump\t// in\n    tag_49:\n      swap2\n      swap1\n      pop\n      sstore\n      pop\n        /* \"example/vote.sol\":674:881  if (_proposal == 1) {\r... */\n      jump(tag_55)\n    tag_48:\n        /* \"example/vote.sol\":752:761  _proposal */\n      dup1\n        /* \"example/vote.sol\":752:766  _proposal == 2 */\n      0xff\n      and\n        /* \"example/vote.sol\":765:766  2 */\n      0x02\n        /* \"example/vote.sol\":752:766  _proposal == 2 */\n      eq\n        /* \"example/vote.sol\":748:881  if (_proposal == 2) {\r... */\n      iszero\n      tag_52\n      jumpi\n        /* \"example/vote.sol\":783:792  proposalB */\n      0x03\n        /* \"example/vote.sol\":783:795  proposalB ++ */\n      dup1\n      sload\n      swap1\n        /* \"example/vote.sol\":783:792  proposalB */\n      0x00\n        /* \"example/vote.sol\":783:795  proposalB ++ */\n      tag_49\n      dup4\n      tag_50\n      jump\t// in\n        /* \"example/vote.sol\":748:881  if (_proposal == 2) {\r... */\n    tag_52:\n        /* \"example/vote.sol\":826:835  _proposal */\n      dup1\n        /* \"example/vote.sol\":826:840  _proposal == 3 */\n      0xff\n      and\n        /* \"example/vote.sol\":839:840  3 */\n      0x03\n        /* \"example/vote.sol\":826:840  _proposal == 3 */\n      eq\n        /* \"example/vote.sol\":822:881  if (_proposal == 3) {\r... */\n      iszero\n      tag_55\n      jumpi\n        /* \"example/vote.sol\":857:866  proposalC */\n      0x04\n        /* \"example/vote.sol\":857:869  proposalC ++ */\n      dup1\n      sload\n      swap1\n        /* \"example/vote.sol\":857:866  proposalC */\n      0x00\n        /* \"example/vote.sol\":857:869  proposalC ++ */\n      tag_56\n      dup4\n      tag_50\n      jump\t// in\n    tag_56:\n      swap2\n      swap1\n      pop\n      sstore\n      pop\n        /* \"example/vote.sol\":822:881  if (_proposal == 3) {\r... */\n    tag_55:\n        /* \"example/vote.sol\":896:924  Voted(msg.sender, _proposal) */\n      mload(0x40)\n        /* \"#utility.yul\":2183:2187   */\n      0xff\n        /* \"#utility.yul\":2171:2188   */\n      dup3\n      and\n        /* \"#utility.yul\":2153:2189   */\n      dup2\n      mstore\n        /* \"example/vote.sol\":902:912  msg.sender */\n      caller\n      swap1\n        /* \"example/vote.sol\":896:924  Voted(msg.sender, _proposal) */\n      0x14075e33dffdc00c1fcaf75d0f86d667170be57fb566b12b41b499e5fa53b125\n      swap1\n        /* \"#utility.yul\":2141:2143   */\n      0x20\n        /* \"#utility.yul\":2126:2144   */\n      add\n        /* \"example/vote.sol\":896:924  Voted(msg.sender, _proposal) */\n      mload(0x40)\n      dup1\n      swap2\n      sub\n      swap1\n      log2\n        /* \"example/vote.sol\":395:932  function vote(uint8 _proposal) public {\r... */\n      pop\n      jump\t// out\n        /* \"example/vote.sol\":940:1046  function votes() public view returns (uint256) {\r... */\n    tag_32:\n        /* \"example/vote.sol\":978:985  uint256 */\n      0x00\n        /* \"example/vote.sol\":1029:1038  proposalC */\n      sload(0x04)\n        /* \"example/vote.sol\":1017:1026  proposalB */\n      sload(0x03)\n        /* \"example/vote.sol\":1005:1014  proposalA */\n      sload(0x02)\n        /* \"example/vote.sol\":1005:1026  proposalA + proposalB */\n      tag_60\n      swap2\n      swap1\n      tag_61\n      jump\t// in\n    tag_60:\n        /* \"example/vote.sol\":1005:1038  proposalA + proposalB + proposalC */\n      tag_62\n      swap2\n      swap1\n      tag_61\n      jump\t// in\n    tag_62:\n        /* \"example/vote.sol\":998:1038  return proposalA + proposalB + proposalC */\n      swap1\n      pop\n        /* \"example/vote.sol\":940:1046  function votes() public view returns (uint256) {\r... */\n      swap1\n      jump\t// out\n        /* \"#utility.yul\":14:323   */\n    tag_23:\n        /* \"#utility.yul\":73:79   */\n      0x00\n        /* \"#utility.yul\":126:128   */\n      0x20\n        /* \"#utility.yul\":114:123   */\n      dup3\n        /* \"#utility.yul\":105:112   */\n      dup5\n        /* \"#utility.yul\":101:124   */\n      sub\n        /* \"#utility.yul\":97:129   */\n      slt\n        /* \"#utility.yul\":94:146   */\n      iszero\n      tag_65\n      jumpi\n        /* \"#utility.yul\":142:143   */\n      0x00\n        /* \"#utility.yul\":139:140   */\n      dup1\n        /* \"#utility.yul\":132:144   */\n      revert\n        /* \"#utility.yul\":94:146   */\n    tag_65:\n        /* \"#utility.yul\":181:190   */\n      dup2\n        /* \"#utility.yul\":168:191   */\n      calldataload\n        /* \"#utility.yul\":231:273   */\n      0xffffffffffffffffffffffffffffffffffffffff\n        /* \"#utility.yul\":224:229   */\n      dup2\n        /* \"#utility.yul\":220:274   */\n      and\n        /* \"#utility.yul\":213:218   */\n      dup2\n        /* \"#utility.yul\":210:275   */\n      eq\n        /* \"#utility.yul\":200:293   */\n      tag_66\n      jumpi\n        /* \"#utility.yul\":289:290   */\n      0x00\n        /* \"#utility.yul\":286:287   */\n      dup1\n        /* \"#utility.yul\":279:291   */\n      revert\n        /* \"#utility.yul\":200:293   */\n    tag_66:\n        /* \"#utility.yul\":312:317   */\n      swap4\n        /* \"#utility.yul\":14:323   */\n      swap3\n      pop\n      pop\n      pop\n      jump\t// out\n        /* \"#utility.yul\":328:597   */\n    tag_29:\n        /* \"#utility.yul\":385:391   */\n      0x00\n        /* \"#utility.yul\":438:440   */\n      0x20\n        /* \"#utility.yul\":426:435   */\n      dup3\n        /* \"#utility.yul\":417:424   */\n      dup5\n        /* \"#utility.yul\":413:436   */\n      sub\n        /* \"#utility.yul\":409:441   */\n      slt\n        /* \"#utility.yul\":406:458   */\n      iszero\n      tag_68\n      jumpi\n        /* \"#utility.yul\":454:455   */\n      0x00\n        /* \"#utility.yul\":451:452   */\n      dup1\n        /* \"#utility.yul\":444:456   */\n      revert\n        /* \"#utility.yul\":406:458   */\n    tag_68:\n        /* \"#utility.yul\":493:502   */\n      dup2\n        /* \"#utility.yul\":480:503   */\n      calldataload\n        /* \"#utility.yul\":543:547   */\n      0xff\n        /* \"#utility.yul\":536:541   */\n      dup2\n        /* \"#utility.yul\":532:548   */\n      and\n        /* \"#utility.yul\":525:530   */\n      dup2\n        /* \"#utility.yul\":522:549   */\n      eq\n        /* \"#utility.yul\":512:567   */\n      tag_66\n      jumpi\n        /* \"#utility.yul\":563:564   */\n      0x00\n        /* \"#utility.yul\":560:561   */\n      dup1\n        /* \"#utility.yul\":553:565   */\n      revert\n        /* \"#utility.yul\":2200:2328   */\n    tag_61:\n        /* \"#utility.yul\":2240:2243   */\n      0x00\n        /* \"#utility.yul\":2271:2272   */\n      dup3\n        /* \"#utility.yul\":2267:2273   */\n      not\n        /* \"#utility.yul\":2264:2265   */\n      dup3\n        /* \"#utility.yul\":2261:2274   */\n      gt\n        /* \"#utility.yul\":2258:2297   */\n      iszero\n      tag_78\n      jumpi\n        /* \"#utility.yul\":2277:2295   */\n      tag_78\n      tag_79\n      jump\t// in\n    tag_78:\n      pop\n        /* \"#utility.yul\":2313:2322   */\n      add\n      swap1\n        /* \"#utility.yul\":2200:2328   */\n      jump\t// out\n        /* \"#utility.yul\":2333:2468   */\n    tag_50:\n        /* \"#utility.yul\":2372:2375   */\n      0x00\n      not(0x00)\n        /* \"#utility.yul\":2393:2410   */\n      dup3\n      eq\n        /* \"#utility.yul\":2390:2433   */\n      iszero\n      tag_82\n      jumpi\n        /* \"#utility.yul\":2413:2431   */\n      tag_82\n      tag_79\n      jump\t// in\n    tag_82:\n      pop\n        /* \"#utility.yul\":2460:2461   */\n      0x01\n        /* \"#utility.yul\":2449:2462   */\n      add\n      swap1\n        /* \"#utility.yul\":2333:2468   */\n      jump\t// out\n        /* \"#utility.yul\":2473:2657   */\n    tag_79:\n        /* \"#utility.yul\":2525:2602   */\n      0x4e487b7100000000000000000000000000000000000000000000000000000000\n        /* \"#utility.yul\":2522:2523   */\n      0x00\n        /* \"#utility.yul\":2515:2603   */\n      mstore\n        /* \"#utility.yul\":2622:2626   */\n      0x11\n        /* \"#utility.yul\":2619:2620   */\n      0x04\n        /* \"#utility.yul\":2612:2627   */\n      mstore\n        /* \"#utility.yul\":2646:2650   */\n      0x24\n        /* \"#utility.yul\":2643:2644   */\n      0x00\n        /* \"#utility.yul\":2636:2651   */\n      revert\n\n    auxdata: 0xa2646970667358221220d9e5474ebd0587482f72174719de4b7ba90dc43921ff794fd0444fac571086f164736f6c63430008070033\n}\n",
				"bytecode": {
					"linkReferences": {},
					"object": "608060405234801561001057600080fd5b506040516104c33803806104c383398101604081905261002f91610037565b600155610050565b60006020828403121561004957600080fd5b5051919050565b6104648061005f6000396000f3fe608060405234801561001057600080fd5b506004361061009a576000357c010000000000000000000000000000000000000000000000000000000090048063aec2ccae11610078578063aec2ccae146100cd578063b3f98adc14610100578063e168c3ec14610115578063fc79c9d11461011d57600080fd5b80633197cbb61461009f5780636bd4c024146100bb5780639a59dd93146100c4575b600080fd5b6100a860015481565b6040519081526020015b60405180910390f35b6100a860045481565b6100a860025481565b6100f06100db36600461036c565b60006020819052908152604090205460ff1681565b60405190151581526020016100b2565b61011361010e3660046103a9565b610126565b005b6100a8610348565b6100a860035481565b6001544210610196576040517f08c379a000000000000000000000000000000000000000000000000000000000815260206004820152600d60248201527f566f746520657870697265642e0000000000000000000000000000000000000060448201526064015b60405180910390fd5b60018160ff16101580156101ae575060038160ff1611155b610214576040517f08c379a000000000000000000000000000000000000000000000000000000000815260206004820152601160248201527f496e76616c69642070726f706f73616c2e000000000000000000000000000000604482015260640161018d565b3360009081526020819052604090205460ff161561028e576040517f08c379a000000000000000000000000000000000000000000000000000000000815260206004820152601260248201527f43616e6e6f7420766f746520616761696e2e0000000000000000000000000000604482015260640161018d565b336000908152602081905260409020805460ff1916600190811790915560ff821614156102cf57600280549060006102c5836103e4565b919050555061030d565b8060ff16600214156102eb57600380549060006102c5836103e4565b8060ff166003141561030d5760048054906000610307836103e4565b91905055505b60405160ff8216815233907f14075e33dffdc00c1fcaf75d0f86d667170be57fb566b12b41b499e5fa53b1259060200160405180910390a250565b600060045460035460025461035d91906103cc565b61036791906103cc565b905090565b60006020828403121561037e57600080fd5b813573ffffffffffffffffffffffffffffffffffffffff811681146103a257600080fd5b9392505050565b6000602082840312156103bb57600080fd5b813560ff811681146103a257600080fd5b600082198211156103df576103df6103ff565b500190565b60006000198214156103f8576103f86103ff565b5060010190565b7f4e487b7100000000000000000000000000000000000000000000000000000000600052601160045260246000fdfea2646970667358221220d9e5474ebd0587482f72174719de4b7ba90dc43921ff794fd0444fac571086f164736f6c63430008070033",
					"opcodes": "PUSH1 0x80 PUSH1 0x40 MSTORE CALLVALUE DUP1 ISZERO PUSH2 0x10 JUMPI PUSH1 0x0 DUP1 REVERT JUMPDEST POP PUSH1 0x40 MLOAD PUSH2 0x4C3 CODESIZE SUB DUP1 PUSH2 0x4C3 DUP4 CODECOPY DUP2 ADD PUSH1 0x40 DUP2 SWAP1 MSTORE PUSH2 0x2F SWAP2 PUSH2 0x37 JUMP JUMPDEST PUSH1 0x1 SSTORE PUSH2 0x50 JUMP JUMPDEST PUSH1 0x0 PUSH1 0x20 DUP3 DUP5 SUB SLT ISZERO PUSH2 0x49 JUMPI PUSH1 0x0 DUP1 REVERT JUMPDEST POP MLOAD SWAP2 SWAP1 POP JUMP JUMPDEST PUSH2 0x464 DUP1 PUSH2 0x5F PUSH1 0x0 CODECOPY PUSH1 0x0 RETURN INVALID PUSH1 0x80 PUSH1 0x40 MSTORE CALLVALUE DUP1 ISZERO PUSH2 0x10 JUMPI PUSH1 0x0 DUP1 REVERT JUMPDEST POP PUSH1 0x4 CALLDATASIZE LT PUSH2 0x9A JUMPI PUSH1 0x0 CALLDATALOAD PUSH29 0x100000000000000000000000000000000000000000000000000000000 SWAP1 DIV DUP1 PUSH4 0xAEC2CCAE GT PUSH2 0x78 JUMPI DUP1 PUSH4 0xAEC2CCAE EQ PUSH2 0xCD JUMPI DUP1 PUSH4 0xB3F98ADC EQ PUSH2 0x100 JUMPI DUP1 PUSH4 0xE168C3EC EQ PUSH2 0x115 JUMPI DUP1 PUSH4 0xFC79C9D1 EQ PUSH2 0x11D JUMPI PUSH1 0x0 DUP1 REVERT JUMPDEST DUP1 PUSH4 0x3197CBB6 EQ PUSH2 0x9F JUMPI DUP1 PUSH4 0x6BD4C024 EQ PUSH2 0xBB JUMPI DUP1 PUSH4 0x9A59DD93 EQ PUSH2 0xC4 JUMPI JUMPDEST PUSH1 0x0 DUP1 REVERT JUMPDEST PUSH2 0xA8 PUSH1 0x1 SLOAD DUP2 JUMP JUMPDEST PUSH1 0x40 MLOAD SWAP1 DUP2 MSTORE PUSH1 0x20 ADD JUMPDEST PUSH1 0x40 MLOAD DUP1 SWAP2 SUB SWAP1 RETURN JUMPDEST PUSH2 0xA8 PUSH1 0x4 SLOAD DUP2 JUMP JUMPDEST PUSH2 0xA8 PUSH1 0x2 SLOAD DUP2 JUMP JUMPDEST PUSH2 0xF0 PUSH2 0xDB CALLDATASIZE PUSH1 0x4 PUSH2 0x36C JUMP JUMPDEST PUSH1 0x0 PUSH1 0x20 DUP2 SWAP1 MSTORE SWAP1 DUP2 MSTORE PUSH1 0x40 SWAP1 KECCAK256 SLOAD PUSH1 0xFF AND DUP2 JUMP JUMPDEST PUSH1 0x40 MLOAD SWAP1 ISZERO ISZERO DUP2 MSTORE PUSH1 0x20 ADD PUSH2 0xB2 JUMP JUMPDEST PUSH2 0x113 PUSH2 0x10E CALLDATASIZE PUSH1 0x4 PUSH2 0x3A9 JUMP JUMPDEST PUSH2 0x126 JUMP JUMPDEST STOP JUMPDEST PUSH2 0xA8 PUSH2 0x348 JUMP JUMPDEST PUSH2 0xA8 PUSH1 0x3 SLOAD DUP2 JUMP JUMPDEST PUSH1 0x1 SLOAD TIMESTAMP LT PUSH2 0x196 JUMPI PUSH1 0x40 MLOAD PUSH32 0x8C379A000000000000000000000000000000000000000000000000000000000 DUP2 MSTORE PUSH1 0x20 PUSH1 0x4 DUP3 ADD MSTORE PUSH1 0xD PUSH1 0x24 DUP3 ADD MSTORE PUSH32 0x566F746520657870697265642E00000000000000000000000000000000000000 PUSH1 0x44 DUP3 ADD MSTORE PUSH1 0x64 ADD JUMPDEST PUSH1 0x40 MLOAD DUP1 SWAP2 SUB SWAP1 REVERT JUMPDEST PUSH1 0x1 DUP2 PUSH1 0xFF AND LT ISZERO DUP1 ISZERO PUSH2 0x1AE JUMPI POP PUSH1 0x3 DUP2 PUSH1 0xFF AND GT ISZERO JUMPDEST PUSH2 0x214 JUMPI PUSH1 0x40 MLOAD PUSH32 0x8C379A000000000000000000000000000000000000000000000000000000000 DUP2 MSTORE PUSH1 0x20 PUSH1 0x4 DUP3 ADD MSTORE PUSH1 0x11 PUSH1 0x24 DUP3 ADD MSTORE PUSH32 0x496E76616C69642070726F706F73616C2E000000000000000000000000000000 PUSH1 0x44 DUP3 ADD MSTORE PUSH1 0x64 ADD PUSH2 0x18D JUMP JUMPDEST CALLER PUSH1 0x0 SWAP1 DUP2 MSTORE PUSH1 0x20 DUP2 SWAP1 MSTORE PUSH1 0x40 SWAP1 KECCAK256 SLOAD PUSH1 0xFF AND ISZERO PUSH2 0x28E JUMPI PUSH1 0x40 MLOAD PUSH32 0x8C379A000000000000000000000000000000000000000000000000000000000 DUP2 MSTORE PUSH1 0x20 PUSH1 0x4 DUP3 ADD MSTORE PUSH1 0x12 PUSH1 0x24 DUP3 ADD MSTORE PUSH32 0x43616E6E6F7420766F746520616761696E2E0000000000000000000000000000 PUSH1 0x44 DUP3 ADD MSTORE PUSH1 0x64 ADD PUSH2 0x18D JUMP JUMPDEST CALLER PUSH1 0x0 SWAP1 DUP2 MSTORE PUSH1 0x20 DUP2 SWAP1 MSTORE PUSH1 0x40 SWAP1 KECCAK256 DUP1 SLOAD PUSH1 0xFF NOT AND PUSH1 0x1 SWAP1 DUP2 OR SWAP1 SWAP2 SSTORE PUSH1 0xFF DUP3 AND EQ ISZERO PUSH2 0x2CF JUMPI PUSH1 0x2 DUP1 SLOAD SWAP1 PUSH1 0x0 PUSH2 0x2C5 DUP4 PUSH2 0x3E4 JUMP JUMPDEST SWAP2 SWAP1 POP SSTORE POP PUSH2 0x30D JUMP JUMPDEST DUP1 PUSH1 0xFF AND PUSH1 0x2 EQ ISZERO PUSH2 0x2EB JUMPI PUSH1 0x3 DUP1 SLOAD SWAP1 PUSH1 0x0 PUSH2 0x2C5 DUP4 PUSH2 0x3E4 JUMP JUMPDEST DUP1 PUSH1 0xFF AND PUSH1 0x3 EQ ISZERO PUSH2 0x30D JUMPI PUSH1 0x4 DUP1 SLOAD SWAP1 PUSH1 0x0 PUSH2 0x307 DUP4 PUSH2 0x3E4 JUMP JUMPDEST SWAP2 SWAP1 POP SSTORE POP JUMPDEST PUSH1 0x40 MLOAD PUSH1 0xFF DUP3 AND DUP2 MSTORE CALLER SWAP1 PUSH32 0x14075E33DFFDC00C1FCAF75D0F86D667170BE57FB566B12B41B499E5FA53B125 SWAP1 PUSH1 0x20 ADD PUSH1 0x40 MLOAD DUP1 SWAP2 SUB SWAP1 LOG2 POP JUMP JUMPDEST PUSH1 0x0 PUSH1 0x4 SLOAD PUSH1 0x3 SLOAD PUSH1 0x2 SLOAD PUSH2 0x35D SWAP2 SWAP1 PUSH2 0x3CC JUMP JUMPDEST PUSH2 0x367 SWAP2 SWAP1 PUSH2 0x3CC JUMP JUMPDEST SWAP1 POP SWAP1 JUMP JUMPDEST PUSH1 0x0 PUSH1 0x20 DUP3 DUP5 SUB SLT ISZERO PUSH2 0x37E JUMPI PUSH1 0x0 DUP1 REVERT JUMPDEST DUP2 CALLDATALOAD PUSH20 0xFFFFFFFFFFFFFFFFFFFFFFFFFFFFFFFFFFFFFFFF DUP2 AND DUP2 EQ PUSH2 0x3A2 JUMPI PUSH1 0x0 DUP1 REVERT JUMPDEST SWAP4 SWAP3 POP POP POP JUMP JUMPDEST PUSH1 0x0 PUSH1 0x20 DUP3 DUP5 SUB SLT ISZERO PUSH2 0x3BB JUMPI PUSH1 0x0 DUP1 REVERT JUMPDEST DUP2 CALLDATALOAD PUSH1 0xFF DUP2 AND DUP2 EQ PUSH2 0x3A2 JUMPI PUSH1 0x0 DUP1 REVERT JUMPDEST PUSH1 0x0 DUP3 NOT DUP3 GT ISZERO PUSH2 0x3DF JUMPI PUSH2 0x3DF PUSH2 0x3FF JUMP JUMPDEST POP ADD SWAP1 JUMP JUMPDEST PUSH1 0x0 PUSH1 0x0 NOT DUP3 EQ ISZERO PUSH2 0x3F8 JUMPI PUSH2 0x3F8 PUSH2 0x3FF JUMP JUMPDEST POP PUSH1 0x1 ADD SWAP1 JUMP JUMPDEST PUSH32 0x4E487B7100000000000000000000000000000000000000000000000000000000 PUSH1 0x0 MSTORE PUSH1 0x11 PUSH1 0x4 MSTORE PUSH1 0x24 PUSH1 0x0 REVERT INVALID LOG2 PUSH5 0x6970667358 0x22 SLT KECCAK256 0xD9 0xE5 SELFBALANCE 0x4E 0xBD SDIV DUP8 BASEFEE 0x2F PUSH19 0x174719DE4B7BA90DC43921FF794FD0444FAC57 LT DUP7 CALL PUSH5 0x736F6C6343 STOP ADDMOD SMOD STOP CALLER "
				},
				"gasEstimates": {
					"creation": {
						"codeDepositCost": "224800",
						"executionCost": "infinite",
						"totalCost": "infinite"
					},
					"external": {
						"endTime()": "390",
						"proposalA()": "434",
						"proposalB()": "455",
						"proposalC()": "412",
						"vote(uint8)": "43007",
						"voted(address)": "592",
						"votes()": "infinite"
					}
				},
				"methodIdentifiers": {
					"endTime()": "3197cbb6",
					"proposalA()": "9a59dd93",
					"proposalB()": "fc79c9d1",
					"proposalC()": "6bd4c024",
					"vote(uint8)": "b3f98adc",
					"voted(address)": "aec2ccae",
					"votes()": "e168c3ec"
				}
			},
			"storageLayout": {
				"storage": [
					{
						"astId": 11,
						"contract": "example/vote.sol:Vote",
						"label": "voted",
						"offset": 0,
						"slot": "0",
						"type": "t_mapping(t_address,t_bool)"
					},
					{
						"astId": 13,
						"contract": "example/vote.sol:Vote",
						"label": "endTime",
						"offset": 0,
						"slot": "1",
						"type": "t_uint256"
					},
					{
						"astId": 15,
						"contract": "example/vote.sol:Vote",
						"label": "proposalA",
						"offset": 0,
						"slot": "2",
						"type": "t_uint256"
					},
					{
						"astId": 17,
						"contract": "example/vote.sol:Vote",
						"label": "proposalB",
						"offset": 0,
						"slot": "3",
						"type": "t_uint256"
					},
					{
						"astId": 19,
						"contract": "example/vote.sol:Vote",
						"label": "proposalC",
						"offset": 0,
						"slot": "4",
						"type": "t_uint256"
					}
				],
				"types": {
					"t_address": {
						"encoding": "inplace",
						"label": "address",
						"numberOfBytes": "20"
					},
					"t_bool": {
						"encoding": "inplace",
						"label": "bool",
						"numberOfBytes": "1"
					},
					"t_mapping(t_address,t_bool)": {
						"encoding": "mapping",
						"key": "t_address",
						"label": "mapping(address => bool)",
						"numberOfBytes": "32",
						"value": "t_bool"
					},
					"t_uint256": {
						"encoding": "inplace",
						"label": "uint256",
						"numberOfBytes": "32"
					}
				}
			},
			"userdoc": {
				"kind": "user",
				"methods": {},
				"version": 1
			}
		}
	}
}